Component: ARM Compiler 5.06 update 7 (build 960) Tool: armlink [4d3601]

==============================================================================

Section Cross References

    detect_task.o(i.Detect_Task) refers to keyboard.o(i.Keyboard_Info_Update) for Keyboard_Info_Update
    detect_task.o(i.Detect_Task) refers to bsp_buzzer.o(i.updateMusicPlayer) for updateMusicPlayer
    detect_task.o(i.Detect_Task) refers to cmsis_os.o(i.osDelay) for osDelay
    detect_task.o(i.Detect_Task) refers to keyboard.o(.bss) for KeyBoard_Info
    detect_task.o(i.Detect_Task) refers to bsp_buzzer.o(.bss) for music_player
    ins_task.o(i.BMI088_Temp_Control) refers to pid.o(i.f_PID_Calculate) for f_PID_Calculate
    ins_task.o(i.BMI088_Temp_Control) refers to bsp_tim.o(i.Heat_Power_Control) for Heat_Power_Control
    ins_task.o(i.BMI088_Temp_Control) refers to ins_task.o(.bss) for TempCtrl_PID
    ins_task.o(i.INSTask_Init) refers to lpf.o(i.LowPassFilter2p_Init) for LowPassFilter2p_Init
    ins_task.o(i.INSTask_Init) refers to pid.o(i.PID_Init) for PID_Init
    ins_task.o(i.INSTask_Init) refers to quaternion.o(i.QuaternionEKF_Init) for QuaternionEKF_Init
    ins_task.o(i.INSTask_Init) refers to ins_task.o(.data) for INS_LPF2p_Alpha
    ins_task.o(i.INSTask_Init) refers to ins_task.o(.bss) for INS_AcceLPF2p
    ins_task.o(i.INS_Task) refers to ins_task.o(i.INSTask_Init) for INSTask_Init
    ins_task.o(i.INS_Task) refers to cmsis_os.o(i.osKernelSysTick) for osKernelSysTick
    ins_task.o(i.INS_Task) refers to bmi088.o(i.BMI088_Info_Update) for BMI088_Info_Update
    ins_task.o(i.INS_Task) refers to lpf.o(i.LowPassFilter2p_Update) for LowPassFilter2p_Update
    ins_task.o(i.INS_Task) refers to quaternion.o(i.QuaternionEKF_Update) for QuaternionEKF_Update
==============================================================================

Removing Unused input sections from the image.

    Removing detect_task.o(.rev16_text), (4 bytes).
    Removing detect_task.o(.revsh_text), (4 bytes).
    Removing detect_task.o(.rrx_text), (6 bytes).
    Removing ins_task.o(.rev16_text), (4 bytes).
    Removing ins_task.o(.revsh_text), (4 bytes).
    Removing ins_task.o(.rrx_text), (6 bytes).
    Removing motion_task.o(.rev16_text), (4 bytes).
    Removing motion_task.o(.revsh_text), (4 bytes).
    Removing motion_task.o(.rrx_text), (6 bytes).
    Removing shoot_task.o(.rev16_text), (4 bytes).
    Removing shoot_task.o(.revsh_text), (4 bytes).
    Removing shoot_task.o(.rrx_text), (6 bytes).
    Removing shoot_task.o(i.updateTriggerLoadingFSM), (80 bytes).
    Removing shoot_task.o(i.updateTriggerStuckFSM), (140 bytes).
    Removing comm_task.o(.rev16_text), (4 bytes).
    Removing comm_task.o(.revsh_text), (4 bytes).
    Removing comm_task.o(.rrx_text), (6 bytes).
    Removing comm_task.o(i.f_Decel_Ramp), (100 bytes).
==============================================================================

Image Symbol Table

    Local Symbols

    Symbol Name                              Value     Ov Type        Size  Object(Section)

    ../Core/Src/can.c                        0x00000000   Number         0  can.o ABSOLUTE
    ../Core/Src/dma.c                        0x00000000   Number         0  dma.o ABSOLUTE
    ../Core/Src/freertos.c                   0x00000000   Number         0  freertos.o ABSOLUTE
    ../Core/Src/gpio.c                       0x00000000   Number         0  gpio.o ABSOLUTE
    ../Core/Src/main.c                       0x00000000   Number         0  main.o ABSOLUTE
    ../Core/Src/spi.c                        0x00000000   Number         0  spi.o ABSOLUTE
    ../Core/Src/stm32f4xx_hal_msp.c          0x00000000   Number         0  stm32f4xx_hal_msp.o ABSOLUTE
    ../Core/Src/stm32f4xx_hal_timebase_tim.c 0x00000000   Number         0  stm32f4xx_hal_timebase_tim.o ABSOLUTE
    ../Core/Src/stm32f4xx_it.c               0x00000000   Number         0  stm32f4xx_it.o ABSOLUTE
    ../Core/Src/system_stm32f4xx.c           0x00000000   Number         0  system_stm32f4xx.o ABSOLUTE
    ../Core/Src/tim.c                        0x00000000   Number         0  tim.o ABSOLUTE
    ../Core/Src/usart.c                      0x00000000   Number         0  usart.o ABSOLUTE
    ../Drivers/STM32F4xx_HAL_Driver/Src/stm32f4xx_hal.c 0x00000000   Number         0  stm32f4xx_hal.o ABSOLUTE
    ../Drivers/STM32F4xx_HAL_Driver/Src/stm32f4xx_hal_can.c 0x00000000   Number         0  stm32f4xx_hal_can.o ABSOLUTE
    ../Drivers/STM32F4xx_HAL_Driver/Src/stm32f4xx_hal_cortex.c 0x00000000   Number         0  stm32f4xx_hal_cortex.o ABSOLUTE
    ../Drivers/STM32F4xx_HAL_Driver/Src/stm32f4xx_hal_dma.c 0x00000000   Number         0  stm32f4xx_hal_dma.o ABSOLUTE
    ../Drivers/STM32F4xx_HAL_Driver/Src/stm32f4xx_hal_dma_ex.c 0x00000000   Number         0  stm32f4xx_hal_dma_ex.o ABSOLUTE
    ../Drivers/STM32F4xx_HAL_Driver/Src/stm32f4xx_hal_exti.c 0x00000000   Number         0  stm32f4xx_hal_exti.o ABSOLUTE
    ../Drivers/STM32F4xx_HAL_Driver/Src/stm32f4xx_hal_flash.c 0x00000000   Number         0  stm32f4xx_hal_flash.o ABSOLUTE
    ../Drivers/STM32F4xx_HAL_Driver/Src/stm32f4xx_hal_flash_ex.c 0x00000000   Number         0  stm32f4xx_hal_flash_ex.o ABSOLUTE
    ../Drivers/STM32F4xx_HAL_Driver/Src/stm32f4xx_hal_flash_ramfunc.c 0x00000000   Number         0  stm32f4xx_hal_flash_ramfunc.o ABSOLUTE
    ../Drivers/STM32F4xx_HAL_Driver/Src/stm32f4xx_hal_gpio.c 0x00000000   Number         0  stm32f4xx_hal_gpio.o ABSOLUTE
    ../Drivers/STM32F4xx_HAL_Driver/Src/stm32f4xx_hal_pcd.c 0x00000000   Number         0  stm32f4xx_hal_pcd.o ABSOLUTE
    ../Drivers/STM32F4xx_HAL_Driver/Src/stm32f4xx_hal_pcd_ex.c 0x00000000   Number         0  stm32f4xx_hal_pcd_ex.o ABSOLUTE
    ../Drivers/STM32F4xx_HAL_Driver/Src/stm32f4xx_hal_pwr.c 0x00000000   Number         0  stm32f4xx_hal_pwr.o ABSOLUTE
    ../Drivers/STM32F4xx_HAL_Driver/Src/stm32f4xx_hal_pwr_ex.c 0x00000000   Number         0  stm32f4xx_hal_pwr_ex.o ABSOLUTE
    ../Drivers/STM32F4xx_HAL_Driver/Src/stm32f4xx_hal_rcc.c 0x00000000   Number         0  stm32f4xx_hal_rcc.o ABSOLUTE
    ../Drivers/STM32F4xx_HAL_Driver/Src/stm32f4xx_hal_rcc_ex.c 0x00000000   Number         0  stm32f4xx_hal_rcc_ex.o ABSOLUTE
    ../Drivers/STM32F4xx_HAL_Driver/Src/stm32f4xx_hal_spi.c 0x00000000   Number         0  stm32f4xx_hal_spi.o ABSOLUTE
    ../Drivers/STM32F4xx_HAL_Driver/Src/stm32f4xx_hal_tim.c 0x00000000   Number         0  stm32f4xx_hal_tim.o ABSOLUTE
    ../Drivers/STM32F4xx_HAL_Driver/Src/stm32f4xx_hal_tim_ex.c 0x00000000   Number         0  stm32f4xx_hal_tim_ex.o ABSOLUTE
    ../Drivers/STM32F4xx_HAL_Driver/Src/stm32f4xx_hal_uart.c 0x00000000   Number         0  stm32f4xx_hal_uart.o ABSOLUTE
    ../Drivers/STM32F4xx_HAL_Driver/Src/stm32f4xx_ll_usb.c 0x00000000   Number         0  stm32f4xx_ll_usb.o ABSOLUTE
    ../Middlewares/ST/STM32_USB_Device_Library/Class/CDC/Src/usbd_cdc.c 0x00000000   Number         0  usbd_cdc.o ABSOLUTE
    ../Middlewares/ST/STM32_USB_Device_Library/Core/Src/usbd_core.c 0x00000000   Number         0  usbd_core.o ABSOLUTE
    ../Middlewares/ST/STM32_USB_Device_Library/Core/Src/usbd_ctlreq.c 0x00000000   Number         0  usbd_ctlreq.o ABSOLUTE
    ../Middlewares/ST/STM32_USB_Device_Library/Core/Src/usbd_ioreq.c 0x00000000   Number         0  usbd_ioreq.o ABSOLUTE
    ../Middlewares/Third_Party/FreeRTOS/Source/CMSIS_RTOS/cmsis_os.c 0x00000000   Number         0  cmsis_os.o ABSOLUTE
    ../Middlewares/Third_Party/FreeRTOS/Source/croutine.c 0x00000000   Number         0  croutine.o ABSOLUTE
    ../Middlewares/Third_Party/FreeRTOS/Source/event_groups.c 0x00000000   Number         0  event_groups.o ABSOLUTE
    ../Middlewares/Third_Party/FreeRTOS/Source/list.c 0x00000000   Number         0  list.o ABSOLUTE
    ../Middlewares/Third_Party/FreeRTOS/Source/portable/MemMang/heap_4.c 0x00000000   Number         0  heap_4.o ABSOLUTE
    ../Middlewares/Third_Party/FreeRTOS/Source/portable/RVDS/ARM_CM4F/port.c 0x00000000   Number         0  port.o ABSOLUTE
    ../Middlewares/Third_Party/FreeRTOS/Source/queue.c 0x00000000   Number         0  queue.o ABSOLUTE
    ../Middlewares/Third_Party/FreeRTOS/Source/stream_buffer.c 0x00000000   Number         0  stream_buffer.o ABSOLUTE
    ../Middlewares/Third_Party/FreeRTOS/Source/tasks.c 0x00000000   Number         0  tasks.o ABSOLUTE
    ../Middlewares/Third_Party/FreeRTOS/Source/timers.c 0x00000000   Number         0  timers.o ABSOLUTE
    ../USB_DEVICE/App/usb_device.c           0x00000000   Number         0  usb_device.o ABSOLUTE
    ../USB_DEVICE/App/usbd_cdc_if.c          0x00000000   Number         0  usbd_cdc_if.o ABSOLUTE
    ../USB_DEVICE/App/usbd_desc.c            0x00000000   Number         0  usbd_desc.o ABSOLUTE
    ../USB_DEVICE/Target/usbd_conf.c         0x00000000   Number         0  usbd_conf.o ABSOLUTE
    ../clib/angel/boardlib.s                 0x00000000   Number         0  boardshut.o ABSOLUTE
    ../clib/angel/boardlib.s                 0x00000000   Number         0  boardinit1.o ABSOLUTE
    ../clib/angel/boardlib.s                 0x00000000   Number         0  boardinit2.o ABSOLUTE
    ../clib/angel/boardlib.s                 0x00000000   Number         0  boardinit3.o ABSOLUTE
    ../clib/angel/dczerorl2.s                0x00000000   Number         0  __dczerorl2.o ABSOLUTE
    ../clib/angel/handlers.s                 0x00000000   Number         0  __scatter_zi.o ABSOLUTE
    ../clib/angel/kernel.s                   0x00000000   Number         0  __rtentry2.o ABSOLUTE
    ../clib/angel/kernel.s                   0x00000000   Number         0  __rtentry4.o ABSOLUTE
    ../clib/angel/kernel.s                   0x00000000   Number         0  rtexit2.o ABSOLUTE
    ../clib/angel/kernel.s                   0x00000000   Number         0  rtexit.o ABSOLUTE
    ../clib/angel/kernel.s                   0x00000000   Number         0  __rtentry.o ABSOLUTE
    ../clib/angel/rt.s                       0x00000000   Number         0  rt_raise.o ABSOLUTE
    ../clib/angel/rt.s                       0x00000000   Number         0  rt_div0.o ABSOLUTE
    ../clib/angel/rt.s                       0x00000000   Number         0  rt_errno_addr.o ABSOLUTE
    ../clib/angel/rt.s                       0x00000000   Number         0  rt_errno_addr_intlibspace.o ABSOLUTE
    ../clib/angel/rt.s                       0x00000000   Number         0  aeabi_ldiv0_sigfpe.o ABSOLUTE
    ../clib/angel/rt.s                       0x00000000   Number         0  rt_heap_descriptor.o ABSOLUTE
    ../clib/angel/rt.s                       0x00000000   Number         0  rt_heap_descriptor_intlibspace.o ABSOLUTE
    ../clib/angel/rt.s                       0x00000000   Number         0  aeabi_ldiv0.o ABSOLUTE
    ../clib/angel/scatter.s                  0x00000000   Number         0  __scatter.o ABSOLUTE
    ../clib/angel/startup.s                  0x00000000   Number         0  __main.o ABSOLUTE
    ../clib/angel/sys.s                      0x00000000   Number         0  libspace.o ABSOLUTE
    ../clib/angel/sys.s                      0x00000000   Number         0  use_no_semi.o ABSOLUTE
    ../clib/angel/sys.s                      0x00000000   Number         0  indicate_semi.o ABSOLUTE
    ../clib/angel/sys.s                      0x00000000   Number         0  sys_stackheap_outer.o ABSOLUTE
    ../clib/angel/sys.s                      0x00000000   Number         0  mutex_dummy.o ABSOLUTE
    ../clib/angel/sysapp.c                   0x00000000   Number         0  sys_wrch.o ABSOLUTE
    ../clib/angel/sysapp.c                   0x00000000   Number         0  sys_command.o ABSOLUTE
    ../clib/angel/sysapp.c                   0x00000000   Number         0  sys_exit.o ABSOLUTE
    ../clib/armsys.c                         0x00000000   Number         0  argv_veneer.o ABSOLUTE
    ../clib/armsys.c                         0x00000000   Number         0  argv_veneer.o ABSOLUTE
    ../clib/armsys.c                         0x00000000   Number         0  no_argv.o ABSOLUTE
    ../clib/armsys.c                         0x00000000   Number         0  _get_argv_nomalloc.o ABSOLUTE
    ../clib/armsys.c                         0x00000000   Number         0  _get_argv.o ABSOLUTE
    ../clib/fenv.c                           0x00000000   Number         0  _fptrap.o ABSOLUTE
    ../clib/fenv.c                           0x00000000   Number         0  _rserrno.o ABSOLUTE
    ../clib/heap1.c                          0x00000000   Number         0  h1_final_mt.o ABSOLUTE
    ../clib/heap1.c                          0x00000000   Number         0  h1_extend.o ABSOLUTE
    ../clib/heap1.c                          0x00000000   Number         0  h1_alloc_mt.o ABSOLUTE
    ../clib/heap1.c                          0x00000000   Number         0  h1_alloc.o ABSOLUTE
    ../clib/heap1.c                          0x00000000   Number         0  h1_free_mt.o ABSOLUTE
    ../clib/heap1.c                          0x00000000   Number         0  h1_init_mt.o ABSOLUTE
    ../clib/heap1.c                          0x00000000   Number         0  h1_free.o ABSOLUTE
    ../clib/heap1.c                          0x00000000   Number         0  h1_init.o ABSOLUTE
    ../clib/heap1.c                          0x00000000   Number         0  h1_final.o ABSOLUTE
    ../clib/heap1.c                          0x00000000   Number         0  h1_extend_mt.o ABSOLUTE
    ../clib/heap2.c                          0x00000000   Number         0  fdtree.o ABSOLUTE
    ../clib/heap2.c                          0x00000000   Number         0  heap2mt.o ABSOLUTE
    ../clib/heap2.c                          0x00000000   Number         0  heap2.o ABSOLUTE
    ../clib/heapalloc.c                      0x00000000   Number         0  term_alloc.o ABSOLUTE
    ../clib/heapalloc.c                      0x00000000   Number         0  malloc.o ABSOLUTE
    ../clib/heapalloc.c                      0x00000000   Number         0  maybetermalloc2.o ABSOLUTE
    ../clib/heapalloc.c                      0x00000000   Number         0  maybetermalloc2.o ABSOLUTE
    ../clib/heapalloc.c                      0x00000000   Number         0  maybetermalloc1.o ABSOLUTE
    ../clib/heapalloc.c                      0x00000000   Number         0  maybetermalloc1.o ABSOLUTE
    ../clib/heapalloc.c                      0x00000000   Number         0  free.o ABSOLUTE
    ../clib/heapalloc.c                      0x00000000   Number         0  hrguard.o ABSOLUTE
    ../clib/heapalloc.c                      0x00000000   Number         0  heapstubs.o ABSOLUTE
    ../clib/heapalloc.c                      0x00000000   Number         0  hguard.o ABSOLUTE
    ../clib/heapalloc.c                      0x00000000   Number         0  init_alloc.o ABSOLUTE
    ../clib/heapaux.c                        0x00000000   Number         0  heapauxi.o ABSOLUTE
    ../clib/heapaux.c                        0x00000000   Number         0  heapauxa.o ABSOLUTE
    ../clib/libinit.s                        0x00000000   Number         0  libinit.o ABSOLUTE
    ../clib/libinit.s                        0x00000000   Number         0  libinit2.o ABSOLUTE
    ../clib/libinit.s                        0x00000000   Number         0  libshutdown.o ABSOLUTE
    ../clib/libinit.s                        0x00000000   Number         0  libshutdown2.o ABSOLUTE
    ../clib/longlong.s                       0x00000000   Number         0  lludivv7m.o ABSOLUTE
    ../clib/memcpset.s                       0x00000000   Number         0  rt_memcpy_w.o ABSOLUTE
    ../clib/memcpset.s                       0x00000000   Number         0  rt_memclr_w.o ABSOLUTE
    ../clib/memcpset.s                       0x00000000   Number         0  rt_memclr.o ABSOLUTE
    ../clib/memcpset.s                       0x00000000   Number         0  rt_memcpy_v6.o ABSOLUTE
    ../clib/memcpset.s                       0x00000000   Number         0  aeabi_memset.o ABSOLUTE
    ../clib/memcpset.s                       0x00000000   Number         0  memset.o ABSOLUTE
    ../clib/signal.c                         0x00000000   Number         0  defsig_rtmem_inner.o ABSOLUTE
    ../clib/signal.c                         0x00000000   Number         0  defsig_fpe_inner.o ABSOLUTE
    ../clib/signal.c                         0x00000000   Number         0  defsig_fpe_outer.o ABSOLUTE
    ../clib/signal.c                         0x00000000   Number         0  defsig_abrt_inner.o ABSOLUTE
    ../clib/signal.c                         0x00000000   Number         0  defsig_exit.o ABSOLUTE
    ../clib/signal.c                         0x00000000   Number         0  defsig_rtred_inner.o ABSOLUTE
    ../clib/signal.c                         0x00000000   Number         0  defsig_fpe_formal.o ABSOLUTE
    ../clib/signal.c                         0x00000000   Number         0  defsig_segv_inner.o ABSOLUTE
    ../clib/signal.c                         0x00000000   Number         0  defsig_stak_inner.o ABSOLUTE
    ../clib/signal.c                         0x00000000   Number         0  defsig_pvfn_inner.o ABSOLUTE
    ../clib/signal.c                         0x00000000   Number         0  defsig_general.o ABSOLUTE
    ../clib/signal.c                         0x00000000   Number         0  defsig_rtmem_formal.o ABSOLUTE
    ../clib/signal.c                         0x00000000   Number         0  __raise.o ABSOLUTE
    ../clib/signal.c                         0x00000000   Number         0  defsig_rtmem_outer.o ABSOLUTE
    ../clib/signal.c                         0x00000000   Number         0  defsig_cppl_inner.o ABSOLUTE
    ../clib/signal.c                         0x00000000   Number         0  defsig_other.o ABSOLUTE
    ../clib/signal.s                         0x00000000   Number         0  defsig.o ABSOLUTE
    ../clib/stdlib.c                         0x00000000   Number         0  exit.o ABSOLUTE
    ../clib/string.c                         0x00000000   Number         0  strlen.o ABSOLUTE
    ../fplib/basic.s                         0x00000000   Number         0  basic.o ABSOLUTE
    ../fplib/d2f.s                           0x00000000   Number         0  d2f_clz.o ABSOLUTE
    ../fplib/daddsub.s                       0x00000000   Number         0  daddsub_clz.o ABSOLUTE
    ../fplib/dcheck1.s                       0x00000000   Number         0  dcheck1.o ABSOLUTE
    ../fplib/dcmpi.s                         0x00000000   Number         0  dcmpi.o ABSOLUTE
    ../fplib/ddiv.s                          0x00000000   Number         0  ddiv_clz.o ABSOLUTE
    ../fplib/dflt.s                          0x00000000   Number         0  dflt_clz.o ABSOLUTE
    ../fplib/dleqf.s                         0x00000000   Number         0  dleqf.o ABSOLUTE
    ../fplib/dmul.s                          0x00000000   Number         0  dmul_clz.o ABSOLUTE
    ../fplib/dnaninf.s                       0x00000000   Number         0  dnaninf.o ABSOLUTE
    ../fplib/drenorm.s                       0x00000000   Number         0  drenorm_clz.o ABSOLUTE
    ../fplib/dretinf.s                       0x00000000   Number         0  dretinf.o ABSOLUTE
    ../fplib/drleqf.s                        0x00000000   Number         0  drleqf.o ABSOLUTE
    ../fplib/dsqrt.s                         0x00000000   Number         0  dsqrt_umaalclz.o ABSOLUTE
    ../fplib/dunder.s                        0x00000000   Number         0  dunder_clz.o ABSOLUTE
    ../fplib/except.s                        0x00000000   Number         0  except.o ABSOLUTE
    ../fplib/f2d.s                           0x00000000   Number         0  f2d.o ABSOLUTE
    ../fplib/fnaninf.s                       0x00000000   Number         0  fnaninf.o ABSOLUTE
    ../fplib/fnorm2.s                        0x00000000   Number         0  fnorm2_clz.o ABSOLUTE
    ../fplib/fpinit.s                        0x00000000   Number         0  fpinit.o ABSOLUTE
    ../fplib/frem.s                          0x00000000   Number         0  frem_clz.o ABSOLUTE
    ../fplib/fretinf.s                       0x00000000   Number         0  fretinf.o ABSOLUTE
    ../fplib/funder.s                        0x00000000   Number         0  funder_clz.o ABSOLUTE
    ../fplib/retnan.s                        0x00000000   Number         0  retnan.o ABSOLUTE
    ../fplib/scalbn.s                        0x00000000   Number         0  scalbn_clz.o ABSOLUTE
    ../fplib/trapv.s                         0x00000000   Number         0  trapv.o ABSOLUTE
    ../fplib/usenofp.s                       0x00000000   Number         0  usenofp.o ABSOLUTE
    ../mathlib/acosf.c                       0x00000000   Number         0  acosf_x.o ABSOLUTE
    ../mathlib/acosf.c                       0x00000000   Number         0  acosf.o ABSOLUTE
    ../mathlib/asinf.c                       0x00000000   Number         0  asinf.o ABSOLUTE
    ../mathlib/asinf.c                       0x00000000   Number         0  asinf_x.o ABSOLUTE
    ../mathlib/atan2f.c                      0x00000000   Number         0  atan2f.o ABSOLUTE
    ../mathlib/atan2f.c                      0x00000000   Number         0  atan2f_x.o ABSOLUTE
    ../mathlib/dunder.c                      0x00000000   Number         0  dunder.o ABSOLUTE
    ../mathlib/fabs.c                        0x00000000   Number         0  fabs.o ABSOLUTE
    ../mathlib/fmodf.c                       0x00000000   Number         0  fmodf.o ABSOLUTE
    ../mathlib/fmodf.c                       0x00000000   Number         0  fmodf_x.o ABSOLUTE
    ../mathlib/fpclassify.c                  0x00000000   Number         0  fpclassify.o ABSOLUTE
    ../mathlib/fpclassifyf.c                 0x00000000   Number         0  fpclassifyf.o ABSOLUTE
    ../mathlib/funder.c                      0x00000000   Number         0  funder.o ABSOLUTE
    ../mathlib/poly.c                        0x00000000   Number         0  poly.o ABSOLUTE
    ../mathlib/pow.c                         0x00000000   Number         0  pow.o ABSOLUTE
    ../mathlib/pow.c                         0x00000000   Number         0  pow_x.o ABSOLUTE
    ../mathlib/qnan.c                        0x00000000   Number         0  qnan.o ABSOLUTE
    ../mathlib/sqrt.c                        0x00000000   Number         0  sqrt_full.o ABSOLUTE
    ../mathlib/sqrt.c                        0x00000000   Number         0  sqrt_full_x.o ABSOLUTE
    ../mathlib/sqrtf.c                       0x00000000   Number         0  sqrtf_full.o ABSOLUTE
    ../mathlib/sqrtf.c                       0x00000000   Number         0  sqrtf_full_x.o ABSOLUTE
    ..\..\Source\MatrixFunctions\arm_mat_add_f32.c 0x00000000   Number         0  arm_mat_add_f32.o ABSOLUTE
    ..\..\Source\MatrixFunctions\arm_mat_init_f32.c 0x00000000   Number         0  arm_mat_init_f32.o ABSOLUTE
    ..\..\Source\MatrixFunctions\arm_mat_inverse_f32.c 0x00000000   Number         0  arm_mat_inverse_f32.o ABSOLUTE
    ..\..\Source\MatrixFunctions\arm_mat_mult_f32.c 0x00000000   Number         0  arm_mat_mult_f32.o ABSOLUTE
    ..\..\Source\MatrixFunctions\arm_mat_sub_f32.c 0x00000000   Number         0  arm_mat_sub_f32.o ABSOLUTE
    ..\..\Source\MatrixFunctions\arm_mat_trans_f32.c 0x00000000   Number         0  arm_mat_trans_f32.o ABSOLUTE
    ..\Application\Tasks\Src\COMM_Task.c     0x00000000   Number         0  comm_task.o ABSOLUTE
    ..\Application\Tasks\Src\Detect_Task.c   0x00000000   Number         0  detect_task.o ABSOLUTE
    ..\Application\Tasks\Src\INS_Task.c      0x00000000   Number         0  ins_task.o ABSOLUTE
    ..\Application\Tasks\Src\Motion_Task.c   0x00000000   Number         0  motion_task.o ABSOLUTE
    ..\Application\Tasks\Src\Shoot_Task.c    0x00000000   Number         0  shoot_task.o ABSOLUTE
    ..\Bsp\Src\bsp_buzzer.c                  0x00000000   Number         0  bsp_buzzer.o ABSOLUTE
    ..\Bsp\Src\bsp_can.c                     0x00000000   Number         0  bsp_can.o ABSOLUTE
    ..\Bsp\Src\bsp_dwt.c                     0x00000000   Number         0  bsp_dwt.o ABSOLUTE
    ..\Bsp\Src\bsp_gpio.c                    0x00000000   Number         0  bsp_gpio.o ABSOLUTE
    ..\Bsp\Src\bsp_mcu.c                     0x00000000   Number         0  bsp_mcu.o ABSOLUTE
    ..\Bsp\Src\bsp_spi.c                     0x00000000   Number         0  bsp_spi.o ABSOLUTE
    ..\Bsp\Src\bsp_tick.c                    0x00000000   Number         0  bsp_tick.o ABSOLUTE
    ..\Bsp\Src\bsp_tim.c                     0x00000000   Number         0  bsp_tim.o ABSOLUTE
    ..\Bsp\Src\bsp_uart.c                    0x00000000   Number         0  bsp_uart.o ABSOLUTE
    ..\Components\Algorithm\Src\crc.c        0x00000000   Number         0  crc.o ABSOLUTE
    ..\Components\Algorithm\Src\kalman.c     0x00000000   Number         0  kalman.o ABSOLUTE
    ..\Components\Algorithm\Src\lpf.c        0x00000000   Number         0  lpf.o ABSOLUTE
    ..\Components\Algorithm\Src\quaternion.c 0x00000000   Number         0  quaternion.o ABSOLUTE
    ..\Components\Algorithm\Src\ramp.c       0x00000000   Number         0  ramp.o ABSOLUTE
    ..\Components\Controller\Src\pid.c       0x00000000   Number         0  pid.o ABSOLUTE
    ..\Components\Device\Src\bmi088.c        0x00000000   Number         0  bmi088.o ABSOLUTE
    ..\Components\Device\Src\image_transmission.c 0x00000000   Number         0  image_transmission.o ABSOLUTE
    ..\Components\Device\Src\keyboard.c      0x00000000   Number         0  keyboard.o ABSOLUTE
    ..\Components\Device\Src\minipc.c        0x00000000   Number         0  minipc.o ABSOLUTE
    ..\Components\Device\Src\motor.c         0x00000000   Number         0  motor.o ABSOLUTE
    ..\Components\Device\Src\remote_control.c 0x00000000   Number         0  remote_control.o ABSOLUTE
    ..\Core\Src\can.c                        0x00000000   Number         0  can.o ABSOLUTE
    ..\Core\Src\dma.c                        0x00000000   Number         0  dma.o ABSOLUTE
    ..\Core\Src\freertos.c                   0x00000000   Number         0  freertos.o ABSOLUTE
    ..\Core\Src\gpio.c                       0x00000000   Number         0  gpio.o ABSOLUTE
    ..\Core\Src\main.c                       0x00000000   Number         0  main.o ABSOLUTE
    ..\Core\Src\spi.c                        0x00000000   Number         0  spi.o ABSOLUTE
    ..\Core\Src\stm32f4xx_hal_msp.c          0x00000000   Number         0  stm32f4xx_hal_msp.o ABSOLUTE
    ..\Core\Src\stm32f4xx_hal_timebase_tim.c 0x00000000   Number         0  stm32f4xx_hal_timebase_tim.o ABSOLUTE
    ..\Core\Src\stm32f4xx_it.c               0x00000000   Number         0  stm32f4xx_it.o ABSOLUTE
    ..\Core\Src\system_stm32f4xx.c           0x00000000   Number         0  system_stm32f4xx.o ABSOLUTE
    ..\Core\Src\tim.c                        0x00000000   Number         0  tim.o ABSOLUTE
    ..\Core\Src\usart.c                      0x00000000   Number         0  usart.o ABSOLUTE
    ..\Drivers\STM32F4xx_HAL_Driver\Src\stm32f4xx_hal.c 0x00000000   Number         0  stm32f4xx_hal.o ABSOLUTE
    ..\Drivers\STM32F4xx_HAL_Driver\Src\stm32f4xx_hal_can.c 0x00000000   Number         0  stm32f4xx_hal_can.o ABSOLUTE
    ..\Drivers\STM32F4xx_HAL_Driver\Src\stm32f4xx_hal_cortex.c 0x00000000   Number         0  stm32f4xx_hal_cortex.o ABSOLUTE
    ..\Drivers\STM32F4xx_HAL_Driver\Src\stm32f4xx_hal_dma.c 0x00000000   Number         0  stm32f4xx_hal_dma.o ABSOLUTE
    ..\Drivers\STM32F4xx_HAL_Driver\Src\stm32f4xx_hal_dma_ex.c 0x00000000   Number         0  stm32f4xx_hal_dma_ex.o ABSOLUTE
    ..\Drivers\STM32F4xx_HAL_Driver\Src\stm32f4xx_hal_exti.c 0x00000000   Number         0  stm32f4xx_hal_exti.o ABSOLUTE
    ..\Drivers\STM32F4xx_HAL_Driver\Src\stm32f4xx_hal_flash.c 0x00000000   Number         0  stm32f4xx_hal_flash.o ABSOLUTE
    ..\Drivers\STM32F4xx_HAL_Driver\Src\stm32f4xx_hal_flash_ex.c 0x00000000   Number         0  stm32f4xx_hal_flash_ex.o ABSOLUTE
    ..\Drivers\STM32F4xx_HAL_Driver\Src\stm32f4xx_hal_flash_ramfunc.c 0x00000000   Number         0  stm32f4xx_hal_flash_ramfunc.o ABSOLUTE
    ..\Drivers\STM32F4xx_HAL_Driver\Src\stm32f4xx_hal_gpio.c 0x00000000   Number         0  stm32f4xx_hal_gpio.o ABSOLUTE
    ..\Drivers\STM32F4xx_HAL_Driver\Src\stm32f4xx_hal_pcd.c 0x00000000   Number         0  stm32f4xx_hal_pcd.o ABSOLUTE
    ..\Drivers\STM32F4xx_HAL_Driver\Src\stm32f4xx_hal_pcd_ex.c 0x00000000   Number         0  stm32f4xx_hal_pcd_ex.o ABSOLUTE
    ..\Drivers\STM32F4xx_HAL_Driver\Src\stm32f4xx_hal_pwr.c 0x00000000   Number         0  stm32f4xx_hal_pwr.o ABSOLUTE
    ..\Drivers\STM32F4xx_HAL_Driver\Src\stm32f4xx_hal_pwr_ex.c 0x00000000   Number         0  stm32f4xx_hal_pwr_ex.o ABSOLUTE
    ..\Drivers\STM32F4xx_HAL_Driver\Src\stm32f4xx_hal_rcc.c 0x00000000   Number         0  stm32f4xx_hal_rcc.o ABSOLUTE
    ..\Drivers\STM32F4xx_HAL_Driver\Src\stm32f4xx_hal_rcc_ex.c 0x00000000   Number         0  stm32f4xx_hal_rcc_ex.o ABSOLUTE
    ..\Drivers\STM32F4xx_HAL_Driver\Src\stm32f4xx_hal_spi.c 0x00000000   Number         0  stm32f4xx_hal_spi.o ABSOLUTE
    ..\Drivers\STM32F4xx_HAL_Driver\Src\stm32f4xx_hal_tim.c 0x00000000   Number         0  stm32f4xx_hal_tim.o ABSOLUTE
    ..\Drivers\STM32F4xx_HAL_Driver\Src\stm32f4xx_hal_tim_ex.c 0x00000000   Number         0  stm32f4xx_hal_tim_ex.o ABSOLUTE
    ..\Drivers\STM32F4xx_HAL_Driver\Src\stm32f4xx_hal_uart.c 0x00000000   Number         0  stm32f4xx_hal_uart.o ABSOLUTE
    ..\Drivers\STM32F4xx_HAL_Driver\Src\stm32f4xx_ll_usb.c 0x00000000   Number         0  stm32f4xx_ll_usb.o ABSOLUTE
    ..\Middlewares\ST\STM32_USB_Device_Library\Class\CDC\Src\usbd_cdc.c 0x00000000   Number         0  usbd_cdc.o ABSOLUTE
    ..\Middlewares\ST\STM32_USB_Device_Library\Core\Src\usbd_core.c 0x00000000   Number         0  usbd_core.o ABSOLUTE
    ..\Middlewares\ST\STM32_USB_Device_Library\Core\Src\usbd_ctlreq.c 0x00000000   Number         0  usbd_ctlreq.o ABSOLUTE
    ..\Middlewares\ST\STM32_USB_Device_Library\Core\Src\usbd_ioreq.c 0x00000000   Number         0  usbd_ioreq.o ABSOLUTE
    ..\Middlewares\Third_Party\FreeRTOS\Source\CMSIS_RTOS\cmsis_os.c 0x00000000   Number         0  cmsis_os.o ABSOLUTE
    ..\Middlewares\Third_Party\FreeRTOS\Source\portable\RVDS\ARM_CM4F\port.c 0x00000000   Number         0  port.o ABSOLUTE
    ..\USB_DEVICE\App\usb_device.c           0x00000000   Number         0  usb_device.o ABSOLUTE
    ..\USB_DEVICE\App\usbd_cdc_if.c          0x00000000   Number         0  usbd_cdc_if.o ABSOLUTE
    ..\USB_DEVICE\App\usbd_desc.c            0x00000000   Number         0  usbd_desc.o ABSOLUTE
    ..\USB_DEVICE\Target\usbd_conf.c         0x00000000   Number         0  usbd_conf.o ABSOLUTE
    ..\\..\\Source\\MatrixFunctions\\arm_mat_add_f32.c 0x00000000   Number         0  arm_mat_add_f32.o ABSOLUTE
    ..\\..\\Source\\MatrixFunctions\\arm_mat_init_f32.c 0x00000000   Number         0  arm_mat_init_f32.o ABSOLUTE
    ..\\..\\Source\\MatrixFunctions\\arm_mat_inverse_f32.c 0x00000000   Number         0  arm_mat_inverse_f32.o ABSOLUTE
    ..\\..\\Source\\MatrixFunctions\\arm_mat_mult_f32.c 0x00000000   Number         0  arm_mat_mult_f32.o ABSOLUTE
    ..\\..\\Source\\MatrixFunctions\\arm_mat_sub_f32.c 0x00000000   Number         0  arm_mat_sub_f32.o ABSOLUTE
    ..\\..\\Source\\MatrixFunctions\\arm_mat_trans_f32.c 0x00000000   Number         0  arm_mat_trans_f32.o ABSOLUTE
    ..\\Application\\Tasks\\Src\\COMM_Task.c 0x00000000   Number         0  comm_task.o ABSOLUTE
    ..\\Application\\Tasks\\Src\\Detect_Task.c 0x00000000   Number         0  detect_task.o ABSOLUTE
    ..\\Application\\Tasks\\Src\\INS_Task.c  0x00000000   Number         0  ins_task.o ABSOLUTE
    ..\\Application\\Tasks\\Src\\Motion_Task.c 0x00000000   Number         0  motion_task.o ABSOLUTE
    ..\\Application\\Tasks\\Src\\Shoot_Task.c 0x00000000   Number         0  shoot_task.o ABSOLUTE
    ..\\Bsp\\Src\\bsp_buzzer.c               0x00000000   Number         0  bsp_buzzer.o ABSOLUTE
    ..\\Bsp\\Src\\bsp_can.c                  0x00000000   Number         0  bsp_can.o ABSOLUTE
    ..\\Bsp\\Src\\bsp_dwt.c                  0x00000000   Number         0  bsp_dwt.o ABSOLUTE
    ..\\Bsp\\Src\\bsp_gpio.c                 0x00000000   Number         0  bsp_gpio.o ABSOLUTE
    ..\\Bsp\\Src\\bsp_mcu.c                  0x00000000   Number         0  bsp_mcu.o ABSOLUTE
    ..\\Bsp\\Src\\bsp_spi.c                  0x00000000   Number         0  bsp_spi.o ABSOLUTE
    ..\\Bsp\\Src\\bsp_tick.c                 0x00000000   Number         0  bsp_tick.o ABSOLUTE
    ..\\Bsp\\Src\\bsp_tim.c                  0x00000000   Number         0  bsp_tim.o ABSOLUTE
    ..\\Bsp\\Src\\bsp_uart.c                 0x00000000   Number         0  bsp_uart.o ABSOLUTE
    ..\\Components\\Algorithm\\Src\\kalman.c 0x00000000   Number         0  kalman.o ABSOLUTE
    ..\\Components\\Algorithm\\Src\\quaternion.c 0x00000000   Number         0  quaternion.o ABSOLUTE
    ..\\Components\\Device\\Src\\image_transmission.c 0x00000000   Number         0  image_transmission.o ABSOLUTE
    ..\\Components\\Device\\Src\\minipc.c    0x00000000   Number         0  minipc.o ABSOLUTE
    ..\\Components\\Device\\Src\\motor.c     0x00000000   Number         0  motor.o ABSOLUTE
    dc.s                                     0x00000000   Number         0  dc.o ABSOLUTE
    startup_stm32f407xx.s                    0x00000000   Number         0  startup_stm32f407xx.o ABSOLUTE
    RESET                                    0x08000000   Section      392  startup_stm32f407xx.o(RESET)
    !!!main                                  0x08000188   Section        8  __main.o(!!!main)
    !!!scatter                               0x08000190   Section       52  __scatter.o(!!!scatter)
    !!dczerorl2                              0x080001c4   Section       90  __dczerorl2.o(!!dczerorl2)
    !!handler_zi                             0x08000220   Section       28  __scatter_zi.o(!!handler_zi)
    .ARM.Collect$$libinit$$00000000          0x0800023c   Section        2  libinit.o(.ARM.Collect$$libinit$$00000000)
    .ARM.Collect$$libinit$$00000001          0x0800023e   Section        4  libinit2.o(.ARM.Collect$$libinit$$00000001)
    .ARM.Collect$$libinit$$00000004          0x08000242   Section        0  libinit2.o(.ARM.Collect$$libinit$$00000004)
    .ARM.Collect$$libinit$$00000005          0x08000242   Section        8  libinit2.o(.ARM.Collect$$libinit$$00000005)
    .ARM.Collect$$libinit$$0000000A          0x0800024a   Section        0  libinit2.o(.ARM.Collect$$libinit$$0000000A)
    .ARM.Collect$$libinit$$0000000C          0x0800024a   Section        0  libinit2.o(.ARM.Collect$$libinit$$0000000C)
    .ARM.Collect$$libinit$$0000000E          0x0800024a   Section        0  libinit2.o(.ARM.Collect$$libinit$$0000000E)
    .ARM.Collect$$libinit$$00000011          0x0800024a   Section        0  libinit2.o(.ARM.Collect$$libinit$$00000011)
    .ARM.Collect$$libinit$$00000013          0x0800024a   Section        0  libinit2.o(.ARM.Collect$$libinit$$00000013)
    .ARM.Collect$$libinit$$00000015          0x0800024a   Section        0  libinit2.o(.ARM.Collect$$libinit$$00000015)
    .ARM.Collect$$libinit$$00000017          0x0800024a   Section        0  libinit2.o(.ARM.Collect$$libinit$$00000017)
    .ARM.Collect$$libinit$$00000019          0x0800024a   Section        0  libinit2.o(.ARM.Collect$$libinit$$00000019)
    .ARM.Collect$$libinit$$0000001B          0x0800024a   Section        0  libinit2.o(.ARM.Collect$$libinit$$0000001B)
    .ARM.Collect$$libinit$$0000001D          0x0800024a   Section        0  libinit2.o(.ARM.Collect$$libinit$$0000001D)
    .ARM.Collect$$libinit$$0000001F          0x0800024a   Section        0  libinit2.o(.ARM.Collect$$libinit$$0000001F)
    .ARM.Collect$$libinit$$00000021          0x0800024a   Section        0  libinit2.o(.ARM.Collect$$libinit$$00000021)
    .ARM.Collect$$libinit$$00000023          0x0800024a   Section        0  libinit2.o(.ARM.Collect$$libinit$$00000023)
    .ARM.Collect$$libinit$$00000025          0x0800024a   Section        0  libinit2.o(.ARM.Collect$$libinit$$00000025)
    .ARM.Collect$$libinit$$0000002C          0x0800024a   Section        0  libinit2.o(.ARM.Collect$$libinit$$0000002C)
    .ARM.Collect$$libinit$$0000002E          0x0800024a   Section        0  libinit2.o(.ARM.Collect$$libinit$$0000002E)
    .ARM.Collect$$libinit$$00000030          0x0800024a   Section        0  libinit2.o(.ARM.Collect$$libinit$$00000030)
    .ARM.Collect$$libinit$$00000032          0x0800024a   Section        0  libinit2.o(.ARM.Collect$$libinit$$00000032)
    .ARM.Collect$$libinit$$00000033          0x0800024a   Section        2  libinit2.o(.ARM.Collect$$libinit$$00000033)
    .ARM.Collect$$libshutdown$$00000000      0x0800024c   Section        2  libshutdown.o(.ARM.Collect$$libshutdown$$00000000)
    .ARM.Collect$$libshutdown$$00000002      0x0800024e   Section        0  libshutdown2.o(.ARM.Collect$$libshutdown$$00000002)
    .ARM.Collect$$libshutdown$$00000004      0x0800024e   Section        0  libshutdown2.o(.ARM.Collect$$libshutdown$$00000004)
    .ARM.Collect$$libshutdown$$00000006      0x0800024e   Section        0  libshutdown2.o(.ARM.Collect$$libshutdown$$00000006)
    .ARM.Collect$$libshutdown$$00000009      0x0800024e   Section        0  libshutdown2.o(.ARM.Collect$$libshutdown$$00000009)
    .ARM.Collect$$libshutdown$$0000000C      0x0800024e   Section        0  libshutdown2.o(.ARM.Collect$$libshutdown$$0000000C)
    .ARM.Collect$$libshutdown$$0000000E      0x0800024e   Section        0  libshutdown2.o(.ARM.Collect$$libshutdown$$0000000E)
    .ARM.Collect$$libshutdown$$00000011      0x0800024e   Section        0  libshutdown2.o(.ARM.Collect$$libshutdown$$00000011)
    .ARM.Collect$$libshutdown$$00000012      0x0800024e   Section        2  libshutdown2.o(.ARM.Collect$$libshutdown$$00000012)
    .ARM.Collect$$rtentry$$00000000          0x08000250   Section        0  __rtentry.o(.ARM.Collect$$rtentry$$00000000)
    .ARM.Collect$$rtentry$$00000002          0x08000250   Section        0  __rtentry2.o(.ARM.Collect$$rtentry$$00000002)
    .ARM.Collect$$rtentry$$00000004          0x08000250   Section        6  __rtentry4.o(.ARM.Collect$$rtentry$$00000004)
    .ARM.Collect$$rtentry$$00000009          0x08000256   Section        0  __rtentry2.o(.ARM.Collect$$rtentry$$00000009)
    .ARM.Collect$$rtentry$$0000000A          0x08000256   Section        4  __rtentry2.o(.ARM.Collect$$rtentry$$0000000A)
    .ARM.Collect$$rtentry$$0000000C          0x0800025a   Section        0  __rtentry2.o(.ARM.Collect$$rtentry$$0000000C)
    .ARM.Collect$$rtentry$$0000000D          0x0800025a   Section        8  __rtentry2.o(.ARM.Collect$$rtentry$$0000000D)
    .ARM.Collect$$rtexit$$00000000           0x08000262   Section        2  rtexit.o(.ARM.Collect$$rtexit$$00000000)
    .ARM.Collect$$rtexit$$00000002           0x08000264   Section        0  rtexit2.o(.ARM.Collect$$rtexit$$00000002)
    .ARM.Collect$$rtexit$$00000003           0x08000264   Section        4  rtexit2.o(.ARM.Collect$$rtexit$$00000003)
    .ARM.Collect$$rtexit$$00000004           0x08000268   Section        6  rtexit2.o(.ARM.Collect$$rtexit$$00000004)
    .emb_text                                0x08000270   Section      190  port.o(.emb_text)
    $v0                                      0x08000270   Number         0  port.o(.emb_text)
    .emb_text                                0x08000330   Section        0  maybetermalloc1.o(.emb_text)
    .text                                    0x08000330   Section       64  startup_stm32f407xx.o(.text)
    $v0                                      0x08000330   Number         0  startup_stm32f407xx.o(.text)
    .text                                    0x08000370   Section        0  arm_mat_add_f32.o(.text)
    .text                                    0x08000478   Section        0  arm_mat_init_f32.o(.text)
    .text                                    0x08000480   Section        0  arm_mat_inverse_f32.o(.text)
    .text                                    0x080009b0   Section        0  arm_mat_mult_f32.o(.text)
    .text                                    0x08000aec   Section        0  arm_mat_sub_f32.o(.text)
    .text                                    0x08000bf4   Section        0  arm_mat_trans_f32.o(.text)
    .text                                    0x08000d08   Section        0  h1_alloc.o(.text)
    .text                                    0x08000d66   Section      238  lludivv7m.o(.text)
    .text                                    0x08000e54   Section      138  rt_memcpy_v6.o(.text)
    .text                                    0x08000ede   Section      100  rt_memcpy_w.o(.text)
    .text                                    0x08000f42   Section       16  aeabi_memset.o(.text)
    .text                                    0x08000f52   Section       68  rt_memclr.o(.text)
    .text                                    0x08000f96   Section       78  rt_memclr_w.o(.text)
    .text                                    0x08000fe4   Section        0  heapauxi.o(.text)
    .text                                    0x08000fec   Section        8  rt_heap_descriptor_intlibspace.o(.text)
    .text                                    0x08000ff4   Section        0  hguard.o(.text)
    .text                                    0x08000ff8   Section        0  init_alloc.o(.text)
    .text                                    0x08001082   Section        0  h1_init.o(.text)
    .text                                    0x08001090   Section        0  h1_free.o(.text)
    .text                                    0x080010de   Section        0  _rserrno.o(.text)
    .text                                    0x080010f4   Section        8  libspace.o(.text)
    .text                                    0x080010fc   Section        8  rt_errno_addr_intlibspace.o(.text)
    .text                                    0x08001104   Section        0  h1_extend.o(.text)
    .text                                    0x08001138   Section        0  _fptrap.o(.text)
    .text                                    0x08001168   Section        0  defsig_rtmem_outer.o(.text)
    .text                                    0x08001176   Section        2  use_no_semi.o(.text)
    .text                                    0x08001178   Section       74  sys_stackheap_outer.o(.text)
    .text                                    0x08001178   Section        0  indicate_semi.o(.text)
    .text                                    0x080011c2   Section        0  exit.o(.text)
    .text                                    0x080011d4   Section        0  defsig_exit.o(.text)
    .text                                    0x080011de   Section        0  defsig_fpe_outer.o(.text)
    .text                                    0x080011ec   Section        0  defsig_rtmem_inner.o(.text)
    .text                                    0x0800123c   Section        0  sys_exit.o(.text)
    .text                                    0x08001248   Section        0  defsig_general.o(.text)
    .text                                    0x0800127c   Section        0  defsig_fpe_inner.o(.text)
    .text                                    0x08001328   Section        0  sys_wrch.o(.text)
    i.BMI088_ACCEL_NS_H                      0x08001338   Section        0  bsp_gpio.o(i.BMI088_ACCEL_NS_H)
    i.BMI088_ACCEL_NS_L                      0x0800134c   Section        0  bsp_gpio.o(i.BMI088_ACCEL_NS_L)
    i.BMI088_Accel_Init                      0x08001360   Section        0  bmi088.o(i.BMI088_Accel_Init)
    BMI088_Accel_Init                        0x08001361   Thumb Code   288  bmi088.o(i.BMI088_Accel_Init)
    i.BMI088_GYRO_NS_H                       0x08001484   Section        0  bsp_gpio.o(i.BMI088_GYRO_NS_H)
    i.BMI088_GYRO_NS_L                       0x08001498   Section        0  bsp_gpio.o(i.BMI088_GYRO_NS_L)
    i.BMI088_Gyro_Init                       0x080014ac   Section        0  bmi088.o(i.BMI088_Gyro_Init)
    BMI088_Gyro_Init                         0x080014ad   Thumb Code   236  bmi088.o(i.BMI088_Gyro_Init)
    i.BMI088_Info_Update                     0x0800159c   Section        0  bmi088.o(i.BMI088_Info_Update)
    i.BMI088_Init                            0x08001744   Section        0  bmi088.o(i.BMI088_Init)
    i.BMI088_Offset_Update                   0x0800176c   Section        0  bmi088.o(i.BMI088_Offset_Update)
    BMI088_Offset_Update                     0x0800176d   Thumb Code    30  bmi088.o(i.BMI088_Offset_Update)
    i.BMI088_Read_Multi_Reg                  0x08001798   Section        0  bmi088.o(i.BMI088_Read_Multi_Reg)
    BMI088_Read_Multi_Reg                    0x08001799   Thumb Code    38  bmi088.o(i.BMI088_Read_Multi_Reg)
    i.BMI088_Read_Single_Reg                 0x080017be   Section        0  bmi088.o(i.BMI088_Read_Single_Reg)
    BMI088_Read_Single_Reg                   0x080017bf   Thumb Code    24  bmi088.o(i.BMI088_Read_Single_Reg)
    i.BMI088_Read_Write_Byte                 0x080017d8   Section        0  bsp_spi.o(i.BMI088_Read_Write_Byte)
    i.BMI088_Temp_Control                    0x080017fc   Section        0  ins_task.o(i.BMI088_Temp_Control)
    BMI088_Temp_Control                      0x080017fd   Thumb Code   108  ins_task.o(i.BMI088_Temp_Control)
    i.BMI088_Write_Single_Reg                0x08001878   Section        0  bmi088.o(i.BMI088_Write_Single_Reg)
    BMI088_Write_Single_Reg                  0x08001879   Thumb Code    20  bmi088.o(i.BMI088_Write_Single_Reg)
    i.BSP_CAN_Init                           0x0800188c   Section        0  bsp_can.o(i.BSP_CAN_Init)
    i.BSP_DWT_Init                           0x08001924   Section        0  bsp_dwt.o(i.BSP_DWT_Init)
    i.BSP_USART_Init                         0x0800198c   Section        0  bsp_uart.o(i.BSP_USART_Init)
    i.Bsp_Tim_Init                           0x080019cc   Section        0  bsp_tim.o(i.Bsp_Tim_Init)
    i.BusFault_Handler                       0x080019dc   Section        0  stm32f4xx_it.o(i.BusFault_Handler)
    i.CAN1_RX0_IRQHandler                    0x080019e0   Section        0  stm32f4xx_it.o(i.CAN1_RX0_IRQHandler)
    i.CAN1_RxFifo0RxHandler                  0x080019f0   Section        0  bsp_can.o(i.CAN1_RxFifo0RxHandler)
    CAN1_RxFifo0RxHandler                    0x080019f1   Thumb Code   146  bsp_can.o(i.CAN1_RxFifo0RxHandler)
    i.CAN2_RX1_IRQHandler                    0x08001a90   Section        0  stm32f4xx_it.o(i.CAN2_RX1_IRQHandler)
    i.CAN2_RxFifo1RxHandler                  0x08001aa0   Section        0  bsp_can.o(i.CAN2_RxFifo1RxHandler)
    CAN2_RxFifo1RxHandler                    0x08001aa1   Thumb Code    52  bsp_can.o(i.CAN2_RxFifo1RxHandler)
    i.CANTx                                  0x08001adc   Section        0  comm_task.o(i.CANTx)
    CANTx                                    0x08001add   Thumb Code   410  comm_task.o(i.CANTx)
    i.CDC_Control_FS                         0x08001c94   Section        0  usbd_cdc_if.o(i.CDC_Control_FS)
    CDC_Control_FS                           0x08001c95   Thumb Code    68  usbd_cdc_if.o(i.CDC_Control_FS)
    i.CDC_DeInit_FS                          0x08001cd8   Section        0  usbd_cdc_if.o(i.CDC_DeInit_FS)
    CDC_DeInit_FS                            0x08001cd9   Thumb Code     4  usbd_cdc_if.o(i.CDC_DeInit_FS)
    i.CDC_Init_FS                            0x08001cdc   Section        0  usbd_cdc_if.o(i.CDC_Init_FS)
    CDC_Init_FS                              0x08001cdd   Thumb Code    24  usbd_cdc_if.o(i.CDC_Init_FS)
    i.CDC_Receive_FS                         0x08001d00   Section        0  usbd_cdc_if.o(i.CDC_Receive_FS)
    CDC_Receive_FS                           0x08001d01   Thumb Code    32  usbd_cdc_if.o(i.CDC_Receive_FS)
    i.CDC_TransmitCplt_FS                    0x08001d24   Section        0  usbd_cdc_if.o(i.CDC_TransmitCplt_FS)
    CDC_TransmitCplt_FS                      0x08001d25   Thumb Code    12  usbd_cdc_if.o(i.CDC_TransmitCplt_FS)
    i.CDC_Transmit_FS                        0x08001d30   Section        0  usbd_cdc_if.o(i.CDC_Transmit_FS)
    i.COMM_Task                              0x08001d68   Section        0  comm_task.o(i.COMM_Task)
    i.CameraOFF                              0x08001d84   Section        0  shoot_task.o(i.CameraOFF)
    CameraOFF                                0x08001d85   Thumb Code    24  shoot_task.o(i.CameraOFF)
    i.CameraON                               0x08001da4   Section        0  shoot_task.o(i.CameraON)
    CameraON                                 0x08001da5   Thumb Code    50  shoot_task.o(i.CameraON)
    i.CameraStandby                          0x08001de4   Section        0  shoot_task.o(i.CameraStandby)
    CameraStandby                            0x08001de5   Thumb Code    50  shoot_task.o(i.CameraStandby)
    i.DJIMotorCANRxInit                      0x08001e24   Section        0  motor.o(i.DJIMotorCANRxInit)
    i.DJI_Motor_ErrorHandler                 0x08001e2a   Section        0  motor.o(i.DJI_Motor_ErrorHandler)
    DJI_Motor_ErrorHandler                   0x08001e2b   Thumb Code    38  motor.o(i.DJI_Motor_ErrorHandler)
    i.DJI_Motor_Info_Update                  0x08001e50   Section        0  motor.o(i.DJI_Motor_Info_Update)
    i.DMA1_Stream1_IRQHandler                0x08001f78   Section        0  stm32f4xx_it.o(i.DMA1_Stream1_IRQHandler)
    i.DMA2_Stream1_IRQHandler                0x08001f88   Section        0  stm32f4xx_it.o(i.DMA2_Stream1_IRQHandler)
    i.DMA2_Stream2_IRQHandler                0x08001f98   Section        0  stm32f4xx_it.o(i.DMA2_Stream2_IRQHandler)
    i.DMA2_Stream6_IRQHandler                0x08001fa8   Section        0  stm32f4xx_it.o(i.DMA2_Stream6_IRQHandler)
    i.DMA2_Stream7_IRQHandler                0x08001fb8   Section        0  stm32f4xx_it.o(i.DMA2_Stream7_IRQHandler)
    i.DMA_CalcBaseAndBitshift                0x08001fc8   Section        0  stm32f4xx_hal_dma.o(i.DMA_CalcBaseAndBitshift)
    DMA_CalcBaseAndBitshift                  0x08001fc9   Thumb Code    46  stm32f4xx_hal_dma.o(i.DMA_CalcBaseAndBitshift)
    i.DMA_CheckFifoParam                     0x08001ffc   Section        0  stm32f4xx_hal_dma.o(i.DMA_CheckFifoParam)
    DMA_CheckFifoParam                       0x08001ffd   Thumb Code   170  stm32f4xx_hal_dma.o(i.DMA_CheckFifoParam)
    i.DMMotorCANInit                         0x080020a6   Section        0  motor.o(i.DMMotorCANInit)
    i.DMMotorClearError                      0x080020b4   Section        0  motor.o(i.DMMotorClearError)
    i.DMMotorCtrl                            0x080020ee   Section        0  motor.o(i.DMMotorCtrl)
    i.DMMotorDisable                         0x0800216a   Section        0  motor.o(i.DMMotorDisable)
    i.DMMotorEnable                          0x080021a8   Section        0  motor.o(i.DMMotorEnable)
    i.DMMotorFeedback                        0x080021e8   Section        0  motor.o(i.DMMotorFeedback)
    i.DMMotorSetZeroPoint                    0x080022a4   Section        0  motor.o(i.DMMotorSetZeroPoint)
    i.DMMotorStart                           0x080022e0   Section        0  motor.o(i.DMMotorStart)
    i.DT7FSM                                 0x080023f0   Section        0  comm_task.o(i.DT7FSM)
    DT7FSM                                   0x080023f1   Thumb Code   454  comm_task.o(i.DT7FSM)
    i.DebugMon_Handler                       0x080025cc   Section        0  stm32f4xx_it.o(i.DebugMon_Handler)
    i.Delay_ms                               0x080025ce   Section        0  bsp_tick.o(i.Delay_ms)
    i.Delay_us                               0x080025e6   Section        0  bsp_tick.o(i.Delay_us)
    i.Detect_Task                            0x08002600   Section        0  detect_task.o(i.Detect_Task)
    i.EXTI9_5_IRQHandler                     0x08002620   Section        0  stm32f4xx_it.o(i.EXTI9_5_IRQHandler)
    i.Error_Handler                          0x0800262a   Section        0  main.o(i.Error_Handler)
    i.Fast_InverseSqrt                       0x08002630   Section        0  quaternion.o(i.Fast_InverseSqrt)
    Fast_InverseSqrt                         0x08002631   Thumb Code    56  quaternion.o(i.Fast_InverseSqrt)
    i.FireControl                            0x0800266c   Section        0  shoot_task.o(i.FireControl)
    FireControl                              0x0800266d   Thumb Code  1548  shoot_task.o(i.FireControl)
    i.Get_SerialNum                          0x08002c88   Section        0  usbd_desc.o(i.Get_SerialNum)
    Get_SerialNum                            0x08002c89   Thumb Code    42  usbd_desc.o(i.Get_SerialNum)
    i.GunpowderOFF                           0x08002cbc   Section        0  shoot_task.o(i.GunpowderOFF)
    GunpowderOFF                             0x08002cbd   Thumb Code   110  shoot_task.o(i.GunpowderOFF)
    i.GunpowderON                            0x08002d38   Section        0  shoot_task.o(i.GunpowderON)
    GunpowderON                              0x08002d39   Thumb Code   164  shoot_task.o(i.GunpowderON)
    i.GunpowderStandby                       0x08002de8   Section        0  shoot_task.o(i.GunpowderStandby)
    GunpowderStandby                         0x08002de9   Thumb Code   110  shoot_task.o(i.GunpowderStandby)
    i.HAL_CAN_ActivateNotification           0x08002e64   Section        0  stm32f4xx_hal_can.o(i.HAL_CAN_ActivateNotification)
    i.HAL_CAN_AddTxMessage                   0x08002e8e   Section        0  stm32f4xx_hal_can.o(i.HAL_CAN_AddTxMessage)
    i.HAL_CAN_ConfigFilter                   0x08002fd8   Section        0  stm32f4xx_hal_can.o(i.HAL_CAN_ConfigFilter)
    i.HAL_CAN_ErrorCallback                  0x080030fc   Section        0  stm32f4xx_hal_can.o(i.HAL_CAN_ErrorCallback)
    i.HAL_CAN_GetRxMessage                   0x080030fe   Section        0  stm32f4xx_hal_can.o(i.HAL_CAN_GetRxMessage)
    i.HAL_CAN_IRQHandler                     0x08003292   Section        0  stm32f4xx_hal_can.o(i.HAL_CAN_IRQHandler)
    i.HAL_CAN_Init                           0x080034e0   Section        0  stm32f4xx_hal_can.o(i.HAL_CAN_Init)
    i.HAL_CAN_MspInit                        0x08003654   Section        0  can.o(i.HAL_CAN_MspInit)
    i.HAL_CAN_RxFifo0FullCallback            0x080037b4   Section        0  stm32f4xx_hal_can.o(i.HAL_CAN_RxFifo0FullCallback)
    i.HAL_CAN_RxFifo0MsgPendingCallback      0x080037b6   Section        0  bsp_can.o(i.HAL_CAN_RxFifo0MsgPendingCallback)
    i.HAL_CAN_RxFifo1FullCallback            0x080037d4   Section        0  stm32f4xx_hal_can.o(i.HAL_CAN_RxFifo1FullCallback)
    i.HAL_CAN_RxFifo1MsgPendingCallback      0x080037d6   Section        0  bsp_can.o(i.HAL_CAN_RxFifo1MsgPendingCallback)
    i.HAL_CAN_SleepCallback                  0x080037f4   Section        0  stm32f4xx_hal_can.o(i.HAL_CAN_SleepCallback)
    i.HAL_CAN_Start                          0x080037f6   Section        0  stm32f4xx_hal_can.o(i.HAL_CAN_Start)
    i.HAL_CAN_TxMailbox0AbortCallback        0x08003854   Section        0  stm32f4xx_hal_can.o(i.HAL_CAN_TxMailbox0AbortCallback)
    i.HAL_CAN_TxMailbox0CompleteCallback     0x08003856   Section        0  stm32f4xx_hal_can.o(i.HAL_CAN_TxMailbox0CompleteCallback)
    i.HAL_CAN_TxMailbox1AbortCallback        0x08003858   Section        0  stm32f4xx_hal_can.o(i.HAL_CAN_TxMailbox1AbortCallback)
    i.HAL_CAN_TxMailbox1CompleteCallback     0x0800385a   Section        0  stm32f4xx_hal_can.o(i.HAL_CAN_TxMailbox1CompleteCallback)
    i.HAL_CAN_TxMailbox2AbortCallback        0x0800385c   Section        0  stm32f4xx_hal_can.o(i.HAL_CAN_TxMailbox2AbortCallback)
    i.HAL_CAN_TxMailbox2CompleteCallback     0x0800385e   Section        0  stm32f4xx_hal_can.o(i.HAL_CAN_TxMailbox2CompleteCallback)
    i.HAL_CAN_WakeUpFromRxMsgCallback        0x08003860   Section        0  stm32f4xx_hal_can.o(i.HAL_CAN_WakeUpFromRxMsgCallback)
    i.HAL_DMA_Abort                          0x08003862   Section        0  stm32f4xx_hal_dma.o(i.HAL_DMA_Abort)
    i.HAL_DMA_Abort_IT                       0x0800390e   Section        0  stm32f4xx_hal_dma.o(i.HAL_DMA_Abort_IT)
    i.HAL_DMA_IRQHandler                     0x08003938   Section        0  stm32f4xx_hal_dma.o(i.HAL_DMA_IRQHandler)
    i.HAL_DMA_Init                           0x08003b78   Section        0  stm32f4xx_hal_dma.o(i.HAL_DMA_Init)
    i.HAL_Delay                              0x08003c64   Section        0  stm32f4xx_hal.o(i.HAL_Delay)
    i.HAL_GPIO_EXTI_Callback                 0x08003c8c   Section        0  stm32f4xx_hal_gpio.o(i.HAL_GPIO_EXTI_Callback)
    i.HAL_GPIO_EXTI_IRQHandler               0x08003c90   Section        0  stm32f4xx_hal_gpio.o(i.HAL_GPIO_EXTI_IRQHandler)
    i.HAL_GPIO_Init                          0x08003cac   Section        0  stm32f4xx_hal_gpio.o(i.HAL_GPIO_Init)
    i.HAL_GPIO_WritePin                      0x08003ea0   Section        0  stm32f4xx_hal_gpio.o(i.HAL_GPIO_WritePin)
    i.HAL_GetTick                            0x08003eac   Section        0  stm32f4xx_hal.o(i.HAL_GetTick)
    i.HAL_IncTick                            0x08003eb8   Section        0  stm32f4xx_hal.o(i.HAL_IncTick)
    i.HAL_Init                               0x08003ed0   Section        0  stm32f4xx_hal.o(i.HAL_Init)
    i.HAL_InitTick                           0x08003f0c   Section        0  stm32f4xx_hal_timebase_tim.o(i.HAL_InitTick)
    i.HAL_MspInit                            0x08003fc0   Section        0  stm32f4xx_hal_msp.o(i.HAL_MspInit)
    i.HAL_NVIC_EnableIRQ                     0x08004014   Section        0  stm32f4xx_hal_cortex.o(i.HAL_NVIC_EnableIRQ)
    i.HAL_NVIC_SetPriority                   0x0800403c   Section        0  stm32f4xx_hal_cortex.o(i.HAL_NVIC_SetPriority)
    i.HAL_NVIC_SetPriorityGrouping           0x080040b8   Section        0  stm32f4xx_hal_cortex.o(i.HAL_NVIC_SetPriorityGrouping)
    i.HAL_PCDEx_LPM_Callback                 0x080040e0   Section        0  stm32f4xx_hal_pcd_ex.o(i.HAL_PCDEx_LPM_Callback)
    i.HAL_PCDEx_SetRxFiFo                    0x080040e2   Section        0  stm32f4xx_hal_pcd_ex.o(i.HAL_PCDEx_SetRxFiFo)
    i.HAL_PCDEx_SetTxFiFo                    0x080040ec   Section        0  stm32f4xx_hal_pcd_ex.o(i.HAL_PCDEx_SetTxFiFo)
    i.HAL_PCD_ConnectCallback                0x0800413a   Section        0  usbd_conf.o(i.HAL_PCD_ConnectCallback)
    i.HAL_PCD_DataInStageCallback            0x08004148   Section        0  usbd_conf.o(i.HAL_PCD_DataInStageCallback)
    i.HAL_PCD_DataOutStageCallback           0x08004168   Section        0  usbd_conf.o(i.HAL_PCD_DataOutStageCallback)
    i.HAL_PCD_DisconnectCallback             0x08004188   Section        0  usbd_conf.o(i.HAL_PCD_DisconnectCallback)
    i.HAL_PCD_EP_Abort                       0x08004196   Section        0  stm32f4xx_hal_pcd.o(i.HAL_PCD_EP_Abort)
    i.HAL_PCD_EP_Close                       0x080041d8   Section        0  stm32f4xx_hal_pcd.o(i.HAL_PCD_EP_Close)
    i.HAL_PCD_EP_ClrStall                    0x08004242   Section        0  stm32f4xx_hal_pcd.o(i.HAL_PCD_EP_ClrStall)
    i.HAL_PCD_EP_GetRxCount                  0x080042be   Section        0  stm32f4xx_hal_pcd.o(i.HAL_PCD_EP_GetRxCount)
    i.HAL_PCD_EP_Open                        0x080042d4   Section        0  stm32f4xx_hal_pcd.o(i.HAL_PCD_EP_Open)
    i.HAL_PCD_EP_Receive                     0x08004362   Section        0  stm32f4xx_hal_pcd.o(i.HAL_PCD_EP_Receive)
    i.HAL_PCD_EP_SetStall                    0x080043a8   Section        0  stm32f4xx_hal_pcd.o(i.HAL_PCD_EP_SetStall)
    i.HAL_PCD_EP_Transmit                    0x08004432   Section        0  stm32f4xx_hal_pcd.o(i.HAL_PCD_EP_Transmit)
    i.HAL_PCD_IRQHandler                     0x0800447a   Section        0  stm32f4xx_hal_pcd.o(i.HAL_PCD_IRQHandler)
    i.HAL_PCD_ISOINIncompleteCallback        0x08004b44   Section        0  usbd_conf.o(i.HAL_PCD_ISOINIncompleteCallback)
    i.HAL_PCD_ISOOUTIncompleteCallback       0x08004b56   Section        0  usbd_conf.o(i.HAL_PCD_ISOOUTIncompleteCallback)
    i.HAL_PCD_Init                           0x08004b68   Section        0  stm32f4xx_hal_pcd.o(i.HAL_PCD_Init)
    i.HAL_PCD_MspInit                        0x08004cc8   Section        0  usbd_conf.o(i.HAL_PCD_MspInit)
    i.HAL_PCD_ResetCallback                  0x08004d70   Section        0  usbd_conf.o(i.HAL_PCD_ResetCallback)
    i.HAL_PCD_ResumeCallback                 0x08004da0   Section        0  usbd_conf.o(i.HAL_PCD_ResumeCallback)
    i.HAL_PCD_SOFCallback                    0x08004dae   Section        0  usbd_conf.o(i.HAL_PCD_SOFCallback)
    i.HAL_PCD_SetAddress                     0x08004dbc   Section        0  stm32f4xx_hal_pcd.o(i.HAL_PCD_SetAddress)
    i.HAL_PCD_SetupStageCallback             0x08004df0   Section        0  usbd_conf.o(i.HAL_PCD_SetupStageCallback)
    i.HAL_PCD_Start                          0x08004e02   Section        0  stm32f4xx_hal_pcd.o(i.HAL_PCD_Start)
    i.HAL_PCD_SuspendCallback                0x08004e50   Section        0  usbd_conf.o(i.HAL_PCD_SuspendCallback)
    i.HAL_RCC_CSSCallback                    0x08004e84   Section        0  stm32f4xx_hal_rcc.o(i.HAL_RCC_CSSCallback)
    i.HAL_RCC_ClockConfig                    0x08004e88   Section        0  stm32f4xx_hal_rcc.o(i.HAL_RCC_ClockConfig)
    i.HAL_RCC_EnableCSS                      0x0800500c   Section        0  stm32f4xx_hal_rcc.o(i.HAL_RCC_EnableCSS)
    i.HAL_RCC_GetClockConfig                 0x08005018   Section        0  stm32f4xx_hal_rcc.o(i.HAL_RCC_GetClockConfig)
    i.HAL_RCC_GetHCLKFreq                    0x0800505c   Section        0  stm32f4xx_hal_rcc.o(i.HAL_RCC_GetHCLKFreq)
    i.HAL_RCC_GetPCLK1Freq                   0x08005068   Section        0  stm32f4xx_hal_rcc.o(i.HAL_RCC_GetPCLK1Freq)
    i.HAL_RCC_GetPCLK2Freq                   0x08005088   Section        0  stm32f4xx_hal_rcc.o(i.HAL_RCC_GetPCLK2Freq)
    i.HAL_RCC_GetSysClockFreq                0x080050a8   Section        0  stm32f4xx_hal_rcc.o(i.HAL_RCC_GetSysClockFreq)
    i.HAL_RCC_NMI_IRQHandler                 0x08005158   Section        0  stm32f4xx_hal_rcc.o(i.HAL_RCC_NMI_IRQHandler)
    i.HAL_RCC_OscConfig                      0x08005178   Section        0  stm32f4xx_hal_rcc.o(i.HAL_RCC_OscConfig)
    i.HAL_SPI_Init                           0x08005614   Section        0  stm32f4xx_hal_spi.o(i.HAL_SPI_Init)
    i.HAL_SPI_MspInit                        0x080056dc   Section        0  spi.o(i.HAL_SPI_MspInit)
    i.HAL_SPI_TransmitReceive                0x080057a0   Section        0  stm32f4xx_hal_spi.o(i.HAL_SPI_TransmitReceive)
    i.HAL_TIMEx_BreakCallback                0x080059e8   Section        0  stm32f4xx_hal_tim_ex.o(i.HAL_TIMEx_BreakCallback)
    i.HAL_TIMEx_CommutCallback               0x080059ea   Section        0  stm32f4xx_hal_tim_ex.o(i.HAL_TIMEx_CommutCallback)
    i.HAL_TIMEx_MasterConfigSynchronization  0x080059ec   Section        0  stm32f4xx_hal_tim_ex.o(i.HAL_TIMEx_MasterConfigSynchronization)
    i.HAL_TIM_Base_Init                      0x08005aa0   Section        0  stm32f4xx_hal_tim.o(i.HAL_TIM_Base_Init)
    i.HAL_TIM_Base_MspInit                   0x08005b08   Section        0  tim.o(i.HAL_TIM_Base_MspInit)
    i.HAL_TIM_Base_Start                     0x08005b6c   Section        0  stm32f4xx_hal_tim.o(i.HAL_TIM_Base_Start)
    i.HAL_TIM_Base_Start_IT                  0x08005c08   Section        0  stm32f4xx_hal_tim.o(i.HAL_TIM_Base_Start_IT)
    i.HAL_TIM_ConfigClockSource              0x08005cb0   Section        0  stm32f4xx_hal_tim.o(i.HAL_TIM_ConfigClockSource)
    i.HAL_TIM_IC_CaptureCallback             0x08005dbc   Section        0  stm32f4xx_hal_tim.o(i.HAL_TIM_IC_CaptureCallback)
    i.HAL_TIM_IRQHandler                     0x08005dbe   Section        0  stm32f4xx_hal_tim.o(i.HAL_TIM_IRQHandler)
    i.HAL_TIM_MspPostInit                    0x08005f2c   Section        0  tim.o(i.HAL_TIM_MspPostInit)
    i.HAL_TIM_OC_DelayElapsedCallback        0x08005fe0   Section        0  stm32f4xx_hal_tim.o(i.HAL_TIM_OC_DelayElapsedCallback)
    i.HAL_TIM_PWM_ConfigChannel              0x08005fe2   Section        0  stm32f4xx_hal_tim.o(i.HAL_TIM_PWM_ConfigChannel)
    i.HAL_TIM_PWM_Init                       0x080060e6   Section        0  stm32f4xx_hal_tim.o(i.HAL_TIM_PWM_Init)
    i.HAL_TIM_PWM_MspInit                    0x0800614c   Section        0  stm32f4xx_hal_tim.o(i.HAL_TIM_PWM_MspInit)
    i.HAL_TIM_PWM_PulseFinishedCallback      0x0800614e   Section        0  stm32f4xx_hal_tim.o(i.HAL_TIM_PWM_PulseFinishedCallback)
    i.HAL_TIM_PWM_Start                      0x08006150   Section        0  stm32f4xx_hal_tim.o(i.HAL_TIM_PWM_Start)
    i.HAL_TIM_PeriodElapsedCallback          0x0800625c   Section        0  main.o(i.HAL_TIM_PeriodElapsedCallback)
    i.HAL_TIM_TriggerCallback                0x0800626e   Section        0  stm32f4xx_hal_tim.o(i.HAL_TIM_TriggerCallback)
    i.HAL_UARTEx_RxEventCallback             0x08006270   Section        0  bsp_uart.o(i.HAL_UARTEx_RxEventCallback)
    i.HAL_UART_ErrorCallback                 0x080062d0   Section        0  stm32f4xx_hal_uart.o(i.HAL_UART_ErrorCallback)
    i.HAL_UART_IRQHandler                    0x080062d4   Section        0  stm32f4xx_hal_uart.o(i.HAL_UART_IRQHandler)
    i.HAL_UART_Init                          0x080065bc   Section        0  stm32f4xx_hal_uart.o(i.HAL_UART_Init)
    i.HAL_UART_MspInit                       0x08006634   Section        0  usart.o(i.HAL_UART_MspInit)
    i.HAL_UART_RxCpltCallback                0x0800696c   Section        0  stm32f4xx_hal_uart.o(i.HAL_UART_RxCpltCallback)
    i.HAL_UART_TxCpltCallback                0x0800696e   Section        0  stm32f4xx_hal_uart.o(i.HAL_UART_TxCpltCallback)
    i.Haltick                                0x08006970   Section        0  bsp_tick.o(i.Haltick)
    Haltick                                  0x08006971   Thumb Code    36  bsp_tick.o(i.Haltick)
    i.HardFault_Handler                      0x08006994   Section        0  stm32f4xx_it.o(i.HardFault_Handler)
    i.HeartBeat                              0x08006998   Section        0  comm_task.o(i.HeartBeat)
    HeartBeat                                0x08006999   Thumb Code    24  comm_task.o(i.HeartBeat)
    i.Heat_Power_Control                     0x080069bc   Section        0  bsp_tim.o(i.Heat_Power_Control)
    i.INSTask_Init                           0x080069d0   Section        0  ins_task.o(i.INSTask_Init)
    INSTask_Init                             0x080069d1   Thumb Code    66  ins_task.o(i.INSTask_Init)
    i.INS_Task                               0x08006a38   Section        0  ins_task.o(i.INS_Task)
    i.Image_Transmission_Info_Update         0x08006bf4   Section        0  image_transmission.o(i.Image_Transmission_Info_Update)
    i.Image_Transmission_Message_Monitor     0x08006cf8   Section        0  image_transmission.o(i.Image_Transmission_Message_Monitor)
    i.IntToUnicode                           0x08006d2c   Section        0  usbd_desc.o(i.IntToUnicode)
    IntToUnicode                             0x08006d2d   Thumb Code    62  usbd_desc.o(i.IntToUnicode)
    i.Kalman_Filter_Init                     0x08006d6a   Section        0  kalman.o(i.Kalman_Filter_Init)
    i.Kalman_Filter_K_Update                 0x08007474   Section        0  kalman.o(i.Kalman_Filter_K_Update)
    Kalman_Filter_K_Update                   0x08007475   Thumb Code   216  kalman.o(i.Kalman_Filter_K_Update)
    i.Kalman_Filter_Measurement_Update       0x0800754c   Section        0  kalman.o(i.Kalman_Filter_Measurement_Update)
    Kalman_Filter_Measurement_Update         0x0800754d   Thumb Code    62  kalman.o(i.Kalman_Filter_Measurement_Update)
    i.Kalman_Filter_P_Update                 0x0800758a   Section        0  kalman.o(i.Kalman_Filter_P_Update)
    Kalman_Filter_P_Update                   0x0800758b   Thumb Code   112  kalman.o(i.Kalman_Filter_P_Update)
    i.Kalman_Filter_Pminus_Update            0x080075fa   Section        0  kalman.o(i.Kalman_Filter_Pminus_Update)
    Kalman_Filter_Pminus_Update              0x080075fb   Thumb Code   112  kalman.o(i.Kalman_Filter_Pminus_Update)
    i.Kalman_Filter_Update                   0x0800766a   Section        0  kalman.o(i.Kalman_Filter_Update)
    i.Kalman_Filter_Xhat_Update              0x0800770e   Section        0  kalman.o(i.Kalman_Filter_Xhat_Update)
    Kalman_Filter_Xhat_Update                0x0800770f   Thumb Code   142  kalman.o(i.Kalman_Filter_Xhat_Update)
    i.Kalman_Filter_Xhatminus_Update         0x0800779c   Section        0  kalman.o(i.Kalman_Filter_Xhatminus_Update)
    Kalman_Filter_Xhatminus_Update           0x0800779d   Thumb Code   132  kalman.o(i.Kalman_Filter_Xhatminus_Update)
    i.Keyboard_Info_Update                   0x08007820   Section        0  keyboard.o(i.Keyboard_Info_Update)
    i.Limit_Angle                            0x080078f8   Section        0  motion_task.o(i.Limit_Angle)
    Limit_Angle                              0x080078f9   Thumb Code    40  motion_task.o(i.Limit_Angle)
    i.LowPassFilter2p_Init                   0x08007920   Section        0  lpf.o(i.LowPassFilter2p_Init)
    i.LowPassFilter2p_Update                 0x08007944   Section        0  lpf.o(i.LowPassFilter2p_Update)
    i.MCU_Init                               0x080079aa   Section        0  bsp_mcu.o(i.MCU_Init)
    i.MX_CAN1_Init                           0x080079c8   Section        0  can.o(i.MX_CAN1_Init)
    i.MX_CAN2_Init                           0x08007a10   Section        0  can.o(i.MX_CAN2_Init)
    i.MX_DMA_Init                            0x08007a58   Section        0  dma.o(i.MX_DMA_Init)
    i.MX_FREERTOS_Init                       0x08007af0   Section        0  freertos.o(i.MX_FREERTOS_Init)
    i.MX_GPIO_Init                           0x08007b88   Section        0  gpio.o(i.MX_GPIO_Init)
    i.MX_SPI1_Init                           0x08007d04   Section        0  spi.o(i.MX_SPI1_Init)
    i.MX_TIM10_Init                          0x08007d48   Section        0  tim.o(i.MX_TIM10_Init)
    i.MX_TIM4_Init                           0x08007db4   Section        0  tim.o(i.MX_TIM4_Init)
    i.MX_USART1_UART_Init                    0x08007e58   Section        0  usart.o(i.MX_USART1_UART_Init)
    i.MX_USART3_UART_Init                    0x08007e90   Section        0  usart.o(i.MX_USART3_UART_Init)
    i.MX_USART6_UART_Init                    0x08007ec8   Section        0  usart.o(i.MX_USART6_UART_Init)
    i.MX_USB_DEVICE_Init                     0x08007f00   Section        0  usb_device.o(i.MX_USB_DEVICE_Init)
    i.MemManage_Handler                      0x08007f7c   Section        0  stm32f4xx_it.o(i.MemManage_Handler)
    i.MiniPC_RecvFrameInfo                   0x08007f80   Section        0  minipc.o(i.MiniPC_RecvFrameInfo)
    i.MiniPC_SendFrameInfo                   0x08007fa0   Section        0  minipc.o(i.MiniPC_SendFrameInfo)
    i.MotionOFF                              0x08007fbc   Section        0  motion_task.o(i.MotionOFF)
    MotionOFF                                0x08007fbd   Thumb Code   148  motion_task.o(i.MotionOFF)
    i.MotionON                               0x0800805c   Section        0  motion_task.o(i.MotionON)
    MotionON                                 0x0800805d   Thumb Code  2282  motion_task.o(i.MotionON)
    i.Motion_Task                            0x08008950   Section        0  motion_task.o(i.Motion_Task)
    i.MotorCtrl                              0x0800899c   Section        0  motor.o(i.MotorCtrl)
    i.MotorCtrlInit                          0x08008a20   Section        0  motor.o(i.MotorCtrlInit)
    i.NMI_Handler                            0x08008abc   Section        0  stm32f4xx_it.o(i.NMI_Handler)
    i.NormalizeAngleTo180                    0x08008ac4   Section        0  motion_task.o(i.NormalizeAngleTo180)
    i.OTG_FS_IRQHandler                      0x08008b2c   Section        0  stm32f4xx_it.o(i.OTG_FS_IRQHandler)
    i.PCD_EP_OutSetupPacket_int              0x08008b3c   Section        0  stm32f4xx_hal_pcd.o(i.PCD_EP_OutSetupPacket_int)
    PCD_EP_OutSetupPacket_int                0x08008b3d   Thumb Code    94  stm32f4xx_hal_pcd.o(i.PCD_EP_OutSetupPacket_int)
    i.PCD_EP_OutXfrComplete_int              0x08008ba0   Section        0  stm32f4xx_hal_pcd.o(i.PCD_EP_OutXfrComplete_int)
    PCD_EP_OutXfrComplete_int                0x08008ba1   Thumb Code   314  stm32f4xx_hal_pcd.o(i.PCD_EP_OutXfrComplete_int)
    i.PCD_WriteEmptyTxFifo                   0x08008ce4   Section        0  stm32f4xx_hal_pcd.o(i.PCD_WriteEmptyTxFifo)
    PCD_WriteEmptyTxFifo                     0x08008ce5   Thumb Code   182  stm32f4xx_hal_pcd.o(i.PCD_WriteEmptyTxFifo)
    i.PID_Calc_Clear                         0x08008d9c   Section        0  pid.o(i.PID_Calc_Clear)
    PID_Calc_Clear                           0x08008d9d   Thumb Code    50  pid.o(i.PID_Calc_Clear)
    i.PID_ErrorHandle                        0x08008dd4   Section        0  pid.o(i.PID_ErrorHandle)
    PID_ErrorHandle                          0x08008dd5   Thumb Code    44  pid.o(i.PID_ErrorHandle)
    i.PID_Init                               0x08008e00   Section        0  pid.o(i.PID_Init)
    i.PID_Param_Init                         0x08008e38   Section        0  pid.o(i.PID_Param_Init)
    PID_Param_Init                           0x08008e39   Thumb Code   102  pid.o(i.PID_Param_Init)
    i.QuaternionEKF_A_Update                 0x08008ea0   Section        0  quaternion.o(i.QuaternionEKF_A_Update)
    QuaternionEKF_A_Update                   0x08008ea1   Thumb Code   758  quaternion.o(i.QuaternionEKF_A_Update)
    i.QuaternionEKF_ChiSqrtTest              0x080091a0   Section        0  quaternion.o(i.QuaternionEKF_ChiSqrtTest)
    QuaternionEKF_ChiSqrtTest                0x080091a1   Thumb Code   366  quaternion.o(i.QuaternionEKF_ChiSqrtTest)
    i.QuaternionEKF_H_Update                 0x08009318   Section        0  quaternion.o(i.QuaternionEKF_H_Update)
    QuaternionEKF_H_Update                   0x08009319   Thumb Code   314  quaternion.o(i.QuaternionEKF_H_Update)
    i.QuaternionEKF_Init                     0x08009454   Section        0  quaternion.o(i.QuaternionEKF_Init)
    i.QuaternionEKF_Update                   0x08009550   Section        0  quaternion.o(i.QuaternionEKF_Update)
    i.QuaternionEKF_Xhat_Update              0x08009978   Section        0  quaternion.o(i.QuaternionEKF_Xhat_Update)
    QuaternionEKF_Xhat_Update                0x08009979   Thumb Code   970  quaternion.o(i.QuaternionEKF_Xhat_Update)
    i.Remote_Control_Lost_Check              0x08009d54   Section        0  keyboard.o(i.Remote_Control_Lost_Check)
    i.Remote_Message_Monitor                 0x08009d78   Section        0  remote_control.o(i.Remote_Message_Monitor)
    i.SBUS_TO_RC                             0x08009d9e   Section        0  remote_control.o(i.SBUS_TO_RC)
    i.SPI_EndRxTxTransaction                 0x08009e7c   Section        0  stm32f4xx_hal_spi.o(i.SPI_EndRxTxTransaction)
    SPI_EndRxTxTransaction                   0x08009e7d   Thumb Code   128  stm32f4xx_hal_spi.o(i.SPI_EndRxTxTransaction)
    i.SPI_WaitFlagStateUntilTimeout          0x08009f04   Section        0  stm32f4xx_hal_spi.o(i.SPI_WaitFlagStateUntilTimeout)
    SPI_WaitFlagStateUntilTimeout            0x08009f05   Thumb Code   210  stm32f4xx_hal_spi.o(i.SPI_WaitFlagStateUntilTimeout)
    i.SWAPBYTE                               0x08009fdc   Section        0  usbd_ctlreq.o(i.SWAPBYTE)
    SWAPBYTE                                 0x08009fdd   Thumb Code    18  usbd_ctlreq.o(i.SWAPBYTE)
    i.ScopeOFF                               0x08009ff0   Section        0  shoot_task.o(i.ScopeOFF)
    ScopeOFF                                 0x08009ff1   Thumb Code    24  shoot_task.o(i.ScopeOFF)
    i.ScopeON                                0x0800a010   Section        0  shoot_task.o(i.ScopeON)
    ScopeON                                  0x0800a011   Thumb Code   148  shoot_task.o(i.ScopeON)
    i.ScopeStandby                           0x0800a0b0   Section        0  shoot_task.o(i.ScopeStandby)
    ScopeStandby                             0x0800a0b1   Thumb Code    50  shoot_task.o(i.ScopeStandby)
    i.Shoot_Task                             0x0800a0f0   Section        0  shoot_task.o(i.Shoot_Task)
    i.SysTick_Handler                        0x0800a1bc   Section        0  port.o(i.SysTick_Handler)
    i.SystemClock_Config                     0x0800a1f0   Section        0  main.o(i.SystemClock_Config)
    i.SystemInit                             0x0800a2a8   Section        0  system_stm32f4xx.o(i.SystemInit)
    i.TIM2_IRQHandler                        0x0800a2bc   Section        0  stm32f4xx_it.o(i.TIM2_IRQHandler)
    i.TIM_Base_SetConfig                     0x0800a2cc   Section        0  stm32f4xx_hal_tim.o(i.TIM_Base_SetConfig)
    i.TIM_CCxChannelCmd                      0x0800a3b4   Section        0  stm32f4xx_hal_tim.o(i.TIM_CCxChannelCmd)
    i.TIM_ETR_SetConfig                      0x0800a3d6   Section        0  stm32f4xx_hal_tim.o(i.TIM_ETR_SetConfig)
    i.TIM_ITRx_SetConfig                     0x0800a3ec   Section        0  stm32f4xx_hal_tim.o(i.TIM_ITRx_SetConfig)
    TIM_ITRx_SetConfig                       0x0800a3ed   Thumb Code    18  stm32f4xx_hal_tim.o(i.TIM_ITRx_SetConfig)
    i.TIM_OC1_SetConfig                      0x0800a400   Section        0  stm32f4xx_hal_tim.o(i.TIM_OC1_SetConfig)
    TIM_OC1_SetConfig                        0x0800a401   Thumb Code   104  stm32f4xx_hal_tim.o(i.TIM_OC1_SetConfig)
    i.TIM_OC2_SetConfig                      0x0800a470   Section        0  stm32f4xx_hal_tim.o(i.TIM_OC2_SetConfig)
    i.TIM_OC3_SetConfig                      0x0800a4ec   Section        0  stm32f4xx_hal_tim.o(i.TIM_OC3_SetConfig)
    TIM_OC3_SetConfig                        0x0800a4ed   Thumb Code   112  stm32f4xx_hal_tim.o(i.TIM_OC3_SetConfig)
    i.TIM_OC4_SetConfig                      0x0800a564   Section        0  stm32f4xx_hal_tim.o(i.TIM_OC4_SetConfig)
    TIM_OC4_SetConfig                        0x0800a565   Thumb Code    74  stm32f4xx_hal_tim.o(i.TIM_OC4_SetConfig)
    i.TIM_TI1_ConfigInputStage               0x0800a5b8   Section        0  stm32f4xx_hal_tim.o(i.TIM_TI1_ConfigInputStage)
    TIM_TI1_ConfigInputStage                 0x0800a5b9   Thumb Code    38  stm32f4xx_hal_tim.o(i.TIM_TI1_ConfigInputStage)
    i.TIM_TI2_ConfigInputStage               0x0800a5de   Section        0  stm32f4xx_hal_tim.o(i.TIM_TI2_ConfigInputStage)
    TIM_TI2_ConfigInputStage                 0x0800a5df   Thumb Code    40  stm32f4xx_hal_tim.o(i.TIM_TI2_ConfigInputStage)
    i.TaskInit                               0x0800a608   Section        0  motion_task.o(i.TaskInit)
    TaskInit                                 0x0800a609   Thumb Code   140  motion_task.o(i.TaskInit)
    i.TaskInit                               0x0800a6a4   Section        0  shoot_task.o(i.TaskInit)
    TaskInit                                 0x0800a6a5   Thumb Code   166  shoot_task.o(i.TaskInit)
    i.TaskInit                               0x0800a774   Section        0  comm_task.o(i.TaskInit)
    TaskInit                                 0x0800a775   Thumb Code   124  comm_task.o(i.TaskInit)
    i.TriggerOFF                             0x0800a800   Section        0  shoot_task.o(i.TriggerOFF)
    TriggerOFF                               0x0800a801   Thumb Code    36  shoot_task.o(i.TriggerOFF)
    i.TriggerON                              0x0800a82c   Section        0  shoot_task.o(i.TriggerON)
    TriggerON                                0x0800a82d   Thumb Code    50  shoot_task.o(i.TriggerON)
    i.TriggerStandby                         0x0800a864   Section        0  shoot_task.o(i.TriggerStandby)
    TriggerStandby                           0x0800a865   Thumb Code    50  shoot_task.o(i.TriggerStandby)
    i.UART_DMAAbortOnError                   0x0800a89c   Section        0  stm32f4xx_hal_uart.o(i.UART_DMAAbortOnError)
    UART_DMAAbortOnError                     0x0800a89d   Thumb Code    20  stm32f4xx_hal_uart.o(i.UART_DMAAbortOnError)
    i.UART_EndRxTransfer                     0x0800a8b0   Section        0  stm32f4xx_hal_uart.o(i.UART_EndRxTransfer)
    UART_EndRxTransfer                       0x0800a8b1   Thumb Code   108  stm32f4xx_hal_uart.o(i.UART_EndRxTransfer)
    i.UART_EndTransmit_IT                    0x0800a91c   Section        0  stm32f4xx_hal_uart.o(i.UART_EndTransmit_IT)
    UART_EndTransmit_IT                      0x0800a91d   Thumb Code    32  stm32f4xx_hal_uart.o(i.UART_EndTransmit_IT)
    i.UART_Receive_IT                        0x0800a93c   Section        0  stm32f4xx_hal_uart.o(i.UART_Receive_IT)
    UART_Receive_IT                          0x0800a93d   Thumb Code   252  stm32f4xx_hal_uart.o(i.UART_Receive_IT)
    i.UART_SetConfig                         0x0800aa38   Section        0  stm32f4xx_hal_uart.o(i.UART_SetConfig)
    UART_SetConfig                           0x0800aa39   Thumb Code   546  stm32f4xx_hal_uart.o(i.UART_SetConfig)
    i.UART_Transmit_IT                       0x0800ac64   Section        0  stm32f4xx_hal_uart.o(i.UART_Transmit_IT)
    UART_Transmit_IT                         0x0800ac65   Thumb Code    96  stm32f4xx_hal_uart.o(i.UART_Transmit_IT)
    i.USART1_IRQHandler                      0x0800acc4   Section        0  stm32f4xx_it.o(i.USART1_IRQHandler)
    i.USART3_IRQHandler                      0x0800acd4   Section        0  stm32f4xx_it.o(i.USART3_IRQHandler)
    i.USART6_IRQHandler                      0x0800ace4   Section        0  stm32f4xx_it.o(i.USART6_IRQHandler)
    i.USART_RxDMA_MultiBufferStart           0x0800acf4   Section        0  bsp_uart.o(i.USART_RxDMA_MultiBufferStart)
    USART_RxDMA_MultiBufferStart             0x0800acf5   Thumb Code   132  bsp_uart.o(i.USART_RxDMA_MultiBufferStart)
    i.USBD_CDC_DataIn                        0x0800ad78   Section        0  usbd_cdc.o(i.USBD_CDC_DataIn)
    USBD_CDC_DataIn                          0x0800ad79   Thumb Code   196  usbd_cdc.o(i.USBD_CDC_DataIn)
    i.USBD_CDC_DataOut                       0x0800ae3c   Section        0  usbd_cdc.o(i.USBD_CDC_DataOut)
    USBD_CDC_DataOut                         0x0800ae3d   Thumb Code    72  usbd_cdc.o(i.USBD_CDC_DataOut)
    i.USBD_CDC_DeInit                        0x0800ae84   Section        0  usbd_cdc.o(i.USBD_CDC_DeInit)
    USBD_CDC_DeInit                          0x0800ae85   Thumb Code   200  usbd_cdc.o(i.USBD_CDC_DeInit)
    i.USBD_CDC_EP0_RxReady                   0x0800af58   Section        0  usbd_cdc.o(i.USBD_CDC_EP0_RxReady)
    USBD_CDC_EP0_RxReady                     0x0800af59   Thumb Code    80  usbd_cdc.o(i.USBD_CDC_EP0_RxReady)
    i.USBD_CDC_GetDeviceQualifierDescriptor  0x0800afa8   Section        0  usbd_cdc.o(i.USBD_CDC_GetDeviceQualifierDescriptor)
    i.USBD_CDC_GetFSCfgDesc                  0x0800afb8   Section        0  usbd_cdc.o(i.USBD_CDC_GetFSCfgDesc)
    USBD_CDC_GetFSCfgDesc                    0x0800afb9   Thumb Code    64  usbd_cdc.o(i.USBD_CDC_GetFSCfgDesc)
    i.USBD_CDC_GetHSCfgDesc                  0x0800affc   Section        0  usbd_cdc.o(i.USBD_CDC_GetHSCfgDesc)
    USBD_CDC_GetHSCfgDesc                    0x0800affd   Thumb Code    68  usbd_cdc.o(i.USBD_CDC_GetHSCfgDesc)
    i.USBD_CDC_GetOtherSpeedCfgDesc          0x0800b044   Section        0  usbd_cdc.o(i.USBD_CDC_GetOtherSpeedCfgDesc)
    USBD_CDC_GetOtherSpeedCfgDesc            0x0800b045   Thumb Code    64  usbd_cdc.o(i.USBD_CDC_GetOtherSpeedCfgDesc)
    i.USBD_CDC_Init                          0x0800b088   Section        0  usbd_cdc.o(i.USBD_CDC_Init)
    USBD_CDC_Init                            0x0800b089   Thumb Code   404  usbd_cdc.o(i.USBD_CDC_Init)
    i.USBD_CDC_ReceivePacket                 0x0800b228   Section        0  usbd_cdc.o(i.USBD_CDC_ReceivePacket)
    i.USBD_CDC_RegisterInterface             0x0800b278   Section        0  usbd_cdc.o(i.USBD_CDC_RegisterInterface)
    i.USBD_CDC_SetRxBuffer                   0x0800b290   Section        0  usbd_cdc.o(i.USBD_CDC_SetRxBuffer)
    i.USBD_CDC_SetTxBuffer                   0x0800b2ae   Section        0  usbd_cdc.o(i.USBD_CDC_SetTxBuffer)
    i.USBD_CDC_Setup                         0x0800b2d2   Section        0  usbd_cdc.o(i.USBD_CDC_Setup)
    USBD_CDC_Setup                           0x0800b2d3   Thumb Code   320  usbd_cdc.o(i.USBD_CDC_Setup)
    i.USBD_CDC_TransmitPacket                0x0800b414   Section        0  usbd_cdc.o(i.USBD_CDC_TransmitPacket)
    i.USBD_ClrClassConfig                    0x0800b470   Section        0  usbd_core.o(i.USBD_ClrClassConfig)
    i.USBD_ClrFeature                        0x0800b48c   Section        0  usbd_ctlreq.o(i.USBD_ClrFeature)
    USBD_ClrFeature                          0x0800b48d   Thumb Code    62  usbd_ctlreq.o(i.USBD_ClrFeature)
    i.USBD_CoreFindEP                        0x0800b4ca   Section        0  usbd_core.o(i.USBD_CoreFindEP)
    i.USBD_CoreFindIF                        0x0800b4d0   Section        0  usbd_core.o(i.USBD_CoreFindIF)
    i.USBD_CtlContinueRx                     0x0800b4d6   Section        0  usbd_ioreq.o(i.USBD_CtlContinueRx)
    i.USBD_CtlContinueSendData               0x0800b4ee   Section        0  usbd_ioreq.o(i.USBD_CtlContinueSendData)
    i.USBD_CtlError                          0x0800b506   Section        0  usbd_ctlreq.o(i.USBD_CtlError)
    i.USBD_CtlPrepareRx                      0x0800b51e   Section        0  usbd_ioreq.o(i.USBD_CtlPrepareRx)
    i.USBD_CtlReceiveStatus                  0x0800b546   Section        0  usbd_ioreq.o(i.USBD_CtlReceiveStatus)
    i.USBD_CtlSendData                       0x0800b560   Section        0  usbd_ioreq.o(i.USBD_CtlSendData)
    i.USBD_CtlSendStatus                     0x0800b582   Section        0  usbd_ioreq.o(i.USBD_CtlSendStatus)
    i.USBD_FS_ConfigStrDescriptor            0x0800b59c   Section        0  usbd_desc.o(i.USBD_FS_ConfigStrDescriptor)
    i.USBD_FS_DeviceDescriptor               0x0800b5d0   Section        0  usbd_desc.o(i.USBD_FS_DeviceDescriptor)
    i.USBD_FS_InterfaceStrDescriptor         0x0800b5e0   Section        0  usbd_desc.o(i.USBD_FS_InterfaceStrDescriptor)
    i.USBD_FS_LangIDStrDescriptor            0x0800b618   Section        0  usbd_desc.o(i.USBD_FS_LangIDStrDescriptor)
    i.USBD_FS_ManufacturerStrDescriptor      0x0800b628   Section        0  usbd_desc.o(i.USBD_FS_ManufacturerStrDescriptor)
    i.USBD_FS_ProductStrDescriptor           0x0800b654   Section        0  usbd_desc.o(i.USBD_FS_ProductStrDescriptor)
    i.USBD_FS_SerialStrDescriptor            0x0800b694   Section        0  usbd_desc.o(i.USBD_FS_SerialStrDescriptor)
    i.USBD_GetConfig                         0x0800b6ac   Section        0  usbd_ctlreq.o(i.USBD_GetConfig)
    USBD_GetConfig                           0x0800b6ad   Thumb Code    86  usbd_ctlreq.o(i.USBD_GetConfig)
    i.USBD_GetDescriptor                     0x0800b702   Section        0  usbd_ctlreq.o(i.USBD_GetDescriptor)
    USBD_GetDescriptor                       0x0800b703   Thumb Code   508  usbd_ctlreq.o(i.USBD_GetDescriptor)
    i.USBD_GetEpDesc                         0x0800b8fe   Section        0  usbd_core.o(i.USBD_GetEpDesc)
    i.USBD_GetLen                            0x0800b94e   Section        0  usbd_ctlreq.o(i.USBD_GetLen)
    USBD_GetLen                              0x0800b94f   Thumb Code    22  usbd_ctlreq.o(i.USBD_GetLen)
    i.USBD_GetNextDesc                       0x0800b964   Section        0  usbd_core.o(i.USBD_GetNextDesc)
    i.USBD_GetStatus                         0x0800b978   Section        0  usbd_ctlreq.o(i.USBD_GetStatus)
    USBD_GetStatus                           0x0800b979   Thumb Code    90  usbd_ctlreq.o(i.USBD_GetStatus)
    i.USBD_GetString                         0x0800b9d2   Section        0  usbd_ctlreq.o(i.USBD_GetString)
    i.USBD_Get_USB_Status                    0x0800ba3a   Section        0  usbd_conf.o(i.USBD_Get_USB_Status)
    i.USBD_Init                              0x0800ba66   Section        0  usbd_core.o(i.USBD_Init)
    i.USBD_LL_ClearStallEP                   0x0800baa0   Section        0  usbd_conf.o(i.USBD_LL_ClearStallEP)
    i.USBD_LL_CloseEP                        0x0800bac6   Section        0  usbd_conf.o(i.USBD_LL_CloseEP)
    i.USBD_LL_DataInStage                    0x0800baec   Section        0  usbd_core.o(i.USBD_LL_DataInStage)
    i.USBD_LL_DataOutStage                   0x0800bbf4   Section        0  usbd_core.o(i.USBD_LL_DataOutStage)
    i.USBD_LL_DevConnected                   0x0800bcf6   Section        0  usbd_core.o(i.USBD_LL_DevConnected)
    i.USBD_LL_DevDisconnected                0x0800bcfc   Section        0  usbd_core.o(i.USBD_LL_DevDisconnected)
    i.USBD_LL_GetRxDataSize                  0x0800bd22   Section        0  usbd_conf.o(i.USBD_LL_GetRxDataSize)
    i.USBD_LL_Init                           0x0800bd34   Section        0  usbd_conf.o(i.USBD_LL_Init)
    i.USBD_LL_IsStallEP                      0x0800bd9c   Section        0  usbd_conf.o(i.USBD_LL_IsStallEP)
    i.USBD_LL_IsoINIncomplete                0x0800bdd4   Section        0  usbd_core.o(i.USBD_LL_IsoINIncomplete)
    i.USBD_LL_IsoOUTIncomplete               0x0800be1c   Section        0  usbd_core.o(i.USBD_LL_IsoOUTIncomplete)
    i.USBD_LL_OpenEP                         0x0800be64   Section        0  usbd_conf.o(i.USBD_LL_OpenEP)
    i.USBD_LL_PrepareReceive                 0x0800be94   Section        0  usbd_conf.o(i.USBD_LL_PrepareReceive)
    i.USBD_LL_Reset                          0x0800bec4   Section        0  usbd_core.o(i.USBD_LL_Reset)
    i.USBD_LL_Resume                         0x0800bf30   Section        0  usbd_core.o(i.USBD_LL_Resume)
    i.USBD_LL_SOF                            0x0800bf46   Section        0  usbd_core.o(i.USBD_LL_SOF)
    i.USBD_LL_SetSpeed                       0x0800bf6e   Section        0  usbd_core.o(i.USBD_LL_SetSpeed)
    i.USBD_LL_SetUSBAddress                  0x0800bf76   Section        0  usbd_conf.o(i.USBD_LL_SetUSBAddress)
    i.USBD_LL_SetupStage                     0x0800bf9c   Section        0  usbd_core.o(i.USBD_LL_SetupStage)
    i.USBD_LL_StallEP                        0x0800c012   Section        0  usbd_conf.o(i.USBD_LL_StallEP)
    i.USBD_LL_Start                          0x0800c038   Section        0  usbd_conf.o(i.USBD_LL_Start)
    i.USBD_LL_Suspend                        0x0800c056   Section        0  usbd_core.o(i.USBD_LL_Suspend)
    i.USBD_LL_Transmit                       0x0800c072   Section        0  usbd_conf.o(i.USBD_LL_Transmit)
    i.USBD_ParseSetupRequest                 0x0800c0a2   Section        0  usbd_ctlreq.o(i.USBD_ParseSetupRequest)
    i.USBD_RegisterClass                     0x0800c0d8   Section        0  usbd_core.o(i.USBD_RegisterClass)
    i.USBD_RunTestMode                       0x0800c120   Section        0  usbd_core.o(i.USBD_RunTestMode)
    i.USBD_SetAddress                        0x0800c126   Section        0  usbd_ctlreq.o(i.USBD_SetAddress)
    USBD_SetAddress                          0x0800c127   Thumb Code    90  usbd_ctlreq.o(i.USBD_SetAddress)
    i.USBD_SetClassConfig                    0x0800c180   Section        0  usbd_core.o(i.USBD_SetClassConfig)
    i.USBD_SetConfig                         0x0800c1a0   Section        0  usbd_ctlreq.o(i.USBD_SetConfig)
    USBD_SetConfig                           0x0800c1a1   Thumb Code   254  usbd_ctlreq.o(i.USBD_SetConfig)
    i.USBD_SetFeature                        0x0800c2a4   Section        0  usbd_ctlreq.o(i.USBD_SetFeature)
    USBD_SetFeature                          0x0800c2a5   Thumb Code    56  usbd_ctlreq.o(i.USBD_SetFeature)
    i.USBD_Start                             0x0800c2dc   Section        0  usbd_core.o(i.USBD_Start)
    i.USBD_StdDevReq                         0x0800c2e8   Section        0  usbd_ctlreq.o(i.USBD_StdDevReq)
    i.USBD_StdEPReq                          0x0800c396   Section        0  usbd_ctlreq.o(i.USBD_StdEPReq)
    i.USBD_StdItfReq                         0x0800c616   Section        0  usbd_ctlreq.o(i.USBD_StdItfReq)
    i.USBD_static_free                       0x0800c6c4   Section        0  usbd_conf.o(i.USBD_static_free)
    i.USBD_static_malloc                     0x0800c6c8   Section        0  usbd_conf.o(i.USBD_static_malloc)
    i.USB_ActivateEndpoint                   0x0800c6d4   Section        0  stm32f4xx_ll_usb.o(i.USB_ActivateEndpoint)
    i.USB_ActivateSetup                      0x0800c7a4   Section        0  stm32f4xx_ll_usb.o(i.USB_ActivateSetup)
    i.USB_CoreInit                           0x0800c7cc   Section        0  stm32f4xx_ll_usb.o(i.USB_CoreInit)
    i.USB_CoreReset                          0x0800c858   Section        0  stm32f4xx_ll_usb.o(i.USB_CoreReset)
    USB_CoreReset                            0x0800c859   Thumb Code    84  stm32f4xx_ll_usb.o(i.USB_CoreReset)
    i.USB_DeactivateEndpoint                 0x0800c8ac   Section        0  stm32f4xx_ll_usb.o(i.USB_DeactivateEndpoint)
    i.USB_DevConnect                         0x0800c9f8   Section        0  stm32f4xx_ll_usb.o(i.USB_DevConnect)
    i.USB_DevDisconnect                      0x0800ca1c   Section        0  stm32f4xx_ll_usb.o(i.USB_DevDisconnect)
    i.USB_DevInit                            0x0800ca40   Section        0  stm32f4xx_ll_usb.o(i.USB_DevInit)
    i.USB_DisableGlobalInt                   0x0800cc28   Section        0  stm32f4xx_ll_usb.o(i.USB_DisableGlobalInt)
    i.USB_EP0_OutStart                       0x0800cc38   Section        0  stm32f4xx_ll_usb.o(i.USB_EP0_OutStart)
    i.USB_EPClearStall                       0x0800cca8   Section        0  stm32f4xx_ll_usb.o(i.USB_EPClearStall)
    i.USB_EPSetStall                         0x0800cd36   Section        0  stm32f4xx_ll_usb.o(i.USB_EPSetStall)
    i.USB_EPStartXfer                        0x0800cdd0   Section        0  stm32f4xx_ll_usb.o(i.USB_EPStartXfer)
    i.USB_EPStopXfer                         0x0800d190   Section        0  stm32f4xx_ll_usb.o(i.USB_EPStopXfer)
    i.USB_EnableGlobalInt                    0x0800d27c   Section        0  stm32f4xx_ll_usb.o(i.USB_EnableGlobalInt)
    i.USB_FlushRxFifo                        0x0800d28a   Section        0  stm32f4xx_ll_usb.o(i.USB_FlushRxFifo)
    i.USB_FlushTxFifo                        0x0800d2da   Section        0  stm32f4xx_ll_usb.o(i.USB_FlushTxFifo)
    i.USB_GetDevSpeed                        0x0800d32e   Section        0  stm32f4xx_ll_usb.o(i.USB_GetDevSpeed)
    i.USB_GetMode                            0x0800d354   Section        0  stm32f4xx_ll_usb.o(i.USB_GetMode)
    i.USB_ReadDevAllInEpInterrupt            0x0800d35e   Section        0  stm32f4xx_ll_usb.o(i.USB_ReadDevAllInEpInterrupt)
    i.USB_ReadDevAllOutEpInterrupt           0x0800d372   Section        0  stm32f4xx_ll_usb.o(i.USB_ReadDevAllOutEpInterrupt)
    i.USB_ReadDevInEPInterrupt               0x0800d386   Section        0  stm32f4xx_ll_usb.o(i.USB_ReadDevInEPInterrupt)
    i.USB_ReadDevOutEPInterrupt              0x0800d3b8   Section        0  stm32f4xx_ll_usb.o(i.USB_ReadDevOutEPInterrupt)
    i.USB_ReadInterrupts                     0x0800d3d2   Section        0  stm32f4xx_ll_usb.o(i.USB_ReadInterrupts)
    i.USB_ReadPacket                         0x0800d3dc   Section        0  stm32f4xx_ll_usb.o(i.USB_ReadPacket)
    i.USB_SetCurrentMode                     0x0800d43c   Section        0  stm32f4xx_ll_usb.o(i.USB_SetCurrentMode)
    i.USB_SetDevAddress                      0x0800d4a4   Section        0  stm32f4xx_ll_usb.o(i.USB_SetDevAddress)
    i.USB_SetDevSpeed                        0x0800d4ce   Section        0  stm32f4xx_ll_usb.o(i.USB_SetDevSpeed)
    i.USB_SetTurnaroundTime                  0x0800d4e0   Section        0  stm32f4xx_ll_usb.o(i.USB_SetTurnaroundTime)
    i.USB_WritePacket                        0x0800d5c8   Section        0  stm32f4xx_ll_usb.o(i.USB_WritePacket)
    i.USER_CAN_TxMessage                     0x0800d60c   Section        0  bsp_can.o(i.USER_CAN_TxMessage)
    i.USER_USART3_RxHandler                  0x0800d66c   Section        0  bsp_uart.o(i.USER_USART3_RxHandler)
    USER_USART3_RxHandler                    0x0800d66d   Thumb Code   128  bsp_uart.o(i.USER_USART3_RxHandler)
    i.USER_USART6_RxHandler                  0x0800d6f4   Section        0  bsp_uart.o(i.USER_USART6_RxHandler)
    USER_USART6_RxHandler                    0x0800d6f5   Thumb Code   124  bsp_uart.o(i.USER_USART6_RxHandler)
    i.UsageFault_Handler                     0x0800d774   Section        0  stm32f4xx_it.o(i.UsageFault_Handler)
    i.UserCheckoutMode0                      0x0800d778   Section        0  bsp_buzzer.o(i.UserCheckoutMode0)
    i.UserCheckoutMode1                      0x0800d794   Section        0  bsp_buzzer.o(i.UserCheckoutMode1)
    i.UserInitSuccess                        0x0800d7b0   Section        0  bsp_buzzer.o(i.UserInitSuccess)
    i.User_Tim_SetCompare                    0x0800d7cc   Section        0  bsp_tim.o(i.User_Tim_SetCompare)
    User_Tim_SetCompare                      0x0800d7cd   Thumb Code    46  bsp_tim.o(i.User_Tim_SetCompare)
    i.VT13FSM                                0x0800d7fc   Section        0  comm_task.o(i.VT13FSM)
    VT13FSM                                  0x0800d7fd   Thumb Code   850  comm_task.o(i.VT13FSM)
    i.VT13_Info_Update                       0x0800db78   Section        0  image_transmission.o(i.VT13_Info_Update)
    i.VT13_Message_Monitor                   0x0800dc86   Section        0  image_transmission.o(i.VT13_Message_Monitor)
    i.__ARM_fpclassifyf                      0x0800dcac   Section        0  fpclassifyf.o(i.__ARM_fpclassifyf)
    i.__NVIC_GetPriorityGrouping             0x0800dcd4   Section        0  stm32f4xx_hal_cortex.o(i.__NVIC_GetPriorityGrouping)
    __NVIC_GetPriorityGrouping               0x0800dcd5   Thumb Code    10  stm32f4xx_hal_cortex.o(i.__NVIC_GetPriorityGrouping)
    i.__NVIC_SetPriority                     0x0800dce4   Section        0  stm32f4xx_hal_cortex.o(i.__NVIC_SetPriority)
    __NVIC_SetPriority                       0x0800dce5   Thumb Code    32  stm32f4xx_hal_cortex.o(i.__NVIC_SetPriority)
    i.__hardfp_acosf                         0x0800dd0c   Section        0  acosf.o(i.__hardfp_acosf)
    i.__hardfp_asinf                         0x0800de24   Section        0  asinf.o(i.__hardfp_asinf)
    i.__hardfp_atan2f                        0x0800df50   Section        0  atan2f.o(i.__hardfp_atan2f)
    i.__hardfp_fmodf                         0x0800e1fc   Section        0  fmodf.o(i.__hardfp_fmodf)
    i.__mathlib_flt_infnan                   0x0800e2ac   Section        0  funder.o(i.__mathlib_flt_infnan)
    i.__mathlib_flt_infnan2                  0x0800e2b2   Section        0  funder.o(i.__mathlib_flt_infnan2)
    i.__mathlib_flt_invalid                  0x0800e2b8   Section        0  funder.o(i.__mathlib_flt_invalid)
    i.__mathlib_flt_underflow                0x0800e2c8   Section        0  funder.o(i.__mathlib_flt_underflow)
    i.bit8TObit16                            0x0800e2d8   Section        0  image_transmission.o(i.bit8TObit16)
    bit8TObit16                              0x0800e2d9   Thumb Code    22  image_transmission.o(i.bit8TObit16)
    i.dynamicSystem                          0x0800e2f0   Section        0  comm_task.o(i.dynamicSystem)
    dynamicSystem                            0x0800e2f1   Thumb Code  1358  comm_task.o(i.dynamicSystem)
    i.encoder_to_angle                       0x0800e85c   Section        0  motor.o(i.encoder_to_angle)
    i.encoder_to_anglesum                    0x0800e9a8   Section        0  motor.o(i.encoder_to_anglesum)
    encoder_to_anglesum                      0x0800e9a9   Thumb Code   240  motor.o(i.encoder_to_anglesum)
    i.f_Changing_Integration_Rate            0x0800eaa0   Section        0  pid.o(i.f_Changing_Integration_Rate)
    f_Changing_Integration_Rate              0x0800eaa1   Thumb Code   194  pid.o(i.f_Changing_Integration_Rate)
    i.f_Derivative_Filter                    0x0800eb68   Section        0  pid.o(i.f_Derivative_Filter)
    f_Derivative_Filter                      0x0800eb69   Thumb Code    38  pid.o(i.f_Derivative_Filter)
    i.f_Derivative_On_Measurement            0x0800eb8e   Section        0  pid.o(i.f_Derivative_On_Measurement)
    f_Derivative_On_Measurement              0x0800eb8f   Thumb Code    26  pid.o(i.f_Derivative_On_Measurement)
    i.f_Integral_Limit                       0x0800eba8   Section        0  pid.o(i.f_Integral_Limit)
    f_Integral_Limit                         0x0800eba9   Thumb Code   200  pid.o(i.f_Integral_Limit)
    i.f_Output_Filter                        0x0800ec7c   Section        0  pid.o(i.f_Output_Filter)
    f_Output_Filter                          0x0800ec7d   Thumb Code    38  pid.o(i.f_Output_Filter)
    i.f_Output_Limit                         0x0800eca2   Section        0  pid.o(i.f_Output_Limit)
    f_Output_Limit                           0x0800eca3   Thumb Code    62  pid.o(i.f_Output_Limit)
    i.f_PID_Calculate                        0x0800ece0   Section        0  pid.o(i.f_PID_Calculate)
    i.f_Trapezoid_Intergral                  0x0800ef18   Section        0  pid.o(i.f_Trapezoid_Intergral)
    f_Trapezoid_Intergral                    0x0800ef19   Thumb Code    34  pid.o(i.f_Trapezoid_Intergral)
    i.f_loop_constrain                       0x0800ef3a   Section        0  motor.o(i.f_loop_constrain)
    f_loop_constrain                         0x0800ef3b   Thumb Code    82  motor.o(i.f_loop_constrain)
    i.float_to_uint                          0x0800ef8c   Section        0  motor.o(i.float_to_uint)
    i.get_CRC16_check_sum                    0x0800efc0   Section        0  crc.o(i.get_CRC16_check_sum)
    i.get_CRC8_check_sum                     0x0800eff4   Section        0  crc.o(i.get_CRC8_check_sum)
    i.gimbalWatchDog                         0x0800f018   Section        0  motion_task.o(i.gimbalWatchDog)
    gimbalWatchDog                           0x0800f019   Thumb Code   246  motion_task.o(i.gimbalWatchDog)
    i.inHandlerMode                          0x0800f12c   Section        0  cmsis_os.o(i.inHandlerMode)
    inHandlerMode                            0x0800f12d   Thumb Code    16  cmsis_os.o(i.inHandlerMode)
    i.main                                   0x0800f13c   Section        0  main.o(i.main)
    i.makeFreeRtosPriority                   0x0800f17c   Section        0  cmsis_os.o(i.makeFreeRtosPriority)
    makeFreeRtosPriority                     0x0800f17d   Thumb Code    14  cmsis_os.o(i.makeFreeRtosPriority)
    i.osDelay                                0x0800f18a   Section        0  cmsis_os.o(i.osDelay)
    i.osDelayUntil                           0x0800f1a2   Section        0  cmsis_os.o(i.osDelayUntil)
    i.osKernelStart                          0x0800f1be   Section        0  cmsis_os.o(i.osKernelStart)
    i.osKernelSysTick                        0x0800f1c8   Section        0  cmsis_os.o(i.osKernelSysTick)
    i.osThreadCreate                         0x0800f1dc   Section        0  cmsis_os.o(i.osThreadCreate)
    i.playNote                               0x0800f23c   Section        0  bsp_buzzer.o(i.playNote)
    i.prvAddCurrentTaskToDelayedList         0x0800f2b0   Section        0  tasks.o(i.prvAddCurrentTaskToDelayedList)
    prvAddCurrentTaskToDelayedList           0x0800f2b1   Thumb Code   134  tasks.o(i.prvAddCurrentTaskToDelayedList)
    i.prvAddNewTaskToReadyList               0x0800f354   Section        0  tasks.o(i.prvAddNewTaskToReadyList)
    prvAddNewTaskToReadyList                 0x0800f355   Thumb Code   150  tasks.o(i.prvAddNewTaskToReadyList)
    i.prvCheckTasksWaitingTermination        0x0800f408   Section        0  tasks.o(i.prvCheckTasksWaitingTermination)
    prvCheckTasksWaitingTermination          0x0800f409   Thumb Code    60  tasks.o(i.prvCheckTasksWaitingTermination)
    i.prvDeleteTCB                           0x0800f450   Section        0  tasks.o(i.prvDeleteTCB)
    prvDeleteTCB                             0x0800f451   Thumb Code    80  tasks.o(i.prvDeleteTCB)
    i.prvHeapInit                            0x0800f4a0   Section        0  heap_4.o(i.prvHeapInit)
    prvHeapInit                              0x0800f4a1   Thumb Code    98  heap_4.o(i.prvHeapInit)
    i.prvIdleTask                            0x0800f51c   Section        0  tasks.o(i.prvIdleTask)
    prvIdleTask                              0x0800f51d   Thumb Code    32  tasks.o(i.prvIdleTask)
    i.prvInitialiseNewTask                   0x0800f544   Section        0  tasks.o(i.prvInitialiseNewTask)
    prvInitialiseNewTask                     0x0800f545   Thumb Code   194  tasks.o(i.prvInitialiseNewTask)
    i.prvInitialiseTaskLists                 0x0800f608   Section        0  tasks.o(i.prvInitialiseTaskLists)
    prvInitialiseTaskLists                   0x0800f609   Thumb Code    70  tasks.o(i.prvInitialiseTaskLists)
    i.prvInsertBlockIntoFreeList             0x0800f670   Section        0  heap_4.o(i.prvInsertBlockIntoFreeList)
    prvInsertBlockIntoFreeList               0x0800f671   Thumb Code    96  heap_4.o(i.prvInsertBlockIntoFreeList)
    i.prvResetNextTaskUnblockTime            0x0800f6d8   Section        0  tasks.o(i.prvResetNextTaskUnblockTime)
    prvResetNextTaskUnblockTime              0x0800f6d9   Thumb Code    42  tasks.o(i.prvResetNextTaskUnblockTime)
    i.prvTaskExitError                       0x0800f70c   Section        0  port.o(i.prvTaskExitError)
    prvTaskExitError                         0x0800f70d   Thumb Code    60  port.o(i.prvTaskExitError)
    i.pvPortMalloc                           0x0800f74c   Section        0  heap_4.o(i.pvPortMalloc)
    i.pxPortInitialiseStack                  0x0800f898   Section        0  port.o(i.pxPortInitialiseStack)
    i.receive_bullet_speed                   0x0800f8c4   Section        0  comm_task.o(i.receive_bullet_speed)
    i.sendGimbalMsg                          0x0800f8e0   Section        0  comm_task.o(i.sendGimbalMsg)
    sendGimbalMsg                            0x0800f8e1   Thumb Code   418  comm_task.o(i.sendGimbalMsg)
    i.setBuzzerFrequency                     0x0800faac   Section        0  bsp_buzzer.o(i.setBuzzerFrequency)
    setBuzzerFrequency                       0x0800faad   Thumb Code    72  bsp_buzzer.o(i.setBuzzerFrequency)
    i.sqrtf                                  0x0800fafc   Section        0  sqrtf_full.o(i.sqrtf)
    i.startBuzzer                            0x0800fb3c   Section        0  bsp_buzzer.o(i.startBuzzer)
    i.startCalibrate                         0x0800fb54   Section        0  shoot_task.o(i.startCalibrate)
    startCalibrate                           0x0800fb55   Thumb Code   862  shoot_task.o(i.startCalibrate)
    i.startMusicPlay                         0x0800fedc   Section        0  bsp_buzzer.o(i.startMusicPlay)
    i.stopBuzzer                             0x0800ff10   Section        0  bsp_buzzer.o(i.stopBuzzer)
    i.stopMusicPlay                          0x0800ff20   Section        0  bsp_buzzer.o(i.stopMusicPlay)
    i.uint_to_float                          0x0800ff2e   Section        0  motor.o(i.uint_to_float)
    i.updateCalibrateData                    0x0800ff64   Section        0  shoot_task.o(i.updateCalibrateData)
    updateCalibrateData                      0x0800ff65   Thumb Code   114  shoot_task.o(i.updateCalibrateData)
    i.updateMusicPlayer                      0x0800ffe8   Section        0  bsp_buzzer.o(i.updateMusicPlayer)
    i.uxListRemove                           0x08010048   Section        0  list.o(i.uxListRemove)
    i.vApplicationGetIdleTaskMemory          0x08010070   Section        0  freertos.o(i.vApplicationGetIdleTaskMemory)
    i.vListInitialise                        0x08010088   Section        0  list.o(i.vListInitialise)
    i.vListInitialiseItem                    0x080100a2   Section        0  list.o(i.vListInitialiseItem)
    i.vListInsert                            0x080100a8   Section        0  list.o(i.vListInsert)
    i.vListInsertEnd                         0x080100dc   Section        0  list.o(i.vListInsertEnd)
    i.vPortEnterCritical                     0x080100f4   Section        0  port.o(i.vPortEnterCritical)
    i.vPortExitCritical                      0x08010148   Section        0  port.o(i.vPortExitCritical)
    i.vPortFree                              0x08010184   Section        0  heap_4.o(i.vPortFree)
    i.vPortSetupTimerInterrupt               0x08010228   Section        0  port.o(i.vPortSetupTimerInterrupt)
    i.vPortValidateInterruptPriority         0x08010250   Section        0  port.o(i.vPortValidateInterruptPriority)
    i.vTaskDelay                             0x080102c8   Section        0  tasks.o(i.vTaskDelay)
    i.vTaskDelayUntil                        0x08010324   Section        0  tasks.o(i.vTaskDelayUntil)
    i.vTaskStartScheduler                    0x080103f8   Section        0  tasks.o(i.vTaskStartScheduler)
    i.vTaskSuspendAll                        0x080104a8   Section        0  tasks.o(i.vTaskSuspendAll)
    i.vTaskSwitchContext                     0x080104b8   Section        0  tasks.o(i.vTaskSwitchContext)
    i.verify_CRC16_check_sum                 0x08010544   Section        0  crc.o(i.verify_CRC16_check_sum)
    i.verify_CRC8_check_sum                  0x08010584   Section        0  crc.o(i.verify_CRC8_check_sum)
    i.xPortStartScheduler                    0x080105b4   Section        0  port.o(i.xPortStartScheduler)
    i.xTaskCreate                            0x0801071c   Section        0  tasks.o(i.xTaskCreate)
    i.xTaskCreateStatic                      0x08010780   Section        0  tasks.o(i.xTaskCreateStatic)
    i.xTaskGetTickCount                      0x0801083c   Section        0  tasks.o(i.xTaskGetTickCount)
    i.xTaskGetTickCountFromISR               0x08010848   Section        0  tasks.o(i.xTaskGetTickCountFromISR)
    i.xTaskIncrementTick                     0x0801085c   Section        0  tasks.o(i.xTaskIncrementTick)
    i.xTaskResumeAll                         0x080109a4   Section        0  tasks.o(i.xTaskResumeAll)
    x$fpl$d2f                                0x08010aa8   Section      708  d2f_clz.o(x$fpl$d2f)
    $v0                                      0x08010aa8   Number         0  d2f_clz.o(x$fpl$d2f)
    x$fpl$dadd                               0x08010d6c   Section      588  daddsub_clz.o(x$fpl$dadd)
    $v0                                      0x08010d6c   Number         0  daddsub_clz.o(x$fpl$dadd)
    _dadd1                                   0x08010d97   Thumb Code     0  daddsub_clz.o(x$fpl$dadd)
    dadd_zerodenorm                          0x08010f37   Thumb Code     0  daddsub_clz.o(x$fpl$dadd)
    x$fpl$dcmpinf                            0x08010fb8   Section       24  dcmpi.o(x$fpl$dcmpinf)
    $v0                                      0x08010fb8   Number         0  dcmpi.o(x$fpl$dcmpinf)
    x$fpl$dfltn                              0x08010fd0   Section       26  dflt_clz.o(x$fpl$dfltn)
    $v0                                      0x08010fd0   Number         0  dflt_clz.o(x$fpl$dfltn)
    x$fpl$dfltu                              0x08010fea   Section       38  dflt_clz.o(x$fpl$dfltu)
    $v0                                      0x08010fea   Number         0  dflt_clz.o(x$fpl$dfltu)
    x$fpl$dleqf                              0x08011010   Section      120  dleqf.o(x$fpl$dleqf)
    $v0                                      0x08011010   Number         0  dleqf.o(x$fpl$dleqf)
    x$fpl$dmul                               0x08011088   Section      448  dmul_clz.o(x$fpl$dmul)
    $v0                                      0x08011088   Number         0  dmul_clz.o(x$fpl$dmul)
    x$fpl$dnaninf                            0x08011248   Section      258  dnaninf.o(x$fpl$dnaninf)
    $v0                                      0x08011248   Number         0  dnaninf.o(x$fpl$dnaninf)
    x$fpl$drenorm                            0x0801134a   Section      112  drenorm_clz.o(x$fpl$drenorm)
    $v0                                      0x0801134a   Number         0  drenorm_clz.o(x$fpl$drenorm)
    x$fpl$dretinf                            0x080113ba   Section       12  dretinf.o(x$fpl$dretinf)
    $v0                                      0x080113ba   Number         0  dretinf.o(x$fpl$dretinf)
    x$fpl$drleqf                             0x080113c6   Section       98  drleqf.o(x$fpl$drleqf)
    $v0                                      0x080113c6   Number         0  drleqf.o(x$fpl$drleqf)
    x$fpl$dsub                               0x08011428   Section      668  daddsub_clz.o(x$fpl$dsub)
    $v0                                      0x08011428   Number         0  daddsub_clz.o(x$fpl$dsub)
    _dsub1                                   0x08011453   Thumb Code     0  daddsub_clz.o(x$fpl$dsub)
    daddsub_denorm                           0x08011617   Thumb Code     0  daddsub_clz.o(x$fpl$dsub)
    dsub_uncommon_first                      0x0801162b   Thumb Code     0  daddsub_clz.o(x$fpl$dsub)
    dsub_zerodenorm                          0x08011649   Thumb Code     0  daddsub_clz.o(x$fpl$dsub)
    x$fpl$dunder                             0x080116c4   Section      378  dunder_clz.o(x$fpl$dunder)
    $v0                                      0x080116c4   Number         0  dunder_clz.o(x$fpl$dunder)
    x$fpl$exception                          0x08011840   Section      492  except.o(x$fpl$exception)
    $v0                                      0x08011840   Number         0  except.o(x$fpl$exception)
    x$fpl$f2d                                0x08011a2c   Section      122  f2d.o(x$fpl$f2d)
    $v0                                      0x08011a2c   Number         0  f2d.o(x$fpl$f2d)
    x$fpl$fnaninf                            0x08011aa6   Section      242  fnaninf.o(x$fpl$fnaninf)
    $v0                                      0x08011aa6   Number         0  fnaninf.o(x$fpl$fnaninf)
    x$fpl$fnorm2                             0x08011b98   Section       74  fnorm2_clz.o(x$fpl$fnorm2)
    $v0                                      0x08011b98   Number         0  fnorm2_clz.o(x$fpl$fnorm2)
    x$fpl$fpinit                             0x08011be2   Section       10  fpinit.o(x$fpl$fpinit)
    $v0                                      0x08011be2   Number         0  fpinit.o(x$fpl$fpinit)
    x$fpl$frem                               0x08011bec   Section      278  frem_clz.o(x$fpl$frem)
    $v0                                      0x08011bec   Number         0  frem_clz.o(x$fpl$frem)
    x$fpl$fretinf                            0x08011d02   Section       10  fretinf.o(x$fpl$fretinf)
    $v0                                      0x08011d02   Number         0  fretinf.o(x$fpl$fretinf)
    x$fpl$funder                             0x08011d0c   Section      316  funder_clz.o(x$fpl$funder)
    $v0                                      0x08011d0c   Number         0  funder_clz.o(x$fpl$funder)
    x$fpl$retnan                             0x08011e48   Section      178  retnan.o(x$fpl$retnan)
    $v0                                      0x08011e48   Number         0  retnan.o(x$fpl$retnan)
    x$fpl$trapveneer                         0x08011efa   Section      126  trapv.o(x$fpl$trapveneer)
    $v0                                      0x08011efa   Number         0  trapv.o(x$fpl$trapveneer)
    .constdata                               0x08011f78   Section       80  bsp_buzzer.o(.constdata)
    x$fpl$usenofp                            0x08011f78   Section        0  usenofp.o(x$fpl$usenofp)
    its_my_go_notes                          0x08011f78   Data          32  bsp_buzzer.o(.constdata)
    user_init_success                        0x08011f98   Data          16  bsp_buzzer.o(.constdata)
    user_checkout_mode_1                     0x08011fa8   Data          16  bsp_buzzer.o(.constdata)
    user_checkout_mode_0                     0x08011fb8   Data          16  bsp_buzzer.o(.constdata)
    .constdata                               0x08011fc8   Section      770  crc.o(.constdata)
    .constdata                               0x080122cc   Section      140  freertos.o(.constdata)
    .constdata                               0x08012358   Section       24  system_stm32f4xx.o(.constdata)
    .constdata                               0x08012370   Section        8  stm32f4xx_hal_dma.o(.constdata)
    flagBitshiftOffset                       0x08012370   Data           8  stm32f4xx_hal_dma.o(.constdata)
    .conststring                             0x08012378   Section       79  freertos.o(.conststring)
    .data                                    0x20000000   Section      340  ins_task.o(.data)
    INS_LPF2p_Alpha                          0x20000000   Data          12  ins_task.o(.data)
    QuaternionEKF_A_Data                     0x2000000c   Data         144  ins_task.o(.data)
    QuaternionEKF_P_Data                     0x2000009c   Data         144  ins_task.o(.data)
    TemCtrl_PID_Param                        0x2000012c   Data          40  ins_task.o(.data)
    .data                                    0x20000154   Section      490  motion_task.o(.data)
    gimbal_start_time                        0x20000338   Data           4  motion_task.o(.data)
    last_gimbal_power_output                 0x2000033c   Data           1  motion_task.o(.data)
    enable_executed                          0x2000033d   Data           1  motion_task.o(.data)
    .data                                    0x20000340   Section      308  shoot_task.o(.data)
    scope_pid_para                           0x200003b8   Data          80  shoot_task.o(.data)
    camera_para                              0x20000408   Data          80  shoot_task.o(.data)
    .data                                    0x20000474   Section       20  comm_task.o(.data)
    .data                                    0x20000488   Section       52  bsp_can.o(.data)
    CAN1_FrameTxInstance                     0x20000488   Data          24  bsp_can.o(.data)
    CAN2_FrameTxInstance                     0x200004a0   Data          24  bsp_can.o(.data)
    TxMailbox                                0x200004b8   Data           4  bsp_can.o(.data)
    .data                                    0x200004c0   Section       64  bsp_dwt.o(.data)
    CPU_FREQ_Hz                              0x200004d0   Data           4  bsp_dwt.o(.data)
    CPU_FREQ_Hz_ms                           0x200004d4   Data           4  bsp_dwt.o(.data)
    CPU_FREQ_Hz_us                           0x200004d8   Data           4  bsp_dwt.o(.data)
    CYCCNT_RountCount                        0x200004dc   Data           4  bsp_dwt.o(.data)
    CYCCNT_LAST                              0x200004e0   Data           4  bsp_dwt.o(.data)
    CNT_TEMP1                                0x200004e8   Data           8  bsp_dwt.o(.data)
    CNT_TEMP2                                0x200004f0   Data           8  bsp_dwt.o(.data)
    CNT_TEMP3                                0x200004f8   Data           8  bsp_dwt.o(.data)
    .data                                    0x20000500   Section        2  crc.o(.data)
    .data                                    0x20000504   Section        8  pid.o(.data)
    temp_Output                              0x20000504   Data           4  pid.o(.data)
    temp_Iout                                0x20000508   Data           4  pid.o(.data)
    .data                                    0x2000050c   Section       44  bmi088.o(.data)
    BMI088_ACCEL_SEN                         0x2000050c   Data           4  bmi088.o(.data)
    BMI088_GYRO_SEN                          0x20000510   Data           4  bmi088.o(.data)
    Accel_Register_ConfigurationData_ErrorStatus 0x20000514   Data          18  bmi088.o(.data)
    Gyro_Register_ConfigurationData_ErrorStatus 0x20000526   Data          18  bmi088.o(.data)
    .data                                    0x20000538   Section       42  minipc.o(.data)
    .data                                    0x20000562   Section       24  remote_control.o(.data)
    .data                                    0x2000057c   Section       20  freertos.o(.data)
    .data                                    0x20000590   Section        4  can.o(.data)
    HAL_RCC_CAN1_CLK_ENABLED                 0x20000590   Data           4  can.o(.data)
    .data                                    0x20000594   Section        4  system_stm32f4xx.o(.data)
    .data                                    0x20000598   Section       60  tasks.o(.data)
    pxDelayedTaskList                        0x2000059c   Data           4  tasks.o(.data)
    pxOverflowDelayedTaskList                0x200005a0   Data           4  tasks.o(.data)
    uxDeletedTasksWaitingCleanUp             0x200005a4   Data           4  tasks.o(.data)
    uxCurrentNumberOfTasks                   0x200005a8   Data           4  tasks.o(.data)
    xTickCount                               0x200005ac   Data           4  tasks.o(.data)
    uxTopReadyPriority                       0x200005b0   Data           4  tasks.o(.data)
    xSchedulerRunning                        0x200005b4   Data           4  tasks.o(.data)
    xPendedTicks                             0x200005b8   Data           4  tasks.o(.data)
    xYieldPending                            0x200005bc   Data           4  tasks.o(.data)
    xNumOfOverflows                          0x200005c0   Data           4  tasks.o(.data)
    uxTaskNumber                             0x200005c4   Data           4  tasks.o(.data)
    xNextTaskUnblockTime                     0x200005c8   Data           4  tasks.o(.data)
    xIdleTaskHandle                          0x200005cc   Data           4  tasks.o(.data)
    uxSchedulerSuspended                     0x200005d0   Data           4  tasks.o(.data)
    .data                                    0x200005d4   Section       32  heap_4.o(.data)
    xStart                                   0x200005d4   Data           8  heap_4.o(.data)
    pxEnd                                    0x200005dc   Data           4  heap_4.o(.data)
    xFreeBytesRemaining                      0x200005e0   Data           4  heap_4.o(.data)
    xMinimumEverFreeBytesRemaining           0x200005e4   Data           4  heap_4.o(.data)
    xNumberOfSuccessfulAllocations           0x200005e8   Data           4  heap_4.o(.data)
    xNumberOfSuccessfulFrees                 0x200005ec   Data           4  heap_4.o(.data)
    xBlockAllocatedBit                       0x200005f0   Data           4  heap_4.o(.data)
    .data                                    0x200005f4   Section       12  port.o(.data)
    uxCriticalNesting                        0x200005f4   Data           4  port.o(.data)
    ucMaxSysCallPriority                     0x200005f8   Data           1  port.o(.data)
    ulMaxPRIGROUPValue                       0x200005fc   Data           4  port.o(.data)
    .data                                    0x20000600   Section        9  stm32f4xx_hal.o(.data)
    .data                                    0x2000060c   Section       78  usbd_desc.o(.data)
    .data                                    0x2000065c   Section       20  usbd_cdc_if.o(.data)
    .data                                    0x20000670   Section        1  usbd_ctlreq.o(.data)
    cfgidx                                   0x20000670   Data           1  usbd_ctlreq.o(.data)
    .data                                    0x20000674   Section      138  usbd_cdc.o(.data)
    USBD_CDC_DeviceQualifierDesc             0x20000674   Data          10  usbd_cdc.o(.data)
    USBD_CDC_CfgDesc                         0x200006b8   Data          67  usbd_cdc.o(.data)
    CDCInEpAdd                               0x200006fb   Data           1  usbd_cdc.o(.data)
    CDCOutEpAdd                              0x200006fc   Data           1  usbd_cdc.o(.data)
    CDCCmdEpAdd                              0x200006fd   Data           1  usbd_cdc.o(.data)
    .bss                                     0x20000700   Section      704  ins_task.o(.bss)
    .bss                                     0x200009c0   Section      268  motion_task.o(.bss)
    .bss                                     0x20000acc   Section      480  shoot_task.o(.bss)
    .bss                                     0x20000cac   Section      130  comm_task.o(.bss)
    .bss                                     0x20000d30   Section       24  bsp_buzzer.o(.bss)
    .bss                                     0x20000d48   Section       60  bmi088.o(.bss)
    .bss                                     0x20000d84   Section       21  minipc.o(.bss)
    .bss                                     0x20000d99   Section       36  remote_control.o(.bss)
    .bss                                     0x20000dbe   Section      186  image_transmission.o(.bss)
    .bss                                     0x20000e78   Section       10  keyboard.o(.bss)
    .bss                                     0x20000e84   Section     1124  freertos.o(.bss)
    xIdleTaskTCBBuffer                       0x20000e84   Data         100  freertos.o(.bss)
    xIdleStack                               0x20000ee8   Data        1024  freertos.o(.bss)
    .bss                                     0x200012e8   Section       80  can.o(.bss)
    .bss                                     0x20001338   Section       88  spi.o(.bss)
    .bss                                     0x20001390   Section      144  tim.o(.bss)
    .bss                                     0x20001420   Section      696  usart.o(.bss)
    .bss                                     0x200016d8   Section       72  stm32f4xx_hal_timebase_tim.o(.bss)
    .bss                                     0x20001720   Section      240  tasks.o(.bss)
    pxReadyTasksLists                        0x20001720   Data         140  tasks.o(.bss)
    xDelayedTaskList1                        0x200017ac   Data          20  tasks.o(.bss)
    xDelayedTaskList2                        0x200017c0   Data          20  tasks.o(.bss)
    xPendingReadyList                        0x200017d4   Data          20  tasks.o(.bss)
    xTasksWaitingTermination                 0x200017e8   Data          20  tasks.o(.bss)
    xSuspendedTaskList                       0x200017fc   Data          20  tasks.o(.bss)
    .bss                                     0x20001810   Section    24576  heap_4.o(.bss)
    ucHeap                                   0x20001810   Data       24576  heap_4.o(.bss)
    .bss                                     0x20007810   Section      732  usb_device.o(.bss)
    .bss                                     0x20007aec   Section      512  usbd_desc.o(.bss)
    .bss                                     0x20007cec   Section     4096  usbd_cdc_if.o(.bss)
    .bss                                     0x20008cec   Section     1796  usbd_conf.o(.bss)
    mem                                      0x200091d0   Data         544  usbd_conf.o(.bss)
    .bss                                     0x200093f0   Section       96  libspace.o(.bss)
    HEAP                                     0x20009450   Section     8192  startup_stm32f407xx.o(HEAP)
    Heap_Mem                                 0x20009450   Data        8192  startup_stm32f407xx.o(HEAP)
    STACK                                    0x2000b450   Section     8192  startup_stm32f407xx.o(STACK)
    Stack_Mem                                0x2000b450   Data        8192  startup_stm32f407xx.o(STACK)
    __initial_sp                             0x2000d450   Data           0  startup_stm32f407xx.o(STACK)

    Global Symbols

    Symbol Name                              Value     Ov Type        Size  Object(Section)

    BuildAttributes$$THM_ISAv4$E$P$D$K$B$S$7EM$VFPi3$EXTD16$VFPS$VFMA$PE$A:L22UL41UL21$X:L11$S22US41US21$IEEE1$IW$USESV6$~STKCKD$USESV7$~SHL$OTIME$ROPI$IEEEX$EBA8$UX$STANDARDLIB$REQ8$PRES8$EABIv2 0x00000000   Number         0  anon$$obj.o ABSOLUTE
    __ARM_use_no_argv                        0x00000000   Number         0  main.o ABSOLUTE
    __ARM_exceptions_init                     - Undefined Weak Reference
    __alloca_initialize                       - Undefined Weak Reference
    __arm_fini_                               - Undefined Weak Reference
    __arm_preinit_                            - Undefined Weak Reference
    __cpp_initialize__aeabi_                  - Undefined Weak Reference
    __cxa_finalize                            - Undefined Weak Reference
    __rt_locale                               - Undefined Weak Reference
    __sigvec_lookup                           - Undefined Weak Reference
    __user_heap_extent                        - Undefined Weak Reference
    _atexit_init                              - Undefined Weak Reference
    _call_atexit_fns                          - Undefined Weak Reference
    _clock_init                               - Undefined Weak Reference
    _fp_trap_big                              - Undefined Weak Reference
    _fp_trap_init                             - Undefined Weak Reference
    _fp_trap_shutdown                         - Undefined Weak Reference
    _get_lc_collate                           - Undefined Weak Reference
    _get_lc_ctype                             - Undefined Weak Reference
    _get_lc_monetary                          - Undefined Weak Reference
    _get_lc_numeric                           - Undefined Weak Reference
    _get_lc_time                              - Undefined Weak Reference
    _getenv_init                              - Undefined Weak Reference
    _handle_redirection                       - Undefined Weak Reference
    _initio                                   - Undefined Weak Reference
    _mutex_acquire                            - Undefined Weak Reference
    _mutex_free                               - Undefined Weak Reference
    _mutex_release                            - Undefined Weak Reference
    _rand_init                                - Undefined Weak Reference
    _signal_finish                            - Undefined Weak Reference
    _signal_init                              - Undefined Weak Reference
    _terminateio                              - Undefined Weak Reference
    __Vectors_Size                           0x00000188   Number         0  startup_stm32f407xx.o ABSOLUTE
    __Vectors                                0x08000000   Data           4  startup_stm32f407xx.o(RESET)
    __Vectors_End                            0x08000188   Data           0  startup_stm32f407xx.o(RESET)
    __main                                   0x08000189   Thumb Code     8  __main.o(!!!main)
    __scatterload                            0x08000191   Thumb Code     0  __scatter.o(!!!scatter)
    __scatterload_rt2                        0x08000191   Thumb Code    44  __scatter.o(!!!scatter)
    __scatterload_rt2_thumb_only             0x08000191   Thumb Code     0  __scatter.o(!!!scatter)
    __scatterload_null                       0x0800019f   Thumb Code     0  __scatter.o(!!!scatter)
    __decompress                             0x080001c5   Thumb Code    90  __dczerorl2.o(!!dczerorl2)
    __decompress1                            0x080001c5   Thumb Code     0  __dczerorl2.o(!!dczerorl2)
    __scatterload_zeroinit                   0x08000221   Thumb Code    28  __scatter_zi.o(!!handler_zi)
    __rt_lib_init                            0x0800023d   Thumb Code     0  libinit.o(.ARM.Collect$$libinit$$00000000)
    __rt_lib_init_fp_1                       0x0800023f   Thumb Code     0  libinit2.o(.ARM.Collect$$libinit$$00000001)
    __rt_lib_init_heap_2                     0x08000243   Thumb Code     0  libinit2.o(.ARM.Collect$$libinit$$00000005)
    __rt_lib_init_preinit_1                  0x08000243   Thumb Code     0  libinit2.o(.ARM.Collect$$libinit$$00000004)
    __rt_lib_init_alloca_1                   0x0800024b   Thumb Code     0  libinit2.o(.ARM.Collect$$libinit$$0000002E)
    __rt_lib_init_argv_1                     0x0800024b   Thumb Code     0  libinit2.o(.ARM.Collect$$libinit$$0000002C)
    __rt_lib_init_atexit_1                   0x0800024b   Thumb Code     0  libinit2.o(.ARM.Collect$$libinit$$0000001B)
    __rt_lib_init_clock_1                    0x0800024b   Thumb Code     0  libinit2.o(.ARM.Collect$$libinit$$00000021)
    __rt_lib_init_cpp_1                      0x0800024b   Thumb Code     0  libinit2.o(.ARM.Collect$$libinit$$00000032)
    __rt_lib_init_exceptions_1               0x0800024b   Thumb Code     0  libinit2.o(.ARM.Collect$$libinit$$00000030)
    __rt_lib_init_fp_trap_1                  0x0800024b   Thumb Code     0  libinit2.o(.ARM.Collect$$libinit$$0000001F)
    __rt_lib_init_getenv_1                   0x0800024b   Thumb Code     0  libinit2.o(.ARM.Collect$$libinit$$00000023)
    __rt_lib_init_heap_1                     0x0800024b   Thumb Code     0  libinit2.o(.ARM.Collect$$libinit$$0000000A)
    __rt_lib_init_lc_collate_1               0x0800024b   Thumb Code     0  libinit2.o(.ARM.Collect$$libinit$$00000011)
    __rt_lib_init_lc_ctype_1                 0x0800024b   Thumb Code     0  libinit2.o(.ARM.Collect$$libinit$$00000013)
    __rt_lib_init_lc_monetary_1              0x0800024b   Thumb Code     0  libinit2.o(.ARM.Collect$$libinit$$00000015)
    __rt_lib_init_lc_numeric_1               0x0800024b   Thumb Code     0  libinit2.o(.ARM.Collect$$libinit$$00000017)
    __rt_lib_init_lc_time_1                  0x0800024b   Thumb Code     0  libinit2.o(.ARM.Collect$$libinit$$00000019)
    __rt_lib_init_rand_1                     0x0800024b   Thumb Code     0  libinit2.o(.ARM.Collect$$libinit$$0000000E)
    __rt_lib_init_return                     0x0800024b   Thumb Code     0  libinit2.o(.ARM.Collect$$libinit$$00000033)
    __rt_lib_init_signal_1                   0x0800024b   Thumb Code     0  libinit2.o(.ARM.Collect$$libinit$$0000001D)
    __rt_lib_init_stdio_1                    0x0800024b   Thumb Code     0  libinit2.o(.ARM.Collect$$libinit$$00000025)
    __rt_lib_init_user_alloc_1               0x0800024b   Thumb Code     0  libinit2.o(.ARM.Collect$$libinit$$0000000C)
    __rt_lib_shutdown                        0x0800024d   Thumb Code     0  libshutdown.o(.ARM.Collect$$libshutdown$$00000000)
    __rt_lib_shutdown_cpp_1                  0x0800024f   Thumb Code     0  libshutdown2.o(.ARM.Collect$$libshutdown$$00000004)
    __rt_lib_shutdown_fini_1                 0x0800024f   Thumb Code     0  libshutdown2.o(.ARM.Collect$$libshutdown$$00000002)
    __rt_lib_shutdown_fp_trap_1              0x0800024f   Thumb Code     0  libshutdown2.o(.ARM.Collect$$libshutdown$$00000009)
    __rt_lib_shutdown_heap_1                 0x0800024f   Thumb Code     0  libshutdown2.o(.ARM.Collect$$libshutdown$$00000011)
    __rt_lib_shutdown_return                 0x0800024f   Thumb Code     0  libshutdown2.o(.ARM.Collect$$libshutdown$$00000012)
    __rt_lib_shutdown_signal_1               0x0800024f   Thumb Code     0  libshutdown2.o(.ARM.Collect$$libshutdown$$0000000C)
    __rt_lib_shutdown_stdio_1                0x0800024f   Thumb Code     0  libshutdown2.o(.ARM.Collect$$libshutdown$$00000006)
    __rt_lib_shutdown_user_alloc_1           0x0800024f   Thumb Code     0  libshutdown2.o(.ARM.Collect$$libshutdown$$0000000E)
    __rt_entry                               0x08000251   Thumb Code     0  __rtentry.o(.ARM.Collect$$rtentry$$00000000)
    __rt_entry_presh_1                       0x08000251   Thumb Code     0  __rtentry2.o(.ARM.Collect$$rtentry$$00000002)
    __rt_entry_sh                            0x08000251   Thumb Code     0  __rtentry4.o(.ARM.Collect$$rtentry$$00000004)
    __rt_entry_li                            0x08000257   Thumb Code     0  __rtentry2.o(.ARM.Collect$$rtentry$$0000000A)
    __rt_entry_postsh_1                      0x08000257   Thumb Code     0  __rtentry2.o(.ARM.Collect$$rtentry$$00000009)
    __rt_entry_main                          0x0800025b   Thumb Code     0  __rtentry2.o(.ARM.Collect$$rtentry$$0000000D)
    __rt_entry_postli_1                      0x0800025b   Thumb Code     0  __rtentry2.o(.ARM.Collect$$rtentry$$0000000C)
    __rt_exit                                0x08000263   Thumb Code     0  rtexit.o(.ARM.Collect$$rtexit$$00000000)
    __rt_exit_ls                             0x08000265   Thumb Code     0  rtexit2.o(.ARM.Collect$$rtexit$$00000003)
    __rt_exit_prels_1                        0x08000265   Thumb Code     0  rtexit2.o(.ARM.Collect$$rtexit$$00000002)
    __rt_exit_exit                           0x08000269   Thumb Code     0  rtexit2.o(.ARM.Collect$$rtexit$$00000004)
    SVC_Handler                              0x08000271   Thumb Code    28  port.o(.emb_text)
    __asm___6_port_c_39a90d8d__prvStartFirstTask 0x08000291   Thumb Code    36  port.o(.emb_text)
    __asm___6_port_c_39a90d8d__prvEnableVFP  0x080002b9   Thumb Code    16  port.o(.emb_text)
    PendSV_Handler                           0x080002cd   Thumb Code    88  port.o(.emb_text)
    vPortGetIPSR                             0x08000329   Thumb Code     6  port.o(.emb_text)
    Reset_Handler                            0x08000331   Thumb Code     8  startup_stm32f407xx.o(.text)
    _maybe_terminate_alloc                   0x08000331   Thumb Code     0  maybetermalloc1.o(.emb_text)
    ADC_IRQHandler                           0x0800034b   Thumb Code     0  startup_stm32f407xx.o(.text)
    CAN1_RX1_IRQHandler                      0x0800034b   Thumb Code     0  startup_stm32f407xx.o(.text)
    CAN1_SCE_IRQHandler                      0x0800034b   Thumb Code     0  startup_stm32f407xx.o(.text)
    CAN1_TX_IRQHandler                       0x0800034b   Thumb Code     0  startup_stm32f407xx.o(.text)
    CAN2_RX0_IRQHandler                      0x0800034b   Thumb Code     0  startup_stm32f407xx.o(.text)
    CAN2_SCE_IRQHandler                      0x0800034b   Thumb Code     0  startup_stm32f407xx.o(.text)
    CAN2_TX_IRQHandler                       0x0800034b   Thumb Code     0  startup_stm32f407xx.o(.text)
    DCMI_IRQHandler                          0x0800034b   Thumb Code     0  startup_stm32f407xx.o(.text)
    DMA1_Stream0_IRQHandler                  0x0800034b   Thumb Code     0  startup_stm32f407xx.o(.text)
    DMA1_Stream2_IRQHandler                  0x0800034b   Thumb Code     0  startup_stm32f407xx.o(.text)
    DMA1_Stream3_IRQHandler                  0x0800034b   Thumb Code     0  startup_stm32f407xx.o(.text)
    DMA1_Stream4_IRQHandler                  0x0800034b   Thumb Code     0  startup_stm32f407xx.o(.text)
    DMA1_Stream5_IRQHandler                  0x0800034b   Thumb Code     0  startup_stm32f407xx.o(.text)
    DMA1_Stream6_IRQHandler                  0x0800034b   Thumb Code     0  startup_stm32f407xx.o(.text)
    DMA1_Stream7_IRQHandler                  0x0800034b   Thumb Code     0  startup_stm32f407xx.o(.text)
    DMA2_Stream0_IRQHandler                  0x0800034b   Thumb Code     0  startup_stm32f407xx.o(.text)
    DMA2_Stream3_IRQHandler                  0x0800034b   Thumb Code     0  startup_stm32f407xx.o(.text)
    DMA2_Stream4_IRQHandler                  0x0800034b   Thumb Code     0  startup_stm32f407xx.o(.text)
    DMA2_Stream5_IRQHandler                  0x0800034b   Thumb Code     0  startup_stm32f407xx.o(.text)
    ETH_IRQHandler                           0x0800034b   Thumb Code     0  startup_stm32f407xx.o(.text)
    ETH_WKUP_IRQHandler                      0x0800034b   Thumb Code     0  startup_stm32f407xx.o(.text)
    EXTI0_IRQHandler                         0x0800034b   Thumb Code     0  startup_stm32f407xx.o(.text)
    EXTI15_10_IRQHandler                     0x0800034b   Thumb Code     0  startup_stm32f407xx.o(.text)
    EXTI1_IRQHandler                         0x0800034b   Thumb Code     0  startup_stm32f407xx.o(.text)
    EXTI2_IRQHandler                         0x0800034b   Thumb Code     0  startup_stm32f407xx.o(.text)
    EXTI3_IRQHandler                         0x0800034b   Thumb Code     0  startup_stm32f407xx.o(.text)
    EXTI4_IRQHandler                         0x0800034b   Thumb Code     0  startup_stm32f407xx.o(.text)
    FLASH_IRQHandler                         0x0800034b   Thumb Code     0  startup_stm32f407xx.o(.text)
    FMC_IRQHandler                           0x0800034b   Thumb Code     0  startup_stm32f407xx.o(.text)
    FPU_IRQHandler                           0x0800034b   Thumb Code     0  startup_stm32f407xx.o(.text)
    HASH_RNG_IRQHandler                      0x0800034b   Thumb Code     0  startup_stm32f407xx.o(.text)
    I2C1_ER_IRQHandler                       0x0800034b   Thumb Code     0  startup_stm32f407xx.o(.text)
    I2C1_EV_IRQHandler                       0x0800034b   Thumb Code     0  startup_stm32f407xx.o(.text)
    I2C2_ER_IRQHandler                       0x0800034b   Thumb Code     0  startup_stm32f407xx.o(.text)
    I2C2_EV_IRQHandler                       0x0800034b   Thumb Code     0  startup_stm32f407xx.o(.text)
    I2C3_ER_IRQHandler                       0x0800034b   Thumb Code     0  startup_stm32f407xx.o(.text)
    I2C3_EV_IRQHandler                       0x0800034b   Thumb Code     0  startup_stm32f407xx.o(.text)
    OTG_FS_WKUP_IRQHandler                   0x0800034b   Thumb Code     0  startup_stm32f407xx.o(.text)
    OTG_HS_EP1_IN_IRQHandler                 0x0800034b   Thumb Code     0  startup_stm32f407xx.o(.text)
    OTG_HS_EP1_OUT_IRQHandler                0x0800034b   Thumb Code     0  startup_stm32f407xx.o(.text)
    OTG_HS_IRQHandler                        0x0800034b   Thumb Code     0  startup_stm32f407xx.o(.text)
    OTG_HS_WKUP_IRQHandler                   0x0800034b   Thumb Code     0  startup_stm32f407xx.o(.text)
    PVD_IRQHandler                           0x0800034b   Thumb Code     0  startup_stm32f407xx.o(.text)
    RCC_IRQHandler                           0x0800034b   Thumb Code     0  startup_stm32f407xx.o(.text)
    RTC_Alarm_IRQHandler                     0x0800034b   Thumb Code     0  startup_stm32f407xx.o(.text)
    RTC_WKUP_IRQHandler                      0x0800034b   Thumb Code     0  startup_stm32f407xx.o(.text)
    SDIO_IRQHandler                          0x0800034b   Thumb Code     0  startup_stm32f407xx.o(.text)
    SPI1_IRQHandler                          0x0800034b   Thumb Code     0  startup_stm32f407xx.o(.text)
    SPI2_IRQHandler                          0x0800034b   Thumb Code     0  startup_stm32f407xx.o(.text)
    SPI3_IRQHandler                          0x0800034b   Thumb Code     0  startup_stm32f407xx.o(.text)
    TAMP_STAMP_IRQHandler                    0x0800034b   Thumb Code     0  startup_stm32f407xx.o(.text)
    TIM1_BRK_TIM9_IRQHandler                 0x0800034b   Thumb Code     0  startup_stm32f407xx.o(.text)
    TIM1_CC_IRQHandler                       0x0800034b   Thumb Code     0  startup_stm32f407xx.o(.text)
    TIM1_TRG_COM_TIM11_IRQHandler            0x0800034b   Thumb Code     0  startup_stm32f407xx.o(.text)
    TIM1_UP_TIM10_IRQHandler                 0x0800034b   Thumb Code     0  startup_stm32f407xx.o(.text)
    TIM3_IRQHandler                          0x0800034b   Thumb Code     0  startup_stm32f407xx.o(.text)
    TIM4_IRQHandler                          0x0800034b   Thumb Code     0  startup_stm32f407xx.o(.text)
    TIM5_IRQHandler                          0x0800034b   Thumb Code     0  startup_stm32f407xx.o(.text)
    TIM6_DAC_IRQHandler                      0x0800034b   Thumb Code     0  startup_stm32f407xx.o(.text)
    TIM7_IRQHandler                          0x0800034b   Thumb Code     0  startup_stm32f407xx.o(.text)
    TIM8_BRK_TIM12_IRQHandler                0x0800034b   Thumb Code     0  startup_stm32f407xx.o(.text)
    TIM8_CC_IRQHandler                       0x0800034b   Thumb Code     0  startup_stm32f407xx.o(.text)
    TIM8_TRG_COM_TIM14_IRQHandler            0x0800034b   Thumb Code     0  startup_stm32f407xx.o(.text)
    TIM8_UP_TIM13_IRQHandler                 0x0800034b   Thumb Code     0  startup_stm32f407xx.o(.text)
    UART4_IRQHandler                         0x0800034b   Thumb Code     0  startup_stm32f407xx.o(.text)
    UART5_IRQHandler                         0x0800034b   Thumb Code     0  startup_stm32f407xx.o(.text)
    USART2_IRQHandler                        0x0800034b   Thumb Code     0  startup_stm32f407xx.o(.text)
    WWDG_IRQHandler                          0x0800034b   Thumb Code     0  startup_stm32f407xx.o(.text)
    __user_initial_stackheap                 0x0800034d   Thumb Code     0  startup_stm32f407xx.o(.text)
    arm_mat_add_f32                          0x08000371   Thumb Code   264  arm_mat_add_f32.o(.text)
    arm_mat_init_f32                         0x08000479   Thumb Code     8  arm_mat_init_f32.o(.text)
    arm_mat_inverse_f32                      0x08000481   Thumb Code  1328  arm_mat_inverse_f32.o(.text)
    arm_mat_mult_f32                         0x080009b1   Thumb Code   312  arm_mat_mult_f32.o(.text)
    arm_mat_sub_f32                          0x08000aed   Thumb Code   264  arm_mat_sub_f32.o(.text)
    arm_mat_trans_f32                        0x08000bf5   Thumb Code   276  arm_mat_trans_f32.o(.text)
    malloc                                   0x08000d09   Thumb Code    94  h1_alloc.o(.text)
    __aeabi_uldivmod                         0x08000d67   Thumb Code     0  lludivv7m.o(.text)
    _ll_udiv                                 0x08000d67   Thumb Code   238  lludivv7m.o(.text)
    __aeabi_memcpy                           0x08000e55   Thumb Code     0  rt_memcpy_v6.o(.text)
    __rt_memcpy                              0x08000e55   Thumb Code   138  rt_memcpy_v6.o(.text)
    _memcpy_lastbytes                        0x08000ebb   Thumb Code     0  rt_memcpy_v6.o(.text)
    __aeabi_memcpy4                          0x08000edf   Thumb Code     0  rt_memcpy_w.o(.text)
    __aeabi_memcpy8                          0x08000edf   Thumb Code     0  rt_memcpy_w.o(.text)
    __rt_memcpy_w                            0x08000edf   Thumb Code   100  rt_memcpy_w.o(.text)
    _memcpy_lastbytes_aligned                0x08000f27   Thumb Code     0  rt_memcpy_w.o(.text)
    __aeabi_memset                           0x08000f43   Thumb Code    16  aeabi_memset.o(.text)
    __aeabi_memclr                           0x08000f53   Thumb Code     0  rt_memclr.o(.text)
    __rt_memclr                              0x08000f53   Thumb Code    68  rt_memclr.o(.text)
    _memset                                  0x08000f57   Thumb Code     0  rt_memclr.o(.text)
    __aeabi_memclr4                          0x08000f97   Thumb Code     0  rt_memclr_w.o(.text)
    __aeabi_memclr8                          0x08000f97   Thumb Code     0  rt_memclr_w.o(.text)
    __rt_memclr_w                            0x08000f97   Thumb Code    78  rt_memclr_w.o(.text)
    _memset_w                                0x08000f9b   Thumb Code     0  rt_memclr_w.o(.text)
    __use_two_region_memory                  0x08000fe5   Thumb Code     2  heapauxi.o(.text)
    __rt_heap_escrow                         0x08000fe7   Thumb Code     2  heapauxi.o(.text)
    __rt_heap_expand                         0x08000fe9   Thumb Code     2  heapauxi.o(.text)
    __rt_heap_descriptor                     0x08000fed   Thumb Code     8  rt_heap_descriptor_intlibspace.o(.text)
    __use_no_heap                            0x08000ff5   Thumb Code     2  hguard.o(.text)
    __heap$guard                             0x08000ff7   Thumb Code     2  hguard.o(.text)
    _terminate_user_alloc                    0x08000ff9   Thumb Code     2  init_alloc.o(.text)
    _init_user_alloc                         0x08000ffb   Thumb Code     2  init_alloc.o(.text)
    __Heap_Full                              0x08000ffd   Thumb Code    34  init_alloc.o(.text)
    __Heap_Broken                            0x0800101f   Thumb Code     6  init_alloc.o(.text)
    _init_alloc                              0x08001025   Thumb Code    94  init_alloc.o(.text)
    __Heap_Initialize                        0x08001083   Thumb Code    10  h1_init.o(.text)
    __Heap_DescSize                          0x0800108d   Thumb Code     4  h1_init.o(.text)
    free                                     0x08001091   Thumb Code    78  h1_free.o(.text)
    __read_errno                             0x080010df   Thumb Code    10  _rserrno.o(.text)
    __set_errno                              0x080010e9   Thumb Code    12  _rserrno.o(.text)
    __user_libspace                          0x080010f5   Thumb Code     8  libspace.o(.text)
    __user_perproc_libspace                  0x080010f5   Thumb Code     0  libspace.o(.text)
    __user_perthread_libspace                0x080010f5   Thumb Code     0  libspace.o(.text)
    __aeabi_errno_addr                       0x080010fd   Thumb Code     8  rt_errno_addr_intlibspace.o(.text)
    __errno$intlibspace                      0x080010fd   Thumb Code     0  rt_errno_addr_intlibspace.o(.text)
    __rt_errno_addr$intlibspace              0x080010fd   Thumb Code     0  rt_errno_addr_intlibspace.o(.text)
    __Heap_ProvideMemory                     0x08001105   Thumb Code    52  h1_extend.o(.text)
    _fp_trap                                 0x08001139   Thumb Code    44  _fptrap.o(.text)
    __rt_SIGRTMEM                            0x08001169   Thumb Code    14  defsig_rtmem_outer.o(.text)
    __I$use$semihosting                      0x08001177   Thumb Code     0  use_no_semi.o(.text)
    __use_no_semihosting_swi                 0x08001177   Thumb Code     2  use_no_semi.o(.text)
    __semihosting_library_function           0x08001179   Thumb Code     0  indicate_semi.o(.text)
    __user_setup_stackheap                   0x08001179   Thumb Code    74  sys_stackheap_outer.o(.text)
    exit                                     0x080011c3   Thumb Code    18  exit.o(.text)
    __sig_exit                               0x080011d5   Thumb Code    10  defsig_exit.o(.text)
    __rt_SIGFPE                              0x080011df   Thumb Code    14  defsig_fpe_outer.o(.text)
    __rt_SIGRTMEM_inner                      0x080011ed   Thumb Code    22  defsig_rtmem_inner.o(.text)
    _sys_exit                                0x0800123d   Thumb Code     8  sys_exit.o(.text)
    __default_signal_display                 0x08001249   Thumb Code    50  defsig_general.o(.text)
    __rt_SIGFPE_inner                        0x0800127d   Thumb Code    62  defsig_fpe_inner.o(.text)
    _ttywrch                                 0x08001329   Thumb Code    14  sys_wrch.o(.text)
    BMI088_ACCEL_NS_H                        0x08001339   Thumb Code    14  bsp_gpio.o(i.BMI088_ACCEL_NS_H)
    BMI088_ACCEL_NS_L                        0x0800134d   Thumb Code    14  bsp_gpio.o(i.BMI088_ACCEL_NS_L)
    BMI088_GYRO_NS_H                         0x08001485   Thumb Code    14  bsp_gpio.o(i.BMI088_GYRO_NS_H)
    BMI088_GYRO_NS_L                         0x08001499   Thumb Code    14  bsp_gpio.o(i.BMI088_GYRO_NS_L)
    BMI088_Info_Update                       0x0800159d   Thumb Code   414  bmi088.o(i.BMI088_Info_Update)
    BMI088_Init                              0x08001745   Thumb Code    36  bmi088.o(i.BMI088_Init)
    BMI088_Read_Write_Byte                   0x080017d9   Thumb Code    32  bsp_spi.o(i.BMI088_Read_Write_Byte)
    BSP_CAN_Init                             0x0800188d   Thumb Code   142  bsp_can.o(i.BSP_CAN_Init)
    BSP_DWT_Init                             0x08001925   Thumb Code    74  bsp_dwt.o(i.BSP_DWT_Init)
    BSP_USART_Init                           0x0800198d   Thumb Code    48  bsp_uart.o(i.BSP_USART_Init)
    Bsp_Tim_Init                             0x080019cd   Thumb Code    12  bsp_tim.o(i.Bsp_Tim_Init)
    BusFault_Handler                         0x080019dd   Thumb Code     4  stm32f4xx_it.o(i.BusFault_Handler)
    CAN1_RX0_IRQHandler                      0x080019e1   Thumb Code    10  stm32f4xx_it.o(i.CAN1_RX0_IRQHandler)
    CAN2_RX1_IRQHandler                      0x08001a91   Thumb Code    10  stm32f4xx_it.o(i.CAN2_RX1_IRQHandler)
    CDC_Transmit_FS                          0x08001d31   Thumb Code    50  usbd_cdc_if.o(i.CDC_Transmit_FS)
    COMM_Task                                0x08001d69   Thumb Code    26  comm_task.o(i.COMM_Task)
    DJIMotorCANRxInit                        0x08001e25   Thumb Code     6  motor.o(i.DJIMotorCANRxInit)
    DJI_Motor_Info_Update                    0x08001e51   Thumb Code   288  motor.o(i.DJI_Motor_Info_Update)
    DMA1_Stream1_IRQHandler                  0x08001f79   Thumb Code    10  stm32f4xx_it.o(i.DMA1_Stream1_IRQHandler)
    DMA2_Stream1_IRQHandler                  0x08001f89   Thumb Code    10  stm32f4xx_it.o(i.DMA2_Stream1_IRQHandler)
    DMA2_Stream2_IRQHandler                  0x08001f99   Thumb Code    10  stm32f4xx_it.o(i.DMA2_Stream2_IRQHandler)
    DMA2_Stream6_IRQHandler                  0x08001fa9   Thumb Code    10  stm32f4xx_it.o(i.DMA2_Stream6_IRQHandler)
    DMA2_Stream7_IRQHandler                  0x08001fb9   Thumb Code    10  stm32f4xx_it.o(i.DMA2_Stream7_IRQHandler)
    DMMotorCANInit                           0x080020a7   Thumb Code    14  motor.o(i.DMMotorCANInit)
    DMMotorClearError                        0x080020b5   Thumb Code    58  motor.o(i.DMMotorClearError)
    DMMotorCtrl                              0x080020ef   Thumb Code   124  motor.o(i.DMMotorCtrl)
    DMMotorDisable                           0x0800216b   Thumb Code    62  motor.o(i.DMMotorDisable)
    DMMotorEnable                            0x080021a9   Thumb Code    62  motor.o(i.DMMotorEnable)
    DMMotorFeedback                          0x080021e9   Thumb Code   182  motor.o(i.DMMotorFeedback)
    DMMotorSetZeroPoint                      0x080022a5   Thumb Code    58  motor.o(i.DMMotorSetZeroPoint)
    DMMotorStart                             0x080022e1   Thumb Code   268  motor.o(i.DMMotorStart)
    DebugMon_Handler                         0x080025cd   Thumb Code     2  stm32f4xx_it.o(i.DebugMon_Handler)
    Delay_ms                                 0x080025cf   Thumb Code    24  bsp_tick.o(i.Delay_ms)
    Delay_us                                 0x080025e7   Thumb Code    24  bsp_tick.o(i.Delay_us)
    Detect_Task                              0x08002601   Thumb Code    22  detect_task.o(i.Detect_Task)
    EXTI9_5_IRQHandler                       0x08002621   Thumb Code    10  stm32f4xx_it.o(i.EXTI9_5_IRQHandler)
    Error_Handler                            0x0800262b   Thumb Code     6  main.o(i.Error_Handler)
    HAL_CAN_ActivateNotification             0x08002e65   Thumb Code    42  stm32f4xx_hal_can.o(i.HAL_CAN_ActivateNotification)
    HAL_CAN_AddTxMessage                     0x08002e8f   Thumb Code   330  stm32f4xx_hal_can.o(i.HAL_CAN_AddTxMessage)
    HAL_CAN_ConfigFilter                     0x08002fd9   Thumb Code   286  stm32f4xx_hal_can.o(i.HAL_CAN_ConfigFilter)
    HAL_CAN_ErrorCallback                    0x080030fd   Thumb Code     2  stm32f4xx_hal_can.o(i.HAL_CAN_ErrorCallback)
    HAL_CAN_GetRxMessage                     0x080030ff   Thumb Code   404  stm32f4xx_hal_can.o(i.HAL_CAN_GetRxMessage)
    HAL_CAN_IRQHandler                       0x08003293   Thumb Code   590  stm32f4xx_hal_can.o(i.HAL_CAN_IRQHandler)
    HAL_CAN_Init                             0x080034e1   Thumb Code   372  stm32f4xx_hal_can.o(i.HAL_CAN_Init)
    HAL_CAN_MspInit                          0x08003655   Thumb Code   328  can.o(i.HAL_CAN_MspInit)
    HAL_CAN_RxFifo0FullCallback              0x080037b5   Thumb Code     2  stm32f4xx_hal_can.o(i.HAL_CAN_RxFifo0FullCallback)
    HAL_CAN_RxFifo0MsgPendingCallback        0x080037b7   Thumb Code    30  bsp_can.o(i.HAL_CAN_RxFifo0MsgPendingCallback)
    HAL_CAN_RxFifo1FullCallback              0x080037d5   Thumb Code     2  stm32f4xx_hal_can.o(i.HAL_CAN_RxFifo1FullCallback)
    HAL_CAN_RxFifo1MsgPendingCallback        0x080037d7   Thumb Code    30  bsp_can.o(i.HAL_CAN_RxFifo1MsgPendingCallback)
    HAL_CAN_SleepCallback                    0x080037f5   Thumb Code     2  stm32f4xx_hal_can.o(i.HAL_CAN_SleepCallback)
    HAL_CAN_Start                            0x080037f7   Thumb Code    94  stm32f4xx_hal_can.o(i.HAL_CAN_Start)
    HAL_CAN_TxMailbox0AbortCallback          0x08003855   Thumb Code     2  stm32f4xx_hal_can.o(i.HAL_CAN_TxMailbox0AbortCallback)
    HAL_CAN_TxMailbox0CompleteCallback       0x08003857   Thumb Code     2  stm32f4xx_hal_can.o(i.HAL_CAN_TxMailbox0CompleteCallback)
    HAL_CAN_TxMailbox1AbortCallback          0x08003859   Thumb Code     2  stm32f4xx_hal_can.o(i.HAL_CAN_TxMailbox1AbortCallback)
    HAL_CAN_TxMailbox1CompleteCallback       0x0800385b   Thumb Code     2  stm32f4xx_hal_can.o(i.HAL_CAN_TxMailbox1CompleteCallback)
    HAL_CAN_TxMailbox2AbortCallback          0x0800385d   Thumb Code     2  stm32f4xx_hal_can.o(i.HAL_CAN_TxMailbox2AbortCallback)
    HAL_CAN_TxMailbox2CompleteCallback       0x0800385f   Thumb Code     2  stm32f4xx_hal_can.o(i.HAL_CAN_TxMailbox2CompleteCallback)
    HAL_CAN_WakeUpFromRxMsgCallback          0x08003861   Thumb Code     2  stm32f4xx_hal_can.o(i.HAL_CAN_WakeUpFromRxMsgCallback)
    HAL_DMA_Abort                            0x08003863   Thumb Code   172  stm32f4xx_hal_dma.o(i.HAL_DMA_Abort)
    HAL_DMA_Abort_IT                         0x0800390f   Thumb Code    40  stm32f4xx_hal_dma.o(i.HAL_DMA_Abort_IT)
    HAL_DMA_IRQHandler                       0x08003939   Thumb Code   570  stm32f4xx_hal_dma.o(i.HAL_DMA_IRQHandler)
    HAL_DMA_Init                             0x08003b79   Thumb Code   232  stm32f4xx_hal_dma.o(i.HAL_DMA_Init)
    HAL_Delay                                0x08003c65   Thumb Code    36  stm32f4xx_hal.o(i.HAL_Delay)
    HAL_GPIO_EXTI_Callback                   0x08003c8d   Thumb Code     2  stm32f4xx_hal_gpio.o(i.HAL_GPIO_EXTI_Callback)
    HAL_GPIO_EXTI_IRQHandler                 0x08003c91   Thumb Code    24  stm32f4xx_hal_gpio.o(i.HAL_GPIO_EXTI_IRQHandler)
    HAL_GPIO_Init                            0x08003cad   Thumb Code   454  stm32f4xx_hal_gpio.o(i.HAL_GPIO_Init)
    HAL_GPIO_WritePin                        0x08003ea1   Thumb Code    12  stm32f4xx_hal_gpio.o(i.HAL_GPIO_WritePin)
    HAL_GetTick                              0x08003ead   Thumb Code     6  stm32f4xx_hal.o(i.HAL_GetTick)
    HAL_IncTick                              0x08003eb9   Thumb Code    16  stm32f4xx_hal.o(i.HAL_IncTick)
    HAL_Init                                 0x08003ed1   Thumb Code    54  stm32f4xx_hal.o(i.HAL_Init)
    HAL_InitTick                             0x08003f0d   Thumb Code   162  stm32f4xx_hal_timebase_tim.o(i.HAL_InitTick)
    HAL_MspInit                              0x08003fc1   Thumb Code    78  stm32f4xx_hal_msp.o(i.HAL_MspInit)
    HAL_NVIC_EnableIRQ                       0x08004015   Thumb Code    40  stm32f4xx_hal_cortex.o(i.HAL_NVIC_EnableIRQ)
    HAL_NVIC_SetPriority                     0x0800403d   Thumb Code   124  stm32f4xx_hal_cortex.o(i.HAL_NVIC_SetPriority)
    HAL_NVIC_SetPriorityGrouping             0x080040b9   Thumb Code    32  stm32f4xx_hal_cortex.o(i.HAL_NVIC_SetPriorityGrouping)
    HAL_PCDEx_LPM_Callback                   0x080040e1   Thumb Code     2  stm32f4xx_hal_pcd_ex.o(i.HAL_PCDEx_LPM_Callback)
    HAL_PCDEx_SetRxFiFo                      0x080040e3   Thumb Code    10  stm32f4xx_hal_pcd_ex.o(i.HAL_PCDEx_SetRxFiFo)
    HAL_PCDEx_SetTxFiFo                      0x080040ed   Thumb Code    78  stm32f4xx_hal_pcd_ex.o(i.HAL_PCDEx_SetTxFiFo)
    HAL_PCD_ConnectCallback                  0x0800413b   Thumb Code    14  usbd_conf.o(i.HAL_PCD_ConnectCallback)
    HAL_PCD_DataInStageCallback              0x08004149   Thumb Code    32  usbd_conf.o(i.HAL_PCD_DataInStageCallback)
    HAL_PCD_DataOutStageCallback             0x08004169   Thumb Code    32  usbd_conf.o(i.HAL_PCD_DataOutStageCallback)
    HAL_PCD_DisconnectCallback               0x08004189   Thumb Code    14  usbd_conf.o(i.HAL_PCD_DisconnectCallback)
    HAL_PCD_EP_Abort                         0x08004197   Thumb Code    66  stm32f4xx_hal_pcd.o(i.HAL_PCD_EP_Abort)
    HAL_PCD_EP_Close                         0x080041d9   Thumb Code   106  stm32f4xx_hal_pcd.o(i.HAL_PCD_EP_Close)
    HAL_PCD_EP_ClrStall                      0x08004243   Thumb Code   124  stm32f4xx_hal_pcd.o(i.HAL_PCD_EP_ClrStall)
    HAL_PCD_EP_GetRxCount                    0x080042bf   Thumb Code    22  stm32f4xx_hal_pcd.o(i.HAL_PCD_EP_GetRxCount)
    HAL_PCD_EP_Open                          0x080042d5   Thumb Code   142  stm32f4xx_hal_pcd.o(i.HAL_PCD_EP_Open)
    HAL_PCD_EP_Receive                       0x08004363   Thumb Code    70  stm32f4xx_hal_pcd.o(i.HAL_PCD_EP_Receive)
    HAL_PCD_EP_SetStall                      0x080043a9   Thumb Code   138  stm32f4xx_hal_pcd.o(i.HAL_PCD_EP_SetStall)
    HAL_PCD_EP_Transmit                      0x08004433   Thumb Code    72  stm32f4xx_hal_pcd.o(i.HAL_PCD_EP_Transmit)
    HAL_PCD_IRQHandler                       0x0800447b   Thumb Code  1738  stm32f4xx_hal_pcd.o(i.HAL_PCD_IRQHandler)
    HAL_PCD_ISOINIncompleteCallback          0x08004b45   Thumb Code    18  usbd_conf.o(i.HAL_PCD_ISOINIncompleteCallback)
    HAL_PCD_ISOOUTIncompleteCallback         0x08004b57   Thumb Code    18  usbd_conf.o(i.HAL_PCD_ISOOUTIncompleteCallback)
    HAL_PCD_Init                             0x08004b69   Thumb Code   350  stm32f4xx_hal_pcd.o(i.HAL_PCD_Init)
    HAL_PCD_MspInit                          0x08004cc9   Thumb Code   160  usbd_conf.o(i.HAL_PCD_MspInit)
    HAL_PCD_ResetCallback                    0x08004d71   Thumb Code    48  usbd_conf.o(i.HAL_PCD_ResetCallback)
    HAL_PCD_ResumeCallback                   0x08004da1   Thumb Code    14  usbd_conf.o(i.HAL_PCD_ResumeCallback)
    HAL_PCD_SOFCallback                      0x08004daf   Thumb Code    14  usbd_conf.o(i.HAL_PCD_SOFCallback)
    HAL_PCD_SetAddress                       0x08004dbd   Thumb Code    52  stm32f4xx_hal_pcd.o(i.HAL_PCD_SetAddress)
    HAL_PCD_SetupStageCallback               0x08004df1   Thumb Code    18  usbd_conf.o(i.HAL_PCD_SetupStageCallback)
    HAL_PCD_Start                            0x08004e03   Thumb Code    76  stm32f4xx_hal_pcd.o(i.HAL_PCD_Start)
    HAL_PCD_SuspendCallback                  0x08004e51   Thumb Code    46  usbd_conf.o(i.HAL_PCD_SuspendCallback)
    HAL_RCC_CSSCallback                      0x08004e85   Thumb Code     2  stm32f4xx_hal_rcc.o(i.HAL_RCC_CSSCallback)
    HAL_RCC_ClockConfig                      0x08004e89   Thumb Code   368  stm32f4xx_hal_rcc.o(i.HAL_RCC_ClockConfig)
    HAL_RCC_EnableCSS                        0x0800500d   Thumb Code     8  stm32f4xx_hal_rcc.o(i.HAL_RCC_EnableCSS)
    HAL_RCC_GetClockConfig                   0x08005019   Thumb Code    58  stm32f4xx_hal_rcc.o(i.HAL_RCC_GetClockConfig)
    HAL_RCC_GetHCLKFreq                      0x0800505d   Thumb Code     6  stm32f4xx_hal_rcc.o(i.HAL_RCC_GetHCLKFreq)
    HAL_RCC_GetPCLK1Freq                     0x08005069   Thumb Code    22  stm32f4xx_hal_rcc.o(i.HAL_RCC_GetPCLK1Freq)
    HAL_RCC_GetPCLK2Freq                     0x08005089   Thumb Code    22  stm32f4xx_hal_rcc.o(i.HAL_RCC_GetPCLK2Freq)
    HAL_RCC_GetSysClockFreq                  0x080050a9   Thumb Code   162  stm32f4xx_hal_rcc.o(i.HAL_RCC_GetSysClockFreq)
    HAL_RCC_NMI_IRQHandler                   0x08005159   Thumb Code    28  stm32f4xx_hal_rcc.o(i.HAL_RCC_NMI_IRQHandler)
    HAL_RCC_OscConfig                        0x08005179   Thumb Code  1172  stm32f4xx_hal_rcc.o(i.HAL_RCC_OscConfig)
    HAL_SPI_Init                             0x08005615   Thumb Code   200  stm32f4xx_hal_spi.o(i.HAL_SPI_Init)
    HAL_SPI_MspInit                          0x080056dd   Thumb Code   180  spi.o(i.HAL_SPI_MspInit)
    HAL_SPI_TransmitReceive                  0x080057a1   Thumb Code   584  stm32f4xx_hal_spi.o(i.HAL_SPI_TransmitReceive)
    HAL_TIMEx_BreakCallback                  0x080059e9   Thumb Code     2  stm32f4xx_hal_tim_ex.o(i.HAL_TIMEx_BreakCallback)
    HAL_TIMEx_CommutCallback                 0x080059eb   Thumb Code     2  stm32f4xx_hal_tim_ex.o(i.HAL_TIMEx_CommutCallback)
    HAL_TIMEx_MasterConfigSynchronization    0x080059ed   Thumb Code   150  stm32f4xx_hal_tim_ex.o(i.HAL_TIMEx_MasterConfigSynchronization)
    HAL_TIM_Base_Init                        0x08005aa1   Thumb Code   102  stm32f4xx_hal_tim.o(i.HAL_TIM_Base_Init)
    HAL_TIM_Base_MspInit                     0x08005b09   Thumb Code    88  tim.o(i.HAL_TIM_Base_MspInit)
    HAL_TIM_Base_Start                       0x08005b6d   Thumb Code   126  stm32f4xx_hal_tim.o(i.HAL_TIM_Base_Start)
    HAL_TIM_Base_Start_IT                    0x08005c09   Thumb Code   138  stm32f4xx_hal_tim.o(i.HAL_TIM_Base_Start_IT)
    HAL_TIM_ConfigClockSource                0x08005cb1   Thumb Code   268  stm32f4xx_hal_tim.o(i.HAL_TIM_ConfigClockSource)
    HAL_TIM_IC_CaptureCallback               0x08005dbd   Thumb Code     2  stm32f4xx_hal_tim.o(i.HAL_TIM_IC_CaptureCallback)
    HAL_TIM_IRQHandler                       0x08005dbf   Thumb Code   364  stm32f4xx_hal_tim.o(i.HAL_TIM_IRQHandler)
    HAL_TIM_MspPostInit                      0x08005f2d   Thumb Code   158  tim.o(i.HAL_TIM_MspPostInit)
    HAL_TIM_OC_DelayElapsedCallback          0x08005fe1   Thumb Code     2  stm32f4xx_hal_tim.o(i.HAL_TIM_OC_DelayElapsedCallback)
    HAL_TIM_PWM_ConfigChannel                0x08005fe3   Thumb Code   260  stm32f4xx_hal_tim.o(i.HAL_TIM_PWM_ConfigChannel)
    HAL_TIM_PWM_Init                         0x080060e7   Thumb Code   102  stm32f4xx_hal_tim.o(i.HAL_TIM_PWM_Init)
    HAL_TIM_PWM_MspInit                      0x0800614d   Thumb Code     2  stm32f4xx_hal_tim.o(i.HAL_TIM_PWM_MspInit)
    HAL_TIM_PWM_PulseFinishedCallback        0x0800614f   Thumb Code     2  stm32f4xx_hal_tim.o(i.HAL_TIM_PWM_PulseFinishedCallback)
    HAL_TIM_PWM_Start                        0x08006151   Thumb Code   238  stm32f4xx_hal_tim.o(i.HAL_TIM_PWM_Start)
    HAL_TIM_PeriodElapsedCallback            0x0800625d   Thumb Code    18  main.o(i.HAL_TIM_PeriodElapsedCallback)
    HAL_TIM_TriggerCallback                  0x0800626f   Thumb Code     2  stm32f4xx_hal_tim.o(i.HAL_TIM_TriggerCallback)
    HAL_UARTEx_RxEventCallback               0x08006271   Thumb Code    86  bsp_uart.o(i.HAL_UARTEx_RxEventCallback)
    HAL_UART_ErrorCallback                   0x080062d1   Thumb Code     2  stm32f4xx_hal_uart.o(i.HAL_UART_ErrorCallback)
    HAL_UART_IRQHandler                      0x080062d5   Thumb Code   740  stm32f4xx_hal_uart.o(i.HAL_UART_IRQHandler)
    HAL_UART_Init                            0x080065bd   Thumb Code   118  stm32f4xx_hal_uart.o(i.HAL_UART_Init)
    HAL_UART_MspInit                         0x08006635   Thumb Code   764  usart.o(i.HAL_UART_MspInit)
    HAL_UART_RxCpltCallback                  0x0800696d   Thumb Code     2  stm32f4xx_hal_uart.o(i.HAL_UART_RxCpltCallback)
    HAL_UART_TxCpltCallback                  0x0800696f   Thumb Code     2  stm32f4xx_hal_uart.o(i.HAL_UART_TxCpltCallback)
    HardFault_Handler                        0x08006995   Thumb Code     4  stm32f4xx_it.o(i.HardFault_Handler)
    Heat_Power_Control                       0x080069bd   Thumb Code    16  bsp_tim.o(i.Heat_Power_Control)
    INS_Task                                 0x08006a39   Thumb Code   404  ins_task.o(i.INS_Task)
    Image_Transmission_Info_Update           0x08006bf5   Thumb Code   252  image_transmission.o(i.Image_Transmission_Info_Update)
    Image_Transmission_Message_Monitor       0x08006cf9   Thumb Code    52  image_transmission.o(i.Image_Transmission_Message_Monitor)
    Kalman_Filter_Init                       0x08006d6b   Thumb Code  1802  kalman.o(i.Kalman_Filter_Init)
    Kalman_Filter_Update                     0x0800766b   Thumb Code   164  kalman.o(i.Kalman_Filter_Update)
    Keyboard_Info_Update                     0x08007821   Thumb Code   202  keyboard.o(i.Keyboard_Info_Update)
    LowPassFilter2p_Init                     0x08007921   Thumb Code    30  lpf.o(i.LowPassFilter2p_Init)
    LowPassFilter2p_Update                   0x08007945   Thumb Code   102  lpf.o(i.LowPassFilter2p_Update)
    MCU_Init                                 0x080079ab   Thumb Code    30  bsp_mcu.o(i.MCU_Init)
    MX_CAN1_Init                             0x080079c9   Thumb Code    62  can.o(i.MX_CAN1_Init)
    MX_CAN2_Init                             0x08007a11   Thumb Code    62  can.o(i.MX_CAN2_Init)
    MX_DMA_Init                              0x08007a59   Thumb Code   146  dma.o(i.MX_DMA_Init)
    MX_FREERTOS_Init                         0x08007af1   Thumb Code   126  freertos.o(i.MX_FREERTOS_Init)
    MX_GPIO_Init                             0x08007b89   Thumb Code   362  gpio.o(i.MX_GPIO_Init)
    MX_SPI1_Init                             0x08007d05   Thumb Code    60  spi.o(i.MX_SPI1_Init)
    MX_TIM10_Init                            0x08007d49   Thumb Code   100  tim.o(i.MX_TIM10_Init)
    MX_TIM4_Init                             0x08007db5   Thumb Code   154  tim.o(i.MX_TIM4_Init)
    MX_USART1_UART_Init                      0x08007e59   Thumb Code    46  usart.o(i.MX_USART1_UART_Init)
    MX_USART3_UART_Init                      0x08007e91   Thumb Code    44  usart.o(i.MX_USART3_UART_Init)
    MX_USART6_UART_Init                      0x08007ec9   Thumb Code    46  usart.o(i.MX_USART6_UART_Init)
    MX_USB_DEVICE_Init                       0x08007f01   Thumb Code   104  usb_device.o(i.MX_USB_DEVICE_Init)
    MemManage_Handler                        0x08007f7d   Thumb Code     4  stm32f4xx_it.o(i.MemManage_Handler)
    MiniPC_RecvFrameInfo                     0x08007f81   Thumb Code    28  minipc.o(i.MiniPC_RecvFrameInfo)
    MiniPC_SendFrameInfo                     0x08007fa1   Thumb Code    24  minipc.o(i.MiniPC_SendFrameInfo)
    Motion_Task                              0x08008951   Thumb Code    66  motion_task.o(i.Motion_Task)
    MotorCtrl                                0x0800899d   Thumb Code   132  motor.o(i.MotorCtrl)
    MotorCtrlInit                            0x08008a21   Thumb Code   156  motor.o(i.MotorCtrlInit)
    NMI_Handler                              0x08008abd   Thumb Code     8  stm32f4xx_it.o(i.NMI_Handler)
    NormalizeAngleTo180                      0x08008ac5   Thumb Code    90  motion_task.o(i.NormalizeAngleTo180)
    OTG_FS_IRQHandler                        0x08008b2d   Thumb Code    10  stm32f4xx_it.o(i.OTG_FS_IRQHandler)
    PID_Init                                 0x08008e01   Thumb Code    48  pid.o(i.PID_Init)
    QuaternionEKF_Init                       0x08009455   Thumb Code   232  quaternion.o(i.QuaternionEKF_Init)
    QuaternionEKF_Update                     0x08009551   Thumb Code  1046  quaternion.o(i.QuaternionEKF_Update)
    Remote_Control_Lost_Check                0x08009d55   Thumb Code    22  keyboard.o(i.Remote_Control_Lost_Check)
    Remote_Message_Monitor                   0x08009d79   Thumb Code    38  remote_control.o(i.Remote_Message_Monitor)
    SBUS_TO_RC                               0x08009d9f   Thumb Code   220  remote_control.o(i.SBUS_TO_RC)
    Shoot_Task                               0x0800a0f1   Thumb Code   194  shoot_task.o(i.Shoot_Task)
    SysTick_Handler                          0x0800a1bd   Thumb Code    46  port.o(i.SysTick_Handler)
    SystemClock_Config                       0x0800a1f1   Thumb Code   174  main.o(i.SystemClock_Config)
    SystemInit                               0x0800a2a9   Thumb Code    14  system_stm32f4xx.o(i.SystemInit)
    TIM2_IRQHandler                          0x0800a2bd   Thumb Code    10  stm32f4xx_it.o(i.TIM2_IRQHandler)
    TIM_Base_SetConfig                       0x0800a2cd   Thumb Code   186  stm32f4xx_hal_tim.o(i.TIM_Base_SetConfig)
    TIM_CCxChannelCmd                        0x0800a3b5   Thumb Code    34  stm32f4xx_hal_tim.o(i.TIM_CCxChannelCmd)
    TIM_ETR_SetConfig                        0x0800a3d7   Thumb Code    22  stm32f4xx_hal_tim.o(i.TIM_ETR_SetConfig)
    TIM_OC2_SetConfig                        0x0800a471   Thumb Code   114  stm32f4xx_hal_tim.o(i.TIM_OC2_SetConfig)
    USART1_IRQHandler                        0x0800acc5   Thumb Code    10  stm32f4xx_it.o(i.USART1_IRQHandler)
    USART3_IRQHandler                        0x0800acd5   Thumb Code    10  stm32f4xx_it.o(i.USART3_IRQHandler)
    USART6_IRQHandler                        0x0800ace5   Thumb Code    10  stm32f4xx_it.o(i.USART6_IRQHandler)
    USBD_CDC_GetDeviceQualifierDescriptor    0x0800afa9   Thumb Code    10  usbd_cdc.o(i.USBD_CDC_GetDeviceQualifierDescriptor)
    USBD_CDC_ReceivePacket                   0x0800b229   Thumb Code    74  usbd_cdc.o(i.USBD_CDC_ReceivePacket)
    USBD_CDC_RegisterInterface               0x0800b279   Thumb Code    24  usbd_cdc.o(i.USBD_CDC_RegisterInterface)
    USBD_CDC_SetRxBuffer                     0x0800b291   Thumb Code    30  usbd_cdc.o(i.USBD_CDC_SetRxBuffer)
    USBD_CDC_SetTxBuffer                     0x0800b2af   Thumb Code    36  usbd_cdc.o(i.USBD_CDC_SetTxBuffer)
    USBD_CDC_TransmitPacket                  0x0800b415   Thumb Code    86  usbd_cdc.o(i.USBD_CDC_TransmitPacket)
    USBD_ClrClassConfig                      0x0800b471   Thumb Code    28  usbd_core.o(i.USBD_ClrClassConfig)
    USBD_CoreFindEP                          0x0800b4cb   Thumb Code     6  usbd_core.o(i.USBD_CoreFindEP)
    USBD_CoreFindIF                          0x0800b4d1   Thumb Code     6  usbd_core.o(i.USBD_CoreFindIF)
    USBD_CtlContinueRx                       0x0800b4d7   Thumb Code    24  usbd_ioreq.o(i.USBD_CtlContinueRx)
    USBD_CtlContinueSendData                 0x0800b4ef   Thumb Code    24  usbd_ioreq.o(i.USBD_CtlContinueSendData)
    USBD_CtlError                            0x0800b507   Thumb Code    24  usbd_ctlreq.o(i.USBD_CtlError)
    USBD_CtlPrepareRx                        0x0800b51f   Thumb Code    40  usbd_ioreq.o(i.USBD_CtlPrepareRx)
    USBD_CtlReceiveStatus                    0x0800b547   Thumb Code    26  usbd_ioreq.o(i.USBD_CtlReceiveStatus)
    USBD_CtlSendData                         0x0800b561   Thumb Code    34  usbd_ioreq.o(i.USBD_CtlSendData)
    USBD_CtlSendStatus                       0x0800b583   Thumb Code    26  usbd_ioreq.o(i.USBD_CtlSendStatus)
    USBD_FS_ConfigStrDescriptor              0x0800b59d   Thumb Code    34  usbd_desc.o(i.USBD_FS_ConfigStrDescriptor)
    USBD_FS_DeviceDescriptor                 0x0800b5d1   Thumb Code    10  usbd_desc.o(i.USBD_FS_DeviceDescriptor)
    USBD_FS_InterfaceStrDescriptor           0x0800b5e1   Thumb Code    34  usbd_desc.o(i.USBD_FS_InterfaceStrDescriptor)
    USBD_FS_LangIDStrDescriptor              0x0800b619   Thumb Code    10  usbd_desc.o(i.USBD_FS_LangIDStrDescriptor)
    USBD_FS_ManufacturerStrDescriptor        0x0800b629   Thumb Code    20  usbd_desc.o(i.USBD_FS_ManufacturerStrDescriptor)
    USBD_FS_ProductStrDescriptor             0x0800b655   Thumb Code    34  usbd_desc.o(i.USBD_FS_ProductStrDescriptor)
    USBD_FS_SerialStrDescriptor              0x0800b695   Thumb Code    18  usbd_desc.o(i.USBD_FS_SerialStrDescriptor)
    USBD_GetEpDesc                           0x0800b8ff   Thumb Code    80  usbd_core.o(i.USBD_GetEpDesc)
    USBD_GetNextDesc                         0x0800b965   Thumb Code    20  usbd_core.o(i.USBD_GetNextDesc)
    USBD_GetString                           0x0800b9d3   Thumb Code   104  usbd_ctlreq.o(i.USBD_GetString)
    USBD_Get_USB_Status                      0x0800ba3b   Thumb Code    44  usbd_conf.o(i.USBD_Get_USB_Status)
    USBD_Init                                0x0800ba67   Thumb Code    58  usbd_core.o(i.USBD_Init)
    USBD_LL_ClearStallEP                     0x0800baa1   Thumb Code    38  usbd_conf.o(i.USBD_LL_ClearStallEP)
    USBD_LL_CloseEP                          0x0800bac7   Thumb Code    38  usbd_conf.o(i.USBD_LL_CloseEP)
    USBD_LL_DataInStage                      0x0800baed   Thumb Code   264  usbd_core.o(i.USBD_LL_DataInStage)
    USBD_LL_DataOutStage                     0x0800bbf5   Thumb Code   258  usbd_core.o(i.USBD_LL_DataOutStage)
    USBD_LL_DevConnected                     0x0800bcf7   Thumb Code     6  usbd_core.o(i.USBD_LL_DevConnected)
    USBD_LL_DevDisconnected                  0x0800bcfd   Thumb Code    38  usbd_core.o(i.USBD_LL_DevDisconnected)
    USBD_LL_GetRxDataSize                    0x0800bd23   Thumb Code    18  usbd_conf.o(i.USBD_LL_GetRxDataSize)
    USBD_LL_Init                             0x0800bd35   Thumb Code   100  usbd_conf.o(i.USBD_LL_Init)
    USBD_LL_IsStallEP                        0x0800bd9d   Thumb Code    56  usbd_conf.o(i.USBD_LL_IsStallEP)
    USBD_LL_IsoINIncomplete                  0x0800bdd5   Thumb Code    72  usbd_core.o(i.USBD_LL_IsoINIncomplete)
    USBD_LL_IsoOUTIncomplete                 0x0800be1d   Thumb Code    72  usbd_core.o(i.USBD_LL_IsoOUTIncomplete)
    USBD_LL_OpenEP                           0x0800be65   Thumb Code    48  usbd_conf.o(i.USBD_LL_OpenEP)
    USBD_LL_PrepareReceive                   0x0800be95   Thumb Code    48  usbd_conf.o(i.USBD_LL_PrepareReceive)
    USBD_LL_Reset                            0x0800bec5   Thumb Code   108  usbd_core.o(i.USBD_LL_Reset)
    USBD_LL_Resume                           0x0800bf31   Thumb Code    22  usbd_core.o(i.USBD_LL_Resume)
    USBD_LL_SOF                              0x0800bf47   Thumb Code    40  usbd_core.o(i.USBD_LL_SOF)
    USBD_LL_SetSpeed                         0x0800bf6f   Thumb Code     8  usbd_core.o(i.USBD_LL_SetSpeed)
    USBD_LL_SetUSBAddress                    0x0800bf77   Thumb Code    38  usbd_conf.o(i.USBD_LL_SetUSBAddress)
    USBD_LL_SetupStage                       0x0800bf9d   Thumb Code   118  usbd_core.o(i.USBD_LL_SetupStage)
    USBD_LL_StallEP                          0x0800c013   Thumb Code    38  usbd_conf.o(i.USBD_LL_StallEP)
    USBD_LL_Start                            0x0800c039   Thumb Code    30  usbd_conf.o(i.USBD_LL_Start)
    USBD_LL_Suspend                          0x0800c057   Thumb Code    28  usbd_core.o(i.USBD_LL_Suspend)
    USBD_LL_Transmit                         0x0800c073   Thumb Code    48  usbd_conf.o(i.USBD_LL_Transmit)
    USBD_ParseSetupRequest                   0x0800c0a3   Thumb Code    54  usbd_ctlreq.o(i.USBD_ParseSetupRequest)
    USBD_RegisterClass                       0x0800c0d9   Thumb Code    72  usbd_core.o(i.USBD_RegisterClass)
    USBD_RunTestMode                         0x0800c121   Thumb Code     6  usbd_core.o(i.USBD_RunTestMode)
    USBD_SetClassConfig                      0x0800c181   Thumb Code    32  usbd_core.o(i.USBD_SetClassConfig)
    USBD_Start                               0x0800c2dd   Thumb Code    12  usbd_core.o(i.USBD_Start)
    USBD_StdDevReq                           0x0800c2e9   Thumb Code   174  usbd_ctlreq.o(i.USBD_StdDevReq)
    USBD_StdEPReq                            0x0800c397   Thumb Code   640  usbd_ctlreq.o(i.USBD_StdEPReq)
    USBD_StdItfReq                           0x0800c617   Thumb Code   174  usbd_ctlreq.o(i.USBD_StdItfReq)
    USBD_static_free                         0x0800c6c5   Thumb Code     2  usbd_conf.o(i.USBD_static_free)
    USBD_static_malloc                       0x0800c6c9   Thumb Code     6  usbd_conf.o(i.USBD_static_malloc)
    USB_ActivateEndpoint                     0x0800c6d5   Thumb Code   202  stm32f4xx_ll_usb.o(i.USB_ActivateEndpoint)
    USB_ActivateSetup                        0x0800c7a5   Thumb Code    40  stm32f4xx_ll_usb.o(i.USB_ActivateSetup)
    USB_CoreInit                             0x0800c7cd   Thumb Code   136  stm32f4xx_ll_usb.o(i.USB_CoreInit)
    USB_DeactivateEndpoint                   0x0800c8ad   Thumb Code   318  stm32f4xx_ll_usb.o(i.USB_DeactivateEndpoint)
    USB_DevConnect                           0x0800c9f9   Thumb Code    36  stm32f4xx_ll_usb.o(i.USB_DevConnect)
    USB_DevDisconnect                        0x0800ca1d   Thumb Code    36  stm32f4xx_ll_usb.o(i.USB_DevDisconnect)
    USB_DevInit                              0x0800ca41   Thumb Code   480  stm32f4xx_ll_usb.o(i.USB_DevInit)
    USB_DisableGlobalInt                     0x0800cc29   Thumb Code    14  stm32f4xx_ll_usb.o(i.USB_DisableGlobalInt)
    USB_EP0_OutStart                         0x0800cc39   Thumb Code   106  stm32f4xx_ll_usb.o(i.USB_EP0_OutStart)
    USB_EPClearStall                         0x0800cca9   Thumb Code   142  stm32f4xx_ll_usb.o(i.USB_EPClearStall)
    USB_EPSetStall                           0x0800cd37   Thumb Code   154  stm32f4xx_ll_usb.o(i.USB_EPSetStall)
    USB_EPStartXfer                          0x0800cdd1   Thumb Code   954  stm32f4xx_ll_usb.o(i.USB_EPStartXfer)
    USB_EPStopXfer                           0x0800d191   Thumb Code   236  stm32f4xx_ll_usb.o(i.USB_EPStopXfer)
    USB_EnableGlobalInt                      0x0800d27d   Thumb Code    14  stm32f4xx_ll_usb.o(i.USB_EnableGlobalInt)
    USB_FlushRxFifo                          0x0800d28b   Thumb Code    80  stm32f4xx_ll_usb.o(i.USB_FlushRxFifo)
    USB_FlushTxFifo                          0x0800d2db   Thumb Code    84  stm32f4xx_ll_usb.o(i.USB_FlushTxFifo)
    USB_GetDevSpeed                          0x0800d32f   Thumb Code    38  stm32f4xx_ll_usb.o(i.USB_GetDevSpeed)
    USB_GetMode                              0x0800d355   Thumb Code    10  stm32f4xx_ll_usb.o(i.USB_GetMode)
    USB_ReadDevAllInEpInterrupt              0x0800d35f   Thumb Code    20  stm32f4xx_ll_usb.o(i.USB_ReadDevAllInEpInterrupt)
    USB_ReadDevAllOutEpInterrupt             0x0800d373   Thumb Code    20  stm32f4xx_ll_usb.o(i.USB_ReadDevAllOutEpInterrupt)
    USB_ReadDevInEPInterrupt                 0x0800d387   Thumb Code    50  stm32f4xx_ll_usb.o(i.USB_ReadDevInEPInterrupt)
    USB_ReadDevOutEPInterrupt                0x0800d3b9   Thumb Code    26  stm32f4xx_ll_usb.o(i.USB_ReadDevOutEPInterrupt)
    USB_ReadInterrupts                       0x0800d3d3   Thumb Code    10  stm32f4xx_ll_usb.o(i.USB_ReadInterrupts)
    USB_ReadPacket                           0x0800d3dd   Thumb Code    96  stm32f4xx_ll_usb.o(i.USB_ReadPacket)
    USB_SetCurrentMode                       0x0800d43d   Thumb Code   104  stm32f4xx_ll_usb.o(i.USB_SetCurrentMode)
    USB_SetDevAddress                        0x0800d4a5   Thumb Code    42  stm32f4xx_ll_usb.o(i.USB_SetDevAddress)
    USB_SetDevSpeed                          0x0800d4cf   Thumb Code    18  stm32f4xx_ll_usb.o(i.USB_SetDevSpeed)
    USB_SetTurnaroundTime                    0x0800d4e1   Thumb Code   192  stm32f4xx_ll_usb.o(i.USB_SetTurnaroundTime)
    USB_WritePacket                          0x0800d5c9   Thumb Code    68  stm32f4xx_ll_usb.o(i.USB_WritePacket)
    USER_CAN_TxMessage                       0x0800d60d   Thumb Code    66  bsp_can.o(i.USER_CAN_TxMessage)
    UsageFault_Handler                       0x0800d775   Thumb Code     4  stm32f4xx_it.o(i.UsageFault_Handler)
    UserCheckoutMode0                        0x0800d779   Thumb Code    18  bsp_buzzer.o(i.UserCheckoutMode0)
    UserCheckoutMode1                        0x0800d795   Thumb Code    18  bsp_buzzer.o(i.UserCheckoutMode1)
    UserInitSuccess                          0x0800d7b1   Thumb Code    18  bsp_buzzer.o(i.UserInitSuccess)
    VT13_Info_Update                         0x0800db79   Thumb Code   270  image_transmission.o(i.VT13_Info_Update)
    VT13_Message_Monitor                     0x0800dc87   Thumb Code    38  image_transmission.o(i.VT13_Message_Monitor)
    __ARM_fpclassifyf                        0x0800dcad   Thumb Code    38  fpclassifyf.o(i.__ARM_fpclassifyf)
    __hardfp_acosf                           0x0800dd0d   Thumb Code   234  acosf.o(i.__hardfp_acosf)
    __hardfp_asinf                           0x0800de25   Thumb Code   258  asinf.o(i.__hardfp_asinf)
    __hardfp_atan2f                          0x0800df51   Thumb Code   594  atan2f.o(i.__hardfp_atan2f)
    __hardfp_fmodf                           0x0800e1fd   Thumb Code   176  fmodf.o(i.__hardfp_fmodf)
    __mathlib_flt_infnan                     0x0800e2ad   Thumb Code     6  funder.o(i.__mathlib_flt_infnan)
    __mathlib_flt_infnan2                    0x0800e2b3   Thumb Code     6  funder.o(i.__mathlib_flt_infnan2)
    __mathlib_flt_invalid                    0x0800e2b9   Thumb Code    10  funder.o(i.__mathlib_flt_invalid)
    __mathlib_flt_underflow                  0x0800e2c9   Thumb Code    10  funder.o(i.__mathlib_flt_underflow)
    encoder_to_angle                         0x0800e85d   Thumb Code   314  motor.o(i.encoder_to_angle)
    f_PID_Calculate                          0x0800ece1   Thumb Code   564  pid.o(i.f_PID_Calculate)
    float_to_uint                            0x0800ef8d   Thumb Code    50  motor.o(i.float_to_uint)
    get_CRC16_check_sum                      0x0800efc1   Thumb Code    46  crc.o(i.get_CRC16_check_sum)
    get_CRC8_check_sum                       0x0800eff5   Thumb Code    30  crc.o(i.get_CRC8_check_sum)
    main                                     0x0800f13d   Thumb Code    64  main.o(i.main)
    osDelay                                  0x0800f18b   Thumb Code    24  cmsis_os.o(i.osDelay)
    osDelayUntil                             0x0800f1a3   Thumb Code    28  cmsis_os.o(i.osDelayUntil)
    osKernelStart                            0x0800f1bf   Thumb Code    10  cmsis_os.o(i.osKernelStart)
    osKernelSysTick                          0x0800f1c9   Thumb Code    20  cmsis_os.o(i.osKernelSysTick)
    osThreadCreate                           0x0800f1dd   Thumb Code    94  cmsis_os.o(i.osThreadCreate)
    playNote                                 0x0800f23d   Thumb Code    86  bsp_buzzer.o(i.playNote)
    pvPortMalloc                             0x0800f74d   Thumb Code   306  heap_4.o(i.pvPortMalloc)
    pxPortInitialiseStack                    0x0800f899   Thumb Code    38  port.o(i.pxPortInitialiseStack)
    receive_bullet_speed                     0x0800f8c5   Thumb Code    26  comm_task.o(i.receive_bullet_speed)
    sqrtf                                    0x0800fafd   Thumb Code    62  sqrtf_full.o(i.sqrtf)
    startBuzzer                              0x0800fb3d   Thumb Code    18  bsp_buzzer.o(i.startBuzzer)
    startMusicPlay                           0x0800fedd   Thumb Code    50  bsp_buzzer.o(i.startMusicPlay)
    stopBuzzer                               0x0800ff11   Thumb Code    10  bsp_buzzer.o(i.stopBuzzer)
    stopMusicPlay                            0x0800ff21   Thumb Code    14  bsp_buzzer.o(i.stopMusicPlay)
    uint_to_float                            0x0800ff2f   Thumb Code    52  motor.o(i.uint_to_float)
    updateMusicPlayer                        0x0800ffe9   Thumb Code    96  bsp_buzzer.o(i.updateMusicPlayer)
    uxListRemove                             0x08010049   Thumb Code    40  list.o(i.uxListRemove)
    vApplicationGetIdleTaskMemory            0x08010071   Thumb Code    16  freertos.o(i.vApplicationGetIdleTaskMemory)
    vListInitialise                          0x08010089   Thumb Code    26  list.o(i.vListInitialise)
    vListInitialiseItem                      0x080100a3   Thumb Code     6  list.o(i.vListInitialiseItem)
    vListInsert                              0x080100a9   Thumb Code    52  list.o(i.vListInsert)
    vListInsertEnd                           0x080100dd   Thumb Code    24  list.o(i.vListInsertEnd)
    vPortEnterCritical                       0x080100f5   Thumb Code    76  port.o(i.vPortEnterCritical)
    vPortExitCritical                        0x08010149   Thumb Code    56  port.o(i.vPortExitCritical)
    vPortFree                                0x08010185   Thumb Code   150  heap_4.o(i.vPortFree)
    vPortSetupTimerInterrupt                 0x08010229   Thumb Code    36  port.o(i.vPortSetupTimerInterrupt)
    vPortValidateInterruptPriority           0x08010251   Thumb Code   106  port.o(i.vPortValidateInterruptPriority)
    vTaskDelay                               0x080102c9   Thumb Code    82  tasks.o(i.vTaskDelay)
    vTaskDelayUntil                          0x08010325   Thumb Code   200  tasks.o(i.vTaskDelayUntil)
    vTaskStartScheduler                      0x080103f9   Thumb Code   146  tasks.o(i.vTaskStartScheduler)
    vTaskSuspendAll                          0x080104a9   Thumb Code    12  tasks.o(i.vTaskSuspendAll)
    vTaskSwitchContext                       0x080104b9   Thumb Code   118  tasks.o(i.vTaskSwitchContext)
    verify_CRC16_check_sum                   0x08010545   Thumb Code    60  crc.o(i.verify_CRC16_check_sum)
    verify_CRC8_check_sum                    0x08010585   Thumb Code    46  crc.o(i.verify_CRC8_check_sum)
    xPortStartScheduler                      0x080105b5   Thumb Code   330  port.o(i.xPortStartScheduler)
    xTaskCreate                              0x0801071d   Thumb Code   100  tasks.o(i.xTaskCreate)
    xTaskCreateStatic                        0x08010781   Thumb Code   186  tasks.o(i.xTaskCreateStatic)
    xTaskGetTickCount                        0x0801083d   Thumb Code     6  tasks.o(i.xTaskGetTickCount)
    xTaskGetTickCountFromISR                 0x08010849   Thumb Code    16  tasks.o(i.xTaskGetTickCountFromISR)
    xTaskIncrementTick                       0x0801085d   Thumb Code   282  tasks.o(i.xTaskIncrementTick)
    xTaskResumeAll                           0x080109a5   Thumb Code   224  tasks.o(i.xTaskResumeAll)
    __aeabi_d2f                              0x08010aa9   Thumb Code     0  d2f_clz.o(x$fpl$d2f)
    _d2f                                     0x08010aa9   Thumb Code   700  d2f_clz.o(x$fpl$d2f)
    __aeabi_dadd                             0x08010d6d   Thumb Code     0  daddsub_clz.o(x$fpl$dadd)
    _dadd                                    0x08010d6d   Thumb Code   580  daddsub_clz.o(x$fpl$dadd)
    __fpl_dcmp_Inf                           0x08010fb9   Thumb Code    24  dcmpi.o(x$fpl$dcmpinf)
    __dflt_normalise                         0x08010fd1   Thumb Code    26  dflt_clz.o(x$fpl$dfltn)
    __aeabi_ui2d                             0x08010feb   Thumb Code     0  dflt_clz.o(x$fpl$dfltu)
    _dfltu                                   0x08010feb   Thumb Code    38  dflt_clz.o(x$fpl$dfltu)
    __aeabi_cdcmple                          0x08011011   Thumb Code     0  dleqf.o(x$fpl$dleqf)
    _dcmple                                  0x08011011   Thumb Code   120  dleqf.o(x$fpl$dleqf)
    __fpl_dcmple_InfNaN                      0x08011069   Thumb Code     0  dleqf.o(x$fpl$dleqf)
    __aeabi_dmul                             0x08011089   Thumb Code     0  dmul_clz.o(x$fpl$dmul)
    _dmul                                    0x08011089   Thumb Code   440  dmul_clz.o(x$fpl$dmul)
    __fpl_dnaninf                            0x08011249   Thumb Code   258  dnaninf.o(x$fpl$dnaninf)
    __fpl_drenorm2                           0x0801134b   Thumb Code   106  drenorm_clz.o(x$fpl$drenorm)
    __fpl_drenorm1                           0x080113b5   Thumb Code     6  drenorm_clz.o(x$fpl$drenorm)
    __fpl_dretinf                            0x080113bb   Thumb Code    12  dretinf.o(x$fpl$dretinf)
    __aeabi_cdrcmple                         0x080113c7   Thumb Code     0  drleqf.o(x$fpl$drleqf)
    _drcmple                                 0x080113c7   Thumb Code    98  drleqf.o(x$fpl$drleqf)
    __aeabi_dsub                             0x08011429   Thumb Code     0  daddsub_clz.o(x$fpl$dsub)
    _dsub                                    0x08011429   Thumb Code   664  daddsub_clz.o(x$fpl$dsub)
    __dunder                                 0x080116c5   Thumb Code   314  dunder_clz.o(x$fpl$dunder)
    __dunder_d                               0x080117ff   Thumb Code    64  dunder_clz.o(x$fpl$dunder)
    __fpl_exception                          0x08011841   Thumb Code   454  except.o(x$fpl$exception)
    __aeabi_f2d                              0x08011a2d   Thumb Code     0  f2d.o(x$fpl$f2d)
    _f2d                                     0x08011a2d   Thumb Code   122  f2d.o(x$fpl$f2d)
    __fpl_fnaninf                            0x08011aa7   Thumb Code   242  fnaninf.o(x$fpl$fnaninf)
    __fpl_normalise2                         0x08011b99   Thumb Code    74  fnorm2_clz.o(x$fpl$fnorm2)
    _fp_init                                 0x08011be3   Thumb Code    10  fpinit.o(x$fpl$fpinit)
    __fplib_config_fpu_vfp                   0x08011beb   Thumb Code     0  fpinit.o(x$fpl$fpinit)
    __fplib_config_pureend_doubles           0x08011beb   Thumb Code     0  fpinit.o(x$fpl$fpinit)
    _frem                                    0x08011bed   Thumb Code   278  frem_clz.o(x$fpl$frem)
    __fpl_fretinf                            0x08011d03   Thumb Code    10  fretinf.o(x$fpl$fretinf)
    __funder                                 0x08011d0d   Thumb Code   254  funder_clz.o(x$fpl$funder)
    __funder_d                               0x08011e0b   Thumb Code    62  funder_clz.o(x$fpl$funder)
    __fpl_return_NaN                         0x08011e49   Thumb Code   178  retnan.o(x$fpl$retnan)
    _fp_trapveneer                           0x08011efb   Thumb Code    36  trapv.o(x$fpl$trapveneer)
    __fpl_cmpreturn                          0x08011f1f   Thumb Code    90  trapv.o(x$fpl$trapveneer)
    __I$use$fp                               0x08011f78   Number         0  usenofp.o(x$fpl$usenofp)
    CRC8_INIT                                0x08011fc8   Data           1  crc.o(.constdata)
    CRC8_table                               0x08011fc9   Data         256  crc.o(.constdata)
    wCRC_table                               0x080120ca   Data         512  crc.o(.constdata)
    AHBPrescTable                            0x08012358   Data          16  system_stm32f4xx.o(.constdata)
    APBPrescTable                            0x08012368   Data           8  system_stm32f4xx.o(.constdata)
    Region$$Table$$Base                      0x080123c8   Number         0  anon$$obj.o(Region$$Table)
    Region$$Table$$Limit                     0x080123e8   Number         0  anon$$obj.o(Region$$Table)
    Motion_Task_SysTick                      0x20000154   Data           4  motion_task.o(.data)
    motion_pid_para                          0x20000158   Data         320  motion_task.o(.data)
    autoaim_pid_para                         0x20000298   Data         160  motion_task.o(.data)
    shoot_pid_para                           0x20000340   Data         120  shoot_task.o(.data)
    trigger_stuck_fsm                        0x20000458   Data          28  shoot_task.o(.data)
    world                                    0x20000474   Data           4  comm_task.o(.data)
    race_mode                                0x20000478   Data           7  comm_task.o(.data)
    vt13_mode                                0x2000047f   Data           5  comm_task.o(.data)
    dt7_action                               0x20000484   Data           4  comm_task.o(.data)
    SysTime                                  0x200004c0   Data           8  bsp_dwt.o(.data)
    CYCCNT64                                 0x200004c8   Data           8  bsp_dwt.o(.data)
    CRC16_INIT                               0x20000500   Data           2  crc.o(.data)
    MiniPC_ReceivePacket                     0x20000538   Data          21  minipc.o(.data)
    MiniPC_SendPacket                        0x2000054d   Data          21  minipc.o(.data)
    remote_ctrl                              0x20000562   Data          24  remote_control.o(.data)
    StartINSTaskHandle                       0x2000057c   Data           4  freertos.o(.data)
    StartDetectTaskHandle                    0x20000580   Data           4  freertos.o(.data)
    StartMotionTaskHandle                    0x20000584   Data           4  freertos.o(.data)
    StartCOMMTaskHandle                      0x20000588   Data           4  freertos.o(.data)
    StartShootTaskHandle                     0x2000058c   Data           4  freertos.o(.data)
    SystemCoreClock                          0x20000594   Data           4  system_stm32f4xx.o(.data)
    pxCurrentTCB                             0x20000598   Data           4  tasks.o(.data)
    uwTick                                   0x20000600   Data           4  stm32f4xx_hal.o(.data)
    uwTickPrio                               0x20000604   Data           4  stm32f4xx_hal.o(.data)
    uwTickFreq                               0x20000608   Data           1  stm32f4xx_hal.o(.data)
    FS_Desc                                  0x2000060c   Data          28  usbd_desc.o(.data)
    USBD_FS_DeviceDesc                       0x20000628   Data          18  usbd_desc.o(.data)
    USBD_LangIDDesc                          0x2000063c   Data           4  usbd_desc.o(.data)
    USBD_StringSerial                        0x20000640   Data          26  usbd_desc.o(.data)
    USBD_Interface_fops_FS                   0x2000065c   Data          20  usbd_cdc_if.o(.data)
    USBD_CDC                                 0x20000680   Data          56  usbd_cdc.o(.data)
    INS_Info                                 0x20000700   Data          72  ins_task.o(.bss)
    INS_AcceLPF2p                            0x20000748   Data          96  ins_task.o(.bss)
    TempCtrl_PID                             0x200007a8   Data         116  ins_task.o(.bss)
    Quaternion_Info                          0x2000081c   Data         420  ins_task.o(.bss)
    gimbal                                   0x200009c0   Data         268  motion_task.o(.bss)
    shoot                                    0x20000acc   Data         416  shoot_task.o(.bss)
    calibrate_limit                          0x20000c6c   Data          12  shoot_task.o(.bss)
    calibrate_final                          0x20000c78   Data          16  shoot_task.o(.bss)
    calibrate_state                          0x20000c88   Data          36  shoot_task.o(.bss)
    comm                                     0x20000cac   Data          68  comm_task.o(.bss)
    test                                     0x20000cf0   Data          20  comm_task.o(.bss)
    keyboard                                 0x20000d04   Data          32  comm_task.o(.bss)
    vt13_action                              0x20000d24   Data          10  comm_task.o(.bss)
    music_player                             0x20000d30   Data          24  bsp_buzzer.o(.bss)
    BMI088_Info                              0x20000d48   Data          60  bmi088.o(.bss)
    MiniPC_SendBuf                           0x20000d84   Data          21  minipc.o(.bss)
    SBUS_MultiRx_Buf                         0x20000d99   Data          36  remote_control.o(.bss)
    Image_Trans_MultiRx_Buff                 0x20000dbe   Data          78  image_transmission.o(.bss)
    Image_Transmission_Info                  0x20000e0c   Data          78  image_transmission.o(.bss)
    VT13_Info                                0x20000e5a   Data          30  image_transmission.o(.bss)
    KeyBoard_Info                            0x20000e78   Data          10  keyboard.o(.bss)
    hcan1                                    0x200012e8   Data          40  can.o(.bss)
    hcan2                                    0x20001310   Data          40  can.o(.bss)
    hspi1                                    0x20001338   Data          88  spi.o(.bss)
    htim4                                    0x20001390   Data          72  tim.o(.bss)
    htim10                                   0x200013d8   Data          72  tim.o(.bss)
    huart1                                   0x20001420   Data          72  usart.o(.bss)
    huart3                                   0x20001468   Data          72  usart.o(.bss)
    huart6                                   0x200014b0   Data          72  usart.o(.bss)
    hdma_usart1_rx                           0x200014f8   Data          96  usart.o(.bss)
    hdma_usart1_tx                           0x20001558   Data          96  usart.o(.bss)
    hdma_usart3_rx                           0x200015b8   Data          96  usart.o(.bss)
    hdma_usart6_rx                           0x20001618   Data          96  usart.o(.bss)
    hdma_usart6_tx                           0x20001678   Data          96  usart.o(.bss)
    htim2                                    0x200016d8   Data          72  stm32f4xx_hal_timebase_tim.o(.bss)
    hUsbDeviceFS                             0x20007810   Data         732  usb_device.o(.bss)
    USBD_StrDesc                             0x20007aec   Data         512  usbd_desc.o(.bss)
    UserRxBufferFS                           0x20007cec   Data        2048  usbd_cdc_if.o(.bss)
