:020000040800F2
:1000000050D4002031030008BD8A0008956900081B
:100010007D7F0008DD19000875D70008000000008A
:100020000000000000000000000000007102000855
:10003000CD25000800000000CD020008BDA1000889
:100040004B0300084B0300084B0300084B03000858
:100050004B0300084B0300084B0300084B03000848
:100060004B0300084B0300084B0300084B03000838
:10007000791F00084B0300084B0300084B030008DE
:100080004B0300084B0300084B0300084B03000818
:10009000E11900084B0300084B0300082126000863
:1000A0004B0300084B0300084B0300084B030008F8
:1000B000BDA200084B0300084B0300084B030008D7
:1000C0004B0300084B0300084B0300084B030008D8
:1000D0004B030008C5AC00084B030008D5AC000872
:1000E0004B0300084B0300084B0300084B030008B8
:1000F0004B0300084B0300084B0300084B030008A8
:100100004B0300084B0300084B0300084B03000897
:100110004B0300084B0300084B0300084B03000887
:100120004B030008891F0008991F00084B030008B3
:100130004B0300084B0300084B0300084B03000867
:100140004B030008911A00084B0300082D8B000890
:100150004B030008A91F0008B91F0008E5AC000800
:100160004B0300084B0300084B0300084B03000837
:100170004B0300084B0300084B030008000000007D
:100180004B0300084B03000800F002F800F060F891
:100190000AA090E8000C82448344AAF10107DA45E2
:1001A00001D100F055F8AFF2090EBAE80F0013F0D4
:1001B000010F18BFFB1A43F0010318470C2201007E
:1001C0002C2201000A444FF0000C10F8013B13F000
:1001D000070408BF10F8014B1D1108BF10F8015BA0
:1001E000641E05D010F8016B641E01F8016BF9D193
:1001F00013F0080F1EBF10F8014BAD1C0C1B09D1EA
:100200006D1E58BF01F801CBFAD505E014F8016B5B
:1002100001F8016B6D1EF9D59142D6D370470000ED
:100220000023002400250026103A28BF78C1FBD8FF
:10023000520728BF30C148BF0B6070471FB511F08F
:10024000D0FC9DE8030000F0EDFE1FBD10B510BD11
:1002500000F092FF1146FFF7F1FF0EF06FFF00F084
:10026000B0FF03B4FFF7F2FF03BC00F0E7FF0000AC
:100270002C4B19680868B0E8F04F80F30988BFF389
:100280006F8F4FF0000080F311887047000000006E
:1002900008480068006880F308884FF0000080F389
:1002A000148862B661B6BFF34F8FBFF36F8F00DF64
:1002B00000BF00BF08ED00E0DFF80C00016841F46A
:1002C00070010160704700BF88ED00E0EFF3098026
:1002D000BFF36F8F134B1A681EF0100F08BF20ED8D
:1002E000108A20E9F04F106009B44FF0500080F3FD
:1002F0001188BFF34F8FBFF36F8F10F0DDF84FF011
:10030000000080F3118809BC19680868B0E8F04F54
:100310001EF0100F08BFB0EC108A80F30988BFF3FD
:100320006F8F704798050020EFF30580704700003D
:100330000948804709480047FEE7FEE7FEE7FEE779
:10034000FEE7FEE7FEE7FEE7FEE7FEE704480549B5
:10035000054A064B70470000A9A200088901000861
:100360005094002050D4002050B4002050B40020FD
:1003700070B405880E884468D1F804C05368B5424B
:1003800008D140884988884201BF11888D42518830
:10039000884203D070BC6FF00200704705FB00F18B
:1003A000880827D094ED001ADCED000A94ED010ACC
:1003B000DCED011A31EE201AD4ED020A70EE211A9A
:1003C0009CED020A83ED001AC3ED011A94ED031AA5
:1003D000DCED031A30EE800A401E71EE210A83ED37
:1003E000020A04F11004C3ED030A03F110030CF137
:1003F000100CD7D111F0030030D0B0F1004F30D243
:1004000000282BDD211F1B1FACF1040210F0010F8F
:100410000AD091ED010AD2ED010A091D121D30EE3C
:10042000200A83ED010A1B1D400817D091ED010A37
:10043000D2ED010A401E30EE200A83ED010A91ED53
:10044000020AD2ED020A01F1080102F1080230EEBF
:10045000200A83ED020A03F10803E7D170BC0020F3
:100460007047B4EC010A401EFCEC010A30EE200A91
:10047000A3EC010AF5D1F1E70180428043607047A7
:100480002DE9F34F84B004984068009048680190CB
:100490000498B0F800E04588DFEDFE0A00200290E5
:1004A000B0EE600AAE4506D108884988884204BF8C
:1004B0007146864504D06FF0020006B0BDE8F08FAB
:1004C00001985FEA010C18BFB7EE001A3DD000BFDB
:1004D000BEEB0C0117D0B1F1004F80F01F82002954
:1004E00011DD021F11F0010F1CBFC2ED010A121D28
:1004F0004B1006D0C2ED010AC2ED020A08325B1EA3
:10050000F8D100EB8100BCF10102A0EC011A19D076
:10051000B2F1004F80F00882002A13DD031F12F0B1
:10052000010F1CBFC3ED010A1B1D511008D000BFF5
:10053000C3ED010AC3ED020A491E03F10803F7D116
:1005400000EB8200BCF1010CC2D14FF00008039512
:10055000002D14BFB0EE602A002000F0BF8100BF64
:10056000009908FB05F001EB800B0199DBED002AF7
:1005700001EB80000346F0EE421AC64552D9AEEBBD
:100580000802ABEB850112F0010F17D001EB8501DA
:1005900091ED000AB5EEC00AF1EE10FA07DDB4EEF7
:1005A000E10AF1EE10FA09DDF0EE401A06E0B1EED4
:1005B000400AF4EEC01AF1EE10FAF5D3521031D021
:1005C00001EB850C9CED000AB5EEC00AF1EE10FAC5
:1005D00005DDB4EEE10AF1EE10FA09DD06E0B1EE58
:1005E000400AF4EEC01AF1EE10FA01D2F0EE401A11
:1005F00001EBC50191ED000AB5EEC00AF1EE10FA6B
:1006000005DDB4EEE10AF1EE10FA09DD06E0B1EE27
:10061000400AF4EEC01AF1EE10FA01D2F0EE401AE0
:10062000521ECDD1F5EEC01AF1EE10FA00F0738132
:10063000F5EEC02A0126F1EE10FA0099D4BFB1EE12
:10064000620AB0EE620AB4EE610AF1EE10FA1CBF63
:10065000AEEB0802B2F1010C47D005FB08F201EB4A
:10066000820292ED001A00BFB0EE410A05FB06F4CB
:10067000B5EEC00A00EB8404F1EE10FACCBFF0EE48
:10068000400AF1EE400AF4EE610AF1EE10FA28D1C8
:10069000B5EB080C11D0BCF1004F7DD2BCF1000FBE
:1006A0000BDD00BF92ED000AD1ED000ABCF1010C98
:1006B000E2EC010AA1EC010AF4D129000ED0B1F15B
:1006C000004F6AD2002909DD94ED000AD0ED000A3E
:1006D000491EE4EC010AA0EC010AF5D101200290C8
:1006E0000BE0761CBCF1010CBED10298012804D0AD
:1006F000F5EEC02AF1EE10FA7ED09BED000AB5EBC4
:1007000008009A465946064622D0B0F1004F74D2EE
:1007100000281DDD091F10F0010F06D0F0EE400A81
:1007200080EEA01A81ED011A091D401010D000BF03
:10073000D1ED010A401E80EE801A81ED011A91ED83
:10074000021AC1EE000AC1ED020A01F10801EFD15F
:10075000280026D0B0F1004F7ED2002821DDAAF17A
:10076000040110F0010F06D0D1ED010A80EE801ACD
:1007700081ED011A091D401013D000BFD1ED010A0F
:10078000401E80EE801A81ED011AD1ED020A80EE42
:10079000801A81ED021A01E0CBE0D6E001F10801F8
:1007A000ECD1DDE900124FF000095FEA0E0773D0CB
:1007B000C14504BF01EB860102EB850274D091EDC7
:1007C000000ADC465046331E35D01C46B6F1004FB9
:1007D0007ED2002C2FDD0B1FABF1040C16F0010FA5
:1007E0000FD0F0EE400ADCED011AB0EE601A00EE18
:1007F000E11A83ED011A01E08DE0B1E01B1D0CF15F
:10080000040C741015D000BFD3ED010A9CED011A41
:1008100040EE410AC3ED010AD3ED020A9CED021A33
:100820000CF1080C40EE410AC3ED020A0833641EC5
:10083000EAD101EB86012B0036D0B3F1004F72D222
:10084000002B31DDA2F1040CAAF1040013F0010F1A
:100850000CD0DCED010A00E08BE090ED011A001DE8
:1008600040EE410ACCED010A0CF1040C5C1019D0E9
:10087000DCED010A90ED011A40EE410ACCED010ACF
:10088000DCED020A90ED021A083040EE410ACCED90
:10089000020A03E0000000000DE005E0641E0CF118
:1008A000080CE5D102EB830201EB88017F1E09F100
:1008B00001097FF47DAF009808F10108001D009048
:1008C0000398401E03907FF44BAE0299012900E08B
:1008D00058E004BF06B0BDE8F08F00BFB5EEC00A17
:1008E000F1EE10FA7FF4E9AD04990EFB05F3002B4D
:1008F0004A684FF000010BD902EB810C9CED000A15
:10090000B5EEC00AF1EE10FA02D1491C8B42F3D8C1
:100910008B427FF4D2AD6FF00400CEE5E0EC010A2B
:10092000491EFBD1EFE538E0E0EC010A521EFBD195
:1009300008E692ED000AD1ED000ABCF1010CE2ECF0
:10094000010AA1EC010AF4D1B7E694ED000AD0ED5A
:10095000000A491EE4EC010AA0EC010AF5D1BDE64B
:10096000D1ED000A401E80EE801AA1EC011AF7D1E9
:10097000EEE6D3ED000A401E80EE801AA3EC011AC9
:10098000F7D10EE7BCEC011AD1ED000A5B1E40EE78
:10099000410AE1EC010AF5D14DE7B0EC011AD2EDC4
:1009A000000A5B1E40EE410AE2EC010AF5D17BE74A
:1009B0002DE9F04F82B04668536801930588478857
:1009C0004B88002000900888874201BFB2F800C021
:1009D0006545528893421EBF6FF0020002B0BDE829
:1009E000F08F9FED412A4FEA970EC7F3400B00BFEF
:1009F000DDE9000202EB800A4A6898464FF00009E0
:100A0000B0EE420AB4465FEA0E0025D092ED001A1D
:100A1000DCED001A02EB8302DCED010A01EE810A33
:100A200092ED001A02EB8302401ED2ED001A02EB97
:100A3000830200EE810A9CED021ADCED030A000439
:100A40000CF1100C000C01EE210A92ED001A02EBE1
:100A5000830200EE810AD9D117F0030026D0ACF151
:100A60000404A2EB830210F0010F08D002EB830212
:100A7000D4ED010A92ED001A241D00EE810A5FEA0E
:100A80000B0013D002EB830CD4ED010A9CED001A8D
:100A900002EBC302401E00EE810AD4ED020A92ED81
:100AA000001A04F1080400EE810AEBD109F10100FB
:100AB000AAEC010A1FFA80F9486800EB8902A8F144
:100AC00001001FFA80F8B8F1000F99D1009806EBE9
:100AD0008706184480B20090681E05042D0C87D14B
:100AE00002B00020BDE8F08F0000000070B405885F
:100AF0000E884468D1F804C05368B54208D14088D4
:100B00004988884201BF11888D425188884203D0AC
:100B100070BC6FF00200704705FB00F1880827D019
:100B200094ED001ADCED000A94ED010ADCED011AE7
:100B300031EE601AD4ED020A70EE611A9CED020AE1
:100B400083ED001AC3ED011A94ED031ADCED031ACC
:100B500030EEC00A401E71EE610A83ED020A04F114
:100B60001004C3ED030A03F110030CF1100CD7D1EC
:100B700011F0030030D0B0F1004F30D200282BDD4F
:100B8000211F1B1FACF1040210F0010F0AD091EDE0
:100B9000010AD2ED010A091D121D30EE600A83ED33
:100BA000010A1B1D400817D091ED010AD2ED010A80
:100BB000401E30EE600A83ED010A91ED020AD2ED8B
:100BC000020A01F1080102F1080230EE600A83ED29
:100BD000020A03F10803E7D170BC00207047B4ECAF
:100BE000010A401EFCEC010A30EE600AA3EC010A87
:100BF000F5D1F1E72DE9F04F02884768B0F802809F
:100C00004888D1F8049082B04FF0000A164682421C
:100C100007BF098888456FF0020002B018BFBDE821
:100C2000F08F4FEA980B02EB42000190C8F34000AE
:100C3000CDF8000009EB8A01BBF1000F33D0019819
:100C400001EB820C01EB80043B46E64601EBC2055A
:100C50004FEA0B0093ED000A401E81ED000A93ED70
:100C6000010A01EB02118CED000A93ED020A0CEB74
:100C7000021C85ED000A93ED030A05EB021584EDD5
:100C8000000A04EB021403F11003E3D10EEB82001F
:100C900000EB820000EB8201ABF10100504307EB57
:100CA0000B1701EB001118F0030C21D03B1FA1EB37
:100CB00082011CF0010F06D093ED010A01EB8201C5
:100CC0001B1D81ED000A009880B100BF93ED010A61
:100CD00001EB820401EBC20184ED000A93ED020AEC
:100CE000401E81ED000A03F10803EFD107EB8C07EA
:100CF0000AF101001FFA80FA701E0604360C99D121
:100D000002B00020BDE8F08F70B5064600F06EF925
:100D1000056806F10B0020F00704B4429CBF0020D8
:100D200070BD2B466A68BAB11068A04210D304F1B6
:100D3000080188423CBF5068586007D351681019B9
:100D400041601168091B016058601460101D70BD7E
:100D500013465268002AE7D12146284600F04EF992
:100D60000028DED170BD53EA020C00F069802DE945
:100D7000F04B4FF00006002B1FBFB3FA83F503FAC8
:100D800005F424FA05F65E4012BF1643B2FA82F566
:100D900002FA05F4C5F120051EBF22FA05FC44EA5B
:100DA0000C04203556EA044C4FEA144418BF641C66
:100DB0004FF000084FF00009904271EB030C39D35B
:100DC000002919BFB1FA81F701FA07F6B0FA80F7E6
:100DD00000FA07F6C7F120071EBF20FA07FC46EA13
:100DE0000C062037B6FBF4FCA7EB0507103F07F015
:100DF0001F0BCBF120060CFA0BFB2CFA06F644BFB6
:100E0000B3460026202FA4BF5E464FF0000B5BEADE
:100E1000060C08BF4FF0010B19EB0B09ABFB027C72
:100E200048EB0608C01B06FB02CC0BFB03CC71EBA6
:100E30000C01C1E70B46024641464846BDE8F08B2F
:100E400013B54FF000004FF00001AFF30080BDE894
:100E50001C407047032A40F2308010F0030C00F071
:100E6000158011F8013BBCF1020F624498BF11F8E4
:100E700001CB00F8013B38BF11F8013BA2F104029D
:100E800098BF00F801CB38BF00F8013B11F0030315
:100E900000F02580083AC0F0088051F8043B083A79
:100EA00051F804CBA0E80810F5E7121D5CBF51F81B
:100EB000043B40F8043BAFF30080D20724BF11F895
:100EC000013B11F801CB48BF11F8012B24BF00F8FA
:100ED000013B00F801CB48BF00F8012B704710B56B
:100EE000203AC0F00B80B1E81850203AA0E8185022
:100EF000B1E81850A0E81850BFF4F5AF5FEA027CE3
:100F000024BFB1E81850A0E8185044BF18C918C051
:100F1000BDE810405FEA827C24BF51F8043B40F8F2
:100F2000043B08BF7047D20728BF31F8023B48BFD7
:100F300011F8012B28BF20F8023B48BF00F8012B15
:100F4000704702F0FF0343EA032242EA024200F044
:100F500002B84FF000020429C0F0128010F0030C18
:100F600000F01B80CCF1040CBCF1020F18BF00F89C
:100F7000012BA8BF20F8022BA1EB0C0100F00DB84B
:100F80005FEAC17C24BF00F8012B00F8012B48BFA9
:100F900000F8012B70474FF0000200B5134694464D
:100FA0009646203922BFA0E80C50A0E80C50B1F1C1
:100FB0002001BFF4F7AF090728BFA0E80C5048BFD5
:100FC0000CC05DF804EB890028BF40F8042B08BF73
:100FD000704748BF20F8022B11F0804F18BF00F86F
:100FE000012B7047704770477047000000487047FA
:100FF000F8930020704770477047704738B5044633
:101000000A4600206946AFF30080002808BF38BDBB
:1010100002460099204600F075F8012038BD0120F5
:1010200000F0A2B8F8B5AFF30080054600200C46EA
:10103000102000BF0646A819A0420DD932466946C5
:101040000020AFF30080070008BF00F08DF8009883
:10105000A04218BF0546C419FFF7C8FF0560074640
:10106000F01D20F007004619284600F00AF8B442A7
:1010700008BFF8BDA21B31463868BDE8F84000F053
:1010800041B800210160C0E901107047102070478D
:1010900070B50446051FFFF7A9FF0068002C14BFB8
:1010A000446870BD002C18BFAC423CBF2046646849
:1010B000F8D301680A18AA4218BF456003D12A680C
:1010C00005461144016028684119A1421CBF6C60AB
:1010D00070BD6168696021680844286070BD10B502
:1010E00000F00CF8006810BD10B5044600F006F8DA
:1010F000046010BD00487047F0930020004870471E
:10110000F0930020034640688C46002818BF8842B0
:101110003CBF03464068F8D318681844884207D09B
:101120000CF1030020F00700001D411A521A01467D
:10113000081D0A60FFF7ACBF1FB584B000200A9CF1
:1011400006AB04AA02A90094AFF3008018B1DDE950
:10115000020108B010BD0348204000F040F8002014
:101160000146F6E70000207C10B500F03FF8BDE82E
:10117000104000F02FB870477546FFF7BBFFAE4632
:1011800005006946534620F00700854618B020B593
:10119000FFF7DCF8BDE820404FF000064FF00007F5
:1011A0004FF000084FF0000B21F00701AC46ACE80F
:1011B000C009ACE8C009ACE8C009ACE8C0098D467C
:1011C000704710B50446AFF300802046BDE81040DC
:1011D000FFF747B8002801D000F030B8704710B5CD
:1011E00000F04CF8BDE81040FFF7F4BF10B501283F
:1011F00005D0002103A000F027F8012010BD09A1AF
:10120000F8E7000053494752544D454D3A204F7579
:1012100074206F662068656170206D656D6F7279EE
:10122000000000003A2048656170206D656D6F72A6
:101230007920636F727275707465640001491820BB
:10124000ABBEFEE72600020070B505460C460A203C
:1012500000E06D1C00F068F835B128780028F8D15E
:1012600002E0641C00F060F814B120780028F8D186
:10127000BDE870400A2000F057B8000010B5022801
:1012800003D0410103D50DA112E0002010BD0101E2
:1012900001D50FA10CE0C10001D511A108E081002A
:1012A00001D512A104E0400001D513A100E0002106
:1012B00015A0FFF7C9FF012010BD0000496E76613F
:1012C0006C6964204F7065726174696F6E00000014
:1012D000446976696465204279205A65726F00001E
:1012E0004F766572666C6F7700000000556E64651E
:1012F00072666C6F77000000496E657861637420D8
:10130000526573756C7400005349474650453A2046
:1013100041726974686D657469632065786365708E
:1013200074696F6E3A20000008B569468DF80000B8
:101330000320ABBE08BD000010B5012210210248F9
:1013400002F0AEFD10BD00000000024010B500220A
:101350001021024802F0A4FD10BD00000000024070
:1013600070B50025FFF7F2FF802000F035FA552018
:1013700000F032FA552000F02FFA0546FFF7DCFFA7
:10138000962001F030F9FFF7E1FF802000F024FA09
:10139000552000F021FA552000F01EFA0546FFF70F
:1013A000CBFF962001F01FF9FFF7D0FFB6217E207A
:1013B00000F062FAFFF7C0FF502001F008F9FFF7D4
:1013C000C5FF802000F008FA552000F005FA5520EE
:1013D00000F002FA0546FFF7AFFF962001F003F98F
:1013E000FFF7B4FF802000F0F7F9552000F0F4F982
:1013F000552000F0F1F90546FFF79EFF962001F019
:10140000F2F81E2D01D0FF2070BD002434E0FFF75C
:101410009DFF04EB44021A4B1A44517804EB44023A
:10142000985C00F029FAFFF787FF962001F0DBF8BF
:10143000FFF78CFF04EB4401114A515C41F080003E
:1014400000F0CAF9552000F0C7F9552000F0C4F9A2
:101450000546FFF771FF962001F0C5F804EB440044
:10146000074908444078A84204D004EB44000844EB
:101470008078C9E7601CC4B2062CC8DB0020C3E733
:101480001405002010B501221146024802F008FDA3
:1014900010BD00000004024010B5002201210248E6
:1014A00002F0FEFC10BD00000004024038B5002030
:1014B0000090FFF7F1FF6946002000F080F9FFF788
:1014C000E1FF962001F08FF8FFF7E6FF6946002064
:1014D00000F075F9FFF7D6FF962001F084F8FFF7CA
:1014E000DBFFB621142000F0C7F9FFF7CBFF502037
:1014F00001F06DF8FFF7D0FF6946002000F05FF9BA
:10150000FFF7C0FF962001F06EF8FFF7C5FF6946B0
:10151000002000F054F9FFF7B5FF962001F063F8C2
:101520009DF800000F2801D0FF2038BD00242FE0D7
:10153000FFF7B2FF04EB4402174B1A44517804EB57
:101540004402985C00F098F9FFF79CFF962001F0A8
:101550004AF8FFF7A1FF04EB44010F4A505C6946CB
:1015600000F02DF9FFF78EFF962001F03CF804EB18
:1015700044000949084440789DF80010884205D08D
:1015800004EB4400044908448078CEE7601CC4B2F0
:10159000062CCDDB0020C8E7260500201CB504463C
:1015A000002000900190FFF7D1FE922000F014F986
:1015B00006226946122000F0EFF8FFF7BDFE9DF805
:1015C00000009DF8011040EA012000B220849DF83F
:1015D00002009DF8031040EA012001B261849DF8E9
:1015E00004009DF8051040EA012001B2A184B4F97D
:1015F000200000EE100AB8EEC00A5048D0ED000AF4
:1016000020EE200A84ED010AB4F9220000EE100A4F
:10161000B8EEC00A4948D0ED000A20EE200A84ED59
:10162000020AB4F9240000EE100AB8EEC00A4348DA
:10163000D0ED000A20EE200A84ED030AFFF786FEB3
:10164000A22000F0C9F802226946222000F0A4F886
:10165000FFF772FE9DF80000C0009DF8011040EAFF
:101660006111A185B4F92C00B0F5806F04DBA08D69
:10167000A0F5006001B2A185B4F92C0000EE100ABB
:10168000F8EEC00AB4EE001AB3EE070A00EE810AC3
:1016900084ED070AFFF700FF08226946002000F0EA
:1016A0007BF8FFF7EFFE9DF800000F2817D19DF89B
:1016B00002009DF8031040EA012001B2E1849DF888
:1016C00004009DF8051040EA012001B221859DF833
:1016D00006009DF8071040EA012001B2618594EDF3
:1016E0000C0AB4F9260000EE900AF8EEE00A14485D
:1016F00090ED001A11EE200A84ED040A94ED0D0A13
:10170000B4F9280000EE900AF8EEE00A0C4890EDDB
:10171000001A11EE200A84ED050A94ED0E0AB4F9C0
:101720002A0000EE900AF8EEE00A054890ED001A53
:1017300011EE200A84ED060A1CBD00000C050020F5
:101740001005002010B5002400BFFFF709FE044378
:10175000FFF7ACFE0443022000F039FF002CF4D167
:10176000014800F003F810BD480D00209FED070A66
:1017700080ED0C0A9FED060A80ED0D0A9FED050A2B
:1017800080ED0E0A0121017070470000D91ABD3B9F
:101790005FFBF3BA7CCF9E3A70B506460C46154601
:1017A00046F0800000F018F806E0552000F014F82C
:1017B0002070641C681EC5B2002DF6D170BD70B5D6
:1017C00004460D4644F0800000F006F8552000F075
:1017D00003F8287070BD000001B582B000200190B0
:1017E0004FF47A70012301AA02A90090024803F085
:1017F000D7FF9DF804000EBD3813002010B52DED65
:10180000028BB0EE408AF0EE480A9FED170A1748A7
:101810000DF066FA00BF154890ED0D0ADFED140AD1
:10182000B4EEE00AF1EE10FA04DD9FED110A80ED4E
:101830000D0A0BE00D4890ED0D0AB5EEC00AF1EE71
:1018400010FA03D29FED0B0A80ED0D0A00BF074985
:1018500091ED0D0ABCEEC00A10EE101A88B205F028
:10186000ADF8BDEC028B10BD00002042A80700209F
:101870000000FA440000000070B505460C462846FA
:10188000FFF7AAFF2046FFF7A7FF70BD00B595B090
:1018900028210BA8FFF77FFB012013900020119057
:1018A0000120129000200B900C900D900E90109043
:1018B0000F9014900BA9194801F08EFB08B100F0AD
:1018C000B4FE164801F097FF0221144801F0CAFA4D
:1018D000282101A8FFF75FFB012009900020079055
:1018E00001200890002001900290039004900E20A7
:1018F0000690012005900E200A9001A9084801F0E9
:101900006BFB08B100F091FE054801F074FF102157
:10191000034801F0A7FA15B000BD0000E81200204E
:10192000101300201249096841F08071104A1160BB
:101930000021104A51601146096841F0010111600F
:101940000D4941430D4A1160114609684FF47A72FE
:10195000B1FBF2F10A4A116008490968064AB1FB75
:10196000F2F1084A11600021074A11607047000037
:10197000FCED00E0001000E040420F00D004002029
:10198000D4040020D8040020DC04002008B527205F
:1019900000900A480068011D094BA3F1270207487F
:1019A00009F0A8F91220009006480068011D064BB6
:1019B000A3F11202034809F09DF908BDB0140020FC
:1019C000E50D002068140020AB0D002010B50021AB
:1019D000014804F0BDFB10BDD813002000BFFEE796
:1019E00010B5024801F055FC10BD0000E8120020BF
:1019F00070B505460C46234A2146284600F028FAD1
:101A0000214A2146284600F023FA1F4A583221462F
:101A1000284600F01DFA1C4A2C322146284600F0C8
:101A200017FA1A482968006C814229D120460DF026
:101A300049FF1548843880ED5E0A2079C0091349B2
:101A400081F838002079C0F34011104880F839102F
:101A50002079C0F300110D4880F83A102079C0F3C6
:101A6000C0010A4880F83B102079C0F38001074884
:101A700080F83D102079C0F34001044880F83E1002
:101A800070BD0000C0090020500B0020AC0C0020ED
:101A900010B5024801F0FDFB10BD0000101300203E
:101AA00070B504460D460B4A2946204600F09CFBC3
:101AB000094A2946204600F0CBF9074A2C3229462C
:101AC000204600F0C5F9044A58322946204600F065
:101AD000BFF970BDEC090020CC0A002010B56648A3
:101AE000B0F83401010A65480174634890F8341174
:101AF000624841746048B0F81401010A5F4881747B
:101B00005D4890F814115D48C1745B48B0F8240139
:101B1000010A5A480175584890F8241157484175F0
:101B2000082300F11002990155480BF06FFD53484E
:101B30000078042815D15348D0F80A0000EE100AA6
:101B4000B5EEC00AF1EE10FA0BDD4F48B0F8C40054
:101B5000000A4A4908724C4890F8C410474841723C
:101B600032E04648007803280ED14848C07858B182
:101B70004548B0F8C400000A40490872424890F84D
:101B8000C4103E4841721FE03C480078042810D041
:101B90003D4890F8E00001280BD13B48B0F8A40084
:101BA000000A36490872384890F8A4103348417248
:101BB0000AE03548B0F88400000A3049087232481B
:101BC00090F884102D4841722B48B0F84401010A66
:101BD0002A488172284890F844112848C172264842
:101BE000B0F85401010A25480173234890F85411B4
:101BF000224841732048B0F86401010A1F488173EC
:101C00001D4890F864111D48C173082300F10802B3
:101C100040F2FF111E480BF0F9FC1848408D010AF4
:101C2000164880F8201090F82A1080F82110808D36
:101C3000010A124880F8221090F82C1080F8231026
:101C4000C08D010A0D4880F8241090F82E1080F8FD
:101C50002510008E010A094880F8261090F83010EF
:101C600080F82710082300F120024FF44071084843
:101C70000BF0CCFC10BD0000CC0A0020AC0C002006
:101C80000068004038050020C009002078040020CA
:101C9000006400400346042B15D007DC7BB1012B08
:101CA0000ED0022B0DD0032B12D10BE0202B0BD02A
:101CB000212B0AD0222B09D0232B09D107E008E0E1
:101CC00007E006E005E004E003E002E001E000E0F8
:101CD00000BF00BF002070470020704710B50022F1
:101CE0000449054809F0E3FA0449034809F0D0FA29
:101CF000002010BDEC84002010780020EC7C002037
:101D000070B504460D462146054809F0C1FA04485D
:101D100009F08AFA2946204606F032F9002070BD03
:101D20001078002010B503460C460021084610BD6F
:101D30002DE9F04104460D4600260A48D0F8BC7251
:101D4000D7F8140210B10120BDE8F0812A462146DF
:101D5000044809F0ACFA034809F05CFB064630463B
:101D6000F2E700001078002008F004FD00BF04F046
:101D700013FE0DF0B5FDFFF7B1FE01200DF005FAE1
:101D8000F5E7000010B59FED051ADFED040A9FEDA1
:101D9000030A0349002006F001FE10BD0000000008
:101DA000140C002010B50C48B0F9C40001EE900AE4
:101DB000F8EEE11AB0EE611A0748D0ED341AF0EEF1
:101DC000610A0648D0ED011AB0EE610A044901200B
:101DD00006F0E4FD10BD0000CC0A0020780C0020C5
:101DE000140C002010B50C48B0F9C40001EE900AA4
:101DF000F8EEE11AB0EE611A0748D0ED341AF0EEB1
:101E0000610A0648D0ED001AB0EE610A04490120CB
:101E100006F0C4FD10BD0000CC0A0020780C0020A4
:101E2000140C00208160027070472421095C502945
:101E30000BDD018D491C0185018DC82907DD0222BA
:101E40002A210A540021018501E000210185704703
:101E500070B506460D4614463168A068814200D030
:101E600070BDA979242001556878297840EA0120BD
:101E700001B2E182E878A97840EA012001B2A182AA
:101E80006879297940EA012001B261822046FFF792
:101E9000CCFF607C012821D094ED070AF7EE000A00
:101EA000B4EE600AF1EE10FA18D0A068B0F5017F28
:101EB00008D940F2FF106060207A401F4006010EF2
:101EC00021730BE0A068B0F5007F07D94FF40070D4
:101ED0006060207A401E4006010E2173207820B1F8
:101EE000012817D002283FD129E04FF40051B7EE66
:101EF000000A04F110000CF057FD84ED070A4FF4BE
:101F00000051B7EE000A04F110000CF0A7FC84EDBC
:101F1000080A2AE04FF400519FED150A04F1100061
:101F20000CF042FD84ED070A4FF400519FED100ABA
:101F300004F110000CF092FC84ED080A15E04FF457
:101F400000519FED0C0A04F110000CF02DFD84ED02
:101F5000070A4FF400519FED070A04F110000CF03E
:101F60007DFC84ED080A00E000BF00BF00BF77E7FA
:101F70002CA099410000104210B5024801F0DCFC91
:101F800010BD0000B815002010B5024801F0D4FCC7
:101F900010BD00001816002010B5024801F0CCFC5E
:101FA00010BD0000F814002010B5024801F0C4FC78
:101FB00010BD00007816002010B5024801F0BCFCEE
:101FC00010BD00005815002001460878103818236D
:101FD000B0FBF3F20848805CC865032A05D908689D
:101FE0006FF30900001D886503E008686FF30900BE
:101FF0008865886D70470000702301080146002045
:102000008A6A8B69CBB932B1012A0DD0022A03D07A
:10201000032A10D10EE000BFCB6A03F08073B3F146
:10202000807F00D1012007E0CB6AB3F1C07F00D1EF
:10203000012001E000E000BF34E08B69B3F5005FF0
:102040001AD132B1012A07D0022A03D0032A11D1B2
:102050000AE000BF01200EE0CB6A03F08073B3F109
:10206000807F00D1012006E0CB6AB3F1C07F00D1B0
:10207000012000E000BF15E032B1012A05D0022A9C
:1020800004D0032A0CD103E000BF00BF012008E008
:10209000CB6A03F08073B3F1807F00D1012000E0B0
:1020A00000BF00BF704730B5039C0164836042608D
:1020B000447030BD10B50446FF2084F84400FF2171
:1020C000452001554620015547200155482001551E
:1020D000492001554A200155FB214B200155082379
:1020E00004F144026168206C0BF090FA10BD70B5E9
:1020F0002DED068B04460D46B0EE408AF0EE608A68
:10210000B0EE419AF0EE619AB0EE42AA052C28D2C8
:10211000DFE804F003171B1F23002878012802D0F2
:10212000284600F041F8B0EE4A2AF0EE691AB0EE07
:10213000491AF0EE680AB0EE480A284600F0D0F8D6
:102140000FE0284600F030F80BE0284600F00DF8CC
:1021500007E0284600F0A6F803E02846FFF7AAFFAC
:1021600000BF00BFBDEC068B70BD10B50446FF205C
:1021700084F84400FF2145200155462001554720A1
:10218000015548200155492001554A200155FD219E
:102190004B200155082304F144026168206C0BF0C8
:1021A00035FA0020207010BD10B50446FF2084F8D9
:1021B0004400FF2145200155462001554720015587
:1021C00048200155492001554A200155FC214B204A
:1021D0000155082304F144026168206C0BF016FAE3
:1021E0000120207010BD000030B505460C46134696
:1021F00029689868814200D030BD20782021C854D9
:10220000207801092120C154A078617840EA012199
:1022100059611021F2EE090ABAEE090A58690DF067
:1022200086FEDFED1F0A20EE200A83ED090AE07822
:102230000001217940EA211199610C21F1EE080A8F
:10224000B9EE080A98690DF072FE83ED0A0A20794A
:102250000002C1B260790143D9610C21F2EE0E0A8D
:10226000BAEE0E0AD8690DF062FE83ED0B0AA07972
:1022700000EE100AB8EE400ABCEEC00A10EE100ADA
:1022800083F83000E07900EE100AB8EE400ABCEEA8
:10229000C00A10EE100A83F8310000BFACE700005E
:1022A0006666664110B50446FF2084F84400FF21AD
:1022B000452001554620015547200155482001552C
:1022C000492001554A200155FE214B200155082384
:1022D00004F144026168206C0BF098F910BD000015
:1022E00010B52DED068B84B00446B0EE40AAB0EEDA
:1022F000608AF0EE418AB0EE619AF0EE429A1020C8
:10230000B2EE091AFAEE090AB0EE4A0A0CF03EFEE5
:1023100080B2ADF804000C20B1EE081AF9EE080AFC
:10232000B0EE480A0CF032FE80B2ADF806009FED28
:102330002F0AC9EE800AF0EE603A0C20B2EE0E1AB7
:10234000FAEE0E0AB0EE630A0CF020FE80B2ADF891
:102350000800BCEEE80A10EE100A80B2ADF80A00E0
:10236000BCEEC90A10EE100A80B2ADF80C00BDF840
:102370000400001284F84400BDF80400C1B24520F6
:102380000155BDF80600C0F3071146200155BDF800
:1023900006000007000EBDF80A1040EA2121472080
:1023A0000155BDF80A00C1B248200155BDF80C0026
:1023B000C0F3071149200155BDF80C000007000EBD
:1023C000BDF8081040EA21214A200155BDF8080057
:1023D000C1B24B200155082304F144026168206C0E
:1023E0000BF014F904B0BDEC068B10BD00007A446C
:1023F00010B504467048807D002872D16E48C07ABE
:1024000001286FD0022802D0032829D129E000201A
:102410006A498871087048708870C870087148717E
:102420006548B0F90800B0F5A57F11DD207878B9CE
:102430006088401C60806088B0F57A7F10DD0120E4
:1024400020700020C8710BF097F90020608007E031
:102450005948008920B9207810B100202070608090
:102460009EE05548807A01284AD0022802D00328ED
:1024700053D138E00120514988710220487088709A
:102480004F48C07820B14E48007908B1042005E0DB
:102490004B48007908B1032000E00120474908704B
:1024A0004748407908B1032005E04548007908B164
:1024B000012000E002204149C8704148007908B17C
:1024C000022000E001203D4908713D48007908B133
:1024D000022000E00120394948713A480BF008FF1A
:1024E0001BE05EE01BE00020344988710120087089
:1024F000487088700220C8700120087148710CE093
:1025000000202E49887101200870487088700320CF
:10251000C87001200871487100BF00BF40E0264824
:10252000807A012828D0022802D0032836D111E071
:102530000120254981F821000020204988710120CF
:1025400008700220487088700020C870012008714F
:10255000487123E001201C4981F82100002017491F
:102560008871032008700220487088700120C870AC
:1025700002200871487111E00120134981F82100FF
:1025800000200E498871042008700220487088706D
:102590000020C87001200871487100BF00BF00BF53
:1025A00008E0002005498871087048708870C8707C
:1025B0000871487110BD000062050020AC0C0020BD
:1025C00078040020040D0020880C0020704770B5AE
:1025D000044601F06BFC054600BF01F067FC401BA0
:1025E000A042FAD370BD70B5044604F0C1F90546A7
:1025F00000BF04F0BDF9401BA042FAD370BD00003B
:1026000000BF054805F00CF904480DF0EDFC05206D
:102610000CF0BBFDF5E70000780E0020300D002027
:1026200010B5202001F034FB10BD72B600BFFEE7EC
:10263000F0EE400AF6EE001A60EEA11AB0EE611A52
:10264000B0EE600A10EE100A0749A1EB600000EE40
:10265000100A21EE002AF7EE081A42EE401A61EE47
:10266000801AB0EE610A7047865A375F10B52DEDBB
:10267000088BFE4890F82000012808D1FB4890F80C
:102680002100012803D10020F84981F82100F848F1
:102690000089C0F3402060B9F548807948B9F54811
:1026A000B0F90800B0F5A57F03DAF348807B012874
:1026B00004D10120F14981F89C0111E0EC48008926
:1026C000C0F3402060B9EA48807948B9E9480089F8
:1026D00030B9E948807B18B90020E84981F89C01AD
:1026E000E74890F83E00012803D1E44981F89D01B4
:1026F00003E00020E14981F89D01E14800780428C9
:102700007ED0DE4890F89C0101284CD1DB4890F83F
:102710007601E8BBD94890F87501C8BBD74890F856
:102720009D01A8BBD648407802283CD1D44890F8F7
:102730003A00012837D10121D04880F8761101F004
:10274000B5FB04460EF051FC41EC190B9FEDCD0B8F
:1027500053EC102B0EF098FC41EC180B0EF0A4F982
:10276000C649C1F86C01084690ED5A0ADFEDC70A68
:1027700030EE600A80ED5A0A01F098FB04460EF034
:1027800034FC41EC190B9FEDBF0B53EC102B00E018
:1027900009E00EF079FC41EC180B0EF085F9B74911
:1027A000C1F8700130E0B54890F89C0148BBB348CF
:1027B00090ED5B0A10EE101A08460FF037F941EC65
:1027C000190B01F073FB04460EF00FFC41EC1B0BE0
:1027D0009FEDAC0B53EC102B0EF056FC41EC1A0B9A
:1027E00053EC192B0EF020FE41EC180B9FEDA80BBB
:1027F00053EC102B0EF0E7FD06D200219F4801E0BC
:1028000047E001E080F876119C4890ED280AD0ED71
:102810005A0AB1EE041A70EE810AB4EEE00AF1EE43
:1028200010FA03D2002180F87511EAE1934890ED87
:102830005C0A10EE101A08460FF0F8F841EC190B7C
:1028400001F034FB04460EF0D0FB41EC1B0B9FED76
:102850008D0B53EC102B0EF017FC41EC1A0B53ECC4
:10286000192B0EF0E1FD41EC180B9FED8B0B53EC97
:10287000102B0EF0A8FDD8D20121804880F87511E8
:1028800090ED5A0ADFED810A30EE200A80ED5A0AF7
:10289000B7E17B4800780428C7D18148D0F80A0006
:1028A00000EE100AB5EEC00AF1EE10FA7DDD7348B5
:1028B00090F89C0101284FD17948407801284BD1EC
:1028C0006E4890F87601E8BB6C4890F87501C8BB7B
:1028D0006A4890F89D01A8BB6948407802283BD11E
:1028E000674890F83A00012836D10121634880F802
:1028F000761101F0DBFA04460EF077FB41EC190B80
:102900009FED600B53EC102B0EF0BEFB41EC180B4F
:102910000EF0CAF85949C1F86C01084690ED5A0A00
:10292000DFED5A0A30EE600A80ED5A0A01F0BEFA75
:1029300004460EF05AFB41EC190B9FED520B53EC81
:10294000102B00E008E00EF09FFB41EC180B0EF09E
:10295000ABF84A49C1F87001484890ED5B0A10EEA7
:10296000101A08460FF062F841EC190B01F09EFABC
:1029700004460EF03AFB41EC1B0B9FED420B53EC6F
:10298000102B0EF081FB41EC1A0B53EC192B0EF0BF
:102990004BFD41EC180B9FED430B53EC102B0EF04D
:1029A00012FD05D20021354800E046E080F876119E
:1029B000324890ED280AD0ED5A0AB1EE041A70EEB2
:1029C000810AB4EEE00AF1EE10FA03D2002180F899
:1029D000751116E1294890ED5C0A10EE101A0846B0
:1029E0000FF024F841EC190B01F060FA04460EF0E8
:1029F000FCFA41EC1B0B9FED230B53EC102B0EF05C
:102A000043FB41EC1A0B53EC192B0EF00DFD41EC7E
:102A1000180B9FED210B53EC102B0EF0D4FCD8D2E9
:102A20000121164880F8751190ED5A0ADFED170A5A
:102A300030EE200A80ED5A0AE3E0104890F89C013D
:102A400001286CD10D4890F8760178BB0B4890F8BE
:102A5000750158BB094890F89D0138BB084840787B
:102A600002285CD1064890F83A0020E0880C00204B
:102A7000780E0020620500205A0E0020CC0A0020AB
:102A8000AC0C0020FCA9F1D24D62503F0000704216
:102A9000000000000000E03F000000403333F33F3F
:102AA00038050020000000000000F83F37E0012852
:102AB00035D10121704880F8761101F0F7F904460C
:102AC0000EF093FA41EC190B1FED120B53EC102B87
:102AD0000EF0DAFA41EC180B0DF0E6FF6649C1F88A
:102AE0006C01084690ED5A0A5FED180A30EE600A54
:102AF00080ED5A0A01F0DAF904460EF076FA41EC5C
:102B0000190B1FED200B53EC102B0EF0BDFA41EC0E
:102B1000180B0DF0C9FF5849C1F870012DE0564857
:102B200090F89C0148BB544890ED5B0A10EE101AD7
:102B300008460EF07BFF41EC190B01F0B7F9044693
:102B40000EF053FA41EC1B0B1FED320B53EC102B24
:102B50000EF09AFA41EC1A0B53EC192B0EF064FCB0
:102B600041EC180B1FED360B53EC102B0EF02BFC29
:102B700003D20021404880F876113F4890ED280AA2
:102B8000D0ED5A0AB1EE041A70EE810AB4EEE00AF2
:102B9000F1EE10FA03D2002180F8751131E03648C9
:102BA00090ED5C0A10EE101A08460EF03FFF41EC63
:102BB000190B01F07BF904460EF017FA41EC1B0BE0
:102BC0001FED500B53EC102B0EF05EFA41EC1A0B7C
:102BD00053EC192B0EF028FC41EC180B1FED520B97
:102BE00053EC102B0EF0EFFB0BD20121224880F8A2
:102BF000751190ED5A0A5FED5B0A30EE200A80ED08
:102C00005A0A1E48B0F9080010F5A57F08DB1C48D9
:102C1000807A28B91B48B0F90C00B0F5A57F17DD04
:102C2000154890F8900198B90121134880F8901147
:102C300090F89101401CC1B20F4880F8911190F8B2
:102C40009101052815DB00210B4880F8911110E057
:102C50000A48008968B90B48808950B90848807AC9
:102C600038B9054890F8900118B10021024880F861
:102C70009011BDEC088B10BDCC0A0020620500202D
:102C8000040D00205A0E002070B50A480468001D8B
:102C90000568001D0668344454B1082206492046E0
:102CA00004F044F8042204491031284604F03EF8A8
:102CB00070BD0000107AFF1F4206002010B51B48AF
:102CC000B0F96C0000EE100AB8EEC00AF0EE400A4F
:102CD0009FED171A9FED160A1649012005F05EFEBA
:102CE0001248B0F9140000EE100AB8EEC00AF0EE77
:102CF000400A9FED0F1A9FED0E0A0E492039012060
:102D000005F04CFE0948B0F9400000EE100AB8EE9C
:102D1000C00AF0EE400A9FED061A9FED050A05492C
:102D20001039012005F03AFE10BD0000CC0A002049
:102D300000000000F40B002010B52848B0F96C002A
:102D400001EE100AB8EEC11AF0EE410A234890F8DD
:102D5000911100F5BE7000EB810090ED001AB0EE0D
:102D6000410A9FED1F1A1F49012005F017FE1B485D
:102D7000B0F9140001EE100AB8EEC11AF0EE410AE3
:102D8000164890F8911100F5BE7000EB810090EDAF
:102D9000001AB0EE410A9FED121A124920390120A3
:102DA00005F0FCFD0D48B0F9400001EE100AB8EE48
:102DB000C11AF0EE410A094890F8911100F5BE7071
:102DC00000EB810090ED001AB0EE410A9FED041A6D
:102DD00004491039012005F0E1FD10BDCC0A0020A6
:102DE00000000000F40B002010B51B48B0F96C0087
:102DF00000EE100AB8EEC00AF0EE400A9FED171A76
:102E00009FED160A1649012005F0C8FD1248B0F9D9
:102E1000140000EE100AB8EEC00AF0EE400A9FED72
:102E20000F1A9FED0E0A0E492039012005F0B6FD5C
:102E30000948B0F9400000EE100AB8EEC00AF0EE02
:102E4000400A9FED061A9FED050A05491039012039
:102E500005F0A4FD10BD0000CC0A00200000000019
:102E6000F40B002010B5024692F82030012B01D05F
:102E7000022B06D110684069084314686061002085
:102E800010BD506A40F4802050620120F8E7F0B590
:102E900004460D461E4694F8207020688368A86892
:102EA00000B900E000BF012F01D0022F7DD103F057
:102EB000806030B903F0006018B903F0805000283A
:102EC0007ED0C3F30161012088403060A86860B9FA
:102ED000B5F800C0E86840EA4C5C206800F5C070B6
:102EE00000EB0110C0F800C00FE0D5E901C040EAD6
:102EF000CC00D5F80CC040EA0C00D4F800C00CF5AA
:102F0000C07C0CEB011CCCF80000D5F810C0206888
:102F100000F5C07000EB0110C0F804C0287D012846
:102F20000ED1206800F5C07000EB0110406840F43D
:102F3000807C206800F5C07000EB0110C0F804C070
:102F4000D079000692F806C040EA0C4092F805C01D
:102F500040EA0C2092F804C040EA0C00D4F800C00B
:102F60000CF5C07C0CEB011CCCF80C00D0780006F2
:102F700092F802C040EA0C4092F801C040EA0C20EE
:102F800092F800C040EA0C00D4F800C00CF5C07CF8
:102F90000CEB011CCCF80800206800F5C07000EBB9
:102FA0000110006840F0010C01E00FE008E020682B
:102FB00000F5C07000EB0110C0F800C00020F0BDAB
:102FC000606A40F4001060620120F8E7606A40F433
:102FD000802060620120F2E7F0B504460A462168CD
:102FE00094F82050012D01D0022D7ED1424901F5E7
:102FF0000071086840F001000860086820F47C5007
:1030000008600868566A40EA06200860107D00F0F3
:103010001F06012000FA06F3C8699843C861A1F5AC
:103020000071D069C8B9D1F80C029843C1F80C02FC
:10303000908880B2968940EA064601F5107057697B
:1030400040F83760108880B2168940EA064601F5DC
:103050001070576900EBC7004660D069012819D18C
:10306000D1F80C021843C1F80C02908880B216887F
:1030700040EA064601F51070576940F837609089BC
:1030800080B2168940EA064601F51070576900EBD8
:10309000C7004660906928B9D1F804029843C1F886
:1030A000040204E0D1F804021843C1F804021069D4
:1030B00028B9D1F814029843C1F8140204E0D1F8F9
:1030C00014021843C1F81402106A012804D1D1F87F
:1030D0001C021843C1F81C02D1F8000220F00100C4
:1030E000C1F800020020F0BDFFE7606A40F48020D4
:1030F00060620120F7E7000000640040704770B58F
:10310000044694F82050012D01D0022D7DD151B9F3
:103110002068C06800F0030080B9606A40F40010C5
:103120006062012070BD2068006900F0030028B9CA
:10313000606A40F4001060620120F3E7206800F547
:10314000D87000EB0110006800F0040090609068F7
:1031500040B9206800F5D87000EB01100068400D00
:10316000106007E0206800F5D87000EB01100068DF
:10317000C0085060206800F5D87000EB01100068AE
:1031800000F00200D060206800F5D87000EB01105C
:10319000406800F00F00082802D30820106108E002
:1031A000206800F5D87000EB0110406800F00F00B7
:1031B0001061206800F5D87000EB0110406800F441
:1031C0007F40000A9061206800F5D87000EB011084
:1031D0004068000C5061206800F5D87000EB0110C9
:1031E00080681870206800F5D87000EB01108068C6
:1031F00000F47F40000A5870206800F5D87000EB9A
:103200000110806800F47F0000E03CE0000C987042
:10321000206800F5D87000EB01108068000ED870AF
:10322000206800F5D87000EB0110C06818712068A4
:1032300000F5D87000EB0110C06800F47F40000A70
:103240005871206800F5D87000EB0110C06800F4D8
:103250007F00000C9871206800F5D87000EB011019
:10326000C068000ED87131B92068C06840F02000F5
:103270002668F06005E02068006940F020002668BC
:10328000306100204EE7606A40F4802060620120D7
:1032900048E72DE9F05F044600252068466920686C
:1032A000D0F80490206887682068D0F80CA02068C7
:1032B000D0F810B02068D0F8188006F0010000287F
:1032C00055D007F00100C0B101202168886007F0E7
:1032D000020018B1204600F0BEFA0EE007F004002C
:1032E00010B145F4006508E007F0080010B145F49E
:1032F000805502E0204600F0ADFA07F48070C8B1B6
:103300004FF480702168886007F4007018B120467F
:1033100000F0A3FA0EE007F4806010B145F4005508
:1033200008E007F4006010B145F4804502E0204653
:1033300000F092FA07F48030C8B14FF48030216871
:10334000886007F4003018B1204600F088FA0EE0DB
:1033500007F4802010B145F4004508E007F4002090
:1033600010B145F4803502E0204600F077FA06F00F
:10337000080038B10AF0100020B145F400751020A3
:103380002168C86006F0040040B10AF0080028B1C6
:1033900008202168C860204600F00CFA06F0020000
:1033A00038B12068C06800F0030010B1204600F07A
:1033B00002FA06F0400038B10BF0100020B145F4DD
:1033C000806510202168086106F0200040B10BF0F4
:1033D000080028B1082021680861204600F0FAF9A9
:1033E00006F0100038B12068006900F0030010B149
:1033F000204600F0F0F906F4003040B109F010006A
:1034000028B1102021684860204600F0F3F906F446
:10341000803040B109F0080028B1082021684860D8
:10342000204600F01DFA06F4004088B309F00400BD
:1034300078B306F4807020B108F0010008B145F0BF
:10344000010506F4007020B108F0020008B145F053
:10345000020506F4806020B108F0040008B145F0D0
:10346000040506F40060A0B108F0700088B108F00F
:103470007000402817D006DC10280BD020280CD074
:10348000302819D10CE0502810D0602814D110E059
:103490001DE019E045F008050FE045F010050CE0CF
:1034A00045F0200509E045F0400506E045F08005BF
:1034B00003E045F4807500E000BF00BF206880692C
:1034C00020F07000216888610420216848602DB1D7
:1034D000606A284360622046FFF710FEBDE8F09F57
:1034E00070B504460CB9012070BD94F8200010B9E5
:1034F000204600F0AFF82068006840F00100216825
:10350000086000F0D3FC05460DE000F0CFFC401B46
:103510000A2808D9606A40F400306062052084F807
:1035200020000120E0E72068406800F0010000284A
:10353000EBD02068006820F002002168086000F0ED
:10354000B5FC05460DE000F0B1FC401B0A2808D987
:10355000606A40F400306062052084F82000012099
:10356000C2E72068406800F002000028EBD1207E0E
:10357000012806D12068006840F0800021680860BA
:1035800005E02068006820F0800021680860607E07
:10359000012806D12068006840F0400021680860DA
:1035A00005E02068006820F0400021680860A07EE7
:1035B000012806D12068006840F0200021680860DA
:1035C00005E02068006820F0200021680860E07EA7
:1035D000012806D12068006820F0100021680860EA
:1035E00005E02068006840F0100021680860207F36
:1035F000012806D12068006840F0080021680860B2
:1036000005E02068006820F0080021680860607FFD
:10361000012806D12068006840F004002168086095
:1036200005E02068006820F0040021680860D4E903
:103630000201084321690843616908436168491E22
:1036400008432168C86100206062012084F82000DE
:10365000002049E710B586B00446142101A8FDF703
:103660009AFC4E492068884241D14D480068401C70
:103670004B4908600846006801280FD100BF0020B0
:1036800000904848006840F00070464908600846CD
:10369000006800F00070009000BF00BF00BF002075
:1036A000009040481038006840F008003D4910394B
:1036B00008600846006800F00800009000BF00BFE6
:1036C0000320019002200290002003900320049028
:1036D0000920059001A9344800F0E8FA00220521EC
:1036E000142000F0ABFC142000F094FC54E02F49AF
:1036F0002068884250D100BF00200090294800680F
:1037000040F08060274908600846006800F080604B
:10371000009000BF00BF22480068401C204908609C
:103720000846006801280FD100BF002000901D4806
:10373000006840F000701B4908600846006800F00F
:103740000070009000BF00BF00BF0020009015482F
:103750001038006840F0020012491039086008462D
:10376000006800F00200009000BF00BF60200190E0
:10377000022002900020039003200490092005906D
:1037800001A90B4800F092FA00220521412000F027
:1037900055FC412000F03EFC06B010BD0064004026
:1037A0009005002040380240000C024000680040B4
:1037B00000040240704710B58AB0044601AB03AA6A
:1037C00000212046FFF79BFC01A903A8FEF710F992
:1037D0000AB010BD704710B58AB0044601AB03AA09
:1037E00001212046FFF78BFC01A903A8FEF758F939
:1037F0000AB010BD704770B5044694F82000012847
:1038000022D1022084F820002068006820F0010006
:103810002168086000F04AFB05460DE000F046FB19
:10382000401B0A2808D9606A40F400306062052015
:1038300084F82000012070BD2068406800F001007D
:103840000028EBD16062F6E7606A40F40020606215
:103850000120F0E770477047704770477047704726
:10386000704770B50446A56D00F020FB064694F83D
:103870003500022808D08020606500BF002084F851
:10388000340000BF012070BD2068006820F01600E1
:10389000216808602068406920F080002168486144
:1038A000206C08B9A06C28B12068006820F00800DE
:1038B000216808602068006820F001002168086025
:1038C00010E000F0F3FA801B05280BD9202060657A
:1038D000032084F8350000BF002084F8340000BFC6
:1038E0000320D0E72068006800F001000028E8D13C
:1038F00094F85C103F208840A860012084F83500CF
:1039000000BF002084F8340000BF00BFBBE70146C1
:1039100091F83500022803D08020486501207047C7
:10392000052081F835000868006820F001000A6869
:1039300010600020F3E70000F8B504460020009076
:103940008C4800684FF41651B0FBF1F7A56D2E6856
:1039500094F85C1008208840304098B120680068D6
:1039600000F0040070B12068006820F004002168B5
:10397000086094F85C1008208840A860606D40F0F2
:103980000100606594F85C1001208840304068B107
:103990002068406900F0800040B194F85C1001207C
:1039A0008840A860606D40F00200606594F85C108B
:1039B00004208840304068B12068006800F00200B0
:1039C00040B194F85C1004208840A860606D40F01D
:1039D0000400606594F85C1010208840304078B393
:1039E0002068006800F0080050B394F85C101020C4
:1039F0008840A8602068006800F4802080B12068BA
:103A0000006800F4002028B9206CC8B12046216C61
:103A1000884715E0A06C98B12046A16C88470FE05C
:103A20002068006800F4807028B92068006820F0E1
:103A3000080021680860206C10B12046216C88477E
:103A400094F85C10202088403040002865D0206821
:103A5000006800F0100000285FD094F85C1020206F
:103A60008840A86094F83500052828D120680068AF
:103A700020F01600216808602068406920F080006E
:103A800021684861206C08B9A06C28B120680068E2
:103A900020F008002168086094F85C103F208840FE
:103AA000A860012084F8350000BF002084F83400AD
:103AB00000BF206D10B12046216D8847F8BD2068F9
:103AC000006800F4802080B12068006800F40020C5
:103AD00028B9606C10B12046616C88471DE0E06B2E
:103AE000D8B12046E16B884717E02068006800F4F1
:103AF000807068B92068006820F0100021680860B4
:103B0000012084F8350000BF002084F8340000BF95
:103B1000E06B10B12046E16B8847606D38B3606D93
:103B200000F00100F0B1052084F83500206800683D
:103B300020F001002168086000BF0098401C009040
:103B4000B84200D905E02068006800F001000028B4
:103B5000F3D100BF012084F8350000BF002084F8B5
:103B6000340000BFE06C10B12046E16C884700BF14
:103B7000A4E70000940500202DE9F041044600254B
:103B800000F094F9074614B90120BDE8F081606A9D
:103B900000B100BF022084F8350000BF002084F887
:103BA000340000BF2068006820F001002168086030
:103BB0000AE000F07BF9C01B052805D920206065CC
:103BC000032084F83500E0E72068006800F0010079
:103BD0000028EED12068056821480540D4E901019C
:103BE0000843E16808432169084361690843A16902
:103BF0000843E1690843216A08430543606A0428D1
:103C000003D1D4E90B01084305432068056020680F
:103C1000456925F00705606A0543606A04280DD1EF
:103C2000A06A0543E06A48B12046FEF7E7F928B1EB
:103C300040206065012084F83500A6E720684561D2
:103C40002046FEF7C1F9064694F85C103F208840F4
:103C5000B06000206065012084F83500002094E702
:103C60003F8010F070B5044600F020F90646254666
:103C7000681C10B104480078054400BF00F016F934
:103C8000801BA842FAD370BD0806002070470000D0
:103C900010B5044604480068204020B10248046082
:103CA0002046FFF7F3FF10BD143C0140F8B5024673
:103CB0000B460025002400200021D6E0012606FA4C
:103CC00001F51E6806EA0504AC4274D11E7906F0BF
:103CD0000306012E04D01E7906F00306022E13D12E
:103CE00090684F000326BE40B0434F00DE68BE40E0
:103CF00030439060506801268E40B0431E79C6F371
:103D000000168E40304350601E7906F00306032EE5
:103D100009D0D0684F000326BE40B0434F009E68D4
:103D2000BE403043D0601E7906F00306022E13D148
:103D3000CF0802F1200656F827004E07F70E0F268F
:103D4000BE40B0434F07FF0E1E69BE403043CF0850
:103D500002F1200646F8270010684F000326BE40F7
:103D6000B0431E7906F003064F00BE40304310609A
:103D70005E6806F44036002E76D000BF002600961E
:103D80003C4E366846F480463A4F3E603E463668C2
:103D900006F48046009600BF00BF374E8F0856F8E5
:103DA00027008E07370F0F26BE40B043334EB24276
:103DB00002D1002624E057E0314EB24201D1012663
:103DC0001EE0304EB24201D1022619E02E4EB24220
:103DD00001D1032614E02D4EB24201D104260FE09A
:103DE0002B4EB24201D105260AE02A4EB24201D141
:103DF000062605E0284EB24201D1072600E008263B
:103E00008F073F0FBE4030431B4E8F0846F82700F8
:103E1000224E3068A0435E6806F4801606B1204347
:103E20001E4E3060361D3068A0435E6806F40016F2
:103E300006B12043194E361D3060184E361F3068CB
:103E4000A0435E6806F4003606B12043134E361FC9
:103E50003060361F3068A0435E6806F4803606B1D5
:103E600020430E4E083E3060491C1029FFF426AF57
:103E7000F8BD00004438024008380140000002400C
:103E80000004024000080240000C02400010024002
:103E90000014024000180240001C0240083C01408F
:103EA0000AB1816101E00B04836170470148006839
:103EB00070470000000600200348006803490978A5
:103EC00008440149086070470006002008060020E9
:103ED00010B50D48006840F400700B4908600846B2
:103EE000006840F4806008600846006840F4807014
:103EF0000860032000F0E0F80F2000F007F800F061
:103F00005FF8002010BD0000003C02402DE9F041A8
:103F100088B004460027B84600BF0020019024481E
:103F2000006840F00100224908600846006800F07F
:103F30000100019000BF00BF02A903A801F06CF8C6
:103F4000069F1FB901F090F8054602E001F08CF8D9
:103F500045001848B5FBF0F0A0F101084FF0804093
:103F60001549086040F2E7311348C160C0F8048089
:103F7000002101618160816101F092FD064696B9E0
:103F80000D4801F041FE06466EB91C2000F042F8D3
:103F9000102C07D2002221461C2000F04FF80748C1
:103FA000046000E00126304608B0BDE8F081000062
:103FB0004038024040420F00D8160020040600207E
:103FC00008B500BF002000901148006840F4804010
:103FD0000F4908600846006800F48040009000BF68
:103FE00000BF00BF00200090081F006840F0805014
:103FF000091F08600846006800F08050009000BF6C
:1040000000BF00220F21901E00F018F808BD00002C
:10401000443802400146084600280DDB00BF00BFBF
:1040200000F01F0301229A4043099B0003F1E023A3
:10403000C3F8002100BF00BF00BF70472DE9F05F4B
:1040400080460D461646002709F044FE07463946CD
:104050002A46334601F00700C0F1070ABAF1040FFF
:1040600002D94FF0040A01E0C0F1070AD14600F17D
:10407000040ABAF1070F02D24FF0000A01E0A0F1E2
:10408000030AD4464FF0010A0AFA09FAAAF1010A12
:104090000AEA020A0AFA0CFA4FF0010B0BFA0CFBBF
:1040A000ABF1010B0BEA030B4AEA0B042146404635
:1040B00009F018FEBDE8F09F00BF00F00702064BB4
:1040C00019684FF6FF031940044B0B4343EA0221E2
:1040D000014B196000BF70470CED00E00000FA05CD
:1040E000704702461068416200207047F0B50346F1
:1040F00015461868446A21B944EA05401E68B06252
:1041000019E01868806A04EB1044002208E018687F
:1041100000F5827050F8220004EB1044501CC2B22B
:10412000481E9042F3D844EA0547186800F58270AB
:104130004E1E40F826700020F0BD10B50446D4F89D
:10414000E00407F0D8FD10BD70B504460D4605EB40
:10415000C50304F1140101EB8301CA682946D4F8B0
:10416000E00407F0C3FC70BD70B504460D4605EBD6
:10417000C50304F5157101EB8301CA682946D4F81B
:10418000E00407F037FD70BD10B50446D4F8E00434
:1041900007F0B4FD10BD2DE9F04104460D4605F0D1
:1041A0008000802808D105F00F0000EBC00104F169
:1041B000140000EB810607E005F00F0000EBC001E2
:1041C00004F5157000EB81063146206808F0E0FF29
:1041D00007463846BDE8F08170B504460E4606F045
:1041E000800080280AD106F00F0000EBC00104F126
:1041F000140000EB81050120687009E006F00F0053
:1042000000EBC00104F5157000EB8105002068701B
:1042100006F00F00287000BF94F89404012801D123
:10422000022070BD012084F8940400BF2946206854
:1042300008F03CFB00BF002084F8940400BF00BFDE
:10424000EFE770B504460E4606F00F00217988426C
:1042500001D9012070BD06F0800080280AD106F047
:104260000F0000EBC00104F1140000EB81050120F8
:10427000687009E006F00F0000EBC00104F515704E
:1042800000EB8105002068700020A87006F00F0088
:10429000287000BF94F89404012801D10220D9E7C6
:1042A000012084F8940400BF2946206808F0FCFC33
:1042B00000BF002084F8940400BF00BFCAE7024694
:1042C00001F00F0000EBC00302F5157000EB830056
:1042D000406970472DE9F04705460E4690461F4657
:1042E0004FF0000906F0800080280AD106F00F0088
:1042F00000EBC00105F1140000EB810401206070A7
:1043000009E006F00F0000EBC00105F5157000EBA9
:1043100081040020607006F00F002070C8F30A00CE
:10432000A0602771607808B120786083022F01D1E6
:104330000020607100BF95F89404012802D102208A
:10434000BDE8F087012085F8940400BF2146286865
:1043500008F0C0F900BF002085F8940400BF48466B
:10436000EEE72DE9F04105460E461746984606F061
:104370000F0000EBC00105F5157000EB8104E7604C
:10438000C4F8108000206061607006F00F0020709B
:10439000A879012800D1E761AA792146286808F0A8
:1043A00017FD0020BDE8F08170B504460D4605F00C
:1043B0000F002179884201D9012070BD05F08000ED
:1043C00080280AD105F00F0000EBC00104F11400B1
:1043D00000EB81060120707007E005EBC50104F5D4
:1043E000157000EB8106002070700120B07005F0A0
:1043F0000F00307000BF94F89404012801D102200E
:10440000DBE7012084F8940400BF3146206808F0FF
:1044100092FC05F00F0028B9A17904F29C422068B3
:1044200008F00AFC00BF002084F8940400BF00BF1D
:10443000C3E72DE9F04105460E461746984606F0BB
:104440000F0000EBC00105F1140000EB8104E760F0
:10445000C4F81080002060610120607006F00F0039
:104460002070A879012800D1E761AA79214628683F
:1044700008F0AEFC0020BDE8F0812DE9FE4F0446B7
:10448000D4F800B05E46206808F064FF002874D1BC
:10449000206808F09EFF08B9BDE8FE8F40F60800CE
:1044A0008059C0F30D20C4F8D404206808F091FFAF
:1044B00000F00200022805D12068406900F00200E7
:1044C00021684861206808F084FF00F0100010287F
:1044D00045D12068806920F0100021688861DBF8F0
:1044E000209009F00F0000EBC00104F5157000EBFF
:1044F000810AC9F3434002281AD147F6F07009EA4D
:10450000000030B3C9F30A125846DAF80C1008F06C
:1045100065FFC9F30A11DAF80C000844CAF80C0068
:10452000C9F30A11DAF814000844CAF8140010E0BC
:10453000C9F3434006280CD1082204F29C41584696
:1045400008F04CFFC9F30A11DAF814000844CAF85D
:1045500014002068806940F010002168886120689C
:1045600008F037FF00F40020B0F5002F7BD10025C4
:10457000206808F0FEFE029072E0E1E2029800F08E
:104580000100002868D0E9B2206808F015FF8046D5
:1045900008F0010048B1012106F5306000EB45103C
:1045A00081602946204604F0FBFA08F0080008283C
:1045B00009D1082106F5306000EB451081602946DD
:1045C000204604F0BBFA08F01000102805D1102195
:1045D00006F5306000EB4510816008F0020002280B
:1045E00024D1DBF8140000F08000802807D140F6C9
:1045F0000400805940F4806140F60400815105EBCD
:10460000C50104F5157000EB810A9AF80300012832
:1046100006D100208AF80300E9B2204600F09BFA98
:10462000022106F5306000EB4510816008F02000A3
:10463000202805D1202106F5306000EB451081606F
:1046400008F40050B0F5005F06D14FF4005106F5B4
:10465000306000EB451081606D1C029840080290AC
:10466000029800288AD1206808F0B3FE00F4802068
:10467000B0F5802F7DD1206808F071FE02900025F2
:104680009AE0029800F00100002873D0E9B2206897
:1046900008F079FE804608F00100F0B305F00F0144
:1046A00001208840019040F634008159019821EAA8
:1046B000000040F634018851012106F5106000EB3E
:1046C00045108160A079012824D105EBC50104F1D2
:1046D000140000EB810005EBC502C16804F1140071
:1046E00000EB82008068014405EBC50204F1140070
:1046F00000EB8200C1606DB905EBC50104F1140047
:1047000000EB8100006928B904F29C420121206875
:1047100008F092FAE9B2204600E001E0FFF714FD4C
:1047200008F00800082805D1082106F5106000EB04
:104730004510816008F01000102805D1102106F501
:10474000106000EB4510816008F04000402805D162
:10475000402106F5106000EB4510816008F0020072
:1047600002281DD12946584608F0B7FD05EBC501C2
:1047700001E025E01CE004F1140000EB810A9AF846
:104780000300012806D100208AF80300E9B2204680
:1047900000F0D8F9022106F5106000EB45108160A9
:1047A00008F08000802803D12946204604F09AFAB8
:1047B0006D1C029840080290029800287FF461AFB7
:1047C000206808F006FE00F00040B0F1004F1CD158
:1047D00040F60400805920F0010140F604008151A8
:1047E00094F8CC04012807D1002084F8CC040021DF
:1047F0002046FFF775FC02E0204600F0D1FA206861
:10480000406900F0004021684861206808F0E1FD3F
:1048100000F40060B0F5006F0ED140F6080080593A
:1048200000F0010010B1204600F012FB2068406942
:1048300000F4006021684861206808F0CAFD00F4B7
:104840008050B0F5805F7ED140F60400805920F0A2
:10485000010140F6040081511021206808F03DFD5F
:10486000002732E04FF67F3106F5106000EB47106D
:10487000816006F5106000EB4710006820F400111D
:1048800006F5106000EB471001604FF67F3106F52A
:10489000306000EB4710816006F5306000EB471098
:1048A000006820F4001106F5306000EB471001604D
:1048B00006F5306000EB4710006840F0006106F537
:1048C000306000EB471001607F1C2079B842C9D8E6
:1048D00040F61C00805940F0011140F61C00815147
:1048E000E07B70B1D6F8840840F00B01C6F884185C
:1048F00040F64400805940F00B0140F644008151DD
:104900000FE040F61400805942F22B01084340F6B4
:1049100014018851081F805940F00B014FF40160C9
:104920008151D6F8000820F4FE60C6F80008A1798D
:1049300004F29C42206808F07FF92068406900F486
:104940008050216800E000E04861206808F041FDE7
:1049500000F40050B0F5005F17D1206807F022FF87
:10496000206808F0E4FCE07100F078FB0090E27948
:104970002068009908F0B4FD204600F0F9F920689D
:10498000406900F4005021684861206808F021FD6A
:1049900000F00800082808D1204600F008FA206836
:1049A000406900F0080021684861206808F011FDA6
:1049B00000F08000802818D1DBF8180020F080007B
:1049C000CBF8180001250DE005EBC50104F51570C5
:1049D00000EB8100C078012803D1E9B22046FFF73F
:1049E000DAFB6D1C2079A842EED8206808F0F1FCB3
:1049F00000F48010B0F5801F2DD1012522E006F5CE
:104A0000106000EB4510D0F8009005EBC50104F1F3
:104A1000140000EB81000079012812D109F0004058
:104A2000B0F1004F0DD1012105EBC50204F11400D6
:104A300000EB8200C170E8B240F080012046FFF731
:104A4000AAFB6D1C2079A842D9D82068406900F4DF
:104A5000801021684861206808F0BBFC00F4001059
:104A6000B0F5001F44D1012538E006F5306000EBB9
:104A70004510D0F8009005EBC50104F5157000EB6A
:104A800081000079012828D109F00040B0F1004FE1
:104A900023D109F4803094F8D41401F00101884244
:104AA0001BD1012105EBC50204F5157000EB820056
:104AB000C170DBF8180040F08000CBF81800DBF87C
:104AC000140000F0800040B940F60400805940F422
:104AD000007140F60400815103E06D1C2079A8426A
:104AE000C3D800BF2068406900F400102168486105
:104AF000206808F06EFC00F08040B0F1804F08D1D3
:104B00002046FFF71AFB2068406900F080402168CA
:104B10004861206808F05DFC00F0040004280FD113
:104B20002068D0F8049009F00400042802D120463F
:104B3000FFF72AFB2068406840EA090021684860C6
:104B400000BFA9E470B504460D462946D4F8E00438
:104B500007F040F970BD70B504460D462946D4F8FB
:104B6000E00407F05BF970BDF8B504460CB901200C
:104B7000F8BD266894F8950428B9002084F89404B8
:104B8000204600F0A1F8032084F89504B6F1A04F68
:104B900001D10021A171206808F046F8207C8DF831
:104BA000000094E80F0007F011FE20B1022084F805
:104BB00095040120DCE70021206808F03FFC20B1CB
:104BC000022084F895040120D2E7002531E001217C
:104BD00005EBC50204F1140000EB8200417005EB07
:104BE000C50104F1140000F8215005EBC50100EBEC
:104BF00081004583002105EBC50204F1140000EBA0
:104C00008200017105EBC50204F1140000EB820083
:104C1000816005EBC50204F1140000EB8200C16065
:104C200005EBC50204F1140000EB82000161681C71
:104C3000C5B22079A842CADC00252AE0002105EB94
:104C4000C50204F5157000EB8200417005EBC5014B
:104C500004F5157000F82150002105EBC50200EBAA
:104C60008200017105EBC50204F5157000EB8200AE
:104C7000816005EBC50204F5157000EB8200C16090
:104C800005EBC50204F5157000EB82000161681C9C
:104C9000C5B22079A842D1DC207C8DF8000094E8D0
:104CA0000F0007F0CDFE20B1022084F8950401200A
:104CB0005EE700206074012084F89504206807F006
:104CC000ADFE002054E7000010B586B00446142164
:104CD00001A8FCF760F92068B0F1A04F42D100BFF5
:104CE000002000902048006840F001001E49086044
:104CF0000846006800F00100009000BF00BF4FF4BC
:104D0000C0500190022002900020039003200490E4
:104D10000A20059001A91548FEF7C8FF00BF1248F8
:104D2000001D006840F080000F49091D086000BFA9
:104D3000002000900C481430006840F480400A497C
:104D4000143108600846006800F48040009000BFFD
:104D500000BF00BF002205214320FFF76FF9432069
:104D6000FFF758F906B010BD30380240000002408D
:104D700070B504460125E07908B9002506E0E07920
:104D8000022801D1012501E0FDF74FFC2946D4F8A6
:104D9000E00407F0ECF8D4F8E00407F093F870BDF5
:104DA00010B50446D4F8E00407F0C2F810BD10B501
:104DB0000446D4F8E00407F0C6F810BD70B5044608
:104DC0000D4600BF94F89404012801D1022070BD63
:104DD000012084F8940400BF65742946206808F017
:104DE00061FB00BF002084F8940400BF00BFEEE721
:104DF00010B5044604F29C41D4F8E00407F0CEF864
:104E000010BD70B50446256800BF94F894040128CD
:104E100001D1022070BD012084F8940400BFE8682D
:104E200000F0400030B1607B012803D1A86B40F452
:104E30008030A863206808F021FA206807F0DCFDC4
:104E400000BF002084F8940400BF00BFE2E7000028
:104E500010B50446D4F8E00407F0FDF82068D0F857
:104E6000000E40F001002168C1F8000EE07A28B180
:104E70000348006840F006000149086010BD0000CA
:104E800010ED00E07047000070B504460D460CB907
:104E9000012070BD5848006800F00700A84209D200
:104EA00055490D700846006800F00700A84201D07F
:104EB0000120EEE7207800F0020002281DD12078C2
:104EC00000F00400042805D14C48006840F4E0508C
:104ED0004A490860207800F00800082805D14748B2
:104EE000006840F46040454908604448006820F08C
:104EF000F000A168084341490860207800F00100F3
:104F0000A8B36068012807D13C4808380068C0F39E
:104F10004040B8B90120BCE76068022802D0606850
:104F2000032807D1354808380068C0F3406048B905
:104F30000120AEE7314808380068C0F3400008B9E6
:104F40000120A6E72D48006820F0030061680843AF
:104F50002A490860FEF7AAFF064609E0FEF7A6FF09
:104F6000801B41F28831884202D9032091E707E093
:104F70002248006800F00C006168B0EB810FEDD1B1
:104F80001D48006800F00700A84209D91A490D70B1
:104F90000846006800F00700A84201D0012078E729
:104FA000207800F00400042807D11448006820F499
:104FB000E050E168084311490860207800F00800DB
:104FC000082808D10D48006820F46040216940EAB3
:104FD000C1000A49086000F067F808490968C1F390
:104FE0000311074A515CC84006490860064800683A
:104FF000FEF78CFF00204CE7003C024008380240DE
:1050000058230108940500200406002001200149CE
:10501000C8647047000047420F2202600D4A1268C0
:1050200002F0030242600B4A126802F0F002826052
:10503000084A126802F4E052C260064A126802F49A
:105040006042D2080261044A126802F007020A6054
:105050007047000008380240003C024001480068E8
:10506000704700009405002000B5FFF7F7FF0449E2
:105070000968C1F38221034A515CC84000BD0000A9
:10508000083802406823010800B5FFF7E7FF04492C
:105090000968C1F34231034A515CC84000BD0000B9
:1050A00008380240682301082DE9F0470024002554
:1050B0000026A1462548006800F00C0020B1042815
:1050C00005D008283AD105E0DFF8849039E0DFF810
:1050D000849036E01D48001F006800F03F041B4824
:1050E000001F006800F4800078B11A481749091FB2
:1050F0000968C1F38811A0FB017001462246002314
:105100003846FBF730FE05460EE011480F49091FEF
:105110000968C1F38811A0FB0170014622460023F3
:105120003846FBF720FE05460848001F0068C0F31C
:105130000140401C4600B5FBF6F902E0DFF8109094
:1051400000BF00BF4846BDE8F087000008380240B5
:105150000024F400001BB70010B50648006800F0FA
:105160008000802805D1FFF78DFE80200149891C31
:10517000087010BD0C380240F8B504460CB9012087
:10518000F8BD207800F00100002874D0F9480068CC
:1051900000F00C0004280DD0F648006800F00C0068
:1051A000082813D1F348001F006800F48000B0F510
:1051B000800F0BD1EF4808380068C0F3404000284A
:1051C00059D06068002856D10120D9E700BF606837
:1051D000B0F5803F08D1E7480838006840F48030D7
:1051E000E449083908601EE06068B0F5A02F0DD1D1
:1051F000E0480838006840F48020DE49083908603B
:105200000846006840F4803008600CE0D94808384F
:10521000006820F48030D7490839086008460068E3
:1052200020F48020086000BF606890B1FEF73EFE69
:10523000054606E0FEF73AFE401B642801D903202C
:105240009EE7CC4808380068C0F340400028F1D001
:1052500011E0FEF72BFE054606E0FEF727FE401B99
:10526000642801D903208BE7C24808380068C0F3DE
:1052700040400028F1D1207800F0020002285FD1E0
:10528000BC48006800F00C0058B1BA48006800F053
:105290000C0008281CD1B748001F006800F48000EB
:1052A000B0B9B44808380068C0F3400020B1E068E5
:1052B000012801D0012063E7AE480838006820F0DB
:1052C000F800216940EAC100AA490839086037E0BE
:1052D000E06800B30120A8490860FEF7E7FD054635
:1052E00006E0FEF7E3FD401B022801D9032047E753
:1052F000A04808380068C0F340000028F1D09D485D
:105300000838006820F0F800216940EAC100994996
:105310000839086014E0002097490860FEF7C6FDD0
:10532000054606E0FEF7C2FD401B022801D9032016
:1053300026E7904808380068C0F340000028F1D103
:10534000207800F0080008282CD16069A8B101205D
:105350008A490860FEF7AAFD054606E0FEF7A6FDAD
:10536000401B022801D903200AE782486C300068FC
:10537000C0F340000028F1D014E000207F4908600D
:10538000FEF794FD054606E0FEF790FD401B02285F
:1053900001D90320F4E677486C300068C0F3400080
:1053A0000028F1D1207800F00400042870D10027F3
:1053B00070483830006800F0805090B900BF00207D
:1053C00000906C483830006840F0805069493831AE
:1053D00008600846006800F08050009000BF00BFE1
:1053E00001276748006800F48070B0B9644800681D
:1053F00040F4807062490860FEF758FD054606E0FB
:10540000FEF754FD401B022801D90320B8E65C4892
:10541000006800F480700028F2D000BFA068012866
:1054200008D154486830006840F0010051496831A3
:1054300008601DE0A06805280DD14E48683000685E
:1054400040F004004B49683108600846006840F0AD
:10545000010008600CE047486830006820F0010057
:105460004449683108600846006820F0040008607C
:1054700000BFA068A8B1FEF719FD054609E0FEF7D8
:1054800015FD401B41F28831884202D9032077E69E
:1054900026E0384868300068C0F340000028EED0AD
:1054A00013E0FEF703FD054608E0FEF7FFFC401B96
:1054B00041F28831884201D9032061E62D486830E5
:1054C0000068C0F340000028EFD1012F07D1294820
:1054D0003830006820F0805026493831086000BF1D
:1054E000A069002845D02348006800F00C00082877
:1054F0005DD0A069022845D100201F490866FEF74B
:10550000D5FC054606E0FEF7D1FC401B022801D978
:10551000032035E6174808380068C0F340600028CB
:10552000F1D1D4E907010843616A40EA81110122FF
:10553000A06AC2EB500041EA00412C20005D41EA24
:1055400000600C49091F086001200B490866FEF73E
:10555000ADFC054606E0FEF7A9FC401B022801D978
:1055600003200DE6034808380068C0F340600028B7
:10557000F1D049E00838024000004742800E47421F
:1055800000700040002021490866FEF78FFC0546A8
:1055900006E0FEF78BFC401B022801D90320EFE553
:1055A0001B480068C0F340600028F2D12CE0A069DD
:1055B000012800D1E4E51648001D0668A06901280D
:1055C00020D006F48001E06981421BD106F03F0142
:1055D000206A814216D147F6C0703040616AB0EB54
:1055E000811F0FD106F440310122A06AC2EB5000A6
:1055F000B1EB004F06D106F070612C20005DB1EBDD
:10560000006F01D00120BBE50020B9E50000474252
:105610000038024010B504460CB9012010BD606A84
:1056200038B96068B0F5827F00D105E00021E16102
:1056300002E00021216161610021A16294F8510022
:1056400028B9002084F85000204600F047F80220D6
:1056500084F851002068006820F04000216808604C
:10566000A08800F48270218901F404410843A189D3
:1056700001F400610843217C01F002010843217D0F
:1056800001F001010843218B01F400710843217FDF
:1056900001F0380108432021095D01F08001084331
:1056A000218D01F400510843216808600421A0699C
:1056B00001EA104094F8241001F010010843216819
:1056C00048602068C06920F400602168C86100203B
:1056D0006065012084F8510000209FE710B586B076
:1056E0000446142101A8FBF756FC2949206888428A
:1056F0004CD100BF002000902648006840F4805044
:10570000244908600846006800F48050009000BFFB
:1057100000BF00BF002000901E481438006840F011
:1057200002001C49143908600846006800F00200B5
:10573000009000BF00BF00BF002000900846006836
:1057400040F0010008600846006800F00100009089
:1057500000BF00BF1820019002200290002003909B
:10576000032004900520059001A90B48FEF79EFA3E
:1057700080200190022002900020039003200490DA
:105780000520059001A90548FEF790FA06B010BD66
:105790000030014044380240000402400000024052
:1057A0002DE9FE4F04460F4690461D460C9E0120F3
:1057B0000190FEF77BFB814694F851B0606802903F
:1057C000AA46BBF1010F0BD00298B0F5827F04D13D
:1057D000A06810B9BBF1040F02D00220BDE8FE8F13
:1057E0001FB1B8F1000F00D00DB90120F6E700BFDE
:1057F00094F85000012801D10220EFE7012084F83D
:10580000500000BF94F85100042802D0052084F80D
:10581000510000206065C4F83880E587A5872763BC
:10582000E586A586206460642068006800F040007A
:10583000402805D02068006840F0400021680860DA
:10584000E068B0F5006F52D1606810B1BAF1010F95
:1058500009D1206B00882168C860206B801C206300
:10586000E08E401EE0863BE02068806800F0020089
:10587000022810D1E08E70B1019801280BD1206B65
:1058800000882168C860206B801C2063E08E401E69
:10589000E086002001902068806800F0010068B177
:1058A000E08F58B12068C068A16B0880A06B801C95
:1058B000A063E08F401EE08701200190FEF7F6FA1A
:1058C000A0EB0900B0420BD3701C48B1012084F852
:1058D000510000BF002084F8500000BF03207DE786
:1058E000E08E0028C0D1E08F0028BDD152E0606872
:1058F00010B1BAF1010F09D1206B0078216808734B
:10590000206B401C2063E08E401EE0863CE0206857
:10591000806800F00200022810D1E08E70B101987A
:1059200001280BD1206B007821680873206B401C84
:105930002063E08E401EE086002001902068806891
:1059400000F0010068B1E08F58B12068C068A16B19
:105950000870A06B401CA063E08F401EE087012010
:105960000190FEF7A3FAA0EB0900B04201D3701C2E
:1059700000B94EB9012084F8510000BF002084F81E
:10598000500000BF032029E7E08E0028BFD1E08F40
:105990000028BCD14A463146204604F06FFA40B197
:1059A0002020606500BF002084F8500000BF012067
:1059B00014E7A06850B900BF002000902068C068BC
:1059C000009020688068009000BF00BF012084F82C
:1059D000510000BF002084F8500000BF606D08B186
:1059E0000120FBE60020F9E67047704730B502461B
:1059F0000B4600BF92F83C00012801D1022030BDC7
:105A0000012082F83C0000BF022082F83D001068AF
:105A100044681068816824F07004186804431068B2
:105A20004460184D1068A8421BD01068B0F1804F38
:105A300017D0154D1068A84213D0144D1068A84215
:105A40000FD0134D1068A8420BD0124D1068A84219
:105A500007D0114D1068A84203D0104D1068A8421D
:105A600005D121F080015868014310688160012050
:105A700082F83D0000BF002082F83C0000BF00BF5C
:105A8000BDE70000000001400004004000080040A5
:105A9000000C00400004014000400140001800409C
:105AA00010B504460CB9012010BD94F83D0028B98A
:105AB000002084F83C00204600F026F8022084F8FC
:105AC0003D00211D206804F001FC012084F84600FF
:105AD00000BF84F83E0001213F20015540200155C0
:105AE0004120015500BF00BF012084F8420043203F
:105AF0000155442001554520015500BF012084F87F
:105B00003D000020D0E7000008B5154A0168914229
:105B10000FD100BF002100911249096841F0040132
:105B2000104A11601146096801F00401009100BF9C
:105B300015E00D4A0168914211D100BF002100918A
:105B40000849091D096841F40031064A121D116017
:105B50001146096801F40031009100BF00BF08BD83
:105B6000000800404038024000440140014691F8DE
:105B70003D00012801D001207047022081F83D003E
:105B80001A4B086898421BD00868B0F1804F17D0B4
:105B9000174B0868984213D0164B086898420FD0EC
:105BA000154B086898420BD0144B0868984207D0F0
:105BB000134B0868984203D0124B086898420CD1E6
:105BC0000868806800F00702062A0CD008680068A0
:105BD00040F001000B68186005E00868006840F0BC
:105BE00001000B6818600020C6E7000000000140BB
:105BF0000004004000080040000C00400004014088
:105C00000040014000180040014691F83D00012885
:105C100001D001207047022081F83D000868C0686B
:105C200040F001000B68D8601A4B086898421BD0FE
:105C30000868B0F1804F17D0174B0868984213D00E
:105C4000164B086898420FD0154B086898420BD045
:105C5000144B0868984207D0134B0868984203D049
:105C6000124B086898420CD10868806800F007025F
:105C7000062A0CD00868006840F001000B68186024
:105C800005E00868006840F001000B68186000201B
:105C9000C0E7000000000140000400400008004090
:105CA000000C00400004014000400140001800408A
:105CB0002DE9F04104460D46002700BF94F83C0052
:105CC000012802D10220BDE8F081012084F83C00C7
:105CD00000BF022084F83D002068866826F0770621
:105CE00026F47F46206886602868502833D00CDC74
:105CF000202850D004DC00284BD0102851D149E096
:105D0000302849D040284CD139E060282DD0702867
:105D100007D0B0F5805F03D0B0F5005F41D10DE052
:105D200041E0D5E902136A68206804F054FB20685A
:105D3000866846F077062068866034E0D5E902136D
:105D40006A68206804F047FB2068806840F480405F
:105D50002168886027E0EA686968206804F02CFC04
:105D60005021206804F042FB1DE0EA686968206861
:105D700004F035FC6021206804F038FB13E0EA6889
:105D80006968206804F018FC4021206804F02EFBAC
:105D900009E000BF00BF00BF2968206804F026FBAF
:105DA00001E0012700BF00BF012084F83D0000BFD3
:105DB000002084F83C0000BF384684E7704770B587
:105DC00004462068C5682068066906F002000228BB
:105DD00019D105F00200022815D1401F2168086181
:105DE000012020772068806900F0030018B1204668
:105DF000FFF7E4FF05E0204600F0F2F8204600F04F
:105E0000A6F90020207706F00400042819D105F037
:105E10000400042815D1C0432168086102202077BE
:105E20002068806900F4407018B12046FFF7C6FF73
:105E300005E0204600F0D4F8204600F088F9002064
:105E4000207706F00800082819D105F00800082876
:105E500015D1C04321680861042020772068C069FB
:105E600000F0030018B12046FFF7A8FF05E0204628
:105E700000F0B6F8204600F06AF90020207706F01E
:105E80001000102819D105F01000102815D1C043BA
:105E900021680861082020772068C06900F44070FC
:105EA00018B12046FFF78AFF05E0204600F098F879
:105EB000204600F04CF90020207706F0010048B1A0
:105EC00005F0010030B16FF0010021680861204643
:105ED00000F0C4F906F08000802809D105F08000A8
:105EE000802805D1C043216808612046FFF77CFD6A
:105EF00006F04000402809D105F04000402805D1B7
:105F0000C04321680861204600F0B1F906F0200086
:105F1000202809D105F02000202805D1C0432168A0
:105F200008612046FFF761FD70BD000010B586B026
:105F30000446142101A8FBF72EF824492068884262
:105F40001FD100BF002000902148006840F00800E9
:105F50001F4908600846006800F00800009000BF74
:105F600000BF4FF480400190022002900120039076
:105F7000032004900220059001A91648FDF796FE23
:105F800021E01549206888421DD100BF0020009003
:105F90000F48006840F020000D490860084600687E
:105FA00000F02000009000BF00BF402001900220C0
:105FB000029001200390022004900320059001A983
:105FC0000648FDF773FE06B010BD00000008004053
:105FD00030380240000C02400044014000140240EE
:105FE00070472DE9F04104460D461646002700BFD4
:105FF00094F83C00012802D10220BDE8F081012084
:1060000084F83C0000BF36B1042E1BD0082E31D0DE
:106010000C2E5ED145E02946206804F0F1F9206895
:10602000806940F00800216888612068806920F05C
:106030000400216888612068806929690843216813
:10604000886148E02946206804F012FA20688069D7
:1060500040F40060216888612068806920F48060D5
:106060002168886120688069296940EA01202168E7
:10607000886130E02946206804F038FA2068C06959
:1060800040F008002168C8612068C06920F0040061
:106090002168C8612068C069296908432168C8610E
:1060A00019E02946206804F05DFA2068C06940F4D0
:1060B00000602168C8612068C06920F480602168A0
:1060C000C8612068C069296940EA01202168C86167
:1060D00001E0012700BF00BF00BF002084F83C00A2
:1060E00000BF384689E710B504460CB9012010BD41
:1060F00094F83D0028B9002084F83C00204600F0C8
:1061000025F8022084F83D00211D206804F0DEF807
:10611000012084F8460000BF84F83E0001213F20A2
:106120000155402001554120015500BF00BF01200D
:1061300084F8420043200155442001554520015573
:1061400000BF012084F83D000020D0E77047704771
:1061500070B504460D4615B994F83E000BE0042DC9
:1061600002D13F20005D06E0082D02D14020005DF5
:1061700001E04120005D012801D0012070BD1DB962
:10618000022084F83E000EE0042D03D102213F20BE
:10619000015508E0082D03D102214020015502E0FD
:1061A00002214120015501222946206804F002F90C
:1061B00023492068884203D022492068884201D1BF
:1061C000012000E0002028B12068406C40F400402D
:1061D000216848641A49206888421BD02068B0F1C1
:1061E000804F17D018492068884213D0174920687B
:1061F00088420FD01649206888420BD01149206888
:10620000884207D013492068884203D01249206889
:1062100088420CD12068806800F00706062E0CD05A
:106220002068006840F001002168086005E02068EF
:10623000006840F001002168086000209EE700002F
:10624000000001400004014000040040000800403C
:10625000000C0040004001400018004010B504460A
:106260002068B0F1804F01D1FDF726FE10BD7047C8
:1062700070B504460D4614492068884204D1294669
:10628000204607F0F3F907E010492068884203D15F
:106290002946204607F02EFA012020632068C068B6
:1062A00040F010002168C8602068406940F040005C
:1062B00021684861E06B0068006840F00100E16B14
:1062C0000968086070BD00000048004000140140EB
:1062D000704700002DE9F84F0446206805682068E3
:1062E000C668206847694FF00009CA4605F00F09E3
:1062F000B9F1000F0AD105F0200038B106F02000F6
:1063000020B1204604F01AFBBDE8F88FB9F1000F68
:106310007CD007F0010018B906F49070002875D001
:1063200005F0010030B106F4807018B1606C40F0E7
:106330000100606405F0040030B107F0010018B1FD
:10634000606C40F00200606405F0020030B107F0BC
:10635000010018B1606C40F00400606405F00800B2
:1063600048B106F0200010B907F0010018B1606CC8
:1063700040F008006064606C002846D005F0200002
:1063800028B106F0200010B1204604F0D7FA2068AA
:106390004069C0F3801A606C00F0080010B9BAF1CF
:1063A000000F2DD0204604F083FA2068406900F0E9
:1063B0004000402820D100BF00BF2168143151E8BF
:1063C000001F21F040002168143141E80002002A3A
:1063D000F3D100BFE06B50B17748E16B0865E06B2B
:1063E000FDF795FA88B1E06B016D88470DE0204616
:1063F000FFF76EFF09E009E02046FFF769FF04E0C0
:106400002046FFF765FF002060647DE7206B0128D0
:1064100078D105F01000002874D006F01000002894
:10642000FAD000BF0020009020680068009020682B
:106430004068009000BF00BF2068406900F0400045
:10644000402860D1E06B006840681FFA80F8B8F11E
:10645000000F56D0A08D404553DDA4F82E80E06B90
:10646000C069B0F5807F43D000BF00BF21680C3108
:1064700051E8001F21F4807021680C3141E80002CE
:10648000002AF3D100BF00BF00BF2168143151E8DA
:10649000001F21F001002168143141E80002002AA8
:1064A000F3D100BF00BF00BF2168143151E8001FC5
:1064B00021F040002168143141E80002002AF3D1A4
:1064C00000BF202084F842000020206300BF00BFEE
:1064D00021680C3151E8001F21F0100021680C31B7
:1064E00041E80002002AF3D100BFE06BFDF7B9F9E3
:1064F00002206063A08DE28D801A81B22046FFF7F2
:10650000B7FE01E742E0A08DE18D401A1FFA80F846
:10651000E08DD0B3B8F1000F37D000BF00BF2168C5
:106520000C3151E8001F21F4907021680C3141E8D2
:106530000002002AF3D100BF00BF00BF2168143160
:1065400051E8001F21F001002168143141E80002E8
:10655000002AF3D100BF202084F8420000202063ED
:1065600000BF00BF21680C3151E8001F21F010006E
:1065700021680C3141E80002002AF3D100BF02205B
:10658000606341462046FFF773FEBDE605F08000DC
:1065900030B106F0800018B1204604F063FBB3E68A
:1065A00005F0400030B106F0400018B1204604F07C
:1065B000B5F9A9E600BFA7E69DA8000810B50446F6
:1065C0000CB9012010BDA06900B100E000BF94F833
:1065D000410028B9002084F84000204600F02AF845
:1065E000242084F841002068C06820F4005021680D
:1065F000C860204604F020FA2068006920F490402A
:10660000216808612068406920F02A0021684861FB
:106610002068C06840F400502168C86000206064B1
:10662000202084F8410084F842000020606300BF0D
:10663000C8E7000010B586B00446142101A8FAF797
:10664000AAFCBB49206888427ED100BF0020009090
:10665000B848006840F01000B64908600846006875
:1066600000F01000009000BF00BF00BF00200090AD
:10667000B0481438006840F00200AE491439086090
:106680000846006800F00200009000BF00BF00BF95
:10669000002000900846006840F0010008600846AD
:1066A000006800F00100009000BF00BF8020019052
:1066B0000220029000200390032004900720059000
:1066C00001A99D48FDF7F2FA4FF4007001900220F5
:1066D000029000200390032004900720059001A958
:1066E0009648FDF7E3FA9648964908604FF0006037
:1066F0004860002193488160C1604FF4806101616E
:10670000002141618161C16101624162FDF734FA9A
:1067100008B1FBF78AFF00BF8A48E063846300BFCB
:1067200087487830884908604FF000604860402111
:10673000854881600021C1604FF4806101610021C2
:1067400041618161C16100E014E001624162FDF7D5
:1067500013FA08B1FBF769FF00BF7B48A0638463AD
:1067600000BF002205212520FDF768FC2520FDF74C
:1067700051FCDBE07549206888425BD100BF0020F6
:1067800000906C48001F006840F480206949091F90
:1067900008600846006800F48020009000BF00BF39
:1067A00000BF0020009063481438006840F00400E7
:1067B0006049143908600846006800F00400009041
:1067C00000BF00BF4FF44060019002200290002003
:1067D0000390032004900720059001A95C48FDF771
:1067E00065FA5C485C4908604FF000604860002131
:1067F00059488160C1604FF48061016100214161AD
:1068000081614FF48071C161002101624162FDF735
:10681000B3F908B1FBF709FF00BF4F48E063846399
:1068200000BF002205212720FDF708FC2720FDF7E7
:10683000F1FB7BE049492068884277D100BF002006
:1068400000903C48006840F020003A490860084643
:10685000006800F02000009000BF00BF00BF0020D3
:10686000009034481438006840F040003149143931
:1068700008600846006800F04000009000BF00BFBC
:106880004FF48440019002200290002003900320E6
:1068900004900820059001A93148FDF707FA28481F
:1068A0001838304908608005486000212D48816013
:1068B000C1604FF4806101610021416181614FF449
:1068C0008071C161002101624162FDF755F908B193
:1068D000FBF7ABFE00BF2348E063846300BF1848AA
:1068E0006030214908604FF02060486040211E4818
:1068F00081600021C1604FF480610161002141612C
:106900008161C16101624162FDF736F908B1FBF7AF
:106910008CFE00BF1448A063846300BF00220521E1
:106920004720FDF78BFB4720FDF774FB06B010BD39
:1069300000100140443802400004024000000240C0
:1069400040640240F8140020581500200048004020
:106950000008024028600240B815002000140140E1
:106960000018024018160020781600207047704763
:1069700070B500BF00BF00BFFDF798FA05464FF0A5
:106980008040466A05EB4500C0EBC51006EBC0042D
:10699000204670BD00BFFEE710B50548C07918B9A4
:1069A000044806F02BFF02E00348FBF721FD10BD71
:1069B000AC0C0020240D00208404002010B50446F7
:1069C00022460021014806F001FF10BDD813002027
:1069D00010B51049104800F0A3FF0E490E482030B2
:1069E00000F09EFF0B490C48403000F099FF002357
:1069F0000A4A02210A4802F003FA0A4A0A499FEDAC
:106A00000B1ADFED0B0AB2EE040A0A4802F022FD6F
:106A100010BD000000000020480700202C010020CD
:106A2000A80700209C0000200C00002000247449CE
:106A30006F12833A1C08002008B500200090FFF771
:106A4000C7FF00BF08F0C0FB00906048FAF7A6FD42
:106A50005E48D0ED020AB0EE600A5D4800F072FFB9
:106A60005C4880ED0E0A5948D0ED030AB0EE600A8A
:106A70005748403000F066FF564880ED0F0A5348F3
:106A8000D0ED010AB0EE600A5148203000F05AFF04
:106A9000504880ED0D0A02464C4B10330BCB283288
:106AA0000BC29FED4D0AA2F10C014C4802F050FDC3
:106AB00048494B48D0E90623006AC1E907234862E8
:106AC000464890ED670ADFED470A20EE200A0846A7
:106AD00080ED000A414890ED660ADFED420A20EEA3
:106AE000200A084680ED010A3C4890ED680ADFED77
:106AF0003D0A20EE200A084680ED030A90ED010AC7
:106B0000D0ED100A30EE600ADFED370AB4EEE00A8D
:106B1000F1EE10FA06D2B0F84400401C00B2A1F821
:106B2000440014E02B4890ED010AD0ED100A30EE3D
:106B3000600ADFED2E0AB4EEE00AF1EE10FA06DD8F
:106B4000B0F84400401E00B22249A1F84400214898
:106B500090ED010A80ED100A90ED010AB0F94400B1
:106B600000EE900AF8EEE00A9FED211A00EE810A8D
:106B7000184880ED020A90ED0B0ADFED1A0A20EEAC
:106B8000200A80ED040A90ED0C0ADFED160A20EED3
:106B9000200A80ED050A90ED0A0ADFED120A20EEC8
:106BA000200A80ED060A05210098B0FBF1F201FBF6
:106BB000120030B90548D0ED070AB0EE600AFAF7C6
:106BC0001DFE0121684608F0ECFA3BE7480D002065
:106BD00048070020000700206F12833A1C0800209D
:106BE0009C090020E12E6542000034C300003443BC
:106BF0000000B44310B5044600203D4908704880A9
:106C00002078A52869D10521204609F0BBFC012880
:106C10006DD137480078401C215C35480078801CD5
:106C2000205C41EA00200930314948800A465188F9
:106C30001278101909F086FC012858D12C48408898
:106C400027280DD1002009E029490978C91D0144F0
:106C5000625C2749091D0A54411CC8B21E28F3DB97
:106C600023484088152842D121490978C91D0819AF
:106C700007F032FB1E49A1F84000097809310819D4
:106C800007F02AFB1A49A1F8420009780B310819CC
:106C900007F022FB1649A1F84400084600780D30A1
:106CA000205C41B2124880F8461000780E30205C1B
:106CB00041B20F4880F84710014609780F31081992
:106CC00007F00AFB81B20A48A0F84810FA2180F8C0
:106CD0004C10002180F84D1009E02078A92806D139
:106CE0006078532803D10349204606F045FF10BDC4
:106CF0000C0E00205A0E002010B504464C20005DFA
:106D0000322808D80E2104F14000FAF722F90121B7
:106D10004D20015509E04C20005D002805DD4C2088
:106D2000005D401EC1B24C20015510BD30B50B4670
:106D3000002100BF16E00A24B4EB107F05D93024EF
:106D400004EB107403F8114005E0412404EB1074C7
:106D50000A3C03F81140000100254C00641C1D553D
:106D60004C1CE1B29142E6DB30BD0FB583B004218B
:106D700003980180082103984180049808B106987F
:106D800018B9FE21039880F8C410DDE903100871DA
:106D90000399059848710399069888710021039812
:106DA0000162039800F12003012211461830F9F71F
:106DB00063FB03980088069948430290F9F7A4FF03
:106DC0000399C86003980088069948430290039885
:106DD000C06801900299FAF7DEF8039800880499D8
:106DE00048430290F9F790FF0399C1F8C80003984F
:106DF00000880499484302900398D0F8C800019095
:106E00000299FAF7C8F80398D0F8C80002900398DE
:106E10000079019001220146DDE902302C30F9F7BA
:106E20002BFB03980088049948430290F9F76CFF04
:106E300001460398C0F8CC10039800880499484391
:106E400002900398D0F8CC0001900299FAF7A3F8C9
:106E50000398D0F8CC0002900398007901900122A9
:106E60000146DDE902303430F9F706FB039800886B
:106E7000069948430290F9F747FF01460398C0F886
:106E8000D410039800880699484302900398D0F8DC
:106E9000D40001900299FAF77EF80398D0F8D40054
:106EA000029003988079019001220146DDE90230C9
:106EB0004430F9F7E1FA03984079002864D0039848
:106EC0000088059948430290F9F71EFF039908616D
:106ED000039800880599484302900398006901903F
:106EE0000299FAF758F803980088059948430290E8
:106EF000F9F70AFF01460398C0F8D01003980088FC
:106F00000599484302900398D0F8D0000190029967
:106F1000FAF741F80398D0F8D0000290039840792E
:106F2000019001220146DDE902303C30F9F7A4FA74
:106F30000398008804994843059948430290F9F75B
:106F4000E3FE01460398C0F8D8100398008804991E
:106F500048430599484302900398D0F8D80001901F
:106F60000299FAF718F80398D0F8D800029003981D
:106F7000407901900398007900900146DDE90230E4
:106F80004C30019AF9F778FA03980088049948433D
:106F900048430290F9F7B8FE01460398C0F8DC10A8
:106FA0000398008804994843484302900398D0F816
:106FB000DC0001900299F9F7EEFF0398D0F8DC00AD
:106FC000029003980079019003980079009001469F
:106FD000DDE902305430019AF9F74EFA039800883F
:106FE0000499484348430290F9F78EFE01460398FE
:106FF000C0F8E01003980088049948434843029081
:107000000398D0F8E00001900299F9F7C4FF0398C3
:10701000D0F8E0000290039800790190039800797D
:1070200000900146DDE902305C30019AF9F724FA5C
:107030000398008806994843049948430290F9F759
:1070400063FE01460398C0F8E4100398008806998F
:1070500048430499484302900398D0F8E400019013
:107060000299F9F798FF0398D0F8E400029003988A
:10707000007901900398807900900146DDE90230A3
:107080006430019AF9F7F8F90398008804994843A5
:10709000069948430290F9F737FE01460398C0F875
:1070A000E8100398008804994843069948430290E1
:1070B0000398D0F8E80001900299F9F76CFF039863
:1070C000D0F8E80002900398807901900398007945
:1070D00000900146DDE902306C30019AF9F7CCF9F5
:1070E000039800880499484348430290F9F70CFE3E
:1070F00001460398C0F8EC100398008804994843AF
:10710000484302900398D0F8EC0001900299F9F7F7
:1071100042FF0398D0F8EC000290039800790190A8
:107120000398007900900146DDE902307430019A3D
:10713000F9F7A2F90398008804994843484302905C
:10714000F9F7E2FD01460398C0F8F01003980088B3
:1071500004994843484302900398D0F8F000019006
:107160000299F9F718FF0398D0F8F00002900398FD
:10717000007901900398007900900146DDE9023022
:107180007C30019AF9F778F903980088049948430C
:1071900048430290F9F7B8FD01460398C0F8F4108F
:1071A0000398008804994843484302900398D0F814
:1071B000F40001900299F9F7EEFE0398D0F8F4007C
:1071C000029003980079019003980079009001469D
:1071D000DDE902308430019AF9F74EF9039800880E
:1071E0000699484348430290F9F78EFD01460398FB
:1071F000C0F8F81003980088069948434843029065
:107200000398D0F8F80001900299F9F7C4FE0398AA
:10721000D0F8F80002900398807901900398807963
:1072200000900146DDE902308C30019AF9F724F92B
:107230000398008804994843069948430290F9F757
:1072400063FD01460398C0F8FC1003980088049978
:1072500048430699484302900398D0F8FC000190F7
:107260000299F9F798FE0398D0F8FC000290039871
:10727000807901900398007900900146DDE90230A1
:107280009430019AF9F7F8F803980088039909797E
:1072900048430399097948430290F9F735FD0146BF
:1072A0000398C0F8001103980088039909794843AE
:1072B00003990979484302900398D0F8000101909E
:1072C0000299F9F768FE0398D0F80001029003983C
:1072D000007901900398007900900146DDE90230C1
:1072E0009C30019AF9F7C8F8039800880399097946
:1072F00048430399097948430290F9F705FD01468F
:107300000398C0F804110398008803990979484349
:1073100003990979484302900398D0F80401019039
:107320000299F9F738FE0398D0F804010290039807
:10733000007901900398007900900146DDE9023060
:10734000A430019AF9F798F803980088039909790D
:1073500048430399097948430290F9F7D5FC01465F
:107360000398C0F8081103980088039909794843E5
:1073700003990979484302900398D0F808010190D5
:107380000299F9F708FE0398D0F8080102900398D3
:10739000007901900398007900900146DDE9023000
:1073A000AC30019AF9F768F80398008803990979D5
:1073B00048430290F9F7A8FC01460398C0F80C1165
:1073C0000398008803990979484302900398D0F8FC
:1073D0000C0101900299F9F7DEFD0398D0F80C0139
:1073E000029003980079019001220146DDE9023004
:1073F000B430F9F741F803980088039909794843B4
:107400000290F9F781FC01460398C0F81011039827
:10741000008803990979484302900398D0F8100135
:1074200001900299F9F7B7FD0398D0F81001029086
:1074300003980079019001220146DDE90230BC3059
:10744000F9F71AF803980088049948430290F9F76D
:107450005BFC0399C1F83401039800880499484300
:1074600002900398D0F8340101900299F9F793FD46
:1074700007B000BD10B5044694F81401C0F38000B5
:1074800000B110BD04F16C0104F16400F9F7B2FB26
:1074900084F8C4006420015BA4F8A410B4F87E1042
:1074A000A4F8A61004F1A40204F17C0104F1640024
:1074B000F9F77EFA84F8C400B4F8A410A4F8AC106C
:1074C000B4F86E10A4F8AE1004F1AC0204F16C0133
:1074D00004F1A400F9F76CFA84F8C400B4F88C1035
:1074E000A4F89C10B4F88E10A4F89E1004F19C022D
:1074F00004F18C0104F1AC00F8F73AFF84F8C40001
:1075000004F1AC0104F19C00F8F7BAFF84F8C40060
:10751000B4F87C10A4F8A410B4F86E10A4F8A61067
:1075200004F1A40204F16C0104F17C00F9F740FAC3
:1075300084F8C40004F1940204F1AC0104F1A40045
:10754000F9F736FA84F8C40000BF9AE770B504462C
:107550002388A57903FB05F2D4231859E168F9F7CC
:10756000BEFC2288A37902FB03F1E068F9F713FD62
:107570006079002808DD2388657903FB05F2D023B4
:1075800018592169F9F7ABFC70BD10B5044694F8A1
:107590001401C0F3001000B110BDB4F89410A4F8A9
:1075A000A410B4F86610A4F8A61004F1A40204F123
:1075B000640104F19400F9F7FBF984F8C400B4F80D
:1075C000A410A4F8AC10B4F87E10A4F8AE1004F126
:1075D000AC0204F17C0104F1A400F9F7E9F984F8A4
:1075E000C40004F1740204F1AC0104F17C00F9F769
:1075F0007DFA84F8C40000BFCEE710B5044694F8C5
:107600001401C0F3400000B110BD04F15C0104F1AD
:107610005400F9F7EFFA84F8C40004F17C0204F195
:10762000740104F15400F9F7C3F984F8C400B4F804
:107630007C10A4F8A410B4F85E10A4F8A61004F10D
:10764000A40204F15C0104F17C00F9F7B1F984F8BB
:10765000C40004F17C0204F1840104F1A400F8F7F1
:1076600087FE84F8C40000BFCEE770B5044620460C
:10767000FFF76CFFD4F8180118B12046D4F81811A0
:107680008847204600F08AF8D4F81C0118B120463B
:10769000D4F81C1188472046FFF7AFFFD4F820012B
:1076A00018B12046D4F8201188472046FFF7E2FEA3
:1076B000D4F8240118B12046D4F824118847204674
:1076C00000F025F8D4F8280118B12046D4F8281184
:1076D00088472046FFF759FFD4F82C0118B12046FF
:1076E000D4F82C118847D4F8300118B12046D4F8CA
:1076F000301188472388257903FB05F2D4F8C81098
:10770000D4F83401F9F7EBFBD4F8340170BD10B5AF
:10771000044694F81401C0F3C00000B110BD642009
:10772000015BA4F8B4100121A4F8B61004F1B4026E
:1077300004F1340104F16400F9F73AF984F8C40063
:107740004420015BA4F8BC100121A4F8BE1004F190
:10775000BC0204F1B40104F14400F9F7C7F984F85C
:10776000C400B4F89410A4F8B4100121A4F8B61021
:1077700004F1B40204F1BC0104F19400F9F718F922
:1077800084F8C40004F12C0204F1B40104F13400C3
:10779000F8F7EEFD84F8C40000BFBFE710B504465B
:1077A00094F8140100F0010000B110BD60790028C8
:1077B0002ADD2179A4F8B4100121A4F8B61004F14F
:1077C000B40204F12C0104F15400F9F7F1F884F843
:1077D000C4002179A4F8B4100121A4F8B61004F172
:1077E000BC0204F13C0104F14C00F9F7E1F884F823
:1077F000C40004F1340204F1BC0104F1B400F8F750
:10780000B7FD84F8C40009E004F1340204F12C014E
:1078100004F15400F9F7CCF884F8C40000BFC4E7C1
:1078200010B5044602F096FA3048807D012812D047
:107830002E48808920802D48C08960802B48008A8E
:10784000A0802A48807CA0712848C07CE07127482D
:10785000808A208148E02548807D012844D1244841
:1078600090F84D00012818D02148B0F84000208041
:107870001F48B0F8420060801D48B0F84400A08066
:107880001B4890F84600A071194890F84700E07135
:107890001748B0F84800208126E0154890F84D00C0
:1078A000012821D11348407F012812D01148008AB5
:1078B00020801048408A60800E48808AA0800D4851
:1078C000807DA0710B48C07DE0710A48408B20810B
:1078D0000AE00848407F012806D10020208060800F
:1078E000A080A071E071208110BD00006205002021
:1078F0000C0E00205A0E002090ED001AB4EEE01A93
:10790000F1EE10FA02D2C0ED000A08E090ED001A84
:10791000B4EEC01AF1EE10FA01DD80ED000A7047F6
:1079200010B591E81C00C0E9063442619FED040ADD
:1079300080ED010A00228260C260026110BD000079
:1079400000000000F0EE400AC0ED010A017869B9BC
:1079500090ED010A80ED020A90ED010A80ED030A24
:1079600090ED010A80ED040A0121017090ED030AF7
:1079700080ED020A90ED040A80ED030A90ED050AFD
:1079800090ED031A20EE010A90ED061AD0ED021ACE
:1079900001EE210A90ED071AD0ED011A01EE210A3D
:1079A00080ED040A90ED040A704710B5FAF70EF85E
:1079B000A820F9F7B7FFF9F769FFF9F7E7FF00F03B
:1079C0009FFAF9F7BFFE10BD10B50F480F490860C8
:1079D0000320486000210D488160C1604FF41021F0
:1079E00001614FF4001141610021017601214176CE
:1079F00000218176C17601774177FBF771FD08B1EF
:107A0000FAF713FE10BD000000640040E8120020E9
:107A100010B50F480F4908600320486000210D4849
:107A20008160C1604FF4102101614FF40011416188
:107A3000002101760121417600218176C17601770E
:107A40004177FBF74DFD08B1FAF7EFFD10BD0000DF
:107A5000006800401013002008B500BF002000900F
:107A60002248006840F40010204908600846006879
:107A700000F40010009000BF00BF00BF0020009085
:107A80000846006840F4800008600846006800F47A
:107A90008000009000BF00BF002205210C20FCF7F1
:107AA000CDFA0C20FCF7B6FA002205213920FCF7AC
:107AB000C5FA3920FCF7AEFA002205213A20FCF77E
:107AC000BDFA3A20FCF7A6FA002205214520FCF772
:107AD000B5FA4520FCF79EFA002205214620FCF766
:107AE000ADFA4620FCF796FA08BD00003038024097
:107AF00000B5A3B01C221E491CA8F9F7F0F900211B
:107B00001CA807F06BFB1B4908601C2218491C319C
:107B100015A8F9F7E4F9002115A807F05FFB16494D
:107B200008601C22124938310EA8F9F7D8F9002153
:107B30000EA807F053FB114908601C220C49543170
:107B400007A8F9F7CCF9002107A807F047FB0C4973
:107B500008601C22064970316846F9F7C0F9002117
:107B6000684607F03BFB0749086023B000BD0000F2
:107B7000CC2201087C05002080050020840500201F
:107B8000880500208C05002000B587B0142102A8CC
:107B9000F9F701FA00BF002001905648006840F054
:107BA0000200544908600846006800F00200019095
:107BB00000BF00BF00BF002001900846006840F0F1
:107BC000400008600846006800F04000019000BFD7
:107BD00000BF00BF002001900846006840F0080088
:107BE00008600846006800F00800019000BF00BF70
:107BF00000BF002001900846006840F004000860C3
:107C00000846006800F00400019000BF00BF00BFFC
:107C1000002001900846006840F001000860084616
:107C2000006800F00100019000BF00BF00BF00200D
:107C300001900846006840F080000860084600682F
:107C400000F08000019000BF00BF00BF0020019045
:107C50000846006840F0200008600846006800F010
:107C60002000019000BF00BF002289152248FCF7C8
:107C700017F9012210212148FCF712F901221146BF
:107C80001F48FCF70DF94FF480700290012003901B
:107C900000200490059002A91748FCF707F810206F
:107CA00002900120039004900220059002A913483D
:107CB000FBF7FCFF302002904FF4041003900120EA
:107CC000049002A90C48FBF7F1FF012002900390F9
:107CD00004900220059002A90948FBF7E7FF002263
:107CE00005211720FCF7AAF91720FCF793F907B034
:107CF00000BD000030380240000802400000024091
:107D00000004024010B50E480E4908604FF482701E
:107D1000486000210B488160C1600161012141611F
:107D2000490281611021C1610021016241628162C9
:107D30000A21C162FDF76EFC08B1FAF776FC10BDAE
:107D4000003001403813002000B587B01C21684680
:107D5000F9F721F91548164908600020486000210C
:107D60001348816040F2CF71C160002101618161DF
:107D7000FDF796FE08B1FAF758FC0D48FEF7B3F987
:107D800008B1FAF752FC60200090002001900290A8
:107D90000490002269460648FEF723F908B1FAF775
:107DA00044FC0348FEF7C2F807B000BD00440140A0
:107DB000D813002000B58DB0002009900A900B90D8
:107DC0000C90079008901C216846F9F7E4F82048C9
:107DD00020490860A720486000211E48816040F2C9
:107DE000CF71C160002101618161FDF759FE08B1C9
:107DF000FAF71BFC4FF48050099009A91548FDF7CC
:107E000057FF08B1FAF711FC1248FEF76CF908B1F8
:107E1000FAF70BFC00200790089007A90D48FDF722
:107E2000E5FD08B1FAF701FC602000900020019008
:107E300002900490082269460648FEF7D2F808B17D
:107E4000FAF7F3FB0348FEF771F80DB000BD000030
:107E5000000800409013002010B50B480B49086043
:107E60004FF4E1304860002108488160C160016141
:107E70000C21416100218161C161FEF79FFB08B1C6
:107E8000FAF7D3FB10BD00000010014020140020C1
:107E900010B50A480A4908600A48486000210848A5
:107EA0008160C16001610C21416100218161C1617A
:107EB000FEF784FB08B1FAF7B8FB10BD004800409C
:107EC00068140020A086010010B50B480B4908601B
:107ED0004FF461204860002108488160C160016161
:107EE0000C21416100218161C161FEF767FB08B18E
:107EF000FAF79BFB10BD000000140140B0140020F5
:107F000000B585B014216846F9F745F84FF4805064
:107F10000090012001900220029003200390694606
:107F20001148FBF7C3FE0A20FBF79CFE00220F4915
:107F30000F4803F098FD08B1FAF777FB0D490C489C
:107F400004F0CAF808B1FAF770FB0B49084803F0CF
:107F500093F908B1FAF769FB054804F0BFF908B1D5
:107F6000FAF763FB05B000BD000002400C060020DC
:107F700010780020800600205C06002000BFFEE78D
:107F800070B504460D46207804490978884204D12A
:107F9000214602482A68F8F75DFF70BD38050020C9
:107FA00010B50446152221460348F8F753FF152162
:107FB0000148F9F7BDFE10BD840D002010B59FEDFE
:107FC000241ADFED230A9FED220A2249002000F047
:107FD000E5FC9FED1F1ADFED1E0A9FED1D0A1D49EE
:107FE0002031002000F0DAFC9FED191ADFED180AAD
:107FF0009FED170A17491031002000F0CFFC9FEDCC
:10800000141ADFED130A9FED120A124930310020D5
:1080100000F0C4FC9FED0E2ADFED0D1A9FED0C1A47
:10802000DFED0B0A9FED0A0A0A494C390220FAF7E4
:108030005EF8094890ED010A0648783880ED3C0A60
:10804000054890ED030A0348783880ED3E0A10BDDC
:1080500000000000380A00200007002010B52DEDB8
:10806000088BFE480078012850D1FD48B0F9000087
:1080700000EE100AB8EEC00ADFEDFA0A20EE200A80
:10808000F948B0F9000000EE900AF8EEE00A9FED22
:10809000F51A00EE810AF548B0F9000000EE900AEA
:1080A000F8EEE00A9FEDF21A00EE810AF148D0EDF9
:1080B0003C0A30EEC00A80ED3C0AE948B0F9020003
:1080C00000EE100AB8EEC00ADFEDEB0A20EE200A3F
:1080D000E548B0F9020000EE900AF8EEE00A9FEDE4
:1080E000E61A00EE810AE148B0F9020000EE900ABB
:1080F000F8EEE00A9FEDDE1A00EE810ADD48D0EDD1
:108100003E0A30EEC00A80ED3E0AB2E0D348007865
:10811000032850D1D248B0F9000000EE100AB8EEA2
:10812000C00ADFEDD60A20EE200ACF48B0F90000E1
:1081300000EE900AF8EEE00A9FEDD01A00EE810AF8
:10814000CA48B0F9000000EE900AF8EEE00A9FED90
:10815000CC1A00EE810AC748D0ED3C0A30EEC00AC6
:1081600080ED3C0ABE48B0F9020000EE100AB8EEFD
:10817000C00ADFEDC40A20EE200ABB48B0F90200B5
:1081800000EE900AF8EEE00A9FEDBE1A00EE810ABA
:10819000B648B0F9020000EE900AF8EEE00A9FED52
:1081A000B81A00EE810AB348D0ED3E0A30EEC00A9C
:1081B00080ED3E0A5DE0A9480078042859D1B24814
:1081C000D0F80A0000EE100AB5EEC00AF1EE10FA7F
:1081D0004FD8A348B0F9000000EE100AB8EEC00A6C
:1081E000DFEDA00A20EE200A9F48B0F9000000EE63
:1081F000900AF8EEE00A9FED9B1A00EE810A9B4878
:10820000B0F9000000EE900AF8EEE00A9FED981A2F
:1082100000EE810A9748D0ED3C0A30EEC00A80EDAE
:108220003C0A8F48B0F9020000EE100AB8EEC00A0E
:10823000DFED910A20EE200A8B48B0F9020000EE33
:10824000900AF8EEE00A9FED8C1A00EE810A87484A
:10825000B0F9020000EE900AF8EEE00A9FED841AF1
:1082600000EE810A8348D0ED3E0A30EEC00A80ED70
:108270003E0ADFED860AB2EE040A7E48F830FFF7C8
:108280003BFB7C4890ED140ADFED810AB4EEE00A76
:10829000F1EE10FA08D290ED3E0ADFED7E0A30EEE4
:1082A000600A80ED3E0A11E0724890ED140ADFED9D
:1082B0007A0AB4EEE00AF1EE10FA07DD90ED3E0A1C
:1082C000DFED740A30EE200A80ED3E0A6948D0EDF9
:1082D0003C0A724890ED011A70EEC10AB0EE600AD5
:1082E00000F0F0FB634880ED3D0A5D4800880028FF
:1082F0006DD15B484088002869D15B480088002820
:1083000065D159484088002861D158480088002824
:108310005DD156484088E0BB50484078022856D18D
:108320004E480078032852D15D48C07888BB514838
:1083300090ED3B0AB5EEC00AF1EE10FA15D1FBF74D
:10834000B5FD044608F051FE41EC190B9FED550BAD
:1083500053EC102B08F098FE41EC180B08F0A4FB2E
:1083600001464448C0F8EC1063E0424890ED3B0AF7
:1083700010EE101A084609F059FB41EC190BFBF7F7
:1083800095FD044608F031FE41EC1B0B9FED450BBB
:1083900000E01CE053EC102B08F076FE41EC1A0BC9
:1083A00053EC192B09F040F841EC180B9FED3F0BF3
:1083B00053EC102B09F007F804D201212D4880F866
:1083C000E01036E000212B4880F8E01031E0002179
:1083D000284880F8E01090ED3B0A10EE101A08468D
:1083E00009F024FB41EC190BFBF760FD044608F093
:1083F000FCFD41EC1B0B9FED2B0B53EC102B08F0FD
:1084000043FE41EC1A0B53EC192B09F00DF841EC2B
:10841000180B9FED280B53EC102B08F0D4FF08D25B
:10842000144890F8E00020B99FED240A114880ED2F
:108430003B0A0A484078022807D1084800780428F7
:1084400003D100210B4880F8E0100548B0F908007E
:1084500010F5207F65DC074832E00000AC0C0020FE
:1084600062050020ACC527395A0E0020780E002086
:10847000A69BC43AC0090020ACC52738BD370638D2
:108480006F12833ABD37863738050020000034C2AA
:108490000000D4C1CDCCCC3D00000C420007002030
:1084A00078040020FCA9F1D24D62503F000000008A
:1084B00000000040000000000000F03F000000004D
:1084C00090F8D90040BBFE4890F8E00020BBFD4882
:1084D0004078022825D00121F94880F8D91090ED84
:1084E0003C0ADFEDF90A30EE200A80ED3C0AB0F8D4
:1084F000DA00401C81B2F248A0F8DA100146B1F867
:10850000DA0000EBD0714910A0EB4101012904D140
:108510000120EB4981F8D80003E00020E84981F808
:10852000D800EA48008918B90021E54880F8D91038
:10853000E34890F8E000012847D1E548D0ED051A5E
:10854000B0EE611ADE48D0ED081AF0EE610AD0ED07
:10855000391AB0EE610A00F19801012000F01EFA0C
:10856000D748D0ED151AB0EE611AD0ED141AF0EE1E
:10857000610AD0ED3A1AB0EE610A00F1A8010120BB
:1085800000F00CFACE48B0F9B40000EE100AB8EED4
:10859000C00AB0EE402A5FED371A1FED381A5FEDC2
:1085A000390A1FED3A0AC6492C310020F9F79FFD20
:1085B000C74890ED010AC24880ED3C0AC44890EDDE
:1085C000030ABF4880ED3E0ABAE1BE4800780128A0
:1085D0003BD1BF48D0ED050AB0EE601AB848D0EDE7
:1085E0003D0AB0EE600A5FED4B0A00F17801012010
:1085F00000F0D4F9B648D0ED061AB0EE611AD0ED0D
:10860000031AF0EE610AAE48D0ED3E1AB0EE610AF0
:1086100000F18801012000F0C1F9A948B0F99400E7
:10862000404200EE100AB8EEC00AB0EE402A5FEDFC
:108630005D1A1FED5E1A5FED5F0A1FED600AA0492B
:108640002C310020F9F753FD71E19E480078032892
:1086500075D1A048C078E8B39F48D0F80A0000EE72
:10866000100AB5EEC00AF1EE10FA10DD9A48D0F803
:1086700006009349C1F800019748D0F8020000EEC7
:10868000100AB1EE400A084680ED3F0A0BE0904820
:1086900090ED010A8A4880ED400A8D4890ED030A6A
:1086A000874880ED3F0A8A48D0ED051AB0EE611A7E
:1086B000D0ED011AF0EE610A8148D0ED401AB0EE1B
:1086C000610A00F1B801012000F068F98048D0ED9E
:1086D000061A00E034E0B0EE611AD0ED031AF0EEB5
:1086E000610A7748D0ED3F1AB0EE610A00F1C80187
:1086F000012000F053F97248B0F9D400404200EE76
:10870000100AB8EEC00AB0EE402A5FED941A1FEDD1
:10871000951A5FED960A1FED970A69492C310020E2
:10872000F9F7E5FC6A4890ED010A654880ED3C0ADE
:10873000674890ED030A624880ED3E0AF7E03BE0AF
:108740006348D0ED050AB0EE601A5D48D0ED3D0AF1
:10875000B0EE600A5FEDA70A00F17801012000F099
:108760001DF95B48D0ED061AB0EE611AD0ED031A80
:10877000F0EE610A5248D0ED3E1AB0EE610A00F107
:108780008801012000F00AF94D48B0F994004042F8
:1087900000EE100AB8EEC00AB0EE402A5FEDB91A3A
:1087A0001FEDBA1A5FEDBB0A1FEDBC0A44492C311C
:1087B0000020F9F79CFCBAE042480078042869D10F
:1087C0004448C07810B945488078E8B34248D0F8AA
:1087D0000A0000EE100AB5EEC00AF1EE10FA5ADDFA
:1087E0003D48D0F806003649C1F800013A48D0F8B3
:1087F000020000EE100AB1EE400A084680ED3F0A82
:108800003348D0ED051AB0EE611AD0ED011AF0EE42
:10881000610A0846D0ED401AB0EE610AB831012075
:1088200000F0BCF82A48D0ED061AB0EE611AD0ED7F
:10883000031AF0EE610A2248D0ED3F1AB0EE610A49
:1088400000F1C801012000E025E000F0A7F81C4875
:10885000B0F9D400404200EE100AB8EEC00AB0EE03
:10886000402A5FEDEA1A1FEDEB1A5FEDEC0A1FEDEF
:10887000ED0A13492C310020F9F739FC144890ED2A
:10888000010A0F4880ED3C0A114890ED030A0C489C
:1088900080ED3E0A4BE00E48D0ED050AB0EE601ABE
:1088A0000748D0ED3D0AB0EE600A5FEDFC0A00F12A
:1088B0007801012000F072F80548D0ED061A0FE0AB
:1088C000C0090020AC0C00200000334362050020EA
:1088D0000007002078040020380500207F040020D5
:1088E000B0EE611AD0ED031AF0EE610A1648D0ED31
:1088F0003E1AB0EE610A00F18801012000F04EF846
:108900001148B0F99400404200EE100AB8EEC00AD7
:10891000B0EE402ADFED0D1A9FED0C1ADFED0B0AC9
:108920009FED0A0A08492C310020F9F7E0FB0648C0
:1089300090ED080A80ED390A90ED140A80ED3A0AAC
:10894000BDEC088B10BD0000C00900200000000035
:1089500001F05AFE00BF06F037FC0E49086006F031
:108960005BFB0D480078012807D00B4800780328EE
:1089700003D009480078042802D1FFF76FFB04E018
:108980000548007808B9FFF719FB012006F0FDFB48
:10899000E1E7000054010020AC0C002070B52DED83
:1089A000048B05460C46F0EE408AB0EE609AB0EEBD
:1089B000418A14B9BDEC048B70BD012D02D000209A
:1089C000A0812BE0012D29D1A07B68B9F0EE490AE6
:1089D000B0EE680A606806F083F9BDEEC00A10EEDA
:1089E000100A00B2A08119E0A07B012816D1F0EE98
:1089F000490AB0EE680A606806F072F96168D1ED64
:108A00000D0AB0EE600AF0EE480AA06806F068F9B8
:108A1000BDEEC00A10EE100A00B2A08100BFC9E787
:108A20002DE9F04104460E4617461D46DDF8188034
:108A30002078012840D0BDB90020A073A060742028
:108A4000F8F762F96060606808B9BDE8F0817421E8
:108A50006068F8F7A0FA434632460121606800F0EA
:108A6000CFF90120207027E0012D25D10120A0732E
:108A70007420F8F749F96060606800B9E5E774218F
:108A80006068F8F788FA434632460121606800F0D2
:108A9000B7F97420F8F738F9A060A06800B9D4E7F6
:108AA0007421A068F8F777FA43463A460121A06896
:108AB00000F0A6F90120207000BFC6E7FCF74CFBD0
:108AC00000BFFEE710B52DED028BB0EE408ADFED62
:108AD000140AB0EE480A05F091FBB0EE408A9FED13
:108AE000110AB4EEC08AF1EE10FA06DB9FED0C0A13
:108AF00038EE400AB0EE408A0CE09FED0B0AB4EE6F
:108B0000C08AF1EE10FA05D29FED050A38EE000A90
:108B1000B0EE408AB0EE480ABDEC028B10BD0000FA
:108B20000000B44300003443000034C310B50248D1
:108B3000FBF7A3FC10BD0000EC8C00202DE9F047F2
:108B400004460D4626683746D6F8408007F5306063
:108B500000EB4510D0F80890104880450BD909F477
:108B60000040B0F5004F06D14FF4004107F53060EA
:108B700000EB451081602046FCF73AF90748804534
:108B800008D9A079012805D104F29C42012120686E
:108B900004F052F80020BDE8F08700000A30544F7E
:108BA0002DE9F04705460C46D5F800904E46D9F819
:108BB00040A006F5306000EB4410D0F80880A8799A
:108BC000012855D108F0080008280FD143488245F4
:108BD0000BD908F40040B0F5004F7BD14FF40041B1
:108BE00006F5306000EB4410816073E008F020006F
:108BF000202806D1202106F5306000EB441081606A
:108C000068E008F02800002864D1344882450CD977
:108C100008F40040B0F5004F07D14FF4004106F5CD
:108C2000306000EB4410816054E004EBC40105F5B2
:108C3000157000EB810706F5306000EB4410396ACF
:108C40000069C0F31200081A786164B9386930B954
:108C500005F29C420121286803F0EEFF03E07969E8
:108C6000F8680844F860E1B22846FBF77DFA31E085
:108C70001B4882451BD108F40040B0F5004F07D1D6
:108C80004FF4004106F5306000EB4410816021E0B4
:108C900008F02000202805D1202106F5306000EBE7
:108CA00044108160E1B22846FBF75EFA12E06CB92D
:108CB00004EBC40105F5157000EB8100006928B9CB
:108CC00005F29C420021286803F0B6FFE1B2284675
:108CD000FBF74AFA0020BDE8F08700000A30544F45
:108CE0000A31544F2DE9F84F07460E46D7F8009049
:108CF000C84606EBC60107F1140000EB8104D4E975
:108D00000410884202D90120BDE8F88FD4E904019B
:108D1000451AA068A84200D2A568E81C4FEA900A4C
:108D200017E0D4E90401451AA068A84200D2A5685A
:108D3000E81C4FEA900AB879ABB2F2B2009048460C
:108D4000E16804F041FCE0682844E0606069284480
:108D5000606108F5106000EB4610806980B25045F4
:108D600006D3D4E90410884202D220690028D8D161
:108D7000D4E9040188420ED806F00F01012000FA60
:108D800001FB40F6340050F8080020EA0B0040F6E2
:108D9000340141F808000020B6E70000002101611D
:108DA000416181619FED0A0A80ED070A9FED080A83
:108DB00080ED090A9FED060A80ED0A0A9FED040A7C
:108DC00080ED0B0A9FED020A80ED0D0A704700004E
:108DD00000000000416B21F00042C2F1FF42D20FBF
:108DE00052B9416B4FF07F42B2EB410F01D10122EA
:108DF00000E00022012A02D102226A210A547047AF
:108E00002DE9F04104460D4616461F4625700848D8
:108E100020670848E06684F83C702046216F884748
:108E200031462046E26E90476A210855BDE8F08140
:108E30009D8D0008398E00080246107800B109B9EE
:108E40000120704791ED000A82ED100A91ED010AB0
:108E500082ED110A91ED020A82ED120A91ED030AE8
:108E600082ED130A91ED040A82ED140A91ED050AD0
:108E700082ED150A91ED060A82ED160A91ED070AB8
:108E800082ED170A91ED080A82ED190A91ED090A9F
:108E900082ED180A0020A2F8680000BFD1E70000A8
:108EA00010B504462288237902FB03F14FF4867241
:108EB0001059F8F770F8CC200059D0ED000A60EE98
:108EC000A00ACC20005990ED011ACC200059D0ED19
:108ED000011A41EE210ACC20005990ED021ACC2053
:108EE0000059D0ED021A41EE210ACC20005990ED34
:108EF000031ACC200059D0ED031A41EE210AB0EE3E
:108F0000600AF9F795FB4FF48670005980ED000A6E
:108F1000CC20005990ED000A4FF486700059D0ED36
:108F2000000A20EE200ACC20005980ED000ACC2057
:108F3000005990ED010A4FF486700059D0ED000AF7
:108F400020EE200ACC20005980ED010ACC200059E7
:108F500090ED020A4FF486700059D0ED000A20EE21
:108F6000200ACC20005980ED020ACC20005990ED57
:108F7000030A4FF486700059D0ED000A20EE200A53
:108F8000CC20005980ED030ACC20005990ED000A56
:108F90004FF486700059D0ED000A20EE200ACC2054
:108FA000005980ED000ACC20005990ED010A4FF4E1
:108FB00086700059D0ED000A20EE200ACC2000591E
:108FC00080ED010ACC20005990ED020A4FF4867022
:108FD0000059D0ED000A20EE200ACC20005980ED87
:108FE000020ACC20005990ED030A4FF48670005914
:108FF000D0ED000A20EE200ACC20005980ED030AB3
:10900000CC20005990ED010AF6EE000A20EE200A6D
:10901000D4ED020A20EE200ADC20005980ED040A7B
:10902000CC20005990ED020AF6EE000A20EE200A4C
:10903000D4ED020A20EE200ADC20005980ED050A5A
:10904000CC20005990ED000AFEEE000A20EE200A26
:10905000D4ED020A20EE200ADC20005980ED0A0A35
:10906000CC20005990ED030AF6EE000A20EE200A0B
:10907000D4ED020A20EE200ADC20005980ED0B0A14
:10908000CC20005990ED030AFEEE000A20EE200AE3
:10909000D4ED020A20EE200ADC20005980ED100AEF
:1090A000CC20005990ED000AFEEE000A20EE200AC6
:1090B000D4ED020A20EE200ADC20005980ED110ACE
:1090C000CC20005990ED020AF6EE000A20EE200AAC
:1090D000D4ED020A20EE200ADC20005980ED160AA9
:1090E000CC20005990ED010AFEEE000A20EE200A85
:1090F000D4ED020A20EE200ADC20005980ED170A88
:1091000000BFEC20005990ED1C0ADFED230AB4EEFD
:10911000E00AF1EE10FA06DD9FED1F0AEC2000597F
:1091200080ED1C0A10E0EC20005990ED1C0ADFEDE8
:109130001B0AB4EEE00AF1EE10FA05D29FED170A11
:10914000EC20005980ED1C0A00BF00BFEC20005944
:1091500090ED230ADFED100AB4EEE00AF1EE10FA0A
:1091600006DD9FED0D0AEC20005980ED230A10E08A
:10917000EC20005990ED230ADFED080AB4EEE00A76
:10918000F1EE10FA05D29FED050AEC20005980EDB2
:10919000230A00BF10BD000000401C4600401CC652
:1091A00070B50446B4F8AC10A4F8A4100121A4F8DA
:1091B000A61004F1A40204F1BC0104F1AC00F7F71D
:1091C000F7FB84F8C4000121A4F8B410B4F8AC1083
:1091D000A4F8B61004F1B40104F1AC00F7F70AFDED
:1091E00084F8C40004F1180204F1A40104F1B400ED
:1091F000F7F7DEFB84F8C40094ED080AD4ED090A01
:10920000B6EE001A60EE810AB4EEE00AF1EE10FA52
:1092100002D201212920015594ED080AD4ED090A52
:10922000B4EEE00AF1EE10FA3BDD2920005DB8B3A0
:10923000207D30B12820005D401CC1B2282001559E
:1092400002E00021282001552820005D322809DD98
:1092500000212920015594F8140120F0100084F811
:10926000140152E02388257903FB05F2CC23195918
:10927000D4F8C800F7F733FE238825796B4303FB46
:1092800005F2F0231959EC231859F7F728FE94F842
:10929000140120F01000103084F81401012070BD7A
:1092A000FFE794ED080AD4ED090A9FED191A60EE64
:1092B000810AB4EEE00AF1EE10FA16DD2920005D15
:1092C00098B194ED090AD4ED080A30EE600AD4EDA5
:1092D000090A9FED101A60EE810A80EE201A4FF401
:1092E0008670005980ED001A06E0B7EE000A4FF4D0
:1092F0008670005980ED000A00212820015594F85D
:10930000140120F0100084F814010020C7E70000C9
:10931000CDCCCC3D6666663F10B504462288A37965
:109320005A43237902FB03F1E4221059F7F733FE85
:10933000CC20005990ED020AF8EE000A20EE200A37
:10934000E420005980ED000ACC20005990ED030A7A
:10935000F0EE000A20EE200AE420005980ED010A18
:10936000CC20005990ED000AF8EE000A20EE200A09
:10937000E420005980ED020ACC20005990ED010A4A
:10938000F0EE000A20EE200AE420005980ED030AE6
:10939000CC20005990ED010AF0EE000A20EE200AE0
:1093A000E420005980ED060ACC20005990ED000A17
:1093B000F0EE000A20EE200AE420005980ED070AB2
:1093C000CC20005990ED030AF0EE000A20EE200AAE
:1093D000E420005980ED080ACC20005990ED020AE3
:1093E000F0EE000A20EE200AE420005980ED090A80
:1093F000CC20005990ED000AF0EE000A20EE200A81
:10940000E420005980ED0C0ACC20005990ED010AAF
:10941000F8EE000A20EE200AE420005980ED0D0A43
:10942000CC20005990ED020AF8EE000A20EE200A46
:10943000E420005980ED0E0ACC20005990ED030A7B
:10944000F0EE000A20EE200AE420005980ED0F0A19
:1094500010BD00002DE9F0412DED048B0446B0EE67
:10946000408AF0EE608AB0EE419A0D46164684EDD1
:10947000088AC4ED098A84ED0A9AE562266303230B
:109480000022062104F13400FDF76FFC0021482082
:10949000015584F85D109FED290A84ED160A84F8C1
:1094A0005C10B7EE000AD4F8FC0080ED000A9FEDD6
:1094B000240AD4F8FC0080ED010A9FED210AD4F8BB
:1094C000FC0080ED020A9FED1E0AD4F8FC0080ED3E
:1094D000030A1C49C4F850111B49C4F854111B4914
:1094E000C4F8581194F8480120F00400001D84F8D5
:1094F000480194F8480120F00800083084F8480139
:10950000A38E38273F5D7B4338273F5D03FB07F27F
:10951000E16AD4F81001F7F7E2FCA38E38273F5D2B
:109520007B4338273F5D03FB07F2216BD4F8200112
:10953000F7F7D5FCBDEC048BBDE8F08177CC2B327E
:1095400000000000A18E0008199300087999000816
:109550002DE9F0412DED028B04460D461646B0EE86
:10956000408A84ED0F8A95ED000AD4ED050A30EEAD
:10957000600A84ED5E0A95ED010AD4ED060A30EE2C
:10958000600A84ED5F0A95ED020AD4ED070A30EE19
:10959000600A84ED600AD4ED5E0A60EEA00A94EDE4
:1095A0005F1AD4ED5F1A41EE210A94ED601AD4EDF2
:1095B000601A41EE210AB0EE600AF9F739F884ED3D
:1095C000620A94ED5E0AF6EE000A20EE200AD4ED5F
:1095D0000F0A20EE200A84ED630A94ED5F0AF6EE8E
:1095E000000A20EE200AD4ED0F0A20EE200A84EDB6
:1095F000640A94ED600AF6EE000A20EE200AD4ED2B
:109600000F0A20EE200A84ED650AA38E38273F5DFD
:109610007B4338273F5D03FB07F2E16AD4F8100172
:10962000F7F75DFC94ED630AB1EE400AD4F810013F
:1096300080ED010A94ED640AB1EE400AD4F81001FD
:1096400080ED020A94ED650AB1EE400AD4F81001EB
:1096500080ED030A94ED630AD4F8100180ED060A48
:1096600094ED650AD4F8100180ED080A94ED640ABF
:10967000B1EE400AD4F8100180ED090A94ED640AB5
:10968000D4F8100180ED0C0A94ED650AB1EE400AA1
:10969000D4F8100180ED0D0A94ED630AD4F810019E
:1096A00080ED0F0A94ED650AD4F8100180ED120ADE
:1096B00094ED640AD4F8100180ED130A94ED630A66
:1096C000B1EE400AD4F8100180ED140A04F5807060
:1096D00096E80E006C300EC0D4ED5B0A60EEA00A76
:1096E00094ED5C1AD4ED5C1A41EE210A94ED5D1AFA
:1096F000D4ED5D1A41EE210AB0EE600AF8F798FF4A
:1097000084ED610A94ED5B0AD4ED610A20EE200A33
:10971000206C80ED000A94ED5C0AD4ED610A20EE25
:10972000200A206C80ED010A94ED5D0AD4ED610AF7
:1097300020EE200A206C80ED020A94ED620AB7EE5A
:10974000001AC1EE000A9FED880AF4EEC00AF1EE9D
:1097500010FA1DD294ED610AB7EE001AC1EE000AAC
:109760009FED820AF4EEC00AF1EE10FA10DD94EDDE
:10977000610AB7EE001AC1EE000A9FED7D0AF4EE11
:10978000C00AF1EE10FA03D201214820015502E08F
:1097900000214820015594ED080AD4ED0F0A20EE6F
:1097A000200AD4F8280180ED000A94ED080AD4EDCF
:1097B0000F0A20EE200AD4F8280180ED070A94ED64
:1097C000080AD4ED0F0A20EE200AD4F8280180ED13
:1097D0000E0A94ED080AD4ED0F0A20EE200AD4F800
:1097E000280180ED150A94ED090AD4ED0F0A20EE48
:1097F000200AD4F8280180ED1C0A94ED090AD4ED62
:109800000F0A20EE200AD4F8280180ED230A94EDF7
:109810000A0AD4F82C0180ED000A94ED0A0AD4F863
:109820002C0180ED040A94ED0A0AD4F82C0180ED95
:10983000080A04F13400FDF718FFD4F8680190ED30
:10984000000A84ED010AD4F8680190ED010A84ED64
:10985000020AD4F8680190ED020A84ED030AD4F8F4
:10986000680190ED030A84ED040AD4F8680190EDD4
:10987000040A84ED050AD4F8680190ED050A84ED28
:10988000060A9FED3C0A84ED070A94ED031A21EEC7
:10989000011AD4ED041A94ED042A01EE821AF7EEAF
:1098A000001AB0EE002A42EE411AF0EE610A94ED81
:1098B000011AD4ED041A21EE211AD4ED021A94ED06
:1098C000032A01EE821AF0EE001A21EE211AB0EE00
:1098D000410A04F03DFB84ED660AD4ED010A94EDE3
:1098E000031A60EE810AB0EE001A60EE810A94ED70
:1098F000021AD4ED041A21EE211AF0EE001A41EEFC
:10990000C10AB0EE600A04F08DFA84ED670A94EDA6
:10991000021A21EE011AD4ED031A94ED032A01EE86
:10992000821AF7EE001AB0EE002A42EE411AF0EE6B
:10993000610A94ED011AD4ED021A21EE211AD4ED38
:10994000031A94ED042A01EE821AF0EE001A21EEB9
:10995000211AB0EE410A04F0FBFA84ED680ABDEC6E
:10996000028BBDE8F08100009A99993E23DB1441F7
:1099700023DB24410000000030B52DED028B83B0C5
:10998000044604F16C0104F16400F7F733F984F83C
:10999000C4006420015BA4F8A410B4F87E10A4F8FD
:1099A000A61004F1A40204F17C0104F16400F6F7AE
:1099B000FFFF84F8C400B4F8A410A4F8AC10B4F805
:1099C0006E10A4F8AE1004F1AC0204F16C0104F1C5
:1099D000A400F6F7EDFF84F8C400B4F88C10A4F8E6
:1099E0009C10B4F88E10A4F89E1004F19C0204F1AF
:1099F0008C0104F1AC00F6F7BBFC84F8C40004F160
:109A0000AC0104F19C00F6F73BFD84F8C40064202F
:109A1000015BA4F8B4100121A4F8B610CC200059C1
:109A200090ED010ACC200059D0ED030A20EE200A67
:109A3000CC200059D0ED000ACC20005990ED021A3C
:109A400000EEC10AF0EE000A20EE200A4FF4867004
:109A5000005980ED000ACC20005990ED000ACC207E
:109A60000059D0ED010A20EE200ACC200059D0ED9B
:109A7000020ACC20005990ED031A00EE810AF0EEA4
:109A8000000A20EE200A4FF48670005980ED010A8A
:109A9000CC20005990ED000A20EE000ACC2000599D
:109AA000D0ED010ACC20005990ED011A00EEC10A58
:109AB000CC200059D0ED020ACC20005990ED021ABA
:109AC00000EEC10ACC200059D0ED030ACC20005989
:109AD00090ED031A00EE810A4FF48670005980ED74
:109AE000020A002513E04FF48670005900EB850050
:109AF00090ED000AB0EEC00AB0EE408A04F006F91C
:109B0000684600EB850080ED000A681CC5B2032D95
:109B1000E9DB4420015BA4F8BC100121A4F8BE10CD
:109B200004F1BC0204F1B40104F14400F6F7DEFFD5
:109B300084F8C4002046FFF733FB18B103B0BDEC36
:109B4000028B30BDB4F87C10A4F8A410B4F86E10E9
:109B5000A4F8A61004F1A40204F16C0104F17C0045
:109B6000F6F726FF84F8C40004F1940204F1AC0176
:109B700004F1A400F6F71CFF84F8C400002014E0F0
:109B8000FC21095901EB800191ED000A4FF4867127
:109B90000959D1ED000A20EE200AFC21095901EBF8
:109BA000800181ED000A411CC8B2B4F89610B4F8E7
:109BB000942051438142E3DC042025E000211FE092
:109BC000021F6B4603EB820292ED000ADFED5D0A95
:109BD00080EE201AFC22125900EB40030B4402EBEA
:109BE000830292ED000A21EE000AFC22125900EBDA
:109BF00040030B4402EB830282ED000A4A1CD1B2FF
:109C00000329DDDB411CC8B20628D7DBB4F8941069
:109C1000A4F8B4100121A4F8B61004F1B40204F1C0
:109C2000BC0104F19400F6F7C3FE84F8C4002920B7
:109C3000005DE8B300BF4FF48670005990ED040A50
:109C4000D4ED020A9FED401A60EE810AB4EEE00AFC
:109C5000F1EE10FA0BDD94ED020ADFED3B0A20EE87
:109C6000200A4FF48670005980ED040A1AE04FF480
:109C70008670005990ED040AD4ED020A9FED331A64
:109C800060EE810AB4EEE00AF1EE10FA0AD294ED29
:109C9000020ADFED2E0A20EE200A4FF486700059EA
:109CA00080ED040A00BF00BF4FF48670005900E049
:109CB00034E090ED050AD4ED020A9FED231A60EE20
:109CC000810AB4EEE00AF1EE10FA0BDD94ED020A1F
:109CD000DFED1D0A20EE200A4FF48670005980ED5A
:109CE000050A1AE04FF48670005990ED050AD4ED8C
:109CF000020A9FED161A60EE810AB4EEE00AF1EE58
:109D000010FA0AD294ED020ADFED100A20EE200AC2
:109D10004FF48670005980ED050A00BF9FED0C0AD4
:109D20004FF48670005980ED030A04F12C0204F10F
:109D3000B40104F13400F6F71BFB84F8C40000BF43
:109D4000FCE60000DA0FC93F0AD7233C0AD723BC40
:109D50000000000010B5054800F00EF80448FCF7BC
:109D6000CBFF044803F08FFF10BD00006205002008
:109D70000C0E00205A0E002010B50446E07D32285B
:109D800006D818212046F7F7E4F80120A07505E071
:109D9000E07D002802DDE07D401EE07510BD00B1D1
:109DA00001B970470278437842EA0322C2F30A02FB
:109DB0000A804278D210837842EA4312C2F30A0240
:109DC0004A8082789211C37842EA8302037942EA98
:109DD0008322C2F30A028A8002795210437942EA4E
:109DE000C312C2F30A02CA80027C437C42EA032205
:109DF000C2F30A020A814279C2F301128A724279DD
:109E000012119308CB728279C37942EA032212B20B
:109E10008A81027A437A42EA032213B2CB81827AA0
:109E2000C37A42EA032213B20B82037B8B74437B17
:109E3000CB74827BC37B42EA03228A820A88A2F522
:109E4000806212B20A804A88A2F5806212B24A8009
:109E50008A88A2F5806212B28A80CA88A2F58062DE
:109E600012B2CA800A89A2F5806212B20A81FA226D
:109E7000CA7500228A7500BF93E700007CB50446CE
:109E80000E4615463346012202212046009500F079
:109E900039F828B1606D40F02000606503207CBD7A
:109EA000164800681821B0FBF1F01549B0FBF1F03D
:109EB0004FF47A71484301906068B0F5827F0DD10C
:109EC0003346002280212046009500F01BF898B10F
:109ED000606D40F0200060650320E0E700BF01985E
:109EE00000B908E00198401E019020688068C0F326
:109EF000C0100028F3D100BF0020D0E79405002057
:109F000040420F002DE9F84F04460D4690461E468C
:109F1000DDF82890F9F7CAFFA0EB0900371AF9F726
:109F2000C5FF82462C480068C0F3CB3078430090D0
:109F300045E0701C002842D0F9F7B8FFA0EB0A00FA
:109F4000B84200D2A7BB2068406820F0E00021683A
:109F500048606068B0F5827F0DD1A068B0F5004F11
:109F600003D0A068B0F5806F05D12068006820F0AC
:109F7000400021680860A06AB0F5005F0DD100BF05
:109F80002068006820F4005021680860206800689C
:109F900040F400502168086000BF012084F851009F
:109FA00000BF002084F8500000BF0320BDE8F88FF8
:109FB000FFE7009800B900270098401E0090206835
:109FC00080682840A84201D1012000E000204045DF
:109FD000AFD10020EAE700009405002030B501462B
:109FE0000A461378521C147843EA042030BD00005E
:109FF00010B59FED051ADFED040A9FED030A034932
:10A000000020FEF7CBFC10BD00000000240C002057
:10A0100010B5244890ED650A2348D0ED030A30EED0
:10A02000200ADFED220A30EE600A1E4880ED660A43
:10A0300000BF90ED660A1C48D0ED030AB4EEE00ABA
:10A04000F1EE10FA05DD90ED030A164880ED660A80
:10A050000FE0144890ED660A1348D0ED020AB4EE02
:10A06000E00AF1EE10FA04D290ED020A0D4880EDFC
:10A07000660A00BF0B48B0F9F00001EE900AF8EE56
:10A08000E11AB0EE611A0748D0ED3F1AF0EE610A0E
:10A09000D0ED661AB0EE610A00F5AC710120FEF752
:10A0A0007DFC10BDCC0A0020780C002052B89A41EB
:10A0B00010B50C48B0F9F00001EE900AF8EEE11A84
:10A0C000B0EE611A0748D0ED3F1AF0EE610A06487B
:10A0D000D0ED021AB0EE610A04490120FEF75EFCE1
:10A0E00010BD0000CC0A0020780C0020240C0020B9
:10A0F00000F0D8FA00BF2F4890F8200038B92E4859
:10A10000407820B105F026FD05F02CFF4DE0F8F772
:10A11000ADFA29484078012802D1F8F765FE0BE036
:10A1200025484078022802D1F8F706FE04E02248CC
:10A13000407808B9F8F7C2FD1F488078012802D19D
:10A1400000F090FB0BE01C488078022802D100F060
:10A150006DFB04E01848807808B900F051FB164800
:10A160000079012802D1FFF7A3FF0BE01248007924
:10A17000022802D1FFF74CFF04E00F48007908B92C
:10A18000FFF736FF0C484079012802D1F7F72AFE85
:10A190000BE009484079022802D1F7F703FE04E0FA
:10A1A0000548407908B9F7F7EDFD012004F0EDFF0F
:10A1B000A1E70000880C0020AC0C002010B500BF07
:10A1C000502080F31188BFF34F8FBFF36F8F00BF14
:10A1D00006F044FB18B14FF080500449086000BFFE
:10A1E000002080F3118800BF10BD000004ED00E0E6
:10A1F00000B593B0302107A8F6F7CDFE142102A8D0
:10A20000F6F7C9FE00BF002001902548006840F025
:10A210008050234908600846006800F08050019093
:10A2200000BF00BF00BF002001901E48006840F43E
:10A2300080401C4908600846006800F48040019096
:10A2400000BF00BF012007900004089002200D907D
:10A2500041050E9106210F91A82110910221119123
:10A260000721129107A8FAF787FF08B1F8F7DDF97F
:10A270000F20029002200390002004904FF4A05081
:10A2800005904FF480500690052102A8FAF7FCFDD6
:10A2900008B1F8F7CAF9FAF7B9FE13B000BD00002B
:10A2A00040380240007000400348006840F47000ED
:10A2B000014908607047000088ED00E010B50248D1
:10A2C000FBF77DFD10BD0000D816002010B5026818
:10A2D0002D4B98420ED0B0F1804F0BD02B4B9842B3
:10A2E00008D02B4B984205D02A4B984202D02A4BDB
:10A2F000984203D122F070024B681A43224B9842D5
:10A3000020D0B0F1804F1DD0204B98421AD0204B66
:10A31000984217D01F4B984214D01F4B984211D02F
:10A320001E4B98420ED01E4B98420BD01D4B9842AC
:10A3300008D01D4B984205D01C4B984202D01C4BB4
:10A34000984203D122F44072CB681A4322F0800372
:10A350004C6943EA040202608B68C3620B68836243
:10A36000094B984202D00C4B984201D10B69036310
:10A3700001234361036903F001031BB1036923F067
:10A380000103036110BD0000000001400004004013
:10A3900000080040000C0040000401400040014063
:10A3A000004401400048014000180040001C0040EB
:10A3B0000020004030B501F01F05012404FA05F328
:10A3C000046A9C430462046A01F01F0502FA05F561
:10A3D0002C43046230BD30B50C46816821F47F41C6
:10A3E00042EA032525432943816030BD0A4681683E
:10A3F00021F0700142F007031943816070470000AB
:10A4000030B5026A056A25F0010505624368846972
:10A4100024F0700424F003040D682C4322F002029F
:10A420008D682A43104DA84200D103E00F4DA84289
:10A4300006D100BF22F00802CD682A4322F00402B0
:10A44000094DA84202D0094DA84207D123F48073D8
:10A4500023F400734D692B438D692B434360846162
:10A460004D684563026230BD0000014000040140B8
:10A4700030B5026A056A25F01005056243688469F3
:10A4800024F4E04424F440740D6844EA052422F0E6
:10A4900020028D6842EA0512124DA84200D103E065
:10A4A000114DA84207D100BF22F08002CD6842EAD8
:10A4B000051222F040020B4DA84202D00A4DA842DC
:10A4C00009D123F4806323F400634D6943EA8503D3
:10A4D0008D6943EA8503436084614D688563026248
:10A4E00030BD0000000001400004014030B5026AA8
:10A4F000056A25F4807505624368C46924F0700418
:10A5000024F003040D682C4322F400728D6842EAA3
:10A510000522124DA84200D103E0114DA84207D1F7
:10A5200000BF22F40062CD6842EA052222F4806274
:10A530000A4DA84202D00A4DA84209D123F4805303
:10A5400023F400534D6943EA05138D6943EA05136B
:10A550004360C4614D68C563026230BD00000140C4
:10A560000004014030B5036A056A25F48055056290
:10A570004468C26922F4E04222F440720D6842EA63
:10A58000052223F400538D6843EA0533084DA842A1
:10A5900002D0084DA84204D124F480444D6944EA15
:10A5A00085144460C2614D680564036230BD0000DB
:10A5B000000001400004014030B50B461446026A19
:10A5C000056A25F001050562816921F0F00141EA83
:10A5D000041122F00A021A438161026230BD30B5D3
:10A5E0000B461446026A056A25F01005056281696A
:10A5F00021F4704141EA043122F0A00242EA031240
:10A600008161026230BD000008B500200123214AAB
:10A61000A2F1280100902048FEF702FA0020012351
:10A620001C4A5032A2F1280100901B481030FEF75E
:10A63000F7F900200123174AA032A2F12801009067
:10A6400015482030FEF7ECF900200123114AF032C2
:10A65000A2F12801009010483030FEF7E1F9002007
:10A6600001230E4AA2F1280100900B484030FEF76A
:10A67000D7F900200123094A5032A2F128010090A5
:10A6800005485030FEF7CCF9012211020448F9F7D1
:10A6900007FC08BD80010020380A0020C00200200D
:10A6A0000008024008B500200346024627490090F2
:10A6B0002748FEF7B5F900200346024623490090DB
:10A6C00023482038FEF7ACF90020034602461F4914
:10A6D00000901F481038FEF7A3F9002001231B4A01
:10A6E0005032A2F12801009019481030FEF798F975
:10A6F00000200123174AA2F12801009014483030AD
:10A70000FEF78EF900200123134AA2F128010090E0
:10A710000F482030FEF784F99FED100A104880EDB5
:10A720005F0A9FED100A80ED600A9FED0F0A80ED31
:10A73000610A9FED0E0A80ED620A9FED0D0A80ED21
:10A74000630A022180F8911108BD00004003002037
:10A75000F40B0020E0030020300400200020994585
:10A76000CC0A002000B09A4500409C4500D09D4591
:10A7700000609F4508B54FF444711D4801640122F3
:10A7800040F201211B48F7F74DFB012240F2022164
:10A7900018485838F7F746FB012240F203211548C4
:10A7A0002C38F7F73FFB02224FF402711148843036
:10A7B000F7F738FB022240F207210E485830F7F72E
:10A7C00031FB0020112301220B4900900B48F7F7C1
:10A7D0006AFC002240F2052108482C38F7F722FBDA
:10A7E000012240F2062103482C30F7F71BFB08BD7D
:10A7F000AC0C0020240B002000680040EC09002075
:10A8000010B5084890ED280A80ED5A0A9FED061A07
:10A81000DFED050A9FED040A00F59C710020FEF7AC
:10A82000BDF810BDCC0A00200000000010B50C4897
:10A83000B0F9980001EE900AF8EEE11AB0EE611A54
:10A840000748D0ED281AF0EE610AD0ED5A1AB0EEA2
:10A85000610A00F59C710120FEF7A0F810BD000010
:10A86000CC0A002010B50C48B0F9980001EE900A0F
:10A87000F8EEE11AB0EE611A0748D0ED281AF0EEB2
:10A88000610AD0ED5A1AB0EE610A00F59C71012000
:10A89000FEF784F810BD0000CC0A002070B5054614
:10A8A000AC6B0020E085E0842046FBF711FD70BD15
:10A8B00000BF00BF02680C3252E8002F22F49071F2
:10A8C00002680C3242E80013002BF3D100BF00BF36
:10A8D00000BF0268143252E8002F22F00101026822
:10A8E000143242E80013002BF3D100BF016B0129A1
:10A8F0000ED100BF00BF02680C3252E8002F22F0D8
:10A90000100102680C3242E80013002BF3D100BFA3
:10A91000202180F8421000210163704710B50446E1
:10A920002068C06820F040002168C860202084F8BA
:10A9300041002046FCF71BF8002010BDF8B5044686
:10A9400094F84200222875D1A068B0F5805F0CD140
:10A95000206950B90025A66A20684068C0F3080045
:10A960003080A06A801CA06215E0A56A0026A0685D
:10A97000B0F5805F03D0A06828B9206918B92068B5
:10A980004068287004E02068406800F07F0028706C
:10A99000A06A401CA062E08D401E80B2E0850028C5
:10A9A00046D12068C06820F020002168C860206877
:10A9B000C06820F480702168C8602068406920F079
:10A9C000010021684861202084F842000020606373
:10A9D000206B012826D10020206300BF00BF216822
:10A9E0000C3151E8001F21F0100021680C3141E8C2
:10A9F0000002002AF3D100BF2068006800F01000B8
:10AA000010280AD100BF0020009020680068009044
:10AA100020684068009000BF00BFA18D2046FBF772
:10AA200027FC02E02046FBF7A1FF0020F8BD01E073
:10AA30000020FBE70220F9E72DE9F84F04462068E3
:10AA4000006920F44050E1680843216808612169E9
:10AA5000A068084361690843E169084300902068E1
:10AA6000C06849F20C618843009908432168C860B6
:10AA70002068406920F44070A1690843216848615A
:10AA800076492068884203D075492068884203D1FE
:10AA9000FAF7FAFA814602E0FAF7E6FA8146E06947
:10AAA000B0F5004F6CD102206168A0FB0150034655
:10AAB0001920A9FB007001462A463846F6F753F9DB
:10AAC0006421B0FBF1F04FEA001A02206168A0FB9C
:10AAD00001510B461920A9FB00712A463846F6F7AA
:10AAE00042F9834602206168A0FB01500346192009
:10AAF000A9FB00712A463846F6F735F96421B0FB08
:10AB0000F1F000EBC00101EB0010ABEB8000322153
:10AB100001EBC0006421B0FBF1F000F0F8000AEB9B
:10AB2000400A02206168A0FB015003461920A9FBDE
:10AB3000007001462A463846F6F715F9834602208A
:10AB40006168A0FB015003461920A9FB00712A4649
:10AB50003846F6F708F96421B0FBF1F000EBC001CC
:10AB600001EB0010ABEB8000322101EBC00064214F
:10AB7000B0FBF1F000F007005044216888606AE003
:10AB800004206168A0FB015003461920A9FB007056
:10AB900001462A463846F6F7E6F882460420616800
:10ABA000A0FB015003461920A9FB007001462A466C
:10ABB0003846F6F7D8F86421B0FBF1F000EBC0019D
:10ABC00001EB0010AAEB8000322101EB00106421A0
:10ABD000B0FBF1F000F0F00A04206168A0FB017006
:10ABE00003461920A9FB00513A462846F6F7BBF860
:10ABF0006421B0FBF1F00AEB001A04206168A0FBAD
:10AC000001510B461920A9FB00712A463846F6F778
:10AC1000AAF8834604206168A0FB0150034619206E
:10AC2000A9FB007001462A463846F6F79CF86421D5
:10AC3000B0FBF1F000EBC00101EB0010ABEB8000CA
:10AC4000322101EB00106421B0FBF1F000F00F00A5
:10AC5000504421688860BDE8F88F00000010014072
:10AC600000140140014691F84100212828D188684C
:10AC7000B0F5805F0BD1086948B90A6A1088C0F343
:10AC800008000B685860086A801C086205E00B6ABF
:10AC9000581C086218780B685860C88C401E80B237
:10ACA000C88458B90868C06820F080000B68D86074
:10ACB0000868C06840F040000B68D860002070470A
:10ACC0000220FCE710B50248FBF704FB10BD0000B2
:10ACD0002014002010B50248FBF7FCFA10BD00005C
:10ACE0006814002010B50248FBF7F4FA10BD00000C
:10ACF000B014002070B5049C012505634FF6FF7564
:10AD000005EA4405858505686D6945F040050668D6
:10AD100075610568ED6845F010050668F56000BFCF
:10AD2000C56B2D682D6825F00105C66B366835604A
:10AD3000C56B2D682D6805F00105002DF0D1C56BA0
:10AD40002D68A960C56B2D68EA60C56B2D682B6105
:10AD5000C56B2D686C60C56B2D682D6845F480252A
:10AD6000C66B36683560C56B2D682D6845F00105EA
:10AD7000C66B3668356070BD2DE9F04104460D465E
:10AD8000D4F8C87204F53070D4F8D41250F8210009
:10AD900010B90320BDE8F08104F53070D4F8D41266
:10ADA00050F8216005F00F0000EB800104F1140061
:10ADB00000EB8100406838B305F00F0000EB800124
:10ADC00004F1140000EB8100416805F00F0000EB76
:10ADD000C00207F1140000EB82008068B1FBF0F2C2
:10ADE00000FB121080B9002105F00F0000EB80027B
:10ADF00004F1140000EB8200416000231A4629464A
:10AE0000204601F036F917E00020C6F8140204F5D8
:10AE10003170D4F8D41250F82100006960B1D6F82E
:10AE2000080204F53171D4F8D42251F822102A46D0
:10AE30000B6906F5047198470020ABE770B504462E
:10AE40000E4604F53070D4F8D41250F82150D4F8DE
:10AE5000D41250F8210008B9032070BD31462046B5
:10AE600000F05FFFC5F80C02D5F8040204F531715B
:10AE7000D4F8D43251F82310CA6805F5037190470D
:10AE80000020EAE770B504460D46304801782046B8
:10AE900000F019FE00212D48007800F00F0000EBB3
:10AEA000800204F1140000EB82000182284801783E
:10AEB000204600F008FE00212548007800F00F0031
:10AEC00000EB800204F5AA7000EB820001822148A9
:10AED0000178204600F0F7FD00211E48007800F0C0
:10AEE0000F0000EB800204F1140000EB82000182ED
:10AEF0001848007800F00F0000EB800204F1140005
:10AF000000EB8200418204F53070D4F8D41250F87E
:10AF10002100C8B104F53171D4F8D42251F82210BF
:10AF20004868804704F53071D4F8D42251F82200E3
:10AF300001F0C8FB002104F53070D4F8D42240F8A9
:10AF400022100020C4F8BC02002070BDFB060020C7
:10AF5000FC060020FD06002070B5044604F53070A4
:10AF6000D4F8D41250F821500DB9032070BD04F567
:10AF70003170D4F8D41250F8210098B195F800023D
:10AF8000FF280FD095F8012295F8000204F53171E1
:10AF9000D4F8D46251F826108B6829469847FF20D0
:10AFA00085F800020020E1E701460A2008800148F8
:10AFB00070470000740600202DE9F041044682210C
:10AFC0000D4800F09CFC054601210B4800F097FC61
:10AFD00006468121084800F092FC07460DB110207A
:10AFE000A8710EB14020B0800FB14020B88043203E
:10AFF00020800148BDE8F081B80600202DE9F0412D
:10B00000044682210E4800F07AFC054601210C48D6
:10B0100000F075FC06468121094800F070FC0746E7
:10B020000DB11020A87116B14FF40070B08017B1A7
:10B030004FF40070B880432020800148BDE8F081C3
:10B04000B80600202DE9F041044682210D4800F0A9
:10B0500056FC054601210B4800F051FC06468121B3
:10B06000084800F04CFC07460DB11020A8710EB145
:10B070004020B0800FB14020B8804320208001489C
:10B08000BDE8F081B806002070B504460E464FF4C6
:10B09000077001F019FB054645B9002104F5307031
:10B0A000D4F8D42240F82210022070BD4FF407716A
:10B0B0002846F5F770FF04F53070D4F8D41240F844
:10B0C0002150D4F8D41250F82100C4F8BC02207CDE
:10B0D00098BB4FF40073022250480178204600F0DC
:10B0E000C1FE01214D48007800F00F0000EB800206
:10B0F00004F1140000EB820001824B020222484856
:10B100000178204600F0AEFE01214548007800F0AD
:10B110000F0000EB800204F5AA7000EB82000182B0
:10B1200010214048007800F00F0000EB800204F18D
:10B13000140000EB8200418232E0FFE7402302224C
:10B1400036480178204600F08DFE01213348007812
:10B1500000F00F0000EB800204F1140000EB82000D
:10B160000182402302222E480178204600F07AFE18
:10B1700001212B48007800F00F0000EB800204F55D
:10B18000AA7000EB8200018210212648007800F0AE
:10B190000F0000EB800204F1140000EB82004182FA
:10B1A000082303221F480178204600F05BFE01219E
:10B1B0001C48007800F00F0000EB800204F114003E
:10B1C00000EB820001820020C5F8040204F5317111
:10B1D000D4F8D42251F82210086880470020C5F81E
:10B1E0001402C5F81802D5F8040208B902205CE779
:10B1F000207C48B94FF40073094801782046D5F8FF
:10B20000042200F047FE07E040230548017820466D
:10B21000D5F8042200F03EFE002046E7FB060020A1
:10B22000FC060020FD06002070B5044604F53070D1
:10B23000D4F8D41250F82150D4F8D41250F8210088
:10B2400008B9032070BD207C48B94FF40073094849
:10B2500001782046D5F8042200F01CFE07E04023C8
:10B26000044801782046D5F8042200F013FE00209F
:10B27000E8E70000FC060020024609B903207047F9
:10B2800002F53170D2F8D43240F823100020F6E7EE
:10B2900010B5024602F53070D2F8D44250F824308E
:10B2A0000BB9032010BDC3F804120020FAE730B533
:10B2B00003460C4603F53070D3F8D45250F82510ED
:10B2C00009B9032030BDC1F80842C1F8102200209E
:10B2D000F8E72DE9FC4105460C4605F53070D5F838
:10B2E000D41250F82160002001900090804616B9D9
:10B2F0000320BDE8FC81207800F0600000283DD0EC
:10B3000020287CD1E08868B3207800F08000B8B1B4
:10B31000E288607805F53171D5F8D4C251F82C1067
:10B320008B6831469847E088072801D9072000E05C
:10B33000E08807463A463146284600F011F91CE0FD
:10B34000607886F80002E088402801D2E08800E0BA
:10B35000402086F8010296F801223146284600F086
:10B36000DEF80AE0607805F53171D5F8D42251F89D
:10B37000221000228B682146984747E0607830B160
:10B38000012832D00A2813D00B282FD121E095F8BC
:10B390009C02032805D102226946284600F0E0F805
:10B3A00005E02146284600F0AEF84FF0030824E0FF
:10B3B00095F89C02032805D1012201A9284600F036
:10B3C000CFF805E02146284600F09DF84FF003082D
:10B3D00013E095F89C02032805D02146284600F08A
:10B3E00092F84FF0030808E009E006E021462846FD
:10B3F00000F089F84FF0030800BF00BF06E02146C7
:10B40000284600F080F84FF0030800BF00BF404618
:10B410006FE7000070B5054605F53070D5F8D41219
:10B4200050F8214001260CB9032070BDD4F8140255
:10B43000C8B90120C4F814020C48007800F00F00CD
:10B4400000EB800205F1140000EB8200D4F810122A
:10B450004160064801782846D4F81032D4F8082212
:10B4600000F007FE00263046DFE70000FB06002064
:10B4700070B504460D460026D4F8B8022946426845
:10B480002046904700B10326304670BD70B5044693
:10B490000D4694F89C02012804D0022803D003280A
:10B4A0000CD101E000BF00BF6888012805D1002051
:10B4B000C4F8A402204600F064F804E029462046BF
:10B4C00000F021F800BF00BF70BD024600207047A9
:10B4D00002460020704770B506460C4615462B46BE
:10B4E00022460021304600F0D5FC002070BD70B52A
:10B4F00006460C4615462B4622460021304600F0F3
:10B50000B8FD002070BD70B504460D468021204670
:10B5100000F07FFD0021204600F07BFD70BD70B57E
:10B5200004460E4615460320C4F894024FF4AC704E
:10B530000551001D05512B4632460021204600F0E2
:10B54000A9FC002070BD10B504460520C4F8940283
:10B5500000231A461946204600F09CFC002010BD2E
:10B5600070B504460E4615460220C4F89402A56143
:10B57000E5612B4632460021204600F07AFD00208E
:10B5800070BD10B504460420C4F8940200231A4686
:10B590001946204600F06DFD002010BD70B505462F
:10B5A0000C462DB92246064906A000F012FA04E026
:10B5B0002246034903A000F00CFA014870BD0000C8
:10B5C000EC7A002043444320436F6E6669670000B5
:10B5D000024612200880014870470000280600201B
:10B5E00070B505460C462DB92246064906A000F066
:10B5F000F0F904E02246034903A000F0EAF901480B
:10B6000070BD0000EC7A002043444320496E74650D
:10B6100072666163650000000246042008800148EC
:10B62000704700003C06002070B505460C462246D7
:10B63000024903A000F0CDF9004870BDEC7A00206B
:10B6400053544D6963726F656C656374726F6E6994
:10B650006373000070B505460C462DB922460649B5
:10B6600006A000F0B6F904E02246034903A000F06A
:10B67000B0F9014870BD0000EC7A002053544D33FE
:10B6800032205669727475616C20436F6D506F7211
:10B690007400000070B505460C461A202080F7F7AC
:10B6A000F3FA014870BD00004006002070B5044662
:10B6B0000D46E888012804D029462046FFF723FFDD
:10B6C0001EE094F89C02012804D0022803D003282D
:10B6D00010D109E000BF0020A060012204F10801A0
:10B6E0002046FFF73DFF0AE00122211D2046FFF71B
:10B6F00037FF04E029462046FFF705FF00BF00BFE3
:10B7000070BDF8B504460E460020009000270025C5
:10B7100070880012082875D2DFE800F0C7040C20FA
:10B72000C7C7A5B5207CD4F8B4120A68694690470B
:10B730000746C1E0207C40B9D4F8B802816A684667
:10B74000884707460220787007E0D4F8B802C16A3B
:10B7500068468847074602207870ADE0B078062832
:10B7600078D2DFE800F00316293C5063D4F8B40225
:10B77000406838B1207CD4F8B4124A6869469047D2
:10B78000074605E031462046FFF7BDFE681CC5B2FE
:10B7900067E0D4F8B402806838B1207CD4F8B412E1
:10B7A0008A6869469047074605E031462046FFF71C
:10B7B000AAFE681CC5B254E0D4F8B402C06838B11F
:10B7C000207CD4F8B412CA6869469047074605E061
:10B7D00031462046FFF797FE681CC5B241E0D4F819
:10B7E000B402006938B1207CD4F8B4120A69694601
:10B7F0009047074605E031462046FFF784FE681C67
:10B80000C5B22EE051E0D4F8B402406938B1207CD2
:10B81000D4F8B4124A6969469047074605E03146B4
:10B820002046FFF770FE681CC5B21AE0D4F8B402D7
:10B83000806940B1207CD4F8B4128A696946904787
:10B84000074606E006E031462046FFF75CFE681C2E
:10B85000C5B206E031462046FFF755FE681CC5B26A
:10B8600000BF00BF28E0207C30B9D4F8B802416B9B
:10B8700068468847074605E031462046FFF743FE05
:10B88000681CC5B218E0207C40B9D4F8B802016B3E
:10B890006846884707460720787005E0314620460D
:10B8A000FFF731FE681CC5B206E031462046FFF7BF
:10B8B0002AFE681CC5B200BF00BF05B1F8BDF08804
:10B8C000C0B1BDF8000080B1F088BDF8001088421A
:10B8D00002DDBDF8000000E0F0880090BDF8002017
:10B8E00039462046FFF73CFE07E031462046FFF789
:10B8F0000AFE02E02046FFF744FE00BFDEE72DE926
:10B90000F84105460F462C462E464FF00008708839
:10B910003178884218DD307800900FE06946204683
:10B9200000F020F804466078052807D1A04698F872
:10B930000200B84200D106E04FF000087088BDF860
:10B9400000108842EADC00BF4046BDE8F8810146AD
:10B9500000200A4602E0431CD8B2521C1378002B88
:10B96000F9D1704710B5024610460B88047823447D
:10B970000B800378981810BD70B504460D4694F8F6
:10B980009C02012804D0022803D003281AD101E028
:10B9900000BF00BFE888022804D029462046FFF7F0
:10B9A000B2FD14E00120E060D4F8A40218B1E06810
:10B9B00040F00200E060022204F10C012046FFF793
:10B9C000CFFD04E029462046FFF79DFD00BF00BFE4
:10B9D00070BD2DE9F04107460D46904600240FB991
:10B9E000BDE8F0813E463046FFF7B1FF022101EB92
:10B9F0004000B0F5007F01D9080204E03046FFF7AF
:10BA0000A6FF4000801CA8F8000098F80000285508
:10BA1000601CC4B203202855601CC4B208E0307812
:10BA20002855761C601CC4B200202855601CC4B286
:10BA300030780028F3D100BFD2E70146002031B1B1
:10BA4000012906D0022906D0032908D105E00020EB
:10BA500007E0032005E0012003E0032001E00320CC
:10BA600000BF00BF70472DE9F04104460D46164661
:10BA700014B90320BDE8F0810020C4F8B802C4F86E
:10BA8000C402C4F8D0020DB1C4F8B452012084F845
:10BA90009C022670204600F04DF907463846E9E73B
:10BAA0002DE9F04104460D46002600272946D4F82A
:10BAB000C802F8F7C6FB06463046FFF7BEFF07464A
:10BAC0003846BDE8F0812DE9F04104460D460026D8
:10BAD00000272946D4F8C802F8F77EFB0646304610
:10BAE000FFF7ABFF07463846BDE8F0812DE9F04788
:10BAF00004460F469146002F56D104F11405D4F8A0
:10BB00009402022846D1D5E9020188420FD9D5E92D
:10BB10000201401AA86049462046AA68FFF7E7FCE0
:10BB200000231A461946204600F0B4F932E0D5E960
:10BB30000210884217D1E9686868884213D36868A0
:10BB4000D4F8981288420ED2002211462046FFF700
:10BB5000CEFC0020C4F8980200231A46194620465D
:10BB600000F098F916E094F89C0203280BD1D4F861
:10BB7000B802C06838B10020C4F8D402D4F8B802C2
:10BB8000C168204688478021204600F042FA2046BE
:10BB9000FFF7D9FC94F8A00250B3204600F0C0FA99
:10BBA000002084F8A00223E047F080012046FFF740
:10BBB0008CFC0646FF2E1BD0D6B994F89C020328B5
:10BBC00016D104F52E7050F82600406980B1C4F8F3
:10BBD000D46204F52E7050F826003946426920469A
:10BBE00090478046B8F1000F02D04046BDE8F0878C
:10BBF0000020FBE72DE9F04705460F4690464FF041
:10BC00000009002F51D105F5AA76D5F89402032832
:10BC10006FD1D6E90201884210D9D6E90201401A53
:10BC2000B060D6E90201884201D2B06800E0F06855
:10BC3000024641462846FFF74EFC5AE095F8AA0214
:10BC400000F01F0020B1012804D0022812D109E021
:10BC5000002411E040F2AE20415D2846FFF738FC99
:10BC6000044609E040F2AE20415D2846FFF72DFC76
:10BC7000044601E0002400BF00BF94B995F89C027F
:10BC800003280ED105F52E7050F82400006940B14C
:10BC9000C5F8D44205F52E7050F8240001692846F5
:10BCA00088472846FFF76DFC23E007F07F01284610
:10BCB000FFF70BFC0446FF2C1BD0D4B995F89C026F
:10BCC000032810D105F52E7050F82400806950B17A
:10BCD000C5F8D44205F52E7050F824003946826923
:10BCE000284690478146B9F1000F02D04846BDE88A
:10BCF000F0870020FBE701460020704770B504463E
:10BD00000025012084F89C02D4F8B80238B12179CA
:10BD1000D4F8B80242682046904700B1032528466F
:10BD200070BD70B504460D462946D4F8C802F8F730
:10BD3000C6FA70BD10B50446207800282AD11648EE
:10BD4000C0F8E044C4F8C8024FF0A04012490860AF
:10BD50000420087102211048C17100218171022163
:10BD6000417200218172C17201738173C173F8F74E
:10BD7000FBFE08B1F6F759FC80210748F8F7B1F946
:10BD8000402200210448F8F7B1F98022012102483D
:10BD9000F8F7ACF9002010BDEC8C002010B502467D
:10BDA000D2F8C83201F08000802809D101F07F006C
:10BDB00000EBC00403F1140000EB8400807810BD98
:10BDC00001F07F0000EBC00403F5157000EB840068
:10BDD0008078F4E770B504460D4604F52E70D4F86B
:10BDE000D41250F8210008B9032070BD94F89C02C9
:10BDF000032811D104F52E70D4F8D41250F8210084
:10BE0000006A48B104F52E70D4F8D41250F821001D
:10BE10002946026A204690470020E6E770B50446AE
:10BE20000D4604F52E70D4F8D41250F8210008B94C
:10BE3000032070BD94F89C02032811D104F52E70E4
:10BE4000D4F8D41250F82100406A48B104F52E709D
:10BE5000D4F8D41250F821002946426A204690476F
:10BE60000020E6E72DE9F04704460F4615461E463A
:10BE70004FF00008C1462B4632463946D4F8C80276
:10BE8000F8F728FA80464046FFF7D7FD8146484636
:10BE9000BDE8F0872DE9F04704460D4616461F46DB
:10BEA0004FF00008C1463B4632462946D4F8C80246
:10BEB000F8F757FA80464046FFF7BFFD81464846EF
:10BEC000BDE8F08770B504460025012084F89C0287
:10BED0000020C4F894026060C4F8A40284F8A002B0
:10BEE000D4F8B80258B1D4F8B802406838B1217912
:10BEF000D4F8B80242682046904700B10325402399
:10BF0000002211462046FFF7ADFF01214FF4B27029
:10BF100001534021001F015140230022802120466F
:10BF2000FFF7A0FF0121A18440212162284670BDB6
:10BF3000014691F89C02042803D191F89D0281F8F2
:10BF40009C020020704710B5044694F89C02032818
:10BF50000BD1D4F8B80240B1D4F8B802C06920B10E
:10BF6000D4F8B802C16920468847002010BD0246B7
:10BF70001174002070472DE9F04104460D4600265B
:10BF800000272946D4F8C802F8F718FF06463046BD
:10BF9000FFF753FD07463846BDE8F08170B504460B
:10BFA0000D46294604F2AA2000F07BF80120C4F8CF
:10BFB00094024FF42C70005BC4F8980294F8AA0223
:10BFC00000F01F0020B1012809D0022815D10DE092
:10BFD00004F2AA21204600F087F9064616E004F292
:10BFE000AA21204600F017FB06460FE004F2AA2122
:10BFF000204600F0D0F9064608E094F8AA0200F0C6
:10C000008001204600F005F8064600BF00BF30461C
:10C0100070BD2DE9F04104460D4600260027294653
:10C02000D4F8C802F8F7C0F906463046FFF705FD18
:10C0300007463846BDE8F08170B504460025002665
:10C04000D4F8C802F8F7DDFE05462846FFF7F5FCF0
:10C050000646304670BD014691F89C02042803D084
:10C0600091F89C0281F89D02042081F89C02002036
:10C0700070472DE9F04704460D4616461F464FF01F
:10C080000008C1463B4632462946D4F8C802F8F7B4
:10C09000D0F980464046FFF7D0FC81464846BDE8CF
:10C0A000F08770B505460E46344620782870641C2B
:10C0B00020786870641C2046FDF790FF6880641C3F
:10C0C000641C2046FDF78AFFA880641C641C20467F
:10C0D000FDF784FFE88070BD38B504460D460020AA
:10C0E00000900DB9032038BDC4F8B85204F52E7085
:10C0F000D4F8D41250F82100C06A50B104F52E7063
:10C10000D4F8D42250F82200C16A68468847C4F89F
:10C11000D002D4F8D802401CC4F8D8020020E2E7CC
:10C1200001460020704770B504460D46A88810BB34
:10C13000E88800BB688880281DD2A87800F07F06B8
:10C1400094F89C02032804D129462046FFF7DBF926
:10C1500015E084F89E6231462046FFF70CFF20462A
:10C16000FFF70FFA1EB1022084F89C0207E00120BD
:10C1700084F89C0203E029462046FFF7C4F970BD0D
:10C1800070B504460D460026D4F8B80230B1D4F894
:10C19000B80229460268204690470646304670BDE0
:10C1A00070B504460E460025B0783D490870084633
:10C1B0000078012805D931462046FFF7A4F903206D
:10C1C00070BD94F89C02022802D0032859D11FE0C8
:10C1D00033480078C0B13248007860603048017858
:10C1E0002046FFF7CDFF05463DB131462046FFF71B
:10C1F0008AF9022084F89C0209E02046FFF7C1F981
:10C20000032084F89C0202E02046FFF7BAF943E0DD
:10C210002348007870B9022084F89C0220480078F6
:10C2200060601F4801782046FFF722F92046FFF79B
:10C23000A8F925E01A490978606888421DD021795B
:10C240002046FFF715F91648007860601448017819
:10C250002046FFF795FF05465DB131462046FFF7C2
:10C2600052F921792046FFF703F9022084F89C0255
:10C2700006E02046FFF785F902E02046FFF781F946
:10C280000AE031462046FFF73EF90548017820468E
:10C29000FFF7EEF8032500BF00BF284690E7000037
:10C2A0007006002070B505460C466088012805D14F
:10C2B000C5F8A4022846FFF764F90EE0608802285A
:10C2C00007D1A088001285F8A0022846FFF759F987
:10C2D00003E021462846FFF716F970BD10B5044665
:10C2E0002046FFF7A9FE10BD70B504460D46002696
:10C2F000287800F0600088B1202802D0402842D180
:10C3000000E000BF04F52E70D4F8D41250F82100DC
:10C310002946826820469047064639E068780A2810
:10C320002AD2DFE800F01A24291F290A0529150F4F
:10C3300029462046FFF7E5F923E029462046FFF786
:10C34000F2FE1EE029462046FFF72AFF064618E0C7
:10C3500029462046FFF7AAF913E029462046FFF7B1
:10C360000BFB0EE029462046FFF79CFF09E029461B
:10C370002046FFF78BF804E029462046FFF7C3F874
:10C3800000BF00BF04E029462046FFF7BCF800BF0D
:10C3900000BF304670BD2DE9F04705460F464FF00F
:10C3A00000093C79387800F06000F8B1202802D00C
:10C3B00040287DD100E000BF21462846FFF785F8E0
:10C3C0000646FF2E11D086B9C5F8D46205F52E7049
:10C3D00050F82600806840B105F52E7050F8260010
:10C3E0003946826828469047814610E178780028CF
:10C3F0007AD001282FD003286ED195F89C0202280C
:10C4000002D0032820D110E054B1802C08D021465E
:10C410002846FFF7FEFD80212846FFF7FAFD03E0DE
:10C4200039462846FFF76FF813E0788840B93CB1E9
:10C43000802C05D0F88818B921462846FFF7E9FD79
:10C440002846FFF79EF804E039462846FFF75BF8D8
:10C4500000BF00BFD4E095F89C02022802D0032858
:10C460003BD110E054B1802C08D021462846FFF77C
:10C47000D0FD80212846FFF7CCFD03E03946284651
:10C48000FFF741F82EE0788820BB04F07F0018B158
:10C4900021462846FFF704FB2846FFF772F821469D
:10C4A0002846FFF712F80646FF2E13D096B900E093
:10C4B000A8E0C5F8D46205F52E7050F82600806813
:10C4C00040B105F52E7050F826003946826828469E
:10C4D0009047814606E007E08DE039462846FFF7A1
:10C4E00012F800BF00BF8BE095F89C02022802D032
:10C4F000032879D126E034B1802C04D0394628466F
:10C50000FFF701F875E004F08000802808D104F0FE
:10C510007F0000EB800105F1140000EB810007E0D3
:10C5200004F07F0000EB800105F5AA7000EB8100AC
:10C5300080460020C8F80000022241462846FFF746
:10C540000FF856E004F0800080280ED104F00F00B0
:10C5500000EB800105F1140000EB8100008A98B91E
:10C5600039462846FEF7CFFF43E004F00F0000EB0A
:10C57000800105F5AA7000EB8100008A20B93946D8
:10C580002846FEF7C0FF34E004F08000802808D180
:10C5900004F07F0000EB800105F1140000EB810046
:10C5A00007E004F07F0000EB800105F5AA7000EBC6
:10C5B000810080460CB1802C03D10020C8F8000017
:10C5C0000CE021462846FFF7E9FB20B10120C8F81E
:10C5D000000003E008E00020C8F800000222414605
:10C5E0002846FEF7BDFF04E039462846FEF78BFFDC
:10C5F00000BF00BF04E039462846FEF784FF00BFB5
:10C6000000BF04E039462846FEF77DFF00BF00BFAB
:10C610004846BDE8F0872DE9F04105460E46002763
:10C62000307800F0600030B1202802D0402840D19E
:10C6300000E000BF00BF95F89C02012804D002284A
:10C6400003D003282ED101E000BF00BF30790128BC
:10C6500023D831792846FEF73BFF0446FF2C14D03F
:10C660009CB905F52E7050F82400806858B1C5F8C3
:10C67000D44205F52E7050F82400314682682846D1
:10C680009047074602E0032700E00327F08840B9FF
:10C690003FB92846FEF775FF03E031462846FEF70E
:10C6A00032FF04E031462846FEF72DFF00BF00BFF1
:10C6B00004E031462846FEF726FF00BF00BF38469B
:10C6C000BDE8F08170470000014601487047000056
:10C6D000D091002070B504460B4622461978587850
:10C6E00001282CD140F61C0080581D7805F00F065B
:10C6F0000125B540ADB2284340F61C05A85002F50F
:10C70000106000EB4110006800F40040F0BB188995
:10C71000C0F30A001D7940EA854040EA815040F0AC
:10C72000805040F4004002F5106505EB41152D687E
:10C73000284302F5106505EB411528602DE040F611
:10C740001C0080581D7805F00F060125B540144ED9
:10C7500006EA0545284340F61C05A85002F530605E
:10C7600000EB4110006800F4004078B91889C0F36C
:10C770000A001D7940EA854040F0805040F40040B6
:10C7800002F5306505EB41152D6800E005E0284312
:10C7900002F5306505EB41152860002070BD0000F2
:10C7A0000000FFFF01460A464FF410608058C30A9C
:10C7B000DB024FF41060835040F60400805840F4D0
:10C7C000807340F604008350002070470FB470B5AA
:10C7D00004469DF81900012818D1A06B20F4803080
:10C7E000A063E0681B490840E060E06820F4401066
:10C7F000E0609DF82000012803D1E06840F480103B
:10C80000E060204600F028F8054613E0E06840F0BC
:10C810004000E060204600F01FF805469DF81D002E
:10C8200020B9A06B40F48030A06303E0A06B20F43B
:10C830008030A0639DF81600012807D1A06840F061
:10C840000600A060A06840F02000A060284670BCF0
:10C850005DF814FBBFFFBDFF08B501460020009046
:10C8600000BF0098401C00900098B0F1706F01D993
:10C87000032008BD086900F000400028F1D0002026
:10C880000090086940F00100086100BF0098401C5A
:10C8900000900098B0F1706F01D90320E9E70869B2
:10C8A00000F001000028F1D100BFE2E770B50446B6
:10C8B0000B46224619785878012848D102F51060B5
:10C8C00000EB4110006800F00040B0F1004F17D1BC
:10C8D00002F5106000EB4110006840F0006502F5C1
:10C8E000106000EB4110056002F5106000EB411094
:10C8F000006840F0804502F5106000EB41100560D3
:10C9000040F63C0080581D7805F00F060125B54023
:10C91000ADB2A84340F63C05A85040F61C00805834
:10C920001D7805F00F060125B540ADB2A84340F6CD
:10C930001C05A85002F5106000EB411000682B4D5B
:10C94000284002F5106505EB411528604BE002F523
:10C95000306000EB4110006800F00040B0F1004F83
:10C9600017D102F5306000EB4110006840F000651F
:10C9700002F5306000EB4110056002F5306000EB1D
:10C980004110006840F0804502F5306000EB411036
:10C99000056040F63C0080581D7805F00F06012523
:10C9A000B540134E06EA0545A84340F63C05A8509D
:10C9B00040F61C008558187800F00F060120B040A2
:10C9C0000B4E06EA0040854340F61C00855002F5F8
:10C9D000306000EB41100068064D284002F53065DC
:10C9E00005EB41152860002070BD0000007833EC95
:10C9F0000000FFFF0078F3EF01460A46D2F8000E70
:10CA000020F00300C2F8000E40F60400805820F029
:10CA1000020340F6040083500020704701460A4696
:10CA2000D2F8000E20F00300C2F8000E40F6040019
:10CA3000805840F0020340F6040083500020704705
:10CA40000FB4F0B5054600272E46002405E000216E
:10CA500005F5827040F82410641C0F2CF7D39DF864
:10CA60002200A0B940F60400805940F0020140F6CF
:10CA700004008151A86B40F40010A863A86B20F457
:10CA80000020A863A86B20F48020A86307E0A86BAF
:10CA900020F40010A863A86B40F40020A8630020D5
:10CAA000C6F8000E9DF81D0001280CD19DF81B0052
:10CAB00020B90021284600F00AFD08E0012128469F
:10CAC00000F005FD03E00321284600F000FD1021E1
:10CAD000284600F002FC00B10127284600F0D5FBF3
:10CAE00000B1012700214FF401608151001D8151E7
:10CAF00040F61C00815100242EE006F5106000EB8A
:10CB00004410006800F00040B0F1004F10D13CB973
:10CB10004FF0006106F5106000EB441001600DE07D
:10CB20004FF0904106F5106000EB4410016005E005
:10CB3000002106F5106000EB44100160002106F5AD
:10CB4000106000EB441001614FF67F3106F5106074
:10CB500000EB44108160641C9DF81800A042CCD802
:10CB600000242EE006F5306000EB4410006800F071
:10CB70000040B0F1004F10D13CB94FF0006106F514
:10CB8000306000EB441001600DE04FF0904106F57D
:10CB9000306000EB4410016005E0002106F53060D4
:10CBA00000EB44100160002106F5306000EB4410FA
:10CBB00001614FF67F3106F5306000EB4410816073
:10CBC000641C9DF81800A042CCD84FF40160805935
:10CBD00020F480714FF4016081510020A8616FF052
:10CBE000804068619DF81A0018B9A86940F01000EB
:10CBF000A861A8690A490843A8619DF81E0018B1F8
:10CC0000A86940F00800A8619DF82200012803D11E
:10CC1000A86904490843A8613846F0BC5DF814FBD4
:10CC200000383C80040000400146886820F0010084
:10CC3000886000207047000070B503460C46194616
:10CC40001D6C1848854209D94FF43060405800F0F7
:10CC50000040B0F1004F01D1002070BD0026C1F8A6
:10CC6000106BD1F8100B40F40026C1F8106BD1F80E
:10CC7000100B40F01806C1F8106BD1F8100B40F003
:10CC8000C046C1F8106B012C09D1C1F8142B4FF428
:10CC90003060405840F080264FF43060465000200D
:10CCA000DBE700000A30544F30B504460B462246FD
:10CCB0001978587801281ED102F5106000EB411058
:10CCC000006820F4001502F5106000EB41100560CB
:10CCD0001879032802D0187902282AD102F51060A9
:10CCE00000EB4110006840F0805502F5106000EB49
:10CCF000411005601DE002F5306000EB4110006856
:10CD000020F4001502F5306000EB41100560187941
:10CD1000032802D0187902280BD102F5306000EB0D
:10CD20004110006840F0805502F5306000EB411082
:10CD30000560002030BD30B504460B462246197808
:10CD40005878012821D102F5106000EB41100068ED
:10CD500000F0004060B959B102F5106000EB4110DD
:10CD6000006820F0804502F5106000EB411005607E
:10CD700002F5106000EB4110006840F4001502F568
:10CD8000106000EB4110056020E002F5306000EB20
:10CD90004110006800F0004060B959B102F5306000
:10CDA00000EB4110006820F0804502F5306000EB98
:10CDB0004110056002F5306000EB4110006840F45E
:10CDC000001502F5306000EB41100560002030BD19
:10CDD0002DE9F84381460E4690464D4634787078EA
:10CDE00001287DD1306920BB05F5106000EB4410AF
:10CDF0000069E649084005F5106101EB441108613E
:10CE000005F5106000EB4410006940F4002105F5C1
:10CE1000106000EB4410016105F5106000EB441058
:10CE20000069C10CC90405F5106000EB44100161F4
:10CE30006FE005F5106000EB44100069C10CC904F7
:10CE400005F5106000EB4410016105F5106000EB82
:10CE500044100069CD49084005F5106101EB44110B
:10CE6000086194B9B1683069884201D9B06830610D
:10CE700005F5106000EB4410006940F4002105F551
:10CE8000106000EB4410016135E0B168306908447E
:10CE9000401EB0FBF1F087B205F5106000EB4410C6
:10CEA0000069BA49C94301EAC741084305F5106161
:10CEB00001EB44110861307901281CD105F510609F
:10CEC00000EB4410006920F0C04105F5106000EB54
:10CED0004410016105F5106000EB4410006900E0AA
:10CEE00099E04FF0C04101EA4771084305F5106130
:10CEF00001EB4411086105F5106000EB4410006976
:10CF00003169C1F31201084305F5106101EB4411C9
:10CF10000861B8F1010F36D1F06928B105F510604C
:10CF200000EB4410F1694161307901281ED140F6CF
:10CF30000800405900F4807060B905F5106000EBFE
:10CF40004410006840F0005105F5106000EB4410FB
:10CF500001600BE005F5106000EB4410006840F044
:10CF6000805105F5106000EB4410016005F510607C
:10CF700000EB4410006840F0044105F5106000EB40
:10CF800044100160FEE005F5106000EB44100068FD
:10CF900040F0044105F5106000EB44100160307969
:10CFA00001280FD030690028ECD040F634004059F9
:10CFB000317801F00F0201219140084340F634011D
:10CFC0004851DFE040F60800405900F4807060B935
:10CFD00005F5106000EB4410006840F0005105F5C5
:10CFE000106000EB441001600BE005F5106000EBF1
:10CFF0004410006840F0805105F5106000EB4410CB
:10D000000160CDF80080308A83B232784846F168FA
:10D0100000F0DAFAB6E005F5306000EB4410006984
:10D02000C10CC90405F5306000EB4410016105F541
:10D03000306000EB441000695449084005F5306148
:10D0400001EB4411086104BB306908B1B06830617C
:10D05000B068306205F5306000EB44100069316A59
:10D06000C1F31201084305F5306101EB4411086179
:10D0700005F5306000EB4410006940F4002105F52F
:10D08000306000EB4410016143E03069D0B905F530
:10D09000306000EB44100069B168C1F3120108432D
:10D0A00005F5306101EB4411086105F5306000EBD6
:10D0B0004410006940F4002105F5306000EB441095
:10D0C000016126E0B16830690844401EB0FBF1F010
:10D0D00087B2B0687843306205F5306000EB4410E9
:10D0E00000692A49C94301EAC741084305F530618F
:10D0F00001EB4411086105F5306000EB4410006954
:10D10000316AC1F31201084305F5306101EB4411A6
:10D110000861B8F1010F07D1F06828B105F530605A
:10D1200000EB4410F1684161307901281ED140F6CE
:10D130000800405900F4807060B905F5306000EBDC
:10D140004410006840F0005105F5306000EB4410D9
:10D1500001600BE005F5306000EB4410006840F022
:10D16000805105F5306000EB4410016005F530603A
:10D1700000EB4410006840F0044105F5306000EB1E
:10D18000441001600020BDE8F8830000FFFF07E0C5
:10D1900078B503460024009400201A464C78012CF0
:10D1A00035D10C7802F5106505EB4414246804F0C1
:10D1B0000044B4F1004F60D10C7805EB44142468AE
:10D1C00044F000660C7805EB441426600C7805EBFF
:10D1D0004414246844F080460C7805EB441426601F
:10D1E00000BF009C641C009442F21075009CAC428D
:10D1F00001D901200AE00C7802F5106505EB441412
:10D20000246804F00044B4F1004FEAD035E00C7813
:10D2100002F5306505EB4414246804F00044B4F1D1
:10D22000004F2AD10C7805EB4414246844F00066C2
:10D230000C7805EB441426600C7805EB4414246844
:10D2400044F080460C7805EB4414266000BF009C37
:10D25000641C009442F21075009CAC4201D901207C
:10D260000AE00C7802F5306505EB4414246804F0FC
:10D270000044B4F1004FEAD000BF78BD0146886891
:10D2800040F0010088600020704708B5014600208A
:10D29000009000BF0098401C00900098B0F1706FA3
:10D2A00001D9032008BD086900F000400028F1D032
:10D2B000002000901020086100BF0098401C0090E2
:10D2C0000098B0F1706F01D90320EBE7086900F016
:10D2D00010001028F1D00020E4E708B50246002035
:10D2E000009000BF0098401C00900098B0F1706F53
:10D2F00001D9032008BD106900F000400028F1D0DA
:10D3000000200090202040EA8110106100BF0098AA
:10D31000401C00900098B0F1706F01D90320E9E73C
:10D32000106900F020002028F1D00020E2E710B5BD
:10D3300001460B4640F60804E45804F006020AB918
:10D34000002006E0022A01D0062A01D1022000E0D6
:10D350000F2010BD0146486900F0010070470146EA
:10D360000B4640F61800C258001DC058024090B24B
:10D37000704701460B4640F61800C258001DC058C1
:10D380000240100C704770B5024613464FF4016618
:10D39000F45840F63406F55801F00F0625FA06F663
:10D3A00006F0010644EAC61403F5106606EB4116C2
:10D3B000B66806EA040070BD10B50246134603F5D0
:10D3C000306404EB4114A06840F61404E458204093
:10D3D00010BD014648698A69104070472DE9F04147
:10D3E00004460D46274628464FEA920C02F00303F6
:10D3F00000210AE04FF4805858F80780C0F80080F8
:10D40000401C401C401C401C491C6145F2D39BB190
:10D4100000214FF4805858F8076000BF4FEAC10858
:10D4200026FA08F880F80080491C401CA3F1010886
:10D430001FFA88F3002BF1D1BDE8F08170B50446E6
:10D440000E460025E06820F0C040E060012E10D1BB
:10D45000E06840F00050E06000BF0A20F6F702FCF0
:10D460000A352046FFF776FF012815D0C82DF4D3E2
:10D4700012E07EB9E06840F08040E06000BF0A2022
:10D48000F6F7F0FB0A352046FFF764FF20B1C82D00
:10D49000F5D301E0012070BDC82D01D10120FAE7CC
:10D4A0000020F8E710B502460B461146D1F80008F7
:10D4B00020F4FE60C1F80008D1F800084FF4FE64C3
:10D4C00004EA03142043C1F80008002010BD0246FE
:10D4D0001346D3F800080843C3F80008002070473B
:10D4E00030B503461446022C49D12D48814204D35D
:10D4F0002C48814201D20F2245E02A48814204D3C0
:10D500002948814201D20E223DE02748814204D3BE
:10D510002648814201D20D2235E02448814204D3BD
:10D520002348814201D20C222DE02148814204D3BC
:10D530002048814201D20B2225E01E48814204D3BB
:10D540001D48814201D20A221DE01B48814204D3BA
:10D550001A48814201D2092215E01848814204D3B9
:10D560001748814201D208220DE01548814204D3B8
:10D570001448814201D2072205E0062203E00CB9DB
:10D58000092200E00922D86820F47050D860D868D9
:10D590004FF4705505EA82252843D860002030BD3D
:10D5A000C0ACD800C0E1E4000024F40080730601A0
:10D5B000A0491A01002D310140A44C0100366E0132
:10D5C00020ABA6010048E8012DE9F04304460D46D2
:10D5D0001E46DDF81CC0A0462946BCF1000F12D142
:10D5E000F01C870800230CE0D1F8009008F580506B
:10D5F00000EB0230C0F80090491C491C491C491C32
:10D600005B1CBB42F0D30020BDE8F0832DE9F04164
:10D6100004460D4617461E460D48844209D10D4862
:10D62000056006610C4B3A4601460C48F5F72FFCA5
:10D630000BE00B48844208D10A4805600661064B9E
:10D640003A4601460848F5F722FCBDE8F0810000A3
:10D650000064004088040020B8040020E812002084
:10D6600000680040A00400201013002070B504469C
:10D670000D46E06B0068006800F40020D0B9E06B54
:10D680000068006820F00100E16B09680860E06B49
:10D690000068006840F40020E16B096808602420FD
:10D6A000E16B09684860122D1FD110491048FCF742
:10D6B00076FB1AE0E06B0068006820F00100E16B87
:10D6C00009680860E06B0068006820F40020E16BE6
:10D6D000096808602420E16B09684860122D04D1B4
:10D6E000024903481230FCF75AFB70BD6205002066
:10D6F000990D002070B504460D46E06B0068006887
:10D7000000F40020C8B9E06B0068006820F0010058
:10D71000E16B09680860E06B0068006840F4002075
:10D72000E16B096808600A2D02DD1148F9F762FA19
:10D730004E20E16B0968486019E0E06B0068006802
:10D7400020F00100E16B09680860E06B0068006888
:10D7500020F40020E16B096808600A2D03DD04480D
:10D760002730F9F747FA4E20E16B0968486070BD31
:10D77000BE0D002000BFFEE710B54FF4FA7304227F
:10D780000249034802F0AAFB10BD0000B81F0108BF
:10D79000300D002010B54FF4FA73042202490348FB
:10D7A00002F09CFB10BD0000A81F0108300D0020F6
:10D7B00010B54FF4FA7304220249034802F08EFBBD
:10D7C00010BD0000981F0108300D002031B1042960
:10D7D00007D0082908D00C290CD108E003685A6347
:10D7E00009E003689A6306E00368DA6303E003680C
:10D7F0001A6400E000BF00BF7047000010B5044687
:10D80000D348407F002873D1D148007A022836D10E
:10D810000120D0498871022048708870CE48C078B5
:10D8200020B1CD48007908B9042005E0CA48007944
:10D8300008B1032000E00120C6490870C6484079BD
:10D8400008B1032005E0C448007908B1012000E0D8
:10D850000220C049C870C048007908B1022000E029
:10D860000120BC490871BC48807908B1022000E061
:10D870000120B8494871B94800F03AFD66E1B44862
:10D88000007A01287ED10020B2498871B4484078DE
:10D8900008B1032005E0B248C07808B1012000E0DB
:10D8A0000220AC49C870AE48807820B1AC480078FE
:10D8B00008B1042005E0AA48C07808B1032000E0C0
:10D8C0000120A4490870A648007808B1022000E0B1
:10D8D0000120A0494870A248007808B1022000E069
:10D8E00001209C4988709E48C07810B1022001E058
:10D8F00023E10120974908719948C07808B10220B6
:10D9000000E00120934948719148407A01280CD1E8
:10D91000A07850B90120A0709148007808B9012082
:10D9200000E000208E49087006E08948407A18B966
:10D93000A07808B10020A0708548B0F90C0010F55F
:10D94000A57F0FDA607968B9012060718448C078DA
:10D9500078B98348407808B9012000E00020804968
:10D96000487006E07A48808918B9607908B10020CB
:10D9700060717B480078C8B37548807A012811D15E
:10D98000607800E0AFE068B9012060707448C0784A
:10D9900078B97348807808B9012000E00020704908
:10D9A000887006E06A48807A18B9607808B100206B
:10D9B00060706748C07A012823D1207808BB012015
:10D9C00020706748C07808B9012000E00020644951
:10D9D000C8700846C07850B1624890ED3E0AF3EE38
:10D9E0000E0A30EE600A80ED3E0AAFE013E05D48BB
:10D9F00090ED3E0AF3EE0E0A30EE200A80ED3E0A6C
:10DA0000A4E05348C07A0028EFD120780028ECD059
:10DA1000002020709AE04E48807A012839D1607841
:10DA2000B0BBE088401CE080E088B0F57A7F38DD4C
:10DA3000012060700020E0804B4890ED5A0A4B486E
:10DA400080ED030A0121434880F83210002041494B
:10DA500081F838004549087788774877C87781F892
:10DA60002000012081F821009FED412ADFED401ABE
:10DA70009FED3F1ADFED3E0A9FED3D0A39492C31FB
:10DA8000F4F735FB0A2001F080FB0020E08008E07D
:10DA9000FFE72F48807A20B9607810B100206070CD
:10DAA000E0802B48B0F90C00B0F5A57F13DD20799C
:10DAB00088B9012020712A48C078A0BB2848007886
:10DAC00088BB284890ED3C0ADFED2A0A30EE200A98
:10DAD00080ED3C0A3AE01E48808920BB207910B3D3
:10DAE0000020207132E01A48007AE0B9002019497C
:10DAF000087048708870C87008714871887114483F
:10DB0000C07A012810D1207870B92089401C20816A
:10DB10002089B0F57A7F19DD01202070C871FFF7E8
:10DB200039FE0020208111E00948C07A70B92078C0
:10DB300060B100202070208108E000200549887134
:10DB4000087048708870C8700871487110BD000076
:10DB50005A0E0020AC0C002078040020040D002098
:10DB60007F040020C0090020CC0A0020880C00207F
:10DB7000000000000000334370B505460C46152137
:10DB8000284602F0DFFC01287CD1A878E97840EA39
:10DB90000120C0F30A002080E878C010297940EA0B
:10DBA0004110C0F30A00608028798011697940EA49
:10DBB0008100A97940EA8120C0F30A00A080A879F9
:10DBC0004010E97940EAC110C0F30A00E080E8792A
:10DBD000C0F301102072E879C0F380106072E87918
:10DBE000C009A072287A00F00100E072287A401083
:10DBF000697A40EAC110C0F30A00A081687AC0F3D4
:10DC00000010A0732088A0F5806000B2208060889A
:10DC1000A0F5806000B26080A088A0F5806000B2AE
:10DC2000A080E088A0F5806000B2E080A089A0F527
:10DC3000806000B2A081A87AE97A40EA012000B2AF
:10DC40002082287B697B40EA012001B26182A87BA7
:10DC5000E97B40EA012001B2A182287C00F00301A7
:10DC6000A175287CC0F38101E175287CC0F3011106
:10DC70002176687CA97C40EA01206083FA20207725
:10DC80000020607770BD10B50446207F322806D88A
:10DC90001E212046F3F75DF90120607705E0207F23
:10DCA000002802DD207F401E207710BD41000802C1
:10DCB00018BF04200A0E18BF40F001004FF07F4249
:10DCC00032EA010108BF40F00200012808BF052028
:10DCD0007047000002480068C0F30220704700004F
:10DCE0000CED00E010B5002804DB0A07130E054A0E
:10DCF000135406E00A07140E034A00F00F031B1F1B
:10DD0000D45410BD00E400E018ED00E010B510EEB2
:10DD1000104A4FF01A402DED028B00EB4400B0F199
:10DD2000C85F4AD84FF0FC40B0EB440F22D2B0EEAF
:10DD3000C00AF7EE000A30EEC00AF6EE000A20EE46
:10DD4000208A18EE100A01F0D9FE00EE100A14F035
:10DD5000004F1DBF9FED281ADFED280AB1EE400AE3
:10DD60009FED271A08BFF0EE410AF8EE001A20EEE8
:10DD7000210A05E020EE008A9FED221ADFED220A3B
:10DD8000DFED221A9FED222A70EEC00A20EE080A6B
:10DD900008EE212ADFED1F1A48EE021A9FED1E2A17
:10DDA00008EE212ADFED1D1A48EE021ABDEC028BA7
:10DDB00040EE610A30EE810A10BD4FF0CC40B0EB6E
:10DDC000440F82BF9FED160ABDEC028B10BD4FF0D1
:10DDD0007F40B0EB440F05D2BDEC028BBDE8104094
:10DDE00000F064BA0120F3F77FF9BDEC028BBDE8C7
:10DDF000104000F061BA00000000494022AA7D3ABC
:10DE0000000000000000C93F22AAFD3924FE1C3D8D
:10DE1000C78AD83C1E67383D1B93993DAFAA2A3E5E
:10DE2000DB0FC93F10B54FF00E402DED028BB0EE69
:10DE3000408A18EE104A00EB4400B0F1506F4AD807
:10DE40004FF0FC40B0EB440F22D2B0EEC80AF7EE20
:10DE5000000A30EEC00AF6EE000A60EE208A18EEE4
:10DE6000900A01F04BFE01EE100A14F0004F1DBFA6
:10DE7000DFED2D0A9FED2D0AB1EE411ADFED2C0AE0
:10DE800008BF9FED2C0AF8EE001A21EE218A05E06A
:10DE9000DFED290A68EE088AB0EE600A9FED271AC6
:10DEA000DFED271A30EE080A48EE811A9FED251A99
:10DEB00008EEA11ADFED241A48EE811A9FED231A0D
:10DEC00008EEA11A68EE281ABDEC028B01EE810A59
:10DED00030EE200A10BD4FF0E440B0EB440F0CD9F7
:10DEE00018EE100AFFF7E2FE042808BF00F0ECF974
:10DEF000B0EE480ABDEC028B10BD4FF07F40B0EB96
:10DF0000440F07D2B0EE480ABDEC028BBDE81040CA
:10DF100000F0CCB90120F3F7E7F8BDEC028BBDE8C7
:10DF2000104000F0C9B900000000C9BF22AAFDB925
:10DF30000000C93F22AAFD390000000024FE1C3D5C
:10DF4000C78AD83C1E67383D1B93993DAFAA2A3E2D
:10DF500070B54FF068422DED048BF0EE408A18EE5C
:10DF6000900AB0EE608A18EE101A02EB4003B3F18B
:10DF7000654F3CBF02EB4102B2F1654F7DD200BF5D
:10DF8000C0F3C753C1F3C7529A1A1B2A09DD10F018
:10DF9000004F14BF9FED830A9FED830ABDEC048BF5
:10DFA00070BD12F11A0F36DA11F0004F09D010F0DF
:10DFB000004F0CBF9FED7D0A9FED7D0ABDEC048BE9
:10DFC00070BD88EE889A19EE100AFFF76FFE0428DC
:10DFD00008BF00F079F918EE900AFFF767FE0546D2
:10DFE00018EE100AFFF762FE044619EE100AFFF75A
:10DFF0005DFE042D18BF052D08D1042C18BF052C7B
:10E0000004D1002804BF0220F3F76EF8B0EE490AED
:10E01000BDEC048B70BD4200B2EB410F3AD910F059
:10E02000004F19BFDFED630A9FED630ADFED630A5E
:10E030009FED630AB0EE481A0A46B1EE688A80F096
:10E040000041F0EE418A10460A1A5200B2F1807F78
:10E0500034D2484010F0004FDFED5A1A9FED5A2A93
:10E060001DBFBEEE001A70EEE10A30EE420AB6EEB7
:10E07000001A08BF70EEA10A00E040E008BF30EED1
:10E08000020AB0EE682A01EE482A08EE818AC2EE42
:10E09000081A15E011F0004F04BF9FED4C0AF0EE96
:10E0A000400AD1D010F0004F19BFDFED490A9FEDB3
:10E0B000490ADFED490A9FED490AC5E7C8EE881A0B
:10E0C00021EEA11A9FED462ADFED462A41EE022AF3
:10E0D0009FED452A01EE222ADFED442A41EE022A75
:10E0E0009FED432ABDEC048B01EE222A21EE811A1A
:10E0F00001EE020A30EE210A30EE200A70BD4FF028
:10E100007F42B2EB400F28BFB2EB410F09D2F0EED5
:10E11000480AB0EE680ABDEC048BBDE8704000F020
:10E12000C8B840EA01035B0008BF41F0FF410BD0D3
:10E13000B2EB400F08BFB2EB410F08D120F0804096
:10E1400008EE900A21F0804108EE101A18E7B2EBB1
:10E15000400F12BF5FEA410340F0FF4001F0004171
:10E160003FF40EAFB2EB410F12BF5FEA400200F086
:10E17000004041F0FF413FF403AF4A0092EA400300
:10E180003FF5FEAE002AACBF9FED1A0A9FED1A0ABA
:10E1900068EE808A28EE008A18EE900A18EE101AAF
:10E1A000EEE60000DB0FC9BFDB0FC93FDB0F4940C4
:10E1B000DB0F49C00000C9BF22AAFDB90000C93F5A
:10E1C00022AAFD390060ED3EC30ACE3700000000F0
:10E1D000000049C022AA7DBA0000494022AA7D3A27
:10E1E0002DAD65BD8FB8D53D0FB511BE61C84C3E94
:10E1F000A8AAAABE0000804F0000802F10B52DED08
:10E20000028BF0EE408A18EE900AB0EE608A20F0A1
:10E210000040C0F1FF40C00F07D118EE100A20F0F7
:10E220000040C0F1FF40C00F2BD018EE101A18EEBE
:10E23000900A03F0DBFC00EE100A10EE100A6FEA01
:10E24000D05010F0FF0F04BFBDEC028B10BD18EED4
:10E25000900A00F0004110EE100A00F000408142E8
:10E2600004BFBDEC028B10BD18EE101A10EE100AA0
:10E27000BDEC028B61F31E0000EE900A30EE600AE6
:10E2800010BD18EE900A4FF07F41B1EB400F1CBF5C
:10E2900018EE100A5FEA4000C7D10120F2F724FF10
:10E2A000BDEC028BBDE8104000F006B830EE000A6D
:10E2B000704730EE200A7047DFED020A80EEA00AB8
:10E2C00070470000000000009FED020A20EE000AE7
:10E2D000704700000000001008B5014608788DF86E
:10E2E000000048788DF80100BDF9000008BD00006D
:10E2F00010B50446FE48007A00F0010030B101205C
:10E3000020704FF42571FB4881850CE0F848007AB5
:10E3100000F0010038B92078012804D100202070D5
:10E320000021F4488185F248007AC0F3400030B102
:10E33000012060704FF66C51EE4881850CE0EC488E
:10E34000007AC0F3400038B96078012804D1002079
:10E3500060700021E7488185E548007AC0F38000BD
:10E3600030B10120A0704FF66C50E24948850BE0B7
:10E37000DF48007AC0F3800030B9A078012803D1CB
:10E380000020A070DB494885D948007AC0F3C0005E
:10E3900030B10120E0704FF42570D64948850BE07C
:10E3A000D348007AC0F3C00030B9E078012803D127
:10E3B0000020E070CF494885CD480089C0F3803007
:10E3C000B0B1207AA0B901202072208B401C20839C
:10E3D000208B00EBD0714910A0EB410189B9C648F0
:10E3E000007908B9012000E00020C349087108E065
:10E3F000BF480089C0F3803018B9207A08B10020E6
:10E400002072BD48007948B3B9480089C0F30020A4
:10E41000D0B1207BC0B9012020730020B64908711B
:10E4200001208870B54890ED3C0ADFEDB50A30EE6A
:10E43000200A80ED3C0A0846007808B9012000E077
:10E440000020AD4908702DE0A9480089C0F30020E4
:10E4500040BB207B30B30020207323E0A448008918
:10E46000C0F30020A8B1207B98B901202073A348F5
:10E4700090ED3C0ADFEDA20A30EE200A80ED3C0A66
:10E480009D48007808B9012000E000209A490870F2
:10E4900008E097480089C0F3002018B9207B08B134
:10E4A0000020207394480079002879D09048007AA1
:10E4B000C0F3801070B1207901280BD001202071A9
:10E4C0008E4890ED390ADFED8F0A30EE200A80ED9C
:10E4D000390A09E08648007AC0F3801020B9207913
:10E4E000012801D1002020718148007AC0F3C010BA
:10E4F00070B1607901280BD0012060717F4890EDE8
:10E50000390ADFED800A30EE600A80ED390A09E051
:10E510007748007AC0F3C01020B96079012801D192
:10E520000020607172480089C0F3C02070B1A079EA
:10E5300001280BD00120A071704890ED3A0ADFED60
:10E54000710A30EE200A80ED3A0A09E06848008935
:10E55000C0F3C02020B9A079012801D10020A0710A
:10E5600063480089C0F3403070B1E07901280BD0D6
:10E570000120E071614890ED3A0ADFED620A30EE69
:10E58000600A80ED3A0A47E059480089C0F34030FC
:10E59000B8BBE07901283FD10020E0713CE0FFE703
:10E5A0005348007AC0F3801070B1207901280BD055
:10E5B00001202071514890ED3C0ADFED530A30EE06
:10E5C000200A80ED3C0A09E04948007AC0F3801037
:10E5D00020B92079012801D1002020714448007A17
:10E5E000C0F3C01070B1607901280BD001206071B8
:10E5F000424890ED3C0ADFED440A30EE600A80EDBF
:10E600003C0A09E03A48007AC0F3C01020B96079AA
:10E61000012801D1002060713748007990B3344857
:10E62000007AC0F3001070B30120A0773048B0F931
:10E63000040000280DDD608B58B901206083334849
:10E6400090ED650ADFED320A30EE600A80ED650A72
:10E6500006E02748808818B9608B08B100206083E5
:10E660002348B0F9040000280EDAA08B60B901201D
:10E67000A083264890ED650ADFED250A30EE200ADA
:10E6800080ED650A0FE007E01948808858B9A08B33
:10E6900048B10020A08306E01548007AC0F30010BE
:10E6A00008B90020A0771448007990B91048007A82
:10E6B000C0F3001020B10120A0730F49487108E099
:10E6C0000B48007AC0F3001018B90020A0730A4963
:10E6D000487109480079D8BB05480089C00BC0B310
:10E6E000E07AB0BBA08A401CA082A08A12E00000A1
:10E6F000780E0020AC0C002078040020C009002017
:10E7000000003343CDCCCC3D0000B442CC0A002005
:10E710009A99993EB0F57A7F38DD0120E072484839
:10E7200090ED5A0A474880ED030A0121464880F8D7
:10E7300032100020444981F8380042490877887730
:10E740004877C87781F82000012081F8210001E096
:10E750001CE012E09FED3D2ADFED3C1A9FED3B1AD5
:10E76000DFED3A0A9FED390A3949F3F7C0FC0A2078
:10E7700000F00BFD0020A08208E036480089C00BA5
:10E7800020B9E07A10B10020E072A08231480089FF
:10E79000C0F3003060B1607B50B9012060732E4837
:10E7A000807908B9012000E000202B49887108E039
:10E7B00028480089C0F3003018B9607B08B10020F8
:10E7C00060732448007AC0F3401060B1E07B50B918
:10E7D0000120E0732048807808B9012000E0002083
:10E7E0001D49887008E01B48007AC0F3401018B932
:10E7F000E07B08B10020E0731648C07920B1012009
:10E8000020741549C87006E01248C07918B9002074
:10E8100020741149C8700F480089C0F3802020B1CE
:10E82000A07A10B90120A07208E00A480089C0F35C
:10E83000802018B9A07A08B10020A07210BD000095
:10E84000CC0A0020880C0020AC0C00200000000046
:10E85000EC090020780E00207804002070B52DED22
:10E86000028B0446B0EE408A0D469FED4B0AF0EE57
:10E87000408A6078012817D0E0886081B4F90600EA
:10E8800000EE100AF8EEC00A00EE105AB8EE400A88
:10E8900020EE081A80EE810ADFED400A20EE200A01
:10E8A00084ED040A01206070B4F90600B4F90A107E
:10E8B000401A00EE100AB8EEC00AF0EE408A00EEF0
:10E8C000105AB8EE400AF6EE000A20EE200AB4EE26
:10E8D000E80AF1EE10FA16D200EE105AB8EE400A2D
:10E8E00078EEC00A00EE105AB8EE400A20EE080A90
:10E8F00080EE801A94ED040ADFED280A01EE200A6A
:10E9000084ED040A34E0684200EE100AB8EEC00A52
:10E91000F6EE000A20EE200AB4EEE80AF1EE10FA54
:10E9200016DD00EE105AB8EE400A78EE800A00EECE
:10E93000105AB8EE400A20EE080A80EE801A94EDD4
:10E94000040ADFED160A01EE200A84ED040A0FE046
:10E9500000EE105AB8EE400A20EE080AC8EE800A0F
:10E9600094ED040A9FED0D1A00EE810A84ED040A6D
:10E97000E0886081D4ED040AB0EE600A9FED081AC9
:10E98000DFED080A00F0D9FA84ED040A94ED040AD8
:10E99000BDEC028B70BD0000000000000000B4431D
:10E9A00000003443000034C3F0EE400A9FED3A0A01
:10E9B000B0EE401A9FED380AF0EE401A10B99FED04
:10E9C000360A70470278012A07D0C28802819FED7B
:10E9D000320A80ED030A01220270B0F90620B0F974
:10E9E00008309A420CDAB0F90620B0F90830D21A91
:10E9F0000A4400EE102AB8EEC00AB0EE401A11E048
:10EA0000B0F90620B0F908309A420BDDB0F90620C3
:10EA1000B0F90830D21A521A00EE102AB8EEC00A25
:10EA2000B0EE401AB0F90620B0F90830D21A00EE64
:10EA3000102AB8EEC00AF0EE401AC2880281B0EE89
:10EA4000C10AB0EEE12AB4EEC20AF1EE10FA10DD0E
:10EA500000EE101AB8EE400A20EE200A81EE802A5D
:10EA600090ED030ADFED0D2A02EE220A80ED030A83
:10EA70000FE000EE101AB8EE400A20EE200A81EEF8
:10EA8000002A90ED030ADFED052A02EE220A80ED4E
:10EA9000030A90ED030A94E7000000000000B4436D
:10EAA00090ED040AD0ED0A0A20EE200AB5EEC00A65
:10EAB000F1EE10FA53DD90ED040AB5EEC00AF1EE66
:10EAC00010FA02DD90ED040A03E090ED040AB1EEC5
:10EAD000400AD0ED170AB4EEE00AF1EE10FA00D8C1
:10EAE000704790ED160AD0ED170A70EE200A90EDEF
:10EAF000040AB5EEC00AF1EE10FA02DD90ED040A48
:10EB000003E090ED040AB1EE400AF4EEC00AF1EE23
:10EB100010FA20DBD0ED160A90ED040AB5EEC00A1B
:10EB2000F1EE10FA02DD90ED040A03E090ED040A24
:10EB3000B1EE400A30EEC00AD0ED170A30EE200ADE
:10EB400090ED161AC0EE010A90ED070A20EE800A39
:10EB500080ED070A03E09FED030A80ED070A00BF7E
:10EB6000BEE700000000000090ED0B0AD0ED190A8E
:10EB700020EE200AD0ED0C0A90ED191AF7EE001ADB
:10EB800031EEC11A00EE810A80ED0B0A704790ED5C
:10EB9000030AD0ED020A30EE600AD0ED120A20EE30
:10EBA000200A80ED0B0A704790ED0A0AD0ED070AA3
:10EBB00030EE200A2E4981ED000A90ED090AD0EDD1
:10EBC0000A0A30EE200AD0ED0B0A30EE200A29495D
:10EBD00081ED000A91ED000AB5EEC00AF1EE10FADF
:10EBE00002DD91ED000A04E0224991ED000AB1EE48
:10EBF000400AD0ED150AB4EEE00AF1EE10FA0EDD8F
:10EC000090ED040AD0ED0A0A20EE200AB5EEC00A03
:10EC1000F1EE10FA03DD9FED180A80ED070A90ED82
:10EC2000140A1349D1ED000AB4EEE00AF1EE10FA2D
:10EC300007D29FED110A80ED070A90ED140A80EDCE
:10EC40000A0A90ED140AB1EE400A0949D1ED000A12
:10EC5000B4EEE00AF1EE10FA09DD9FED070A80ED4F
:10EC6000070A90ED140AB1EE400A80ED0A0A7047D7
:10EC700008050020040500200000000090ED0D0AAA
:10EC8000D0ED180A20EE200AD0ED0E0A90ED181AE9
:10EC9000F7EE001A31EEC11A00EE810A80ED0D0A7E
:10ECA000704790ED0D0AD0ED150AB4EEE00AF1EED2
:10ECB00010FA03DD90ED150A80ED0D0A90ED0D0AB6
:10ECC000D0ED150AF1EE600AB4EEE00AF1EE10FAAA
:10ECD00005D290ED150AB1EE400A80ED0D0A70479D
:10ECE00010B52DED028B0446B0EE408AF0EE608A3E
:10ECF0002046FAF76FF86A20005D38B12046216F90
:10ED000088479FED840ABDEC028B10BD84ED018A1B
:10ED1000C4ED028A94ED050A84ED060A94ED040A16
:10ED200084ED050A94ED010AD4ED020A30EE600A82
:10ED300084ED040A94ED040AB0EEC00AD4ED130A7F
:10ED4000B4EEE00AF1EE10FA7DDB207801286AD1FA
:10ED500094ED100AD4ED040A20EE200A84ED090A8D
:10ED600094ED110AD4ED040A20EE200A84ED070A7E
:10ED700094ED040AD4ED050A30EE600AD4ED120ACF
:10ED800020EE200A84ED0B0A94F83C0000F002000B
:10ED900010B1204600F0C0F894F83C0000F00300E9
:10EDA00010B12046FFF77CFE94F83C0000F0010013
:10EDB00010B12046FFF7EBFE94F83C0000F0040091
:10EDC00010B12046FFF7D0FE2046FFF7EDFE94ED90
:10EDD000110AB5EEC00AF1EE10FA08D094ED0A0A55
:10EDE000D4ED070A30EE200A84ED0A0A03E09FED15
:10EDF000490A84ED0A0A94ED090AD4ED0A0A30EEB4
:10EE0000200AD4ED0B0A30EE200A84ED0D0A94F8A6
:10EE10003C0000F0050010B12046FFF72FFF204610
:10EE2000FFF73FFF63E02078022860D194ED040AE9
:10EE3000D4ED050A30EE600AD4ED100A20EE200A67
:10EE400084ED090A00E04AE094ED110AD4ED040AC9
:10EE500020EE200A84ED0A0A94ED040AD4ED050A96
:10EE6000B0EE001A01EE600AD4ED060A30EE200A78
:10EE7000D4ED120A20EE200A84ED0B0A94ED090A63
:10EE8000D4ED0A0A30EE200AD4ED0B0A30EE200A47
:10EE9000D4ED0D0A30EE200A84ED0D0A00BF94ED8A
:10EEA0000D0AD4ED150AB4EEE00AF1EE10FA04DD15
:10EEB00094ED150A84ED0D0A10E094ED0D0AD4EDE1
:10EEC000150AF1EE600AB4EEE00AF1EE10FA05D28E
:10EED00094ED150AB1EE400A84ED0D0A07E09FEDAE
:10EEE0000D0A84ED0D0A9FED0B0A84ED070A94EDDF
:10EEF000020A84ED030A94ED0D0A84ED0E0A94EDE6
:10EF00000B0A84ED0C0A94ED070A84ED080A94EDCF
:10EF10000D0AF8E60000000090ED040AD0ED050AA5
:10EF200030EE200AB0EE001AC0EE010A90ED110A90
:10EF300020EE800A80ED070A7047B4EEE01AF1EE89
:10EF400010FA00D2704771EE601AB4EEC10AF1EE09
:10EF500010FA0ADD00BF30EE612AB0EE420AB4EECC
:10EF6000C10AF1EE10FAF6DC0EE0B4EEE00AF1EEC2
:10EF700010FA09D200BF30EE212AB0EE420AB4EEF8
:10EF8000E00AF1EE10FAF6D300BFDBE7014671EEBE
:10EF9000602AF0EE621AB0EE602A30EE423A0120AA
:10EFA0008840401E02EE900AF8EEE22A63EE222A22
:10EFB00082EEA13AFDEEC32A12EE900A70470000DD
:10EFC00030B5034613B94FF6FF7030BD09E013F8B2
:10EFD000014B82EA0400C0B2054D35F8100080EA0A
:10EFE0002222081EA1F10101F1D11046EDE7000037
:10EFF000CA20010830B5034605E013F8010B80EA8A
:10F0000002040448025D081EA1F10101F5D1104679
:10F0100030BD0000C91F010810B53D4890F8390007
:10F02000012809D13B48007830B93B4800683B498A
:10F03000086000203A490870354890F83900354991
:10F0400008703748007800BB314890F83900012833
:10F050001BD13148006831490968401AB0F5487F32
:10F0600013D99FED302ADFED2F1A9FED2E1ADFED19
:10F070002D0A9FED2C0A2C490120F3F738F80A20BD
:10F0800000F083F801202649087027482C3890F8B2
:10F090004D0098B91E48007880B19FED222ADFED1F
:10F0A000211A9FED201ADFED1F0A9FED1E0A1E494F
:10F0B0000120F3F71CF80A2000F067F81A482C38F2
:10F0C00090F84D00012821DD9FED162ADFED151A7D
:10F0D0009FED141ADFED130A9FED120A1249042066
:10F0E000F3F705F80A2000F050F89FED0E2ADFED47
:10F0F0000D1A9FED0C1ADFED0B0A9FED0A0A0A4963
:10F100000120F2F7F4FF0A2000F03FF810BD0000E4
:10F11000AC0C00203C0300205401002038030020E8
:10F120003D03002000000000EC09002000BFEFF3C9
:10F13000058008B1012070470020FCE7F4F7C8FE05
:10F14000FBF756F8F8F720FDF8F786FCF8F7DAFD3C
:10F15000F8F730FEF8F7F8FDF8F736FCF8F758FC4A
:10F16000F8F796FEF8F778FEF8F7AEFEF8F71DFC14
:10F17000F8F7BEFC00F023F800BFFEE701460020D0
:10F18000842901D0CA1C1044704770B50446254636
:10F190000DB1294600E00121084601F095F8002054
:10F1A00070BD70B505460C4626460EB1304600E0EF
:10F1B00001200146284601F0B5F8002070BD10B5C9
:10F1C00001F01AF9002010BD10B5FFF7AFFF10B124
:10F1D00001F03AFB10BD01F031FBFBE77FB50446BF
:10F1E0000D46606998B1A06988B1B4F90800FFF7CD
:10F1F000C5FF0646D4E90510CDE9006102902B4613
:10F200002269D4E9001001F0BBFA039013E0B4F9CD
:10F210000800FFF7B3FF064603A8CDE90060238A84
:10F220009AB22B46D4E9001001F078FA012802D0F6
:10F23000002004B070BD0398FBE7000010B52DED71
:10F24000028B0446072C1AD2DFE804F004070A0DEB
:10F25000101316009FED0F8A14E09FED0F8A11E046
:10F260009FED0E8A0EE09FED0E8A0BE09FED0D8A5A
:10F2700008E09FED0D8A05E09FED0C8A02E0BDECF1
:10F28000028B10BD00BFB0EE480A00F00FFC00BFBB
:10F29000F5E7000000D002441FD5124400D02444FA
:10F2A000719D2E445CFF434400005C4448F1764469
:10F2B0002DE9F04105460E461F48076800201F490A
:10F2C000096881F862001D480068001D00F0BCFE5E
:10F2D00050B91A48006890F82C100120884018494D
:10F2E0000968814316480160681C38B936B1134873
:10F2F0000168091D134800F0F1FE1AE07C190F485F
:10F3000000684460BC4207D20C480168091D0E48E1
:10F31000006800F0C9FE0CE008480168091D0B48B0
:10F32000006800F0C1FE0A480068844201D2084823
:10F330000460BDE8F0810000AC05002098050020C5
:10F34000B0050020FC170020A00500209C0500202F
:10F35000C805002010B5044600F0CCFE2348006824
:10F36000401C224908602248006840B920480460D7
:10F370000846006801280DD100F046F90AE01D4852
:10F38000006838B91A480068C06AE16A884201D842
:10F390001748046018480068401C1749086094F832
:10F3A0002C1001208840154909680843134908605A
:10F3B000E16A01EB8101124A02EB8100211D00F09C
:10F3C0008DFE00F0C1FE0B48006868B10848006877
:10F3D000C06AE16A884207D24FF08050094908604C
:10F3E000BFF34F8FBFF36F8F10BD0000A805002043
:10F3F00098050020B4050020C4050020B0050020B9
:10F400002017002004ED00E010B516E000F072FEB9
:10F410000C48C068C468201D00F016FE0A48006849
:10F42000401E0949086009480068401E07490860F5
:10F4300000F08AFE204600F00BF80448006800281F
:10F44000E4D110BDE8170020A8050020A405002085
:10F4500010B5044694F8610030B9206B00F092FEBC
:10F46000204600F08FFE1AE094F86100012803D1D5
:10F47000204600F087FE12E094F86100022801D1D6
:10F48000012000E0002050B900BF502080F3118817
:10F49000BFF34F8FBFF36F8F00BF00BFFEE710BDFC
:10F4A00030B54FF4C043174800F007042CB1C01D1D
:10F4B00020F00700134C041B1B1B0246124C226059
:10F4C0000024114D6C60D018083820F007000F4C54
:10F4D000206000240D4D2D686C600C4D2D682C6053
:10F4E0001146441A4C60094C24680C60084D4C6865
:10F4F0002C60084D4C682C604FF00044064D2C6089
:10F5000030BD000010180020D4050020DC050020CC
:10F51000E4050020E0050020F005002000BFFFF713
:10F5200073FF064800680128F9D94FF0805004495C
:10F530000860BFF34F8FBFF36F8FF0E720170020F5
:10F5400004ED00E02DE9F05F82460E4690469B46B2
:10F550000A9F0C9C4FEA8801A522206BF1F7F1FC71
:10F56000A8F10100216B01EB800929F0070909F0DE
:10F57000070008B9012000E0002050B900BF50206A
:10F5800080F31188BFF34F8FBFF36F8F00BF00BFB1
:10F59000FEE786B1002507E0715D04F134004155B6
:10F5A000705D00B902E06D1C202DF5D300BF002175
:10F5B0005320015502E0002084F83400072F00D3C7
:10F5C0000627E76267650020A065201D00F069FD41
:10F5D00004F1180000F065FD2461C7F10700A06187
:10F5E00064620020E06584F8600084F862005A4696
:10F5F0005146484600F050F920600B9808B10B982E
:10F600000460BDE8F09F000010B5002407E004EBA3
:10F6100084010F4A02EB810000F036FD641C072CC8
:10F62000F5D30C4800F030FD0B4800F02DFD0B48E1
:10F6300000F02AFD0A4800F027FD0A4800F024FDEA
:10F6400004480949086004480849086010BD0000E2
:10F6500020170020AC170020C0170020D41700206E
:10F66000E8170020FC1700209C050020A0050020C2
:10F6700010B50146164800E0006803688B42FBD3D2
:10F680000246436813448B4204D143684C682344C8
:10F69000436001460A464B6813440468A34211D1F3
:10F6A0000C4C03682468A34208D04B680468646863
:10F6B00023444B6003681B680B6005E0054B1B6827
:10F6C0000B6001E003680B60884200D0016010BD50
:10F6D000D4050020DC0500200A490968096809B939
:10F6E000012100E0002121B14FF0FF31064A1160F5
:10F6F00006E004490968C968C868034A416811609E
:10F70000704700009C050020C80500200E480068D6
:10F71000401C08B9012000E0002050B900BF502073
:10F7200080F31188BFF34F8FBFF36F8F00BF00BF0F
:10F73000FEE700BF502080F31188BFF34F8FBFF367
:10F740006F8F00BF00BFFEE7F40500202DE9F041F8
:10F7500004464FF0000800F0A7FE4948006808B9C9
:10F76000FFF79EFE474800682040002870D1D4B1C2
:10F77000083404F00700B0B104F00700C0F108003D
:10F78000044404F0070008B9012000E0002050B94B
:10F7900000BF502080F31188BFF34F8FBFF36F8FEE
:10F7A00000BF00BFFEE7002C52D0374800688442FB
:10F7B0004ED8364E3046056801E02E462D68686802
:10F7C000A04202D228680028F7D12D48006885425F
:10F7D0003ED0306800F10808286830606868001B77
:10F7E000102819D92F1907F0070008B9012000E0E7
:10F7F000002050B900BF502080F31188BFF34F8F15
:10F80000BFF36F8F00BF00BFFEE76868001B786022
:10F810006C603846FFF72CFF1B4968680968081AB6
:10F82000194908600846006819490968884203D2E6
:10F830001548006816490860124968680968084355
:10F8400068600020286013480068401C1149086067
:10F8500001F0A8F808F0070008B9012000E0002036
:10F8600050B900BF502080F31188BFF34F8FBFF312
:10F870006F8F00BF00BFFEE74046BDE8F08100008B
:10F88000DC050020F0050020E0050020D405002064
:10F89000E4050020E8050020001F4FF0807303609E
:10F8A000001F21F001030360001F054B03601438A3
:10F8B0000260001F6FF002030360203870470000F1
:10F8C0000DF7000808B50146002003E00A5C0DF8BA
:10F8D0000020401C0428F9DB9DED000A08BD000053
:10F8E00070B52DED028B6748807901280FD06648EE
:10F8F00080886649C988084400B2624948856248E0
:10F90000C08862498988084401B25E4881856048A0
:10F91000D0F80A0000EE100AB5EEC00AF1EE10FAB7
:10F9200004DD0121574880F8341003E000215548D8
:10F9300080F834105348C078800300B251494979A7
:10F94000022901D1012100E0002140EA41314D4866
:10F9500090F8320000F0010041EA00304D4989780A
:10F9600001F0010140EAC1204849498BC90B40EA36
:10F9700081204449097801F0070140EAC111464855
:10F9800090F8760100F0010041EA80113D4890F8BE
:10F99000340000F0010041EA0011404890F8E00016
:10F9A00000F0010041EAC0003B4991F8911101F0DB
:10F9B0000701084301B23348C185394890ED038AF5
:10F9C000B5EEC08AF1EE10FA01D2012000E000206D
:10F9D000054615B1B1EE480A01E0B0EE480AB0EEB6
:10F9E000408ABCEEC80A10EE100AC4B200EE104AFB
:10F9F000B8EE400A38EE400ADFED2A0A20EE200A6F
:10FA0000BCEEC00A10EE100AC6B215B144F0800078
:10FA100000E02046044646EA042001B21948018667
:10FA20001F4840682049C1F80A001D4890ED000AAF
:10FA3000B1EE400A10EE100AC1F80600184890ED29
:10FA4000030AB1EE400A10EE100AC1F80200124893
:10FA5000D0F87801C1F80E000A480078042803D0D5
:10FA600008480078032803D101200F49887402E078
:10FA700000200D4988740C48F8F792FABDEC028B0F
:10FA800070BD0000AC0C0020620500205A0E002062
:10FA90003805002078040020CC0A0020C00900208E
:10FAA000000700200000C8424D05002040F23F1131
:10FAB0004A1C00EE902AF8EE600A60EE800A9FED84
:10FAC0000D1AC1EE201AF7EE000A71EEE00AFCEE04
:10FAD000E00A10EE900A084A1268916200BF064AD6
:10FAE0001268D062044AD06000BF4208024B1B6813
:10FAF000DA637047A037A04C9013002010B500EED9
:10FB0000100A2DED028BB1EEC08A18EE100A20F01B
:10FB10000040C0F1FF40C00F0AD010EE100A20F0E4
:10FB20000040C0F1FF40C00F04BF0120F1F7DCFA34
:10FB300018EE100ABDEC028B10BD000010B5044891
:10FB4000F6F714F808210248F6F702FB10BD000092
:10FB50009013002010B5D74890F83A0001287DD1C5
:10FB6000D54890F82100002878D0D348007F00289D
:10FB70004CD1D248B0F9C20010F57A6F26DCCE48DD
:10FB8000806920B9F4F792F9CB4988613EE0F4F737
:10FB90008DF9C9498969401AC82837D3C74890EDFB
:10FBA000340AC74880ED020A9FEDC61ADFEDC50A88
:10FBB0009FEDC40AC4490020F8F7F0FE0120BE49B9
:10FBC000087700208861FDF7F3FD1FE0BA4890ED4B
:10FBD000020ADFEDBE0A30EE600A80ED020AB74885
:10FBE000B0F9C40001EE900AF8EEE11AB0EE611A25
:10FBF000B248D0ED341AF0EE610AAF48D0ED021AE7
:10FC0000B0EE610AB0490120F8F7C8FEAA48407F6B
:10FC100028BBAA48B0F9EE0010F57A6F28DCA64898
:10FC2000006920B9F4F742F9A349086141E0F4F70B
:10FC30003DF9A1490969401AC8283AD39F4890ED77
:10FC40003F0A9F4880ED000A9FED9E1ADFED9D0A56
:10FC50009FED9C0A9C491031002001E0C5E028E09E
:10FC6000F8F79CFE0120944948770020086120E0C5
:10FC7000914890ED000ADFED960A30EE600A80EDC3
:10FC8000000A8E48B0F9F00001EE900AF8EEE11A91
:10FC9000B0EE611A8948D0ED3F1AF0EE610A86484D
:10FCA000D0ED001AB0EE610A874910310120F8F753
:10FCB00075FE8148407F78B37F48807F60BB7F4876
:10FCC000B0F9EE00B0F57A6F27DB7B48406920B9C8
:10FCD000F4F7ECF87849486140E0F4F7E7F8764942
:10FCE0004969401AC82839D3744890ED3F0A7448CE
:10FCF00080ED010A9FED731ADFED720A9FED710A24
:10FD0000714910310020F8F749FE01206A498877CF
:10FD100000204861FDF74CFD20E0674890ED010AA6
:10FD2000DFED6B0A30EE200A80ED010A6348B0F97E
:10FD3000F00001EE900AF8EEE11AB0EE611A5F48A9
:10FD4000D0ED3F1AF0EE610A5B48D0ED011AB0EE3B
:10FD5000610A5D4910310120F8F720FE5648C07F46
:10FD6000002842D1534890F8380001283ED152492A
:10FD7000C87700214F4880F8321000204D4981F8A3
:10FD800038004D4890ED030A4C4880ED5A0A9FED2B
:10FD90004D1ADFED4C0A9FED4B0A00F59C710020D7
:10FDA000F8F7FCFD9FED471ADFED460A9FED450A87
:10FDB000454920390020F8F7F1FD9FED421ADFEDAB
:10FDC000410A9FED400A404940390020F8F7E6FD1E
:10FDD0009FED3C1ADFED3B0A9FED3A0A3A49303974
:10FDE0000020F8F7DBFDFDF7E3FC61E0314890F817
:10FDF000320001285CD12F4890F83800F0BB2E4823
:10FE000090ED030ADFED330A30EE600A80ED030A5D
:10FE10002A48B0F9980001EE900AF8EEE11AB0EE27
:10FE2000611A2648D0ED281AF0EE610A2248D0ED7A
:10FE3000031AB0EE610A244910390120F8F7AEFD2B
:10FE40001E48B0F96C0000EE100AB8EEC00AF0EEE1
:10FE5000400A9FED1C1A9FED200A1B492039012002
:10FE6000F8F79CFD1548B0F9140000EE100AB8EE42
:10FE7000C00AF0EE400A9FED131A00E018E09FED73
:10FE8000160A114940390120F8F788FD0B48B0F9EE
:10FE9000400000EE100AB8EEC00AF0EE400A9FEDF6
:10FEA000091A9FED0D0A084930390120F8F776FD4F
:10FEB00010BD0000AC0C0020880C0020CC0A0020F3
:10FEC0006C0C002000000000140C00200AD7A33C9A
:10FED0000AD7233D8FC2F53C00007A442DE9F0415A
:10FEE00004460D4616461F462560A6800020E08089
:10FEF000F3F7DCFFA060A068206167610120207338
:10FF0000FFF71CFE2878FFF799F9BDE8F0810000A3
:10FF1000002002490968C863704700009013002060
:10FF200000B5024600201073FFF7F2FF00BDB0EEEF
:10FF3000401A30EEC10AF0EE401AB0EE412A00EE4F
:10FF4000100AB8EEC00A60EE212A01228A40521E31
:10FF500000EE102AB8EEC03A82EE830A30EE020AB2
:10FF6000704700001C48C07FA0B31B48407F88B387
:10FF70001948807F70B31848007F58B3174890ED38
:10FF8000020AF0EE080A30EE200A154880ED000A59
:10FF9000124890ED020ADFED130A30EE200A1048F5
:10FFA00080ED010A0D4890ED000AF2EE040A30EEF1
:10FFB000200A0B4880ED020A084890ED010AF0EE95
:10FFC000000A30EE600A064880ED030A012002496B
:10FFD00081F8200070470000880C00206C0C002085
:10FFE000780C00200000964270B50446207B00B9D2
:10FFF00070BDF3F75BFF0546606940B12069281AC0
:020000040801F1
:100000006169884203D32046FFF78AFFF0E7A068C2
:100010002E1AE188206800EB81004088B04211D898
:10002000E088401CE080E088A188884203DB20460D
:10003000FFF776FFDCE7A560E288216811F822006F
:10004000FFF7FCF800BFD3E701460A69D1E90130A8
:100050009860D1E9010358605068884201D18868EE
:100060005060002008611068401E106010687047E2
:10007000034B0360034B0B604FF4807313607047B6
:10008000840E0020E80E002000F1080141604FF0CE
:10009000FF31816000F10801C16001610021016050
:1000A000704700210161704710B502460B685C1C67
:1000B0000CB9106907E002F1080000E040684468EC
:1000C00024689C42FAD944684C604C68A1608860FE
:1000D00041600A611468641C146010BD42684A6083
:1000E00093688B60936859609160086103685B1C3A
:1000F0000360704700BF502080F31188BFF34F8F1B
:10010000BFF36F8F00BF0E480068401C0C490860A9
:1001100008460068012812D10A480068C0B208B930
:10012000012000E0002050B900BF502080F311886A
:10013000BFF34F8FBFF36F8F00BF00BFFEE7704765
:10014000F405002004ED00E00D48006850B900BF40
:10015000502080F31188BFF34F8FBFF36F8F00BF24
:1001600000BFFEE706480068401E054908600846D3
:10017000006820B9002080F3118800BF00BF7047DD
:10018000F405002070B506463546002E44D0083DE3
:100190002C46224960680968084008B1012000E047
:1001A000002050B900BF502080F31188BFF34F8F5B
:1001B000BFF36F8F00BF00BFFEE7206808B90120C2
:1001C00000E0002050B900BF502080F31188BFF339
:1001D0004F8FBFF36F8F00BF00BFFEE70F4960680E
:1001E00009680840C0B12068B0B90C496068096866
:1001F0008843606000F058F909496068096808445C
:10020000074908602046FFF733FA06480068401C9B
:100210000449086000F0C6FB70BD0000F005002036
:10022000E0050020EC05002000204FF0E0210861EF
:100230008861064800684FF47A71B0FBF1F0401E07
:100240004FF0E021486107200861704794050020C5
:1002500070B5F0F769F80446102C16D304F1E020CD
:1002600090F8F05315480078854201DB012000E04A
:10027000002050B900BF502080F31188BFF34F8F8A
:10028000BFF36F8F00BF00BFFEE70D48006800F4AA
:10029000E0600C490968884201D8012000E0002094
:1002A00050B900BF502080F31188BFF34F8FBFF3C8
:1002B0006F8F00BF00BFFEE770BD0000F805002093
:1002C0000CED00E0FC05002070B504460025D4B11B
:1002D0001248006808B9012000E0002050B900BFB2
:1002E000502080F31188BFF34F8FBFF36F8F00BF93
:1002F00000BFFEE700F0D8F800212046FEF7D8FF47
:1003000000F050FB05463DB94FF0805004490860AD
:10031000BFF34F8FBFF36F8F70BD0000D00500207B
:1003200004ED00E02DE9F04704460F464FF00009C8
:1003300054B900BF502080F31188BFF34F8FBFF333
:100340006F8F00BF00BFFEE70FB1012000E000206B
:1003500050B900BF502080F31188BFF34F8FBFF317
:100360006F8F00BF00BFFEE72048006808B901207A
:1003700000E0002050B900BF502080F31188BFF387
:100380004F8FBFF36F8F00BF00BFFEE700F08CF808
:10039000174806682068C5192068B04207D9206848
:1003A000A8420BD9B54209D94FF0010906E02068EF
:1003B000A84201D8B54201D94FF001092560B9F131
:1003C000000F03D0A81B0021FEF772FF00F0EAFA2D
:1003D0008046B8F1000F07D14FF080500549086002
:1003E000BFF34F8FBFF36F8FBDE8F087D0050020BC
:1003F000AC05002004ED00E010B586B000200590AB
:10040000049003AA04A905A8FFF732FE0022DDE943
:1004100004101346CDE9002102901CA11D48039A47
:1004200000F0AEF91C4908600846006808B10124D4
:1004300000E00024012C15D100BF502080F311886A
:10044000BFF34F8FBFF36F8F00BF4FF0FF301349E3
:10045000086001201249086000201249086000F07D
:10046000A9F810E0601C08B1012000E0002050B99C
:1004700000BF502080F31188BFF34F8FBFF36F8F01
:1004800000BF00BFFEE706B010BD000049444C4568
:10049000000000001DF50008CC050020C805002064
:1004A000B4050020AC05002002480068401C01494A
:1004B00008607047D00500201D48006818B1012071
:1004C0001C49086032E000201A4908601A48006898
:1004D000B0FA80F0C0F11F0101EB8100174A52F819
:1004E000200008B1012000E0002050B900BF5020DA
:1004F00080F31188BFF34F8FBFF36F8F00BF00BF32
:10050000FEE701EB81020D4B03EB8200426852686B
:10051000426000F108024368934202D14268526887
:1005200042604268D268064B1A6000BF7047000004
:10053000D0050020BC050020B005002020170020B9
:100540009805002070B505460C4600260DB1022C1A
:1005500001D8002070BDA11E094802882846FEF778
:100560002FFD0646F1B2A01E285C814206D1601E16
:10057000285CB0EB162F01D10120EBE70020E9E762
:100580000005002070B505460C4600260DB1022C72
:1005900001D8002070BD611EFF222846FEF72AFD0B
:1005A0000646601E285CB04201D10120F2E700201F
:1005B000F0E700001CB5524800685249884201D05B
:1005C000012000E0002050B900BF502080F31188C6
:1005D000BFF34F8FBFF36F8F00BF00BFFEE74848E8
:1005E00000684849491E884201D0012000E00020EF
:1005F00050B900BF502080F31188BFF34F8FBFF375
:100600006F8F00BF00BFFEE73F49084600780190AA
:10061000FF200A4610700846007800909DF8000000
:1006200000F0F0009DF80020904201D1012000E090
:10063000002050B900BF502080F31188BFF34F8FC6
:10064000BFF36F8F00BF00BFFEE79DF8000000F012
:1006500050002E4A107007202D4A106009E02C48E7
:100660000068401E2A4A10609DF800004006000EF7
:1006700000909DF8000000F080008028EFD0244812
:100680000068C0F10700042801D1012000E000202B
:1006900050B900BF502080F31188BFF34F8FBFF3D4
:1006A0006F8F00BF00BFFEE7194800680002184ABC
:1006B00010601046008800F4E0601060124A019853
:1006C00010700F482030006840F470000C49203151
:1006D00008600846006840F070400860FFF7A4FD1D
:1006E00000200C490860EFF7E7FD0B48006840F078
:1006F000404009490860EFF7CBFD00201CBD000019
:1007000000ED00E071C20F4100E400E0F8050020B8
:10071000FC050020F405002034EF00E02DE9FF4F38
:1007200085B0804689461746DDE912ABB800FFF771
:100730000DF8064656B16420FFF708F804460CB1E0
:10074000266304E03046FFF71DFD00E000248CB175
:10075000002084F86100CDE900ABCDE902403A46C3
:1007600049464046089BFEF7EDFE2046FEF7F2FDA7
:10077000012501E04FF0FF35284609B0BDE8F08FB4
:100780002DE9F04F85B00746884691469A46DDE947
:100790000EB6109C0EB1012000E0002050B900BF41
:1007A000502080F31188BFF34F8FBFF36F8F00BFCE
:1007B00000BFFEE70CB1012000E0002050B900BFEF
:1007C000502080F31188BFF34F8FBFF36F8F00BFAE
:1007D00000BFFEE7642003900398642801D1012044
:1007E00000E0002050B900BF502080F31188BFF313
:1007F0004F8FBFF36F8F00BF00BFFEE700BFB4B1E4
:10080000AEB125462C462E63022085F861000020FB
:1008100004A953464A46CDE900B1CDE9025041460C
:100820003846FEF78FFE2846FEF794FD01E00020D3
:100830000490049805B0BDE8F08F000001490868F5
:1008400070470000AC05002070B5FFF701FD0025E2
:1008500001480468204670BDAC0500202DE9F04138
:100860004FF000084448006800287CD143480068E5
:10087000451C4248056015BB41480068006808B93E
:10088000012000E0002050B900BF502080F3118803
:10089000BFF34F8FBFF36F8F00BF00BFFEE7384835
:1008A00007683848006836490860364807603648A7
:1008B0000068401C34490860FEF70EFF00BF334853
:1008C000006885423CD300BF2D480068006808B925
:1008D000012000E0002020B14FF0FF302B490860DC
:1008E0002DE027480068C068C4686668B54202D237
:1008F0002648066023E0201DFFF7A6FBA06A18B17A
:1009000004F11800FFF7A0FB94F82C100120884098
:100910001F49096808431E490860E16A01EB81012B
:100920001C4A02EB8100211DFFF7D8FB1A49E06A3F
:100930000968C96A8842C7D34FF00108C4E700BFFD
:1009400015480068C06A00EB8000124951F8200089
:10095000012801D94FF001081048006808B14FF094
:10096000010805E0FFE70E480068401C0C490860DC
:100970004046BDE8F0810000D0050020AC05002015
:100980009C050020A0050020C0050020C80500200F
:10099000B00500202017002098050020BC0500208D
:1009A000B805002070B5002400263648006850B90C
:1009B00000BF502080F31188BFF34F8FBFF36F8FBC
:1009C00000BF00BFFEE7FFF795FB2E480068401E02
:1009D0002C4908600846006800284FD12A48006862
:1009E00000284BD024E02948C068C46804F11800EE
:1009F000FFF72AFB201DFFF727FB94F82C1001209E
:100A0000884023490968084321490860E16A01EBED
:100A10008101204A02EB8100211DFFF75FFB1E4987
:100A2000E06A0968C96A884202D301201B4908604C
:100A30001648006808B9012000E000200028D2D044
:100A40000CB1FEF749FE1648056865B100BFFFF717
:100A500005FF10B10120114908606D1E002DF6D16F
:100A600000200F4908600D48006838B101263007A2
:100A70000C490860BFF34F8FBFF36F8FFFF764FB24
:100A8000304670BDD0050020A8050020D4170020F6
:100A9000B00500202017002098050020BC0500208C
:100AA000B805002004ED00E021F00042A2F1605200
:100AB000B2F5801F01F0004328BFD2F17E6C51D9FE
:100AC000F1EE10CA1CF4400F14D15FEAC00C43EAE7
:100AD000C20202EB507008BF70475FEA4C0C40F155
:100AE0000000DFF880C240F0AB8628BF20F0010094
:100AF00000F0A6BEC30001F0004343EAC20202EBCD
:100B0000507008BF70471B4248BF4FEA4C0C1CF4A2
:100B1000000F08BF401CDFF84CC200F091BEC300BC
:100B200001F0004343EAC20202EB507204BF1046D8
:100B300070471B4248BF4FEA4C0C1CF4000FDFF813
:100B400024C218BF104640F07B8608BF521C12F426
:100B5000000F08BF104600F0738621F0004201F03C
:100B6000004330E050EA410C04BF084670475FEA9A
:100B7000125CBCF1FE0F1ED1F1EE10CA1CF4400F46
:100B8000CDD15FEAC00C9BD05FEA001C4FEAC20CDB
:100B90004CEB507C04BFC2002CEAD27C1CF4000F4A
:100BA00004BF4CEA0300DFF8BCC100F0498621F025
:100BB0000042A2F16052B2F5801F4FEA410C2ADBDD
:100BC0001CF5001F16D2F1EE10CA1CF4806F06D07F
:100BD0002CF0005C4CF0805CA1F140612AE04FF009
:100BE0007F40DFF884C143EA500000F029BE084688
:100BF00001F087B870B500F027FB00BF000000B916
:100C000088000004FFF7F3BF21F0704243EA507000
:100C100040EAC2007047F1EE10CA2CF0805C4CF044
:100C2000005C1CF4006F25D04B00B3F5001F51D3BE
:100C300001F140611CF4400F40F07E800CF0405CFC
:100C4000C3004CF0880C11D05CF0404C10F0805F79
:100C50000CD0034610F1005041F10001020108BF21
:100C600020F00050834218BF2CF0004C00F0604090
:100C700001F043B91CF4400F1AD01B4248BF4FEAA1
:100C80004C0C1CF4000F13D112F1406248BF22F04B
:100C90007F424FEAC00CBCF1010F43EAC20242EBB3
:100CA00050704FF0880228BF42F0804201F02EB809
:100CB00012F1406248BF22F07F425FEAC00C43EA73
:100CC000C20242EA50704FF0880218BF42F0404220
:100CD00001F01CB801F0004321F00041094214D09A
:100CE000B1FA81FCACF10B0CCCF1200201FA0CF151
:100CF00020FA02F241EA02014FEA0C5200FA0CF02B
:100D0000A1EB020181EA03010FE0B0FA80F200FAE0
:100D100002F002F115024FEAD0214FEA0252A1EB94
:100D200002014FEA405081EA0301F1EE10CA2CF0B3
:100D3000805C4CF0005C7BE762460CF0405CC300DA
:100D40004CF0880C92D05CF0404C094248BF5200F5
:100D500012F4000F8AD110F1005041F100012CF083
:100D6000004C83D1880000408800001010B5DFF8E7
:100D700040E211F5801C13F580141EEA4C0F18BFD9
:100D80001EEA440F00F0C88091EA030F48BF83F0C9
:100D9000004300F15E83841A71EB030C05D2121933
:100DA00043EB0C03001B61EB0C014FEA1154A4EB65
:100DB000135C23EA6E0321EA045143F48013DCF14F
:100DC000200E53D322FA0CFE10EB0E0023FA0CFE79
:100DD00041EB0E01CCF1200E03FA0EFE10EB0E00DB
:100DE00051F10001B1F5801FCCF1200E53D201EB7F
:100DF000045112FA0EF2BDE8104008BF7047F1EE40
:100E000010CA1CF4400F1ED14FF0110C92F0000FCD
:100E10004CF0804C40F11485401C38BF5FEA420220
:100E200040F00E85002814BF20F0010041F10001C0
:100E30004FEA410313F5001F24BF4CF0805CA1F181
:100E4000C04100F0FDBC11F0004F54BF1CF4000F76
:100E50001CF4800F4FF0110C4CF0804C40F0F084EB
:100E6000401CC0F0ED8441F10001E1E7012A43EBB1
:100E70000302ACF1200CDCF11F0E32BF4FF0000E6C
:100E800023FA0CF310EB030041EB0451B4EB115FB8
:100E9000AFD0A1EB045101F5801149085FEA3000A1
:100EA00002FA0EF242EA420201EB04515FEA320218
:100EB00013D0BDE81040F1EE10CA1CF4400F1AD157
:100EC0004FF0110C92F0000F4CF0804CB0D5401C4C
:100ED00038BF5FEA4202ABD1A4E7BDE810404FEA59
:100EE000410313F5001F38BF7047DFF8C8C0A1F1F8
:100EF000C04100F0A5BC11F0004F54BF1CF4000F1E
:100F00001CF4800F4FF0110C4CF0804C90D1401C21
:100F10008ED341F100018BE74EF4001E3EEA4104FE
:100F200018BF3EEA430439D091EA030F48BF83F06B
:100F3000004300F18983841A71EB030C05D2121966
:100F400043EB0C03001B61EB0C0152EA430E4FEA2A
:100F50001154A4EB135C13D05FEA445E21EA045100
:100F60001CBF23F00043ACF1010C7FF428AFBDE8B7
:100F700010404FF0110C801841EB030100F04BBB07
:100F80005FEA445EBDE8104018BF704750EA410C6C
:100F900008BF70474FF0110C00F03DBBBDE810409A
:100FA00070B500F051F900BF64FBBE3E11000004B3
:100FB0000000C0FF11000010491058BFC1F14041AE
:100FC0005B1058BFC3F140438B42EFF30080704782
:100FD000B1FA81F201FA02F1C2F11D024FEA415069
:100FE00003EB025303EBD1217047B0FA80F310FA00
:100FF00003F10AD0C3F11D0303F580634FEA4150AA
:101000004FEA035202EBD12170474FF000007047C6
:1010100051EA030C11D41CF5801F00F1068099429F
:1010200018BF704708BF9042704711F5801F58BF26
:1010300013F5801F18D4994270471CF5801F09D5FD
:1010400050EA410C0EBF52EA430C8B42704708BF76
:10105000824270474FF4001C1CEB410F38BF1CEB61
:10106000430F01D28B42704770B500F0EDF800BF1E
:101070000000003F19001604FFF79EBF4FF000511B
:101080004FF08053FFF798BFDFF8B4C170B51CEA8A
:10109000111E1EBF1CEA13159EEA0C0F95EA0C0FD9
:1010A00000F0948081EA030421EA4C114EEAD47ED8
:1010B00023EA4C13AE4441F4801143F48013A1FBA6
:1010C000024CA0FB0365AEF17F7E361955EB0C0593
:1010D000A1FB034C4CF10003A0FB021C16EB0C0619
:1010E000654153F10003094218BF46F0010613F4AD
:1010F000007F0BD14FEA03314FEA0530340341EA58
:10110000155140EA16506FF003020AE04FEAC3217E
:101110004FEAC520F40241EA555140EA56506FF0BB
:101120000202264602EB2E4201EB025585EACE7101
:1011300027D0F1EE10CA05461CF4400C14D15FEA2A
:10114000440C18BF24F0004450F1000041F10001AC
:1011500020EAD47040F2FD7C624517D2BDE87040B1
:10116000DFF8E0C000F06CBB5FEACE7454BF1CF443
:10117000000F1CF4800F08BF10F1010041F10001C5
:10118000E8E740F2FE7C624504D270BD08BF11F46E
:10119000801FE3D0A84214BF4FF080444FF040447A
:1011A000002E08BF0024BEF1806FD8BF01F1C041FE
:1011B000A8BFA1F1C04144F0130CA8BF4CF0805C63
:1011C000BDE8704040F37E8200F03ABB9EEA0C0F0F
:1011D0000CEA131518BF95EA0C0F19D091EA030F0A
:1011E00048BF4EF0010E50EA410418BF52EA4304D2
:1011F00009D000F0AAF8641986EA46064FEA044EC0
:101200004EEAD67E5BE74FEACE714FF0000070BD2C
:1012100000F01AF88900013E1300000400F005B840
:1012200000F007B852EA430C06D081EA030100F04F
:10123000C4B850EA410CF8D15FF824C000F000BBFC
:101240000000FF07130000400EF1020E2EF0030E07
:1012500001285EF8086B41EB010414F5001418BF77
:10126000B4F5801F23D3364208D4012A43EB03058B
:1012700015F5001518BFB5F5801F18D301EB010C4B
:101280001CF5801F16D2364204D403EB030C1CF568
:10129000801F0FD2002C10D14FEAD17C002D0CEB17
:1012A0004C0C0CF1020C08BF4CEBD37C07E04FF068
:1012B000090C04E04FF0080C01E04FEAD37C0CEB82
:1012C0004C0526FA05F606F00706B6F1040C06D220
:1012D0000EEB860CBDE870404CF0010C6047DFE877
:1012E0000CF0222413025EF804CC1B2D08D1002C34
:1012F00088BFB4F5801F34BF4CF4804C4CF4004CD4
:10130000BDE8704000F09CBA002C88BFB4F5001F07
:1013100024BF1946104670BD4FF000004FF0004149
:10132000A1F5002170BD19461046012851EB0104BA
:1013300018BFD4F5001484BF5EF804CC2CF0806C88
:10134000BDE8704000F25B82704780B54FF0030645
:101350005C004FEA03334FEA3606640D4FEA13335D
:1013600018BF43F480131CD153EA125E04F1010448
:1013700002BF13460022203C1B4202BF130B120582
:10138000143CB3FA83FEAEF10B0ECEF1200C03FA3F
:101390000EF322FA0CFC02FA0EF2A4EB0E0443EA5E
:1013A0000C030FB416F0010F0CBC03BC18BF25468C
:1013B000CED180BD80B50126F3E70808A0F5001165
:1013C0004FEA3101704753EA010C11D41CF5801F1C
:1013D00000F106808B4218BF704708BF82427047F9
:1013E00013F5801F58BF11F5801F18D48B4270472A
:1013F0001CF5801F09D552EA430C0EBF50EA410C80
:101400009942704708BF904270474FF4001C1CEB94
:10141000430F38BF1CEB410F01D2994270470FB404
:101420000CBC03BCFFF720BE10B5DFF894E211F549
:10143000801C13F580141EEA4C0F18BF1EEA440FDF
:1014400000F0F38091EA030F48BF83F000433FF5BB
:10145000A2AC841A71EB030C07D212198CF0004C69
:1014600043EB0C03001B61EB0C0152424FEA115499
:10147000A4EB135C23EAAE0321EA0451C3EBAE03F1
:1014800038BF5B1EDCF1200E48D322FA0CFE10EBB5
:101490000E0043FA0CFE41EB0E01CCF1200E03FAD4
:1014A0000EFE10EB0E0051F10001CCF1200E4CD4D9
:1014B00012FA0EF201EB0451BDE8104008BF70476C
:1014C000F1EE10CA1CF4400F14D14FF0120C92F040
:1014D000000F4CF0804C40F1B381401C18BFB2F1BA
:1014E000004F40F0AD8100280CBF491C20F00100E6
:1014F00000F0A6B911F0004F54BF1CF4000F1CF40B
:10150000800F4FF0120C4CF0804C40F09981401C41
:1015100040F0968141F1000100F092B912EB020E09
:1015200043EB030218BF4FF0010E4EEA4202ACF14A
:10153000200CDCF11E0E4BD943FA0CFE10EB0E0012
:1015400051F1FF31CCF11E0EB2D50EF1010E12FA9F
:101550000EFE404141EB010101EB445C5FEA5C5C43
:1015600006D95FEA0E0201EB0451BDE81040A5E781
:101570003BD24FEAD42C11F5001124F400641AD0A8
:10158000B1FA81F20B3AA41AA41ED2F120039140C1
:1015900030FA03F31943904001EBCC71002C01EBBE
:1015A0000451BDE81040A8BF704701F1C0414FF0A1
:1015B000120C00F087B8B0FA80F310FA03F101D1F1
:1015C000BDE8104019D0E41A173C4805C90AE3E702
:1015D00001EB0451BDE81040401E61F100015FF0D5
:1015E000FF326BE701EB045110BD491001EB0451D0
:1015F000BDE810404FEA30000BE0F1EE10CA4FF0AA
:1016000000010CF4400CBCF5000F08BF4FF0004186
:1016100070474FF0120C4A0008BF0042EDD0B2F5FF
:10162000001F28BF704700F0EAB84EF4001E3EEAE3
:10163000410418BF3EEA430434D091EA030F48BF87
:1016400083F000433FF577AC841A71EB030C07D2AB
:1016500012198CF0004C43EB0C03001B61EB0C01E6
:1016600052EA033E4FEA1154A4EB135C14D05FEA34
:10167000445E21EA045109D023F000435242ACF108
:10168000010CC3F1000338BF5B1EFBE6BDE8104050
:10169000801A61EB0301BCE7BDE8104050EA410C41
:1016A000B7D1AAE7BDE8104070B5FFF7CDFD00BF88
:1016B00040DFF63E1100000483F000411046704701
:1016C0000000C0FFF1EE103A13F0807F1EBF01F062
:1016D00000410020704713F4006F40F0AA800942D7
:1016E00048BF4CF4803C4FF4C0634FEA115203F101
:1016F000010321EA025122F400629A1A48BF6FF0F6
:10170000FE0241F48011352A3CD830D0152A1ED370
:10171000203A0CD90028C2F1200321FA02F001FA84
:1017200003F218BF42F001024FF0000130E0C2F1B5
:10173000000302F1200201FA03F120FA02F241EA69
:10174000020100FA03F208464FF0000120E0C2F166
:10175000200310B400FA03F401FA03F320FA02F0B4
:1017600021FA02F1224610BC43EA000010E050EAE0
:1017700001324FF000004FF000014FF0004218BF5F
:10178000521C05E04FF001024FF000014FF0000045
:101790001CF4803F2CF4803C18BF41F00041124201
:1017A0001ED0F1EE103A13F4400F20D1520003D3B3
:1017B0000CD0401C41F10001F1EE103A4CF0804C8D
:1017C00043F00803E1EE103A00F03AB85FEAAC7279
:1017D000EFD4F1D1401C41F1000120F00100EBE712
:1017E0001CF0804F08BF70472CF0004CE4E7094222
:1017F00054BF13F4000F13F4800FDDD1D9E7F1EEDD
:10180000103A13F0807F1EBF01F0004100207047A6
:1018100013F4006F08BF70472DE9F050FFF7CAFDC1
:1018200004F5C064A4F10104314301EB0451BDE8A7
:10183000F0504CF0005C4CF0800C00F05EBB0000FF
:101840001CF0700F08BF0A460FB4F1EE101A0CF02E
:10185000405030EA814318BF4CF0804C4FEA4C03B3
:1018600010EA814F4FEAD36323EA112318BF23F014
:10187000100341EA030101F0E073E1EE101A4CEAB3
:10188000030C0CF00F030A2B1DBF082B0CF0700388
:101890004CEAC30C4FF4003304BF33EA0C034CF49E
:1018A000400C1CF0005F14D11CF0805F0BD11CF0C9
:1018B000804F31D11CF0006F12D111F4807F0FBC2A
:1018C00062D000F01ABB11F4806F0FBC2BD000F077
:1018D00014BB11F4006F0FBC08BF704700F00DBBC4
:1018E00011F4007F0FBC40F008831CF0400F1EBFB6
:1018F0004FF0004040F0010070471CF0100F14BF83
:1019000081EA030242400CF00F000A2808BF4FF0A2
:10191000FF324FF0000326E011F4805F0FBC08BFD8
:10192000704700F0EABAF1EE103A2CF0805C1CF03F
:10193000800F14BF01F0004200F0004212420CBFC1
:1019400012EA336F12EAF35F0DD31CF0100F1DBFC4
:1019500030A003C81143314808BF104313F4805F1F
:1019600040F0CB8270471CF0100F02F000421DBF08
:101970000FF2940003C81143254808BF104313F425
:10198000805F40F0BA8270471CF0400F40F0288022
:101990001CF4404F1BD01CF4004F1CBF19461046CE
:1019A0000CF4807218BF8CEA520C1CF0800F0CBF34
:1019B00040F4800041F400218CEADC0313F0100FA6
:1019C0001CBF2CF00F0C4CF0080C00F03DBA1CF0C2
:1019D000100F1ABF12A393E80300134800F034BAA3
:1019E0001CF0800F14BF01F0004200F000421CF018
:1019F000100F1BBF0AA393E803000B48114308BF55
:101A0000104300F021BA00BF000000000000F07F8A
:101A10000000807FFFFFFFFFFFFFEF7FFFFF7F7F63
:101A2000000000000000F87F0000C07F43004FEA84
:101A3000D30C4FEA3C0C43401FBF40070CF16051F0
:101A400013F0FE4F70471CF0006F14D133F00040CC
:101A500004BF1946704783EA830383EA430303F014
:101A6000070343EACC010CF0004303F15A5303F59A
:101A70004013FFF7ADBA0CF0004343EA507010B5C5
:101A800040EACC0000F00FF8000000BA1800000493
:101A90004FEA0001FFF791BC4FEAE0024FEA4070C5
:101AA00042F0E04170470EF1020E2EF0030E4FEAB5
:101AB00040025EF8084B12F1807218BFB2F5000FB9
:101AC00022D3244207D44FEA410313F1807318BF95
:101AD000B3F5000F18D34FEA400C1CF5000F16D2D7
:101AE000244204D44FEA410C1CF5000F0FD2002A07
:101AF00010D14FEAD07C002B0CEB4C0C0CF1020CFB
:101B000008BF4CEBD17C07E04FF0090C04E04FF02C
:101B1000080C01E04FEAD17C0CEB4C0324FA03F4EF
:101B200004F00704B4F1040C06D20EEB840CBDE8FB
:101B300010404CF0010C6047DFE80CF01F2013024E
:101B40005EF804CC1B2B08D1002A88BFB2F5000F29
:101B500034BF4CF4804C4CF4004CBDE81040FFF70F
:101B60006FBE002A88BFB2F1807F28BF084610BD33
:101B70004FF00040A0F5800010BD0846420018BF9D
:101B8000D2F1807284BF5EF8042C22F08062BDE83E
:101B9000104000F23A81704710B412F47F0F4FEA00
:101BA00000204FEA012110D1B0FA80F400FA04F0CD
:101BB000A2EB044213F47F0F02F5803218BF41F00C
:101BC000004100D010BC18BF604740F00040B1FA9F
:101BD00081F401FA04F1A3EB044310BC03F5803354
:101BE00060474FF00000E1EE100A70474FF07F4C65
:101BF0003CEA410318BF3CEA400200F06B804FF41E
